:020000040000FA
:04034000B9EF10F011
:08034800056ED8CF06F0E95064
:10035000076EEA50086EE150096EE2500A6ED950FD
:100360000B6EDA500C6EF350146EF450156EE050B4
:100370000D6E000100500F6E0150106E0250116E94
:100380000350126E0450136EA0A0CAEF01F0A1B08A
:1003900012EF02F0F2A8D0EF01F0F2B2EBEF02F0B0
:1003A0000F50006E1050016E1150026E1250036E0D
:1003B0001350046E0D50E06E0D8E0750E96E08501C
:1003C000EA6E0950E16E0A50E26E0B50D96E0C5085
:1003D000DA6E1450F36E1550F46E055006C0D8FF57
:1003E0001000F2CF0EF0F29EF76AFC0FF66E030ECD
:1003F000F7220900F5500EBEF28E1200FF0A0A26FF
:100400004B4B4B1CF2CF0EF0F29EF76A1E0FF66EAE
:10041000040EF7220900F5500EBEF28E12003132A2
:1004200033343500A190BCCF75F0BBCF74F0539836
:1004300081B4538881A25BD090A751D06C50705C7E
:10044000006E6D507158036E00C091F003C092F0C1
:100450007050745C006E71507558036E00C093F05C
:1004600003C094F09451925D17E303E19151935DC1
:1004700013E2036A79C0E9FF010E0324EA6E010E5C
:10048000006E7A50016E04E0D8900036012EFCD741
:100490000050FF0AEF1611D0036A79C0E9FF010E80
:1004A0000324EA6E010E006E7A50016E04E0D890CB
:1004B0000036012EFCD70050EF127A2A7A50070836
:1004C00007E27A6A792A7950F80801E1796A7B2A89
:1004D000909775C06DF074C06CF0908307D090B3A6
:1004E00005D075C06DF074C06CF0908309D090A3F6
:1004F00007D090B705D075C071F074C070F09087C8
:1005000053A85BD090A951D06E50725C006E6F50B2
:100510007358036E00C091F003C092F07250745C87
:10052000006E73507558036E00C093F003C094F0D2
:100530009451925D17E303E19151935D13E2036AD5
:100540007DC0E9FF020E0324EA6E010E006E7E50AC
:10055000016E04E0D8900036012EFCD70050FF0A4F
:10056000EF1611D0036A7DC0E9FF020E0324EA6E84
:10057000010E006E7E50016E04E0D8900036012E10
:10058000FCD70050EF127E2A7E50070807E27E6AF1
:100590007D2A7D50F80801E17D6A7F2A909975C017
:1005A0006FF074C06EF0908507D090B505D075C01F
:1005B0006FF074C06EF0908509D090A507D090B907
:1005C00005D075C073F074C072F09089A1B02AD7BD
:1005D000A190D0EF01F026A42FD01DAC09D0CE50B1
:1005E000CFCF03F0766E03C077F01D9C269024D009
:1005F000CE50CFCF03F00301126F03C013F3765038
:10060000125D146F77501359156F15BF14D0155123
:10061000000811E2FF0A03E1145170080CE2FF0E1A
:10062000D88014555A6E7F0E15555B6E268013C305
:1006300077F012C376F000015384F292D0EF01F00C
:10064000060E0201F86F130EF96F030EFA6FFB6BC3
:10065000FC6B020EEA6EFD0EE96EF2CF09F3F29E1C
:10066000000E0001CFDE0A000900F550EE6E000911
:10067000FBE1030109BFF28E036B0001CDEF05F032
:10068000FE0E0101F86F1D0EF96F0F0EFA6F140EBA
:10069000FB6F0001CEEF05F0D26BD46BD36BDC6B3C
:1006A000E00EDB6FDA6BD96BD86BD76BDF931D0E67
:1006B000016EEA6AE00EE96EEE6A012EFDD7DE6B8E
:1006C00092889E96000C360EC66E09C3C8FFC78C72
:1006D000DF91E2DFDFEF05F07A521FE0036A79C0B5
:1006E000E9FF010E0324EA6E010E006E7A50016EDE
:1006F00004E0D8900036012EFCD70050FF0AEF141A
:10070000EF6E7A2A7A50070807E27A6A792A7950D6
:10071000F80801E1796A7B2ADFD77E521FE0036A7D
:100720007DC0E9FF020E0324EA6E010E006E7E50CA
:10073000016E04E0D8900036012EFCD70050FF0A6D
:10074000EF14EF6E7E2A7E50070807E27E6A7D2A4C
:100750007D50F80801E17D6A7F2ADFD7000C2FA4C5
:1007600001D011D0839ABE6ABD50CF0BBD6E596ABD
:10077000586A636A626A2694269026B201D01D9A4E
:1007800053A601D0A9DF000C2F941D9AE8DF1D9C11
:100790001D9E53921D92596A586A010E696E2C0E65
:1007A000686E080E6B6E010E616E860E606E226AB8
:1007B000FF0E236E2F965394E8EF05F00301096BAB
:1007C0000951F70812E3036A09C3E9FF010E032484
:1007D000EA6EC10EEF6E036A09C3E9FF020E03243D
:1007E000EA6EC20EEF6E092BEBD7000107EF04F0A3
:1007F0009093909590979099786A796A7A6A7B6AD3
:100800007C6A7D6A7E6A7F6A956B816BD7D7966BAF
:10081000539A000C03010D91F2BE0D810DA104D07D
:10082000F29CF29EF2BEFDD7F2CF0EF3F29E0BC306
:10083000A9FFA69CA69EA680A8500EBFF28E0C6FA4
:100840000DA102D0C00EF2120CC301F00001000C89
:10085000818A8188839C03010B2D42D08198106B83
:10086000036A0C51006E00BE030654240D6F035042
:1008700010210E6F0EBF04D00C51800A1C0802E339
:10088000546A11D00EBF05D00E5308E10D51630814
:1008900005E30CBF06D00C51630803E2630E546EEF
:1008A00002D00DC354F0106B036A0C51006E00BEF1
:1008B000030655240D6F035010210E6F0EBF01D09B
:1008C00002D0556A0CD00EBF08D00E5303E10D5173
:1008D000630803E2630E556E02D00DC355F001D0DC
:1008E00018D00CBF01D00AD0839E0CBF01D005D018
:1008F0000C2B838C0000839CF8D70BD0838E0CBF0D
:1009000008D00C51000805E20C07838C0000839C82
:10091000F6D7818A8188838C04000001000C030EC5
:10092000EA6E0D0EE96EEF500DE00C0E016E006ADE
:10093000002EFED7012EFBD7BF0E006E002EFED775
:10094000EF2EF3D7000C040003010C5315E00C51FB
:10095000600808E2600E0D6F0001E1DF600E030128
:100960000C5F06D00CC30DF30001D9DF03010C6B43
:1009700004000001E9D703010001000C03010B2D65
:1009800032D0819800008188060EA96E54C0A8FF5D
:10099000A69CA69EA684F2CF00F0F29E0F01550EF3
:1009A000A76EAA0EA76EA682A6B2FED7A694005086
:1009B000F2120B0EA96E55C0A8FFA69CA69EA68497
:1009C000F2CF00F0F29E550EA76EAA0EA76EA68279
:1009D000A6B2FED7A6940050F212050E03010C6FCA
:1009E0000001B1DF03010001000C060E03010B6FD3
:1009F000000110DF01C054F05450630802E2630E9E
:100A0000546E54C055F05450620802E3545213E13E
:100A1000010E03010B6F9C0E0C6F000119DF010E1C
:100A200003010B6F0A0E0C6F000112DF010E0301B0
:100A30000B6F0001A3DFF3EF05F003010C51000180
:100A4000DE13DE5302E080989298000C03010C51F3
:100A5000FF0A0001DE17DE5301E19288000C2F9A95
:100A600083B02F8A2F9C83B22F8C2FBA37D02C8043
:100A700026B604D053BC02D0839483868186FA0EB6
:100A800003010C6F00015FDF84B003D02F82268E3C
:100A900002D02F92269E84B203D02F80268C02D0C3
:100AA0002F90269C2FA202D02FB009D029882C94F9
:100AB0002C8E800E03010C6F0001BFDF0ED0299831
:100AC00029502A1006E12C9E800E03010C6F0001B4
:100AD000BDDF2C842B6A2E6A2D6A04D02C902C9CAE
:100AE000268E268C010E03010C6F0001A6DF1DB4BB
:100AF00001D08196000C288028922894288E69C005
:100B000057F068C056F01D8E538CFF0E826F836BBA
:100B1000FFEF05F0C180C182C194C1963F0E926E75
:100B2000C70E936E3B0E946E030E956E9680968262
:100B30009684100E806EF00E816E1A0E826EDF0E9D
:100B4000836E030E846EF18E200E016EC250C70BB1
:100B50000110C26EC18CC29CC28EC19EC280C70EE3
:100B6000D56ED180B150480BB16E380E016E0509BB
:100B7000CA6E7F0ECB6EB70EB1168B940C0EBD6E87
:100B8000BE6ABD50CF0BBD6EB70EB116BA6A050E68
:100B9000BA6EB50ECD6EF18C53D572D5976B986B3E
:100BA000996B9A6B9B6B9C6B316AC00E306E0C0E0E
:100BB0003A6E2F98FE0E0301096F000184D52C6A4E
:100BC0002A6A296AFF0E256E246E249E1D90DCD5AC
:100BD0000FDE1D941D96FF0E206E216E2696269820
:100BE000269A276A02D7336A326A356A346A1D98B0
:100BF000F2885396A09033DF29B802D07CD719D061
:100C00000C0E03010B6F000105DE01C084F0843D72
:100C100002D0550E846F539CD0A202D0D0B009D020
:100C20001D84C80E1F6E070E226E1C0E236ED0820E
:100C3000D0800301086B0851020810E38394839667
:100C4000FA0E0C6F00017FDE83848386FA0E0301A7
:100C50000C6F000178DE0301082BEDD70001D2EF05
:100C600010F00BC3D7F0D75302E1D49B01D0D48B43
:100C7000F7EF07F0000E016E80EF08F0F29CF29E95
:100C8000F2BEFDD709DDFF00000CDEC0A9F0D7C021
:100C9000AAF0D8C0ABF00CC3ACF04AEF0AF0812B3D
:100CA00081C0A9F0180E03010B6F0001AA6BAB6B9A
:100CB0007F507B5C12E2D89003010B31010F7F5C07
:100CC00008E007E3D8900B31010F0001806F04D0DA
:100CD00003017FC080F0000111D0D89003010B31D7
:100CE000FF0F7F5C08E007E3D8900B31FF0F000196
:100CF000806F04D003017FC080F0000180C0ACF0A1
:100D000003010D6B7CC00CF30001805103017C24B6
:100D10000E6F000E0D210F6F0F5303E10E51F708F8
:100D20004AE21D0ED8800B55036AA90F0D6F000E05
:100D300003200E6F036A7CC00FF3020E0324106FB2
:100D4000F80ED8807C54116F0EC3EAFF0DC3E9FF83
:100D500010C3E2FF7CC0E1FF1151016E04E0E6CF59
:100D6000EEFF012EFCD71D0ED8800B55F80FD88052
:100D70007C54036AA90F0F6F000E0320106FF80E4A
:100D8000D8807C540001805D0301116F10C3EAFF1D
:100D90000FC3E9FF020EE26EE16A1151016E04E039
:100DA000E6CFEEFF012EFCD7000180517C24080F16
:100DB0007C6E22D003011D0ED8800B55036AA90F4B
:100DC0000D6F000E03200E6F036A7CC00FF3020E3E
:100DD0000324106F0EC3EAFF0DC3E9FF10C3E2FF47
:100DE0007CC0E1FF00018051016E04E0E6CFEEFF20
:100DF000012EFCD780517C267F50F70801E29583B5
:100E00007F50965D02E27FC096F0F29CF29EF2BEA9
:100E1000FDD780517F5EC00EF212805103010B5F3F
:100E20007B500B5D03E20BC380F002D07BC080F0EF
:100E300080C0ADF00D6B78C00CF300018051030150
:100E400078240E6F000E0D210F6F0F5303E10E512A
:100E5000F7084AE21D0ED8800B55036AA90F0D6FE3
:100E6000000E03200E6F036A78C00FF3010E0324F7
:100E7000106FF80ED8807854116F0EC3EAFF0DC3BF
:100E8000E9FF10C3E2FF78C0E1FF1151016E04E0F9
:100E9000E6CFEEFF012EFCD71D0ED8800B55F80FC4
:100EA000D8807854036AA90F0F6F000E0320106FCB
:100EB000F80ED88078540001805D0301116F10C3D3
:100EC000EAFF0FC3E9FF010EE26EE16A1151016E04
:100ED00004E0E6CFEEFF012EFCD70001805178241C
:100EE000080F786E22D003011D0ED8800B55036ABF
:100EF000A90F0D6F000E03200E6F036A78C00FF369
:100F0000010E0324106F0EC3EAFF0DC3E9FF10C3E7
:100F1000E2FF78C0E1FF00018051016E04E0E6CFFE
:100F2000EEFF012EFCD7805178267B50F70801E2B6
:100F300095817B50965D02E27BC096F0F29CF29E1A
:100F4000F2BEFDD780517B5EC00EF21211EF09F0A8
:100F500003010B5304E01C0E29162A9203D03C0E09
:100F600029162A922FAA03D02FAC01D0299429A8A0
:100F700004D02998000173DD030129502A1003E0F1
:100F8000C50E2C1602D0450E2C160001000C2B6A43
:100F90002E6A2D6A4AEF0AF0016A026A006A036A41
:100FA0000301105102E10F5118E0100E116FD8909B
:100FB0000D370E37003603361051035C02E10F5136
:100FC000005C07E30F51005ED8A003061051035EDA
:100FD000D88001360236112FEAD700000001000C3C
:100FE000D4B101D067D203010B6B00013AD69D51F9
:100FF0003F0B0301086F08510C0802E20C0E086F4A
:1010000000019E51070AD8B479D00F0AD8B477D01E
:10101000010AD8B478D0090AD8B482D0030AD8B467
:101020008FD0020AD8B4B0D0030AD8B4B3D0060A1D
:10103000D8B4BBD00E0AD8B4B9D0010AD8B4D1D034
:101040000E0AD8B4D9D0030AD8B4D7D0820AD8B4FB
:10105000E4D0070AD8B4E4D0030AD8B4E4D0020A32
:10106000D8B409D1160AD8B409D1110AD8B40ED10E
:10107000030AD8B415D1010AD8B413D10C0AD8B4D4
:1010800031D12B0AD8B44ED1280AD8B44ED11A0A7D
:10109000D8B491D1010AD8B497D1040AD8B49BD15D
:1010A0000F0AD8B49FD1280AD8B4ADD1010AD8B458
:1010B000B6D1030AD8B4B6D1010AD8B4B6D1070A5A
:1010C000D8B4B6D1010AD8B4B6D1030AD8B4B6D1CF
:1010D000010AD8B4B6D10F0AD8B4B8D1010AD8B42D
:1010E000B8D1030AD8B4C5D1010AD8B4C6D1070A09
:1010F000D8B4C7D1010AD8B4C8D1CBD1CBD1BAD5D5
:1011000001C0A9F0C7D1EA6AA90EE96EE26AC60E6B
:10111000E16E1D0E016EE6CFEEFF012EFCD7BAD1B7
:10112000EA6AA90EE96EE26A9F0EE16E03010851B8
:10113000016E04E0E6CFEEFF012EFCD70001AAD13C
:101140009F51010A03E0030A0FE01CD0EA6AA90ECE
:10115000E96E020EE26EF80EE16E0C0E016EE6CF45
:10116000EEFF012EFCD70FD0EA6AA90EE96E010E40
:10117000E26EF80EE16E040E016EE6CFEEFF012E78
:10118000FCD701D000D086D1D4A702D01D8001D0D9
:1011900075DD80D129C000F02A50000B036E29C0F4
:1011A0000BF329C00CF3000170D574D19FC009F373
:1011B000A0C00AF309C3A9FF0AC3A8FFA69CA69E64
:1011C000A684F2CF00F0F29E0F01550EA76EAA0E74
:1011D000A76EA682A6B2FED7A6940050F212000116
:1011E00059D19FC009F309C30BF30AEC04F001C005
:1011F0000AF30AC3A9F04ED14DD1F29CF29EF2BE81
:10120000FDD79F5304E0A0C00CF317DC03D0A0C0AF
:101210000CF31CDCC00EF2123DD12CC0A9F03AD167
:101220003ED52C9637D12FA40CD02F94AFEC03F0E1
:10123000226AFF0E236EFA0E03010C6F0001A3EC6D
:1012400004F09FC028F003010C6BA1C00EF30D6BDE
:10125000036A0001A05103010D11566E03500E11D7
:10126000576E5650571004E10001AFEC03F0030134
:101270001D8E00010FD1AFEC03F00CD1226AFF0EDE
:10128000236E2CB402D029882C8E04D1010E0301C8
:101290000B6F00015DDE29C0A9F02AC0AAF0FAD0C8
:1012A00076D603010C6BA0C00EF30D6B036A000130
:1012B0009F5103010D110F6F03500E11106FD89045
:1012C0001031036E0F31026E606E03C061F061BEBB
:1012D00007D06150010804E2010E616EFF0E606EDE
:1012E0000001D8D003010C6BA0C00EF30D6B036A94
:1012F00000019F5103010D110F6F03500E11106F6C
:10130000D8901031696E0F31686E6950010808E39A
:1013100003E168502B0804E3010E696E2C0E686E21
:101320000001B8D09FC06BF0B5D003010C6BA0C01A
:101330000EF30D6B036A00019F5103010D11306E16
:1013400003500E11316E26A20FD00B0E0E6FB80E89
:101350000D6F31C010F330C00FF300011DDE02C06D
:1013600037F001C036F00301315203E130509D08DF
:1013700003E2040E3A6E1DD02E0ED88030540B6F4F
:10138000010E31540C6F0CC30EF30BC30DF3106B35
:101390001D0E0F6F000100DE01C03AF03A50030845
:1013A00003E3040E3A6E05D03A500C0802E20C0E2C
:1013B0003A6E00016FD0010E03010B6F9FC00CF35A
:1013C000000128EC04F066D0010E03010B6F000150
:1013D000BEEC04F05FD09F5303E026861D9401D03D
:1013E000269658D026A60ED09FB383949FA38384BD
:1013F0009FB183969FA1838626989FB72688269AB9
:101400009FB5268A47D09F5308E01D84C80E1F6EE3
:10141000070E226E1C0E236E01D01D943BD097C088
:10142000A9F038D098C0A9F035D099C0A9F032D031
:101430009AC0A9F02FD09BC0A9F02CD09CC0A9F0D5
:1014400029D029C0A9F02AC0AAF024D096C0A9F0BA
:1014500021D003010C6BA0C00EF30D6B036A0001D9
:101460009F5103010D11246E03500E11256E0001D2
:1014700011D0A96B26BCA92B0DD0A96B26BEA92B18
:1014800009D0A96B83B0A92B05D0A96B83B2A92B76
:1014900001D000D09E5109080CE0EA6AC60EE96E40
:1014A000E26A9D0EE16E0C0E016EE6CFEEFF012E9C
:1014B000FCD7D491D7EF10F01D8A386A396A53BC33
:1014C00001D0818628A00FD02692839853924C6A2F
:1014D0002F9E45C03EF044C03DF05390436A376AAA
:1014E000030E366E19D0268283883C6A3B6A28A692
:1014F00002D0538201D053920B0E03010E6FB80E2F
:101500000D6F31C010F330C00FF3000145DD02C094
:1015100037F001C036F02F9828A205D05386A0805E
:10152000F8EC03F002D05396A09028AE02D0269497
:1015300001D02684565057106DE02C9C57C059F0AE
:1015400056C058F026B255D01D986850565C03E13D
:101550006950575C03E01D820A0E1E6E26A427D038
:101560001DA209D0010E656E2C0E646E040E226E53
:101570004B0E236E08D0010E656E180E646E010EC0
:10158000226E0A0E236E65C002F064C001F00232C2
:10159000013202320132023201C0BEFF0232023099
:1015A000300B006EBD50CF0B0010BD6E21D053AC80
:1015B00005D0060E226E4B0E236E03D0226AFF0E5C
:1015C000236E59C002F058C001F0023201320232DB
:1015D0000132023201C0BEFF02320230300B006E17
:1015E000BD50CF0B0010BD6E59C063F058C062F003
:1015F0000ED01D920A0E1E6E2E6A2D6A26941D882C
:101600002B5201E12D6A030E226E260E236E1D8CD5
:101610002F94838ADBEF10F05A50585C5C6E5B505D
:1016200059585D6E5DC063F05CC062F063BE01D06E
:101630000CD00301086B6B50085D05E2D880633263
:101640006232082BF8D70BD000010301086B6B50F6
:10165000085D05E2D89063326232082BF8D76450F7
:1016600062266550632263BE07D06350010809E318
:1016700003E16250170805E3010E636E180E626EF7
:1016800009D063BE07D06350010804E2010E636E07
:10169000FF0E626E63C065F062C064F063C002F06A
:1016A00062C001F00232013202320132023201C064
:1016B000BEFF02320230300B006EBD50CF0B001067
:1016C000BD6E26900001E8EF10F06CEC03F0036AA9
:1016D00079C0E9FF010E0324EA6E3C50036AEF6E05
:1016E000792A7950F80801E1796A036A79C0E9FF3B
:1016F000010E0324EA6E3C50000B036E3BC0EFFF6B
:10170000792A7950F80801E1796A036A79C0E9FF1A
:10171000010E0324EA6E460EEF6E792A7950F8081E
:1017200001E1796A036A79C0E9FF010E0324EA6ED8
:10173000520EEF6E792A7950F80801E1796A036A4E
:1017400079C0E9FF010E0324EA6E500EEF6E792A8C
:101750007950F80801E1796A050E7B26036A7DC09D
:10176000E9FF020E0324EA6E460EEF6E7D2A7D50DD
:10177000F80801E17D6A036A7DC0E9FF020E0324D7
:10178000EA6E520EEF6E7D2A7D50F80801E17D6A07
:10179000036A7DC0E9FF020E0324EA6E500EEF6E6D
:1017A0007D2A7D50F80801E17D6A030E7F267BEFDC
:1017B0000CF02F8626B21ED03B50D8B43C063B0618
:1017C0001DA217D01E061E5214E15F0EBE6EBD5044
:1017D000CF0BBD6E010E656E7C0E646E57C059F066
:1017E00056C058F00A0E1E6E1D92010E226E0A0E91
:1017F000236E34D03B2AD8B43C2A0A0E1E6E3C52CB
:1018000003E13B5001080BE2020E2B6E83AA07D0C6
:101810002250020804E0020E226E0A0E236E3C5291
:1018200003E13B50240802E2030E2B6E385212E013
:10183000380638520FE1396A2D5205E12F8824AE5F
:1018400002D0298E2C8E2C82020E03010C6F000117
:101850001DEC05F0395202E03AC039F053A674D0BD
:1018600053A03FD04C50020812E34C2AD8904C347D
:10187000036A440FE96E000E0320EA6EECCF03F01A
:10188000ED52EFCF3DF003C03EF0539029D02FAE84
:1018900027D0435213E1415202E142520FE042503D
:1018A0003E5C0CE303E13D50415C08E242C03EF087
:1018B00041C03DF0426A416A539012D03F5202E16A
:1018C00040520EE040503E5C0BE303E13D503F5C74
:1018D00007E240C03EF03FC03DF0406A3F6A53908F
:1018E0000BD03C503E5C08E303E13B503D5C04E31D
:1018F00026B202D0EAD65380010E3D5C0301086F88
:10190000000E3E58096F3C5C1CE303E108513B5C50
:1019100018E3010E3D240A6F000E3E200B6F3C5071
:101920000B5D0FE303E13B500A5D0BE326B209D0E8
:10193000A090538A0001909390959097909904D02D
:101940000301A080539A0001EAEF10F003010B514C
:10195000016A0A5D03E20AC300F00CD0006A080EB7
:101960000C6F0A3700360B51005CD8B0006E0136A0
:101970000C2FF7D7000122EF12F0C7CF09F39E9684
:10198000DE5302E0D48F01D0D49FC6AC0CD0C69CED
:10199000C9CF08F3C69CD26BD36BDA6BD96BDF93DC
:1019A000D483C68804D1030109512D0B090A000113
:1019B00011E0280A1DE0080A1BE0250AD8B497D0D8
:1019C000200AD8B4BAD0080AD8B4B7D00C0AD8B410
:1019D000D8D0DED0DC6BE00EDB6FD26BC9CF08F362
:1019E00008C3D3F0C69CD96BC10ED417DF93DFD0E8
:1019F000C9CF08F3D25319E1D22B08C3D9F00301A0
:101A000008510001D327DCC003F0DB51DB2BD8B435
:101A1000DC2BE96E03C0EAFF08C3EFFFD9AF03D0A8
:101A2000D487D99F01D0D49761D0D22D14D0D22B96
:101A300008C3DAF0030108510001D327DCC003F02A
:101A4000DB51DB2BD8B4DC2BE96E03C0EAFF08C303
:101A5000EFFFADD04BD0D4A703D0D251020804E0A1
:101A6000020ED925D25D28E1D22B03010851FF0ACD
:101A70000001D35D05E0D489D485030ED86F1AD058
:101A8000D4B114D0D4A703D0DA5107080EE0EA6A23
:101A90009D0EE96EE26AE00EE16ED251016E04E045
:101AA000E6CFEEFF012EFCD7D48104D0D489D483B5
:101AB000060ED86F7CD01AD0D2511C0807E2D22B68
:101AC000D489D483060ED86F72D010D00301085188
:101AD0000001D327DCC003F0DB51DB2BD8B4DC2BB7
:101AE000E96E03C0EAFF08C3EFFFD22B60D0DC6BC6
:101AF000E00EDB6FD26BDF83D4A712D0D4A104D069
:101B0000D48B080ED86F0CD0EA6AE00EE96EE26A58
:101B1000A90EE16E1D0E016EE6CFEEFF012EFCD781
:101B2000D4C008F308C3C9FF08C3D3F0D4B701D0A9
:101B3000D96BC90ED417C6883AD0D951D25D06E107
:101B4000D3C008F30301081F14D00001D951D25D9E
:101B50000EE2DCC003F0DB51DB2BD8B4DC2BE96EEA
:101B600003C0EAFFEFCF08F3030103D00001030134
:101B7000086B08C3C9FF08510001D327D22BC688C0
:101B800016D0D26BD36BDA6BD96BDF93C6880FD0CC
:101B9000C6AC01D0C69CC6AE01D0C69E030109A149
:101BA00002D008C3C9FF0001DF93C68800D064EFEC
:101BB00012F01DAA1CD11DAC1DD0040E6A6E1D9C16
:101BC000676A666A59C05FF058C05EF05FC002F095
:101BD0005EC001F00232013202320132023201C033
:101BE000BEFF02320230300B006EBD50CF0B001032
:101BF000BD6EFDD0662AD8B4672A2B5242E167BE7B
:101C000012D0675000080FE2FF0A03E16650770820
:101C10000AE21D9A29802C8E800E03010C6F0001B0
:101C20001DEC05F02DD05FAE03D061AE0AD002D01E
:101C300061BE26D05F50615C23E303E160505E5CCF
:101C40001FE26A066A521CE1040E6A6E5FC003F06E
:101C50005E505E2AD8B45F2A0301086F03C009F3FF
:101C60000933083309330833093308C3BEFF093386
:101C70000931300B006EBD50CF0B0010BD6E00015E
:101C8000B6D02B2C42D067BE12D0675001080FE2AD
:101C9000FF0A03E166500D080AE21D9A29802C8E86
:101CA000800E03010C6F00011DEC05F02DD05FAE1E
:101CB00003D061AE0AD002D061BE26D05F50615C15
:101CC00023E303E160505E5C1FE26A066A521CE196
:101CD000030E6A6E5FC003F05E505E2AD8B45F2ABE
:101CE0000301086F03C009F30933083309330833CC
:101CF000093308C3BEFF09330931300B006EBD50F4
:101D0000CF0B0010BD6E000172D02B5002082EE1E7
:101D10005FAE03D061AE0AD002D061BE26D05F5064
:101D2000615C23E303E160505E5C1FE26A066A5275
:101D30001CE1020E6A6E5FC003F05E505E2AD8B4EA
:101D40005F2A0301086F03C009F30933083309331D
:101D50000833093308C3BEFF09330931300B006E65
:101D6000BD50CF0B0010BD6E000141D059AE03D065
:101D70005FAE0AD002D05FBE26D059505F5C23E32D
:101D800003E15E50585C1FE26A066A521CE1060ECF
:101D90006A6E5FC003F05E50D8B45F065E06030152
:101DA000086F03C009F309330833093308330933D3
:101DB00008C3BEFF09330931300B006EBD50CF0B95
:101DC0000010BD6E000153A212D03C5203E13B5003
:101DD0007D080DE2AFEC03F0030E226E260E236E9B
:101DE0002C88100E03010C6F00011DEC05F09CEF18
:101DF00012F003010A510C03F3CF01F0F4CF00F00D
:101E00000D03F35000260B510C03F3500020026E1B
:101E10000001000CC4508727000E8823852B8551B4
:101E20000308D8B0D3D08831036E8731026E0332F5
:101E3000023202C086F0886B876B856B53AC0BD087
:101E40008251865D02E286C082F08651835D02E2A5
:101E500086C083F0BBD08451865D02E2539E01D0E0
:101E6000538E6850625CD8A4AED06950635CD8A42D
:101E7000AAD0006A90B1008E53500018800BD8B4DD
:101E80009FD0982B53AE06D08F5301E08F078E6BF7
:101E90008D6B95D08F5304E189532CE18A532AE14D
:101EA0008F5301E08F078F51070823E38E5303E11F
:101EB0008D5109081EE2895302E18A5307E08E51D1
:101EC0008A5D08E303E189518D5D04E28EC08AF0EA
:101ED0008DC089F08B5302E18C5307E08C518E5DED
:101EE00008E303E18D518B5D04E28EC08CF08DC060
:101EF0008BF065D08AC00BF389C00AF303010D6B28
:101F0000070E0C6F000175DF02C009F301C008F372
:101F100003010230036E0130026E033202320332DB
:101F200002321F0E031602C001F0035000018E5D45
:101F300046E303E101508D5D42E38AC00BF389C0A3
:101F40000AF303010D6B090E0C6F000152DF02C092
:101F50000BF301C00AF3030102300D6F01300C6F67
:101F60000D330C330D330C331F0E0D17010E0C25E2
:101F7000016E000E0D21036E015000018E51035CB5
:101F80001EE303E18D51015C1AE32F94AFEC03F0E3
:101F90002C8C400E03010C6F00011DEC05F0226A31
:101FA000FF0E236ED0A202D0D0B009D01D84C80E7F
:101FB0001F6E070E226E1C0E236ED082D08003D0BF
:101FC0008D2BD8B48E2B909153BE9081B7EF12F029
:101FD00084B002D02F8201D02F9284B202D02F8001
:101FE00001D02F90006A26BE00822F500018020BED
:101FF00005E137C035F036C034F02AD03450D8B4BB
:1020000035063406345224E1355222E19A2B37C08A
:1020100035F036C034F0269E2FB2268E26A218D078
:102020002FA216D02B50020801E22D2A2D2C08D009
:10203000590E386E226AFF0E236E3AC039F008D06E
:102040002D50020805E138500D0802E20D0E386EE1
:10205000006A26BC00802F500018010B05E137C034
:1020600033F036C032F083D03250D8B43306320663
:102070003252D8A47CD03352D8A479D0992B37C00F
:1020800033F036C032F0269C2FB0268C26A235D0F5
:102090002FA027D02B50020823E2EA6A4D0EE96EEA
:1020A000E26A440EE16E060E016EE6CFEEFF012EEF
:1020B000FCD7EA6A460EE96EE26A4D0EE16E060E44
:1020C000016EE6CFEEFF012EFCD72A0E3B24446EB4
:1020D000000E3C20456E2E2A2D5202E15D0E386E18
:1020E0000BD02B5209E1010E2B6E2C94040E030130
:1020F0000C6F00011DEC05F03AD02FA038D04350F2
:10210000432A000A07E1110E3B5C3F6E000E3C586B
:10211000406E06D0110E3B5C416E000E3C58426E84
:102120004350010801E2436A2FBE01D02F8E2E06D4
:102130002E5203E10B0E2B6E1AD02B500B0817E119
:102140002FB202D02FA813D02F84050E226E4B0E73
:10215000236E100E8F6F8A6B896B8C6B8B6B2C844C
:10216000040E03010C6F00011DEC05F02B6A13EF48
:1021700013F0F86AD09E0D8EEA6AE96AC180C182C6
:10218000C184C196176A186A010E196E1A6A1B6A11
:102190001C6AF29CF29EF2BEFDD703010495000179
:1021A0008AEF05F0C00EF2120400F0EF07F01DAE4A
:1021B00003D05CEF0AF01D9E53A40CD05394972BD0
:1021C0001DA202D0269004D026A002D00CEF0BF066
:1021D000D9EF0BF0225003080CE12D520AE13852DE
:1021E00008E03850230805E3226AFF0E236E3AC048
:1021F00039F09EA063D19E90030104B102D0048106
:102200004AD104912252D8B446D1225003083CE36B
:102210002FA60BD02F96036A22500001F1EC01F09B
:10222000016E01C023F02ED00301230623522BE1BF
:10223000222C18D02FA016D02F84050E226E4B0E04
:10224000236E100E00018F6F8A6B896B8C6B8B6B0A
:102250002C84040E03010C6F00011DEC05F02B6AA9
:1022600011D00301222C04D00001AFEC03F00301D4
:1022700029802C8E800E0C6F00011DEC05F0226A67
:10228000FF0E236E030107D1225004083BE1230611
:10229000235212E11DA20CD00001AFEC03F02A8200
:1022A0002C8E800E03010C6F00011DEC05F0030164
:1022B000226AFF0E236E25D0020E6426000E6522D0
:1022C00065BE0CD06550000809E2FF0A03E16450C6
:1022D0007C0804E2010E656E7C0E646E65C002F03F
:1022E00064C001F00232013202320132023201C016
:1022F000BEFF02320230300B006EBD50CF0B00101B
:10230000BD6EC9D023062352D8A474D0225005082C
:1023100020E12FA40DD02F940001AFEC03F0298C05
:102320002C8E800E03010C6F00011DEC05F00301E3
:10233000226AFF0E236ED0A202D0D0B009D01D8435
:10234000C80E1F6E070E226E1C0E236ED082D08028
:1023500050D0225006082CE153AC19D00001AFEC4C
:1023600003F00C0E03010B6F00010AEC04F001C036
:1023700084F0843D02D0550E846F539C298A2C8EA4
:10238000800E03010C6F00011DEC05F00301226AB1
:10239000FF0E236ED0A202D0D0B009D01D84C80E8B
:1023A0001F6E070E226E1C0E236ED082D08021D0AD
:1023B000225007081EE11DA419D01F061F5206E176
:1023C0001D94226AFF0E236E81960FD0036A22505D
:1023D0000001F1EC01F0016E01C023F01DB603D045
:1023E000FF0E206E01D01D96030103D0226AFF0E5E
:1023F000236E51D053AC4FD0235024084CE300013E
:102400008251835D5508D8A002D0030144D02FBA71
:102410000CD02F84050E226E4B0E236E100E8F6F84
:102420008A6B896B8C6B8B6B02D0AFEC03F08251A3
:10243000835D0301096F09C30AF3030E0B6F0001EB
:10244000A6EF0CF001508225846F0C0EA96E84C09B
:10245000A8FFA69CA69EA684F2CF00F0F29E0F01D4
:10246000550EA76EAA0EA76EA682A6B2FED7A69498
:102470000050F212539C2FB40DD0D0A202D0D0B095
:1024800009D01D84C80E1F6E070E226E1C0E236E0F
:10249000D082D0800301395212E0390639520FE15F
:1024A000386A2D5205E12F8824AE02D0298E2C8E59
:1024B0002C82020E0C6F00011DEC05F003019EA69C
:1024C00004D00001BDEF0CF0030153A625D000019C
:1024D000DE53D8B402D003011FD053BA09D07B50C9
:1024E000E80806E37F50E80803E32E50020813E3F0
:1024F0000301096B7F507B24056F000E0921066FD5
:10250000065303E10551130807E22C86080E0C6FF1
:1025100000011DEC05F003010001955307E02C8A32
:10252000200E03010C6F00011DEC05F0F2A410D089
:102530001DA802D0D9EF0DF0F294272A27504A089F
:1025400007E226A801D0837426AA01D08376276AE1
:102550009EA2DFD09E92030104A5D8D004952FB48B
:1025600004D053BC02D01DA403D0000153D40301F6
:102570002FA44DD069AE03D063AE0AD002D063BEA3
:1025800020D06950635C1DE303E16250685C19E28E
:1025900063C003F06250D8B463066206086F03C0DC
:1025A00009F30933083309330833093308C3BEFF7D
:1025B00009330931300B006EBD50CF0B0010BD6EDA
:1025C00026D063AE03D069AE0AD002D069BE1FD058
:1025D0006350695C1CE303E16850625C18E263C00D
:1025E00003F06250622AD8B4632A086F03C009F36B
:1025F0000933083309330833093308C3BEFF0933ED
:102600000931300B006EBD50CF0B0010BD6E1DAAFE
:1026100006D02FB404D053BC02D00001D9D41DB4CD
:1026200001D081960001006A83B0008A2F50001803
:10263000200B01E09B2B030104518318020B03E0E4
:1026400000019C2B03012FAA0ED083B004D00451AB
:102650008318020B03E0FF0E076F01D007070493F6
:1026600083B2048306D083B003D0FF0E076F01D07E
:10267000070707534AE1FF0E076F2F9A83B02F8A8F
:102680002F9C04B32F8C2FBA1FD02B6A2E6A2D6A71
:102690002C802C842C9C26B605D00B6B0001A8EC5A
:1026A00007F00301010E0C6F00011DEC05F02FACCB
:1026B00008D029842C8E800E03010C6F00011DECC4
:1026C00005F09B2B21D003011DBA02D02CB408D0F9
:1026D00029822C8E800E0C6F00011DEC05F0030189
:1026E0002C9029A40BD0299429502A1007E12C9E64
:1026F000800E0C6F000126EC05F003012C9C010EEE
:102700000C6F00011DEC05F0030102D00485C284AA
:10271000000126B65BD053BC59D01DA427D0203C65
:1027200001D024D0206A81B0208053BE208283B0A3
:10273000208483B2208A84B2208684B020882050EE
:10274000070B0301086F2150070B085D02E083743B
:102750001D862050380B086F2150380B085D02E0B1
:1027600083761D8620C021F014D0000129502A1044
:1027700003E0838483960CD02FAA03D083848386BE
:1027800007D02CA203D08394839602D083948386AF
:1027900003011DA41AD0203C18D081B607D0818631
:1027A000FA0E0C6F0001A3EC04F00301206A81B063
:1027B000208053BE208283B0208483B2208A84B2DA
:1027C000208684B0208820C021F000011DA009D0FF
:1027D0001D90640E03010C6F0001A3EC04F03EECAD
:0827E00006F00400E2D403003E
:020000040030CA
:0E00000000260609000181000FC00FE00F402E
:00000001FF
;PIC18F452
