:020000040000FA
:0403400049EF12F07F
:08034800056ED8CF06F0E95064
:10035000076EEA50086EE150096EE2500A6ED950FD
:100360000B6EDA500C6EF350146EF450156EE050B4
:100370000D6E000100500F6E0150106E0250116E94
:100380000350126E0450136EA0A0CAEF01F0A1B08A
:1003900012EF02F0F2A8D0EF01F0F2B2EBEF02F0B0
:1003A0000F50006E1050016E1150026E1250036E0D
:1003B0001350046E0D50E06E0D8E0750E96E08501C
:1003C000EA6E0950E16E0A50E26E0B50D96E0C5085
:1003D000DA6E1450F36E1550F46E055006C0D8FF57
:1003E0001000F2CF0EF0F29EF76AFC0FF66E030ECD
:1003F000F7220900F5500EBEF28E1200FF0A0A26FF
:100400004B4B4B1CF2CF0EF0F29EF76A1E0FF66EAE
:10041000040EF7220900F5500EBEF28E12003132A2
:1004200033343500A190BCCF78F0BBCF77F056982D
:1004300081B4568881A25BD093A751D06F50735C72
:10044000006E70507458036E00C094F003C095F0B5
:100450007350775C006E74507858036E00C096F04D
:1004600003C097F09751955D17E303E19451965DB2
:1004700013E2036A7CC0E9FF010E0324EA6E010E59
:10048000006E7D50016E04E0D8900036012EFCD73E
:100490000050FF0AEF1611D0036A7CC0E9FF010E7D
:1004A0000324EA6E010E006E7D50016E04E0D890C8
:1004B0000036012EFCD70050EF127D2A7D50070830
:1004C00007E27D6A7C2A7C50F80801E17C6A7E2A7A
:1004D000939778C070F077C06FF0938307D093B391
:1004E00005D078C070F077C06FF0938309D093A3E4
:1004F00007D093B705D078C074F077C073F09387B6
:1005000056A85BD093A951D07150755C006E7250A3
:100510007658036E00C094F003C095F07550775C78
:10052000006E76507858036E00C096F003C097F0C6
:100530009751955D17E303E19451965D13E2036AC9
:1005400080C0E9FF020E0324EA6E010E006E8151A5
:10055000016E04E0D8900036012EFCD70050FF0A4F
:10056000EF1611D0036A80C0E9FF020E0324EA6E81
:10057000010E006E8151016E04E0D8900036012E0C
:10058000FCD70050EF12812B8151070807E2816BE5
:10059000802B8051F80801E1806B822B939978C001
:1005A00072F077C071F0938507D093B505D078C00D
:1005B00072F077C071F0938509D093A507D093B9F5
:1005C00005D078C076F077C075F09389A1B02AD7AE
:1005D000A190D0EF01F029A42FD01DAC09D0CE50AE
:1005E000CFCF03F0796E03C07AF01D9C299024D000
:1005F000CE50CFCF03F00301176F03C018F379502B
:10060000175D196F7A5018591A6F1ABF14D01A5102
:10061000000811E2FF0A03E1195170080CE2FF0E15
:10062000D88019555D6E7F0E1A555E6E298018C3ED
:100630007AF017C379F000015684F292D0EF01F0FE
:10064000060E0201F86F130EF96F040EFA6FFB6BC2
:10065000FC6B020EEA6EFD0EE96EF2CF09F3F29E1C
:10066000000E0001CFDE0A000900F550EE6E000911
:10067000FBE1030109BFF28E036B0001F8EF06F006
:10068000FE0E0101F86F1D0EF96F0F0EFA6F140EBA
:10069000FB6F0001F9EF06F0D56BD76BD66BDF6B04
:1006A000E30EDE6FDD6BDC6BDB6BDA6BE2931D0E52
:1006B000016EEA6AE30EE96EEE6A012EFDD7E16B88
:1006C00092889E96000C360EC66E09C3C8FFC78C72
:1006D000E291E2DF0AEF07F07D521FE0036A7CC07F
:1006E000E9FF010E0324EA6E010E006E7D50016EDB
:1006F00004E0D8900036012EFCD70050FF0AEF141A
:10070000EF6E7D2A7D50070807E27D6A7C2A7C50C7
:10071000F80801E17C6A7E2ADFD781531FE0036A73
:1007200080C0E9FF020E0324EA6E010E006E8151C3
:10073000016E04E0D8900036012EFCD70050FF0A6D
:10074000EF14EF6E812B8151070807E2816B802B3C
:100750008051F80801E1806B822BDFD7000C32A4B6
:1007600001D011D0839ABE6ABD50CF0BBD6E5C6ABA
:100770005B6A666A656A2994299029B201D01D9A3C
:1007800056A601D0A9DF000C32941D9AE8DF1D9C0B
:100790001D9E56921D925C6A5B6A010E6C6E2C0E59
:1007A0006B6E080E6E6E010E646E860E636E256AA9
:1007B000FF0E266E3296569413EF07F00301096B75
:1007C0000951F70812E3036A09C3E9FF010E032484
:1007D000EA6EC10EEF6E036A09C3E9FF020E03243D
:1007E000EA6EC20EEF6E092BEBD7000107EF04F0A3
:1007F00093939395939793997B6A7C6A7D6A7E6ABB
:100800007F6A806B816B826B986B846BD7D7996B97
:10081000569A000C03010D91F2BE0D810DA104D07A
:10082000F29CF29EF2BEFDD7F2CF0EF3F29E0BC306
:10083000A9FFA69CA69EA680A8500EBFF28E0C6FA4
:100840000DA102D0C00EF2120CC301F00001000C89
:10085000818A8188839C03010B2D42D08198106B83
:10086000036A0C51006E00BE030657240D6F03503F
:1008700010210E6F0EBF04D00C51800A1C0802E339
:10088000576A11D00EBF05D00E5308E10D51630811
:1008900005E30CBF06D00C51630803E2630E576EEC
:1008A00002D00DC357F0106B036A0C51006E00BEEE
:1008B000030658240D6F035010210E6F0EBF01D098
:1008C00002D0586A0CD00EBF08D00E5303E10D5170
:1008D000630803E2630E586E02D00DC358F001D0D6
:1008E00018D00CBF01D00AD0839E0CBF01D005D018
:1008F0000C2B838C0000839CF8D70BD0838E0CBF0D
:1009000008D00C51000805E20C07838C0000839C82
:10091000F6D7818A8188838C04000001000C030EC5
:10092000EA6E0D0EE96EEF500DE00C0E016E006ADE
:10093000002EFED7012EFBD7BF0E006E002EFED775
:10094000EF2EF3D7000C040003010C5315E00C51FB
:10095000600808E2600E0D6F0001E1DF600E030128
:100960000C5F06D00CC30DF30001D9DF03010C6B43
:1009700004000001E9D703010001000C03010B2D65
:1009800032D0819800008188060EA96E57C0A8FF5A
:10099000A69CA69EA684F2CF00F0F29E0F01550EF3
:1009A000A76EAA0EA76EA682A6B2FED7A694005086
:1009B000F2120B0EA96E58C0A8FFA69CA69EA68494
:1009C000F2CF00F0F29E550EA76EAA0EA76EA68279
:1009D000A6B2FED7A6940050F212050E03010C6FCA
:1009E0000001B1DF03010001000C060E03010B6FD3
:1009F000000110DF01C057F05750630802E2630E98
:100A0000576E57C058F05750620802E3575213E12F
:100A1000010E03010B6F9C0E0C6F000119DF010E1C
:100A200003010B6F0A0E0C6F000112DF010E0301B0
:100A30000B6F0001A3DF1EEF07F003011251000A44
:100A4000000101E009D08494030113C3E9FF14C33A
:100A5000EAFF110EEF6E02D0030100D0000154EF47
:100A600005F003011251000A000101E002D0848464
:100A700001D000D06BEF05F0829E0301106B105384
:100A80002DE10CC300F01051016E04E0D89000324B
:100A9000012EFCD700A01BD010C312F3030E146F5D
:100AA0000F0E136F0001C9D70DC30EF30301116BB5
:100AB00011510F080BE3829ED8900E370F3702E2D8
:100AC0008B9A01D08B8A828E112BF2D7829E10C313
:100AD00012F30001C6D70301102BD1D70001000C7F
:100AE00003010C510001E113E15302E08098929858
:100AF000000C03010C51FF0A0001E117E15301E171
:100B00009288000C329A83B0328A329C83B2328C43
:100B100032BA37D02F8029B604D056BC02D0839485
:100B200083868186FA0E03010C6F00010CDF84B00E
:100B300003D03282298E02D03292299E84B203D011
:100B40003280298C02D03290299C32A202D032B05D
:100B500009D02C882F942F8E800E03010C6F00017A
:100B6000BFDF0ED02C982C502D1006E12F9E800E4A
:100B700003010C6F0001BDDF2F842E6A316A306AD9
:100B800004D02F902F9C298E298C010E03010C6F0D
:100B90000001A6DF1DB401D08196000C03010C51A9
:100BA000010A000101E017D0070EA96E1EC0A8FFC0
:100BB000A69CA69EA684F2CF00F0F29E0F01550ED1
:100BC000A76EAA0EA76EA682A6B2FED7A694005064
:100BD000F212000100D0000C1F6A206A1EC00BF345
:100BE0008186FA0E03010C6F0001ADDE84A202D0F3
:100BF00084B018D01E5005080FE2050E1E5E010ECF
:100C000003010C6F1EC00DF3000136DF020E03015D
:100C10000C6F000198DE05D084B202D08AD001D0DA
:100C200001D0E4D784B202D084A023D01E50FD08A6
:100C30000EE3010E1E2603010C6F1EC00DF3000112
:100C40001BDF020E03010C6F00017DDE05D084A2C4
:100C500002D06FD001D00DD01F5204E184B202D077
:100C60001EC01FF0205204E184B002D01EC020F04C
:100C7000D9D71F50205C28E3190E1F2403010C6FE5
:100C80000F0E20240C5D04E3190E1F241E6E1AD0D3
:100C90000F0E20240C6F230E1F240C5D01E004E2D4
:100CA0000F0E20241E6E0ED0230E1F240C6F040E78
:100CB00020240C5D04E3230E1F241E6E03D0190EA6
:100CC0001F241E6E27D00001190E1F2403010C6F74
:100CD000230E20240C5D01E004E2190E1F241E6E79
:100CE00019D0230E20240C6F0F0E1F240C5D04E37B
:100CF000230E20241E6E0ED00F0E1F240C6F040E28
:100D000020240C5D04E30F0E1F241E6E03D0190E69
:100D10001F241E6E010E0C6F1EC00DF30001ACDE11
:100D2000010E03010C6F000139DF8196000E016E88
:100D30000CD00BC31EF0010E03010C6F1EC00DF38F
:100D400000019ADE8196010E016E000C2B802B9221
:100D50002B942B8E6CC05AF06BC059F01D8E568CA4
:100D6000FF0E856F866B52EF07F0C180C182C19480
:100D7000C1963F0E926EC70E936E1B0E946E030EBD
:100D8000956E968096829694100E806EF00E816E0F
:100D90001A0E826EDF0E836E070E846EF18E200EA9
:100DA000016EC250C70B0110C26EC18CC29CC28EB4
:100DB000C19EC280C70ED56ED180B150480BB16EB6
:100DC000380E016E0509CA6E7F0ECB6EB70EB116D6
:100DD0008B940C0EBD6EBE6ABD50CF0BBD6EB70EB0
:100DE000B116BA6A050EBA6EB50ECD6EF18C28D466
:100DF00047D49A6B9B6B9C6B9D6B9E6B9F6B346A0D
:100E0000C00E336E0C0E3D6E3298FE0E0301096F5C
:100E1000000159D42F6A2D6A2C6AFF0E286E276EA6
:100E2000279E1D90B1D4E4DC1D941D96FF0E236E09
:100E3000246E29962998299A2A6AD7D5366A356A5E
:100E4000386A376A1D98070E03010B6F0001E2DC58
:100E500001C01EF01E3C01D008D0010E03010C6F32
:100E60001EC00DF3000108DE09D0800E1E6E010EBB
:100E700003010C6F1EC00DF30001FEDDF2885696D3
:100E8000A09040DE080E03010B6F0001C3DC01528D
:100E900004E02FB002D0A0DE02D01F6A206A2CB876
:100EA00002D054D719D00C0E03010B6F0001B2DC35
:100EB00001C087F0873D02D0550E876F569CD0A2A7
:100EC00002D0D0B009D01D84C80E226E070E256E48
:100ED0001C0E266ED082D0800301086B08510208D8
:100EE00010E383948396FA0E0C6F00012CDD83844B
:100EF0008386FA0E03010C6F000125DD0301082B28
:100F0000EDD7000162EF12F00BC3DAF0DA5302E121
:100F1000D79B01D0D78B4BEF09F0000E016EE0EFAD
:100F200009F0F29CF29EF2BEFDD74CEC03F0FF00FC
:100F3000000CE1C0ACF0DAC0ADF0DBC0AEF00CC329
:100F4000AFF0DAEF0BF0842B84C0ACF0180E030185
:100F50000B6F0001AD6BAE6B82517E5C12E2D890DC
:100F600003010B31010F0001825D08E007E3D89017
:100F700003010B31010F0001836F02D082C083F0A7
:100F800011D0D89003010B31FF0F0001825D08E002
:100F900007E3D89003010B31FF0F0001836F02D0EC
:100FA00082C083F083C0AFF003010D6B7FC00CF3F0
:100FB0000001835103017F240E6F000E0D210F6F7E
:100FC0000F5303E10E51F7084AE21D0ED8800B556E
:100FD000036AAC0F0D6F000E03200E6F036A7FC013
:100FE0000FF3020E0324106FF80ED8807F54116F98
:100FF0000EC3EAFF0DC3E9FF10C3E2FF7FC0E1FFAC
:101000001151016E04E0E6CFEEFF012EFCD71D0E5C
:10101000D8800B55F80FD8807F54036AAC0F0F6F40
:10102000000E0320106FF80ED8807F540001835DFE
:101030000301116F10C3EAFF0FC3E9FF020EE26E56
:10104000E16A1151016E04E0E6CFEEFF012EFCD7FC
:10105000000183517F24080F7F6E22D003011D0EF3
:10106000D8800B55036AAC0F0D6F000E03200E6F76
:10107000036A7FC00FF3020E0324106F0EC3EAFF52
:101080000DC3E9FF10C3E2FF7FC0E1FF0001835100
:10109000016E04E0E6CFEEFF012EFCD783517F26E0
:1010A0008251F70801E298838251995D02E282C081
:1010B00099F0F29CF29EF2BEFDD78351825FC00E82
:1010C000F212835103010B5F7E500B5D03E20BC3F1
:1010D00083F002D07EC083F083C0B0F00D6B7BC084
:1010E0000CF30001835103017B240E6F000E0D21D0
:1010F0000F6F0F5303E10E51F7084AE21D0ED8801F
:101100000B55036AAC0F0D6F000E03200E6F036AC0
:101110007BC00FF3010E0324106FF80ED8807B54B0
:10112000116F0EC3EAFF0DC3E9FF10C3E2FF7BC0DE
:10113000E1FF1151016E04E0E6CFEEFF012EFCD776
:101140001D0ED8800B55F80FD8807B54036AAC0F66
:101150000F6F000E0320106FF80ED8807B54000133
:10116000835D0301116F10C3EAFF0FC3E9FF010E96
:10117000E26EE16A1151016E04E0E6CFEEFF012E4E
:10118000FCD7000183517B24080F7B6E22D0030122
:101190001D0ED8800B55036AAC0F0D6F000E032097
:1011A0000E6F036A7BC00FF3010E0324106F0EC392
:1011B000EAFF0DC3E9FF10C3E2FF7BC0E1FF0001BE
:1011C0008351016E04E0E6CFEEFF012EFCD7835180
:1011D0007B267E50F70801E298817E50995D02E2FD
:1011E0007EC099F0F29CF29EF2BEFDD783517E5EE6
:1011F000C00EF21273EF0AF003010B5304E01C0E51
:101200002C162D9203D03C0E2C162D9232AA03D010
:1012100032AC01D02C942CA804D02C98000172DCA4
:1012200003012C502D1003E0C50E2F1602D0450EE1
:101230002F160001000C2E6A316A306ADAEF0BF0CB
:10124000016A026A006A036A0301105102E10F5148
:1012500018E0100E116FD8900D370E370036033698
:101260001051035C02E10F51005C07E30F51005E77
:10127000D8A003061051035ED88001360236112F24
:10128000EAD700000001000CD7B101D0A3D20301BE
:101290000B6B000139D6A0513F0B0301086F0851B9
:1012A0000C0802E20C0E086F0001A151070AD8B425
:1012B00085D00F0AD8B483D0010AD8B484D0090AE3
:1012C000D8B48ED0030AD8B49BD0020AD8B4BCD00C
:1012D000030AD8B4BFD0060AD8B4C7D00E0AD8B40F
:1012E000C5D0010AD8B4DDD00E0AD8B4E5D0030ABF
:1012F000D8B4E3D0820AD8B4F2D0070AD8B4F2D076
:10130000030AD8B4F2D0020AD8B417D1160AD8B456
:1013100017D1110AD8B41CD1030AD8B423D1010AB9
:10132000D8B421D10C0AD8B43FD12B0AD8B45CD19F
:10133000280AD8B45CD11A0AD8B49FD1010AD8B40B
:10134000A5D12D0AD8B4A9D1010AD8B4B1D17F0A48
:10135000D8B4B5D1010AD8B4C9D1560AD8B4CBD1C2
:101360000F0AD8B4CFD1280AD8B4DDD1010AD8B435
:10137000E6D1030AD8B4E6D1010AD8B4E6D1070A07
:10138000D8B4E6D1010AD8B4E6D1030AD8B4E6D17C
:10139000010AD8B4E6D10F0AD8B4E8D1010AD8B40A
:1013A000E8D1030AD8B4F5D1010AD8B4F6D1070AB6
:1013B000D8B4F7D1010AD8B4F8D1FBD1FBD1ADD55F
:1013C00001C0ACF0F7D1EA6AAC0EE96EE26AC90E70
:1013D000E16E1D0E016EE6CFEEFF012EFCD7EAD1C5
:1013E000EA6AAC0EE96EE26AA20EE16E03010851F0
:1013F000016E04E0E6CFEEFF012EFCD70001DAD14A
:10140000A251010A03E0030A0FE01CD0EA6AAC0E05
:10141000E96E020EE26EF80EE16E0C0E016EE6CF82
:10142000EEFF012EFCD70FD0EA6AAC0EE96E010E7A
:10143000E26EF80EE16E040E016EE6CFEEFF012EB5
:10144000FCD701D000D0B6D1D7A702D01D8001D0E3
:1014500068DDB0D12CC000F02D50000B036E2CC005
:101460000BF32CC00CF3000164D5A4D1A2C009F386
:10147000A3C00AF309C3A9FF0AC3A8FFA69CA69E9E
:10148000A684F2CF00F0F29E0F01550EA76EAA0EB1
:10149000A76EA682A6B2FED7A6940050F212000153
:1014A00089D1A2C009F309C30BF30AEC04F001C00F
:1014B0000AF30AC3ACF07ED17DD1F29CF29EF2BE5B
:1014C000FDD7A25305E0A3C00CF370EC05F004D0E7
:1014D000A3C00CF379EC05F0C00EF2126BD12FC053
:1014E000ACF068D130D52F9665D132A40CD03294AF
:1014F000AFEC03F0256AFF0E266EFA0E03010C6FA7
:101500000001A3EC04F0A2C02BF003010C6BA4C0FB
:101510000EF30D6B036A0001A35103010D11596E07
:1015200003500E115A6E59505A1004E10001AFECED
:1015300003F003011D8E00013DD1AFEC03F03AD161
:10154000256AFF0E266E2FB402D02C882F8E32D142
:10155000010E03010B6F00014FDE2CC0ACF02DC05B
:10156000ADF028D168D603010C6BA3C00EF30D6B50
:10157000036A0001A25103010D110F6F03500E11F8
:10158000106FD8901031036E0F31026E636E03C07E
:1015900064F064BE07D06450010804E2010E646E7A
:1015A000FF0E636E000106D103010C6BA3C00EF3A6
:1015B0000D6B036A0001A25103010D110F6F03505F
:1015C0000E11106FD89010316C6E0F316B6E6C5025
:1015D000010808E303E16B502B0804E3010E6C6E75
:1015E0002C0E6B6E0001E6D0A2C06EF0E3D00301BA
:1015F0000C6BA3C00EF30D6B036A0001A251030133
:101600000D11336E03500E11346E29A20FD00B0E44
:101610000E6FB80E0D6F34C010F333C00FF300011E
:101620000FDE02C03AF001C039F00301345203E189
:1016300033509D0803E2040E3D6E1DD02E0ED8805F
:1016400033540B6F010E34540C6F0CC30EF30BC3E9
:101650000DF3106B1D0E0F6F0001F2DD01C03DF0A8
:101660003D50030803E3040E3D6E05D03D500C08C9
:1016700002E20C0E3D6E00019DD0010E03010B6FC6
:10168000A2C00CF3000128EC04F094D0010E030179
:101690000B6F0001BEEC04F08DD0010E03010C6F46
:1016A000A2C00DF300013CEC05F0A2C01EF082D0F8
:1016B000010E03010C6F0001CEEC05F07BD0080E8B
:1016C000A96EA2C0A8FFA69CA69EA684F2CF00F099
:1016D000F29E0F01550EA76EAA0EA76EA682A6B2A5
:1016E000FED7A6940050F212000164D0ECEC05F095
:1016F00001C0ACF05FD0A25303E029861D9401D055
:10170000299658D029A60ED0A2B38394A2A383848D
:10171000A2B18396A2A183862998A2B72988299A83
:10172000A2B5298A47D0A25308E01D84C80E226EB4
:10173000070E256E1C0E266E01D01D943BD09AC05C
:10174000ACF038D09BC0ACF035D09CC0ACF032D0FF
:101750009DC0ACF02FD09EC0ACF02CD09FC0ACF0A0
:1017600029D02CC0ACF02DC0ADF024D099C0ACF085
:1017700021D003010C6BA3C00EF30D6B036A0001B3
:10178000A25103010D11276E03500E11286E0001A6
:1017900011D0AC6B29BCAC2B0DD0AC6B29BEAC2BE3
:1017A00009D0AC6B83B0AC2B05D0AC6B83B2AC2B47
:1017B00001D000D0A15109080CE0EA6AC90EE96E17
:1017C000E26AA00EE16E0C0E016EE6CFEEFF012E76
:1017D000FCD7D79167EF12F01D8A3B6A3C6A56BC72
:1017E00001D081862BA00FD02992839856924F6A00
:1017F000329E48C041F047C040F05690466A3A6A6F
:10180000030E396E19D0298283883F6A3E6A2BA65F
:1018100002D0568201D056920B0E03010E6FB80E05
:101820000D6F34C010F333C00FF3000109DD02C0A7
:101830003AF001C039F032982BA205D05686A0802C
:10184000F8EC03F002D05696A0902BAE02D029946B
:1018500001D0298459505A106DE02F9C5AC05CF079
:1018600059C05BF029B255D01D986B50595C03E10B
:101870006C505A5C03E01D820A0E216E29A427D009
:101880001DA209D0010E686E2C0E676E040E256E27
:101890004B0E266E08D0010E686E180E676E010E94
:1018A000256E0A0E266E68C002F067C001F0023293
:1018B000013202320132023201C0BEFF0232023076
:1018C000300B006EBD50CF0B0010BD6E21D056AC5A
:1018D00005D0060E256E4B0E266E03D0256AFF0E30
:1018E000266E5CC002F05BC001F0023201320232AF
:1018F0000132023201C0BEFF02320230300B006EF4
:10190000BD50CF0B0010BD6E5CC066F05BC065F0D3
:101910000ED01D920A0E216E316A306A29941D88FC
:101920002E5201E1306A030E256E260E266E1D8CA6
:101930003294838A6BEF12F05D505B5C5F6E5E5099
:101940005C58606E60C066F05FC065F066BE01D036
:101950000CD00301086B6E50085D05E2D88066323A
:101960006532082BF8D70BD000010301086B6E50CD
:10197000085D05E2D89066326532082BF8D76750CB
:1019800065266850662266BE07D06650010809E3E6
:1019900003E16550170805E3010E666E180E656ECB
:1019A00009D066BE07D06650010804E2010E666EDB
:1019B000FF0E656E66C068F065C067F066C002F035
:1019C00065C001F00232013202320132023201C03E
:1019D000BEFF02320230300B006EBD50CF0B001044
:1019E000BD6E2990000178EF12F06CEC03F0036AF1
:1019F0007CC0E9FF010E0324EA6E3F50036AEF6EDC
:101A00007C2A7C50F80801E17C6A036A7CC0E9FF0B
:101A1000010E0324EA6E3F50000B036E3EC0EFFF41
:101A20007C2A7C50F80801E17C6A036A7CC0E9FFEB
:101A3000010E0324EA6E460EEF6E7C2A7C50F808F5
:101A400001E17C6A036A7CC0E9FF010E0324EA6EAF
:101A5000520EEF6E7C2A7C50F80801E17C6A036A22
:101A60007CC0E9FF010E0324EA6E500EEF6E7C2A63
:101A70007C50F80801E17C6A050E7E26036A80C06E
:101A8000E9FF020E0324EA6E460EEF6E802B8051B2
:101A9000F80801E1806B036A80C0E9FF020E0324AD
:101AA000EA6E520EEF6E802B8051F80801E1806BD8
:101AB000036A80C0E9FF020E0324EA6E500EEF6E47
:101AC000802B8051F80801E1806B030E82270BEF19
:101AD0000EF0328629B21ED03E50D8B43F063E06E4
:101AE0001DA217D02106215214E15F0EBE6EBD501B
:101AF000CF0BBD6E010E686E7C0E676E5AC05CF037
:101B000059C05BF00A0E216E1D92010E256E0A0E61
:101B1000266E34D03E2AD8B43F2A0A0E216E3F5298
:101B200003E13E5001080BE2020E2E6E83AA07D09D
:101B30002550020804E0020E256E0A0E266E3F5262
:101B400003E13E50240802E2030E2E6E3B5212E0E7
:101B50003B063B520FE13C6A305205E1328827AE2A
:101B600002D02C8E2F8E2F82020E03010C6F0001EB
:101B700070EC05F03C5202E03DC03CF056A674D03B
:101B800056A03FD04F50020812E34F2AD8904F344E
:101B9000036A470FE96E000E0320EA6EECCF03F0F4
:101BA000ED52EFCF40F003C041F0569029D032AE55
:101BB00027D0465213E1445202E145520FE045500E
:101BC000415C0CE303E14050445C08E245C041F055
:101BD00044C040F0456A446A569012D0425202E135
:101BE00043520EE04350415C0BE303E14050425C42
:101BF00007E243C041F042C040F0436A426A569057
:101C00000BD03F50415C08E303E13E50405C04E3ED
:101C100029B202D0EAD65680010E405C0301086F5B
:101C2000000E4158096F3F5C1CE303E108513E5C24
:101C300018E3010E40240A6F000E41200B6F3F5045
:101C40000B5D0FE303E13E500A5D0BE329B209D0BF
:101C5000A090568A0001939393959397939904D0FB
:101C60000301A080569A00017AEF12F003010B5194
:101C7000016A0A5D03E20AC300F00CD0006A080E94
:101C80000C6F0A3700360B51005CD8B0006E01367D
:101C90000C2FF7D70001B2EF13F0C7CF09F39E96D0
:101CA000E15302E0D78F01D0D79FC6AC0CD0C69CC1
:101CB000C9CF08F3C69CD56BD66BDD6BDC6BE293AA
:101CC000D783C68804D1030109512D0B090A0001ED
:101CD00011E0280A1DE0080A1BE0250AD8B497D0B5
:101CE000200AD8B4BAD0080AD8B4B7D00C0AD8B4ED
:101CF000D8D0DED0DF6BE30EDE6FD56BC9CF08F333
:101D000008C3D6F0C69CDC6BC10ED717E293DFD0B8
:101D1000C9CF08F3D55319E1D52B08C3DCF0030173
:101D200008510001D627DFC003F0DE51DE2BD8B406
:101D3000DF2BE96E03C0EAFF08C3EFFFDCAF03D07F
:101D4000D787DC9F01D0D79761D0D52D14D0D52B64
:101D500008C3DDF0030108510001D627DFC003F0FE
:101D6000DE51DE2BD8B4DF2BE96E03C0EAFF08C3D7
:101D7000EFFFADD04BD0D7A703D0D551020804E078
:101D8000020EDC25D55D28E1D52B03010851FF0AA1
:101D90000001D65D05E0D789D785030EDB6F1AD029
:101DA000D7B114D0D7A703D0DD5107080EE0EA6AF7
:101DB000A00EE96EE26AE30EE16ED551016E04E019
:101DC000E6CFEEFF012EFCD7D78104D0D789D78389
:101DD000060EDB6F7CD01AD0D5511C0807E2D52B3C
:101DE000D789D783060EDB6F72D010D0030108515C
:101DF0000001D627DFC003F0DE51DE2BD8B4DF2B85
:101E0000E96E03C0EAFF08C3EFFFD52B60D0DF6B9C
:101E1000E30EDE6FD56BE283D7A712D0D7A104D033
:101E2000D78B080EDB6F0CD0EA6AE30EE96EE26A2C
:101E3000AC0EE16E1D0E016EE6CFEEFF012EFCD75B
:101E4000D7C008F308C3C9FF08C3D6F0D7B701D07D
:101E5000DC6BC90ED717C6883AD0DC51D55D06E1D8
:101E6000D6C008F30301081F14D00001DC51D55D72
:101E70000EE2DFC003F0DE51DE2BD8B4DF2BE96EBB
:101E800003C0EAFFEFCF08F3030103D00001030111
:101E9000086B08C3C9FF08510001D627D52BC68897
:101EA00016D0D56BD66BDD6BDC6BE293C6880FD09A
:101EB000C6AC01D0C69CC6AE01D0C69E030109A126
:101EC00002D008C3C9FF0001E293C68800D0F4EF36
:101ED00013F01DAA1CD11DAC1DD0040E6D6E1D9CEF
:101EE0006A6A696A5CC062F05BC061F062C002F05D
:101EF00061C001F00232013202320132023201C00D
:101F0000BEFF02320230300B006EBD50CF0B00100E
:101F1000BD6EFDD0692AD8B46A2A2E5242E16ABE4B
:101F200012D06A5000080FE2FF0A03E169507708F7
:101F30000AE21D9A2C802F8E800E03010C6F000187
:101F400070EC05F02DD062AE03D064AE0AD002D0A2
:101F500064BE26D06250645C23E303E16350615C9D
:101F60001FE26D066D521CE1040E6D6E62C003F03F
:101F70006150612AD8B4622A0301086F03C009F3D3
:101F80000933083309330833093308C3BEFF093363
:101F90000931300B006EBD50CF0B0010BD6E00013B
:101FA000B6D02E2C42D06ABE12D06A5001080FE281
:101FB000FF0A03E169500D080AE21D9A2C802F8E5A
:101FC000800E03010C6F000170EC05F02DD062AEA5
:101FD00003D064AE0AD002D064BE26D06250645CE6
:101FE00023E303E16350615C1FE26D066D521CE167
:101FF000030E6D6E62C003F06150612AD8B4622A8C
:102000000301086F03C009F30933083309330833A8
:10201000093308C3BEFF09330931300B006EBD50D0
:10202000CF0B0010BD6E000172D02E5002082EE1C1
:1020300062AE03D064AE0AD002D064BE26D0625035
:10204000645C23E303E16350615C1FE26D066D5243
:102050001CE1020E6D6E62C003F06150612AD8B4BB
:10206000622A0301086F03C009F3093308330933F7
:102070000833093308C3BEFF09330931300B006E42
:10208000BD50CF0B0010BD6E000141D05CAE03D03F
:1020900062AE0AD002D062BE26D05C50625C23E3FE
:1020A00003E161505B5C1FE26D066D521CE1060EA0
:1020B0006D6E62C003F06150D8B462066106030120
:1020C000086F03C009F309330833093308330933B0
:1020D00008C3BEFF09330931300B006EBD50CF0B72
:1020E0000010BD6E000156A212D03F5203E13E50D7
:1020F0007D080DE2AFEC03F0030E256E260E266E72
:102100002F88100E03010C6F000170EC05F02EEF0C
:1021100014F003010A510C03F3CF01F0F4CF00F0E7
:102120000D03F35000260B510C03F3500020026EF8
:102130000001000CC4508A27000E8B23882B885185
:102140000308D8B0D3D08B31036E8A31026E0332CC
:10215000023202C089F08B6B8A6B886B56AC0BD055
:102160008551895D02E289C085F08951865D02E270
:1021700089C086F0BBD08751895D02E2569E01D0AE
:10218000568E6B50655CD8A4AED06C50665CD8A4FB
:10219000AAD0006A93B1008E56500018800BD8B4B4
:1021A0009FD09B2B56AE06D0925301E09207916BC5
:1021B000906B95D0925304E18C532CE18D532AE11E
:1021C000925301E092079251070823E3915303E1F0
:1021D000905109081EE28C5302E18D5307E09151A2
:1021E0008D5D08E303E18C51905D04E291C08DF0B8
:1021F00090C08CF08E5302E18F5307E08F51915DB8
:1022000008E303E190518E5D04E291C08FF090C02D
:102210008EF065D08DC00BF38CC00AF303010D6BFB
:10222000070E0C6F000175DF02C009F301C008F34F
:1022300003010230036E0130026E033202320332B8
:1022400002321F0E031602C001F003500001915D1F
:1022500046E303E10150905D42E38DC00BF38CC077
:102260000AF303010D6B090E0C6F000152DF02C06F
:102270000BF301C00AF3030102300D6F01300C6F44
:102280000D330C330D330C331F0E0D17010E0C25BF
:10229000016E000E0D21036E015000019151035C8F
:1022A0001EE303E19051015C1AE33294AFEC03F0BA
:1022B0002F8C400E03010C6F000170EC05F0256AB5
:1022C000FF0E266ED0A202D0D0B009D01D84C80E59
:1022D000226E070E256E1C0E266ED082D08003D093
:1022E000902BD8B4912B939156BE938149EF14F063
:1022F00084B002D0328201D0329284B202D03280D5
:1023000001D03290006A29BE008232500018020BC0
:1023100005E13AC038F039C037F02AD03750D8B488
:1023200038063706375224E1385222E19D2B3AC055
:1023300038F039C037F0299E32B2298E29A218D040
:1023400032A216D02E50020801E2302A302C08D0DA
:10235000590E3B6E256AFF0E266E3DC03CF008D03C
:102360003050020805E13B500D0802E20D0E3B6EB5
:10237000006A29BC008032500018010B05E13AC008
:1023800036F039C035F083D03550D8B4360635062E
:102390003552D8A47CD03652D8A479D09C2B3AC0E0
:1023A00036F039C035F0299C32B0298C29A235D0BD
:1023B00032A027D02E50020823E2EA6A500EE96EBE
:1023C000E26A470EE16E060E016EE6CFEEFF012EC9
:1023D000FCD7EA6A490EE96EE26A500EE16E060E1B
:1023E000016EE6CFEEFF012EFCD72A0E3E24476E8B
:1023F000000E3F20486E312A305202E15D0E3B6EE6
:102400000BD02E5209E1010E2E6E2F94040E030103
:102410000C6F000170EC05F03AD032A038D0465075
:10242000462A000A07E1110E3E5C426E000E3F583C
:10243000436E06D0110E3E5C446E000E3F58456E52
:102440004650010801E2466A32BE01D0328E3106A2
:10245000315203E10B0E2E6E1AD02E500B0817E1ED
:1024600032B202D032A813D03284050E256E4B0E44
:10247000266E100E926F8D6B8C6B8F6B8E6B2F8414
:10248000040E03010C6F000170EC05F02E6AA5EF3D
:1024900014F0F86AD09E0D8EEA6AE96AC180C182A2
:1024A000C184C196176A186A010E196E1A6A1B6AEE
:1024B0001C6AF29CF29EF2BEFDD703010495000156
:1024C000B5EF06F0C00EF212040044EF09F01DAEA5
:1024D00003D0ECEF0BF01D9E56A40CD056949A2B13
:1024E0001DA202D0299004D029A002D09CEF0CF0AC
:1024F00069EF0DF0255003080CE130520AE13B5220
:1025000008E03B50230805E3256AFF0E266E3DC018
:102510003CF09EA063D19E90030104B102D00481DF
:102520004AD104912552D8B446D1255003083CE342
:1025300032A60BD03296036A25500001F1EC01F06F
:10254000016E01C026F02ED00301260626522BE193
:10255000252C18D032A016D03284050E256E4B0ED5
:10256000266E100E0001926F8D6B8C6B8F6B8E6BD5
:102570002F84040E03010C6F000170EC05F02E6A2D
:1025800011D00301252C04D00001AFEC03F00301AE
:102590002C802F8E800E0C6F000170EC05F0256AE8
:1025A000FF0E266E030107D1255004083BE12606E5
:1025B000265212E11DA20CD00001AFEC03F02D82D7
:1025C0002F8E800E03010C6F000170EC05F00301EB
:1025D000256AFF0E266E25D0020E6726000E6822A1
:1025E00068BE0CD06850000809E2FF0A03E167509A
:1025F0007C0804E2010E686E7C0E676E68C002F013
:1026000067C001F00232013202320132023201C0EF
:10261000BEFF02320230300B006EBD50CF0B0010F7
:10262000BD6EC9D026062652D8A474D02550050800
:1026300020E132A40DD032940001AFEC03F02C8CD9
:102640002F8E800E03010C6F000170EC05F003016A
:10265000256AFF0E266ED0A202D0D0B009D01D840C
:10266000C80E226E070E256E1C0E266ED082D080FC
:1026700050D0255006082CE156AC19D00001AFEC23
:1026800003F00C0E03010B6F00010AEC04F001C013
:1026900087F0873D02D0550E876F569C2C8A2F8E6F
:1026A000800E03010C6F000170EC05F00301256A38
:1026B000FF0E266ED0A202D0D0B009D01D84C80E65
:1026C000226E070E256E1C0E266ED082D08021D081
:1026D000255007081EE11DA419D02206225206E14A
:1026E0001D94256AFF0E266E81960FD0036A255031
:1026F0000001F1EC01F0016E01C026F01DB603D01F
:10270000FF0E236E01D01D96030103D0256AFF0E34
:10271000266E51D056AC4FD0265024084CE3000111
:102720008551865D5508D8A002D0030144D032BA45
:102730000CD03284050E256E4B0E266E100E926F55
:102740008D6B8C6B8F6B8E6B02D0AFEC03F0855171
:10275000865D0301096F09C30AF3030E0B6F0001C5
:1027600036EF0EF001508525876F0C0EA96E87C0DD
:10277000A8FFA69CA69EA684F2CF00F0F29E0F01B1
:10278000550EA76EAA0EA76EA682A6B2FED7A69475
:102790000050F212569C32B40DD0D0A202D0D0B06C
:1027A00009D01D84C80E226E070E256E1C0E266EE3
:1027B000D082D08003013C5212E03C063C520FE133
:1027C0003B6A305205E1328827AE02D02C8E2F8E24
:1027D0002F82020E0C6F000170EC05F003019EA623
:1027E00004D000014DEF0EF0030156A627D00001E2
:1027F000E153D8B402D0030121D056BA09D07E509B
:10280000E80806E38251E80803E33150020815E3C3
:102810000301096B0001825103017E24056F000E44
:102820000921066F065303E10551130807E22F86BD
:10283000080E0C6F000170EC05F0030100019853C5
:1028400007E02F8A200E03010C6F000170EC05F0E9
:10285000F2A410D01DA802D069EF0FF0F2942A2A3A
:102860002A504A0807E229A801D0837429AA01D076
:1028700083762A6A9EA2DFD09E92030104A5D8D057
:10288000049532B404D056BC02D01DA403D000017C
:1028900051D4030132A44DD06CAE03D066AE0AD041
:1028A00002D066BE20D06C50665C1DE303E165502B
:1028B0006B5C19E266C003F06550D8B46606650625
:1028C000086F03C009F309330833093308330933A8
:1028D00008C3BEFF09330931300B006EBD50CF0B6A
:1028E0000010BD6E26D066AE03D06CAE0AD002D00A
:1028F0006CBE1FD066506C5C1CE303E16B50655CE2
:1029000018E266C003F06550652AD8B4662A086FDD
:1029100003C009F30933083309330833093308C303
:10292000BEFF09330931300B006EBD50CF0B0010D4
:10293000BD6E1DAA06D032B404D056BC02D0000130
:10294000D7D41DB401D081960001006A83B0008AFB
:1029500032500018200B01E09E2B03010451831814
:10296000020B03E000019F2B030132AA0ED083B0BB
:1029700004D004518318020B03E0FF0E076F01D04F
:102980000707049383B2048306D083B003D0FF0EFD
:10299000076F01D0070707534AE1FF0E076F329A0E
:1029A00083B0328A329C04B3328C32BA1FD02E6A82
:1029B000316A306A2F802F842F9C29B605D00B6B8B
:1029C0000001FCEC08F00301010E0C6F000170EC3B
:1029D00005F032AC08D02C842F8E800E03010C6FD2
:1029E000000170EC05F09E2B21D003011DBA02D02E
:1029F0002FB408D02C822F8E800E0C6F000170EC4B
:102A000005F003012F902CA40BD02C942C502D10EA
:102A100007E12F9E800E0C6F000179EC05F0030199
:102A20002F9C010E0C6F000170EC05F0030102D029
:102A30000485C284000129B65BD056BC59D01DA4C0
:102A400027D0233C01D024D0236A81B0238056BEF6
:102A5000238283B0238483B2238A84B2238684B002
:102A600023882350070B0301086F2450070B085DD0
:102A700002E083741D862350380B086F2450380BF6
:102A8000085D02E083761D8623C024F014D0000187
:102A90002C502D1003E0838483960CD032AA03D0EF
:102AA0008384838607D02FA203D08394839602D099
:102AB0008394838603011DA41AD0233C18D081B6C9
:102AC00007D08186FA0E0C6F0001A3EC04F003011D
:102AD000236A81B0238056BE238283B0238483B2CD
:102AE000238A84B2238684B0238823C024F0000183
:102AF0001DA009D01D90640E03010C6F0001A3EC12
:0C2B000004F091EC07F00400E0D40300A6
:020000040030CA
:0E00000000260609000181000FC00FE00F402E
:00000001FF
;PIC18F452
