:020000040000FA
:0403400062EF15F063
:08034800056ED8CF06F0E95064
:10035000076EEA50086EE150096EE2500A6ED950FD
:100360000B6EDA500C6EF350146EF450156EE050B4
:100370000D6E000100500F6E0150106E0250116E94
:100380000350126E0450136EF0A6CAEF01F0F0B0E5
:1003900012EF02F0F2A8D0EF01F0F2B281EF02F01A
:1003A0000F50006E1050016E1150026E1250036E0D
:1003B0001350046E0D50E06E0D8E0750E96E08501C
:1003C000EA6E0950E16E0A50E26E0B50D96E0C5085
:1003D000DA6E1450F36E1550F46E055006C0D8FF57
:1003E0001000F2CF0EF0F29EF76AFC0FF66E030ECD
:1003F000F7220900F5500EBEF28E1200FF0A0A26FF
:100400004B4B131CF2CF0EF0F29EF76A1E0FF66EE6
:10041000040EF7220900F5500EBEF28E12003132A2
:1004200033343500BCCF78F0BBCF77F081A25CD0FD
:10043000F19A91A751D07350755C006E7450765844
:10044000036E00C093F003C094F07550775C006EAB
:1004500076507858036E00C095F003C096F0965120
:10046000945D17E303E19351955D13E2036A7CC049
:10047000E9FF010E0324EA6E010E006E7D50016E4D
:1004800004E0D8900036012EFCD70050FF0AEF168A
:1004900011D0036A7CC0E9FF010E0324EA6E010E4D
:1004A000006E7D50016E04E0D8900036012EFCD71E
:1004B0000050EF127D2A7D50070807E27D6A7C2AF2
:1004C0007C50F80801E17C6A7E2A919778C074F02C
:1004D00077C073F0918507D091B505D078C074F0DE
:1004E00077C073F091850AD0F18A91A507D091B7B2
:1004F00005D078C076F077C075F09187F090D0EF96
:1005000001F02BA62FD01DAE09D0CE50CFCF03F0D7
:10051000796E03C07AF01D9E2B9224D0CE50CFCF9F
:1005200003F00301196F03C01AF37950195D1B6FB3
:100530007A501A591C6F1CBF14D01C51000811E2CC
:10054000FF0A03E11B5170080CE2FF0ED8801B5517
:10055000616E7F0E1C55626E2B821AC37AF019C32E
:1005600079F000015886F292D0EF01F0060E0201F8
:10057000F86F150EF96F050EFA6FFB6BFC6B020E30
:10058000EA6EFD0EE96EF2CF09F3F29E000E000155
:1005900039DF0A000900F550EE6E0009FBE10301A6
:1005A00009BFF28E036B00014AEF08F0FE0E010155
:1005B000F86F1D0EF96F0F0EFA6F140EFB6F00012E
:1005C0004CEF08F0D46BD66BD56BDE6BE20EDD6FB3
:1005D000DC6BDB6BDA6BD96BE1931D0E016EEA6AA3
:1005E000E20EE96EEE6A012EFDD7E06B92889E96D0
:1005F000000C360EC66E09C3C8FFC78CE191E2DF5E
:100600005EEF08F07D521FE0036A7CC0E9FF010E37
:100610000324EA6E010E006E7D50016E04E0D89056
:100620000036012EFCD70050FF0AEF14EF6E7D2A32
:100630007D50070807E27D6A7C2A7C50F80801E1BA
:100640007C6A7E2ADFD781531FE0036A80C0E9FFFE
:10065000020E0324EA6E010E006E8151016E04E069
:10066000D8900036012EFCD70050FF0AEF14EF6E31
:10067000812B8151070807E2816B802B8051F8089C
:1006800001E1806B822BDFD7000C34A601D012D0A1
:10069000589C839ABE6ABD50CF0BBD6E606A5F6A7C
:1006A0006A6A696A2B962B922BB401D01D9C58A8BC
:1006B00001D0A8DF000C03010F91F2BE0F81F29C64
:1006C000F29EF2BEFDD7F2CF10F3F29E0DC3A9FF4A
:1006D000A69CA69EA680A85010BFF28E0E6F0FA1FA
:1006E00002D0C00EF2120EC301F00001000C3496CD
:1006F0001D9CCBDF1D9E2B9058941D94606A5F6AF1
:100700000D0E03010D6F0001D6DF03010A6B01C05E
:1007100009F301C00CF30B6B0E0E0D6F0001CBDF64
:1007200003010B5101106F6E0CC370F07050000884
:1007300036E2FF0A03E16F50590831E2010E706E94
:100740003B0E6F6E70C009F30A6B0D0EA96E70C080
:10075000A8FFA69CA69EA684F2CF00F0F29E0F01F1
:10076000550EA76EAA0EA76EA682A6B2FED7A694B5
:100770000050F2120E0EA96E6FC0A8FFA69CA69E96
:10078000A684F2CF00F0F29E550EA76EAA0EA76EB9
:10079000A682A6B2FED7A6940050F2120301080E5C
:1007A000726E010E686E860E676E266AFF0E276EE9
:1007B00034985896000168EF08F00301096B09515D
:1007C000F70812E3036A09C3E9FF010E0324EA6E86
:1007D000C10EEF6E036A09C3E9FF020E0324EA6E3D
:1007E000C20EEF6E092BEBD7000104EF04F09195D8
:1007F00091977B6A7C6A7D6A7E6A7F6A806B816B77
:10080000826B976B846BD9D7986B589A000C1D80BC
:10081000818A8188839C03010B2D43D0819A819822
:10082000106B036A0C51006E00BE03065B240D6F53
:10083000035010210E6F0EBF04D00C51800A1C080B
:1008400002E35B6A11D00EBF05D00E5308E10D51D3
:10085000630805E30CBF06D00C51630803E2630E86
:100860005B6E02D00DC35BF0106B036A0C51006E1F
:1008700000BE03065C240D6F035010210E6F0EBFE7
:1008800001D002D05C6A0CD00EBF08D00E5303E139
:100890000D51630803E2630E5C6E02D00DC35CF081
:1008A00043D00B5102081EE18198106B036A0C5172
:1008B000006E00BE03065B240D6F035010210E6F07
:1008C0000EBF01D002D05B6A0CD00EBF08D00E5311
:1008D00003E10D51630803E2630E5B6E02D00DC3AA
:1008E0005BF022D00B5104081EE1819A106B036A61
:1008F0000C51006E00BE03065C240D6F03501021E6
:100900000E6F0EBF01D002D05C6A0CD00EBF08D0B3
:100910000E5303E10D51630803E2630E5C6E02D0D7
:100920000DC35CF001D018D00CBF01D00AD0839E5B
:100930000CBF01D005D00C2B838C0000839CF8D712
:100940000BD0838E0CBF08D00C51000805E20C07B9
:10095000838C0000839CF6D71D80818A8188838CDC
:1009600004000001000C030EEA6E0F0EE96EEF505A
:100970000DE00C0E016E006A002EFED7012EFBD793
:10098000BF0E006E002EFED7EF2EF3D7000C040032
:1009900003010E5315E00E51600808E2600E0F6F60
:1009A0000001E1DF600E03010E5F06D00EC30FF3FE
:1009B0000001D9DF03010E6B04000001E9D7030138
:1009C0000001000C03010B2D35D0819A81980000A5
:1009D000818A8188060EA96E5BC0A8FFA69CA69E90
:1009E000A684F2CF00F0F29E0F01550EA76EAA0E5C
:1009F000A76EA682A6B2FED7A6940050F2120B0EE6
:100A0000A96E5CC0A8FFA69CA69EA684F2CF00F0AB
:100A1000F29E550EA76EAA0EA76EA682A6B2FED7AC
:100A2000A6940050F212050E03010E6F0001AFDF15
:100A300043D003010B5102081FE181980000818817
:100A4000060EA96E5BC0A8FFA69CA69EA684F2CF48
:100A500000F0F29E0F01550EA76EAA0EA76EA68299
:100A6000A6B2FED7A6940050F2120A0E03010E6F32
:100A700000018DDF21D003010B5104081EE1819A92
:100A80000000818A0B0EA96E5CC0A8FFA69CA69EE2
:100A9000A684F2CF00F0F29E0F01550EA76EAA0EAB
:100AA000A76EA682A6B2FED7A6940050F2120A0E36
:100AB00003010E6F00016BDF03010001000C060E45
:100AC00003010D6F0001F7DD01C05BF05B506308AF
:100AD00002E2630E5B6E0B0E03010D6F0001EBDD96
:100AE00001C05CF05C50630802E2630E5C6E5B5018
:100AF000620802E35B522DE15C50620802E35C5243
:100B000014E1010E03010B6F9C0E0C6F00017FDEE0
:100B1000010E03010B6F0A0E0C6F000178DE010E4F
:100B200003010B6F00014EDF13D0020E03010B6FA8
:100B30009C0E0C6F00016BDE020E03010B6F0A0EA0
:100B40000C6F000164DE020E03010B6F00013ADF3F
:100B500018D05C50620802E35C5213E1040E0301FA
:100B60000B6F9C0E0C6F000152DE040E03010B6F25
:100B70000A0E0C6F00014BDE040E03010B6F000127
:100B800021DF74EF08F003011451000A000105E0B1
:100B9000010A0CE0030A13E01BD08494030115C37F
:100BA000E9FF16C3EAFF110EEF6E14D0829C030119
:100BB00015C3E9FF16C3EAFF110EEF6E0BD0829C3E
:100BC000030115C3E9FF16C3EAFF120EEF6E02D050
:100BD000030100D0000119EF06F003011451000ACF
:100BE000000105E0010A05E0030A05E006D084845F
:100BF00005D0828C03D0828C01D000D030EF06F07B
:100C0000829E0301126B125102082DE30EC300F005
:100C10001251016E04E0D8900032012EFCD700A0E2
:100C20001BD012C314F3030E166F110E156F0001C3
:100C3000AAD70FC310F30301136B13510F080BE373
:100C4000829ED8901037113702E28B9A01D08B8A9E
:100C5000828E132BF2D7829E12C314F30001BDD7EC
:100C60000301122BD0D70001000C03010C5100012D
:100C7000E013E05302E080989298000C03010C51BD
:100C8000FF0A0001E017E05301E19288000C349C58
:100C900083B0348C349E83B2348E34BC37D03180F0
:100CA0002BB804D058BC02D0839483868186050E6D
:100CB00003010E6F00016BDE84B003D034843480F6
:100CC00002D03494349084B203D034822B8E02D07C
:100CD00034922B9E34A402D034B209D02E883194A1
:100CE000318E800E03010C6F0001BFDF0ED02E98F5
:100CF0002E502F1006E1319E800E03010C6F000173
:100D0000BDDF3184306A336A326A04D03190319C5D
:100D100034802B8E010E03010C6F0001A6DF1DB67F
:100D200001D08196000C03010E51010A000105E07B
:100D3000030A1AE0060A2FE045D0070EA96E1EC06E
:100D4000A8FFA69CA69EA684F2CF00F0F29E0F01FB
:100D5000550EA76EAA0EA76EA682A6B2FED7A694BF
:100D60000050F21200012ED0090EA96E1FC0A8FF7C
:100D7000A69CA69EA684F2CF00F0F29E0F01550E0F
:100D8000A76EAA0EA76EA682A6B2FED7A6940050A2
:100D9000F212000117D00A0EA96E20C0A8FFA69C6F
:100DA000A69EA684F2CF00F0F29E0F01550EA76E0C
:100DB000AA0EA76EA682A6B2FED7A6940050F21283
:100DC000000100D0000C1EC00BF31FC00CF320C0AC
:100DD0000DF38186050E03010E6F0001D8DD020EB2
:100DE00003010E6F1FC00FF300010ADF1E50EA0857
:100DF00024E2EB0E1E6E010E03010E6F1EC00FF3F8
:100E00000001FEDE020E03010E6F0001C0DD84A2B0
:100E100014D01F50FD080FE3010E1F26020E030120
:100E20000E6F1FC00FF30001EBDE020E03010E6F09
:100E30000001ADDD01D0BAD0EAD784B226D01E5071
:100E400005080FE2050E1E5E010E03010E6F1EC0A7
:100E50000FF30001D5DE020E03010E6F000197DDD6
:100E600013D01F5005080FE2050E1F5E020E03018E
:100E70000E6F1FC00FF30001C3DE020E03010E6FE1
:100E8000000185DD01D092D0D8D784B014D0205095
:100E900005080FE2050E205E040E03010E6F20C050
:100EA0000FF30001ADDE020E03010E6F00016FDDD6
:100EB00001D001D0EAD7216A226A215254E184B0DC
:100EC00012D0205005080FE2050E205E040E03012B
:100ED0000E6F20C00FF3000193DE020E03010E6FB0
:100EE000000155DDECD7226A1E50E9080EE3010E21
:100EF0001E2603010E6F1EC00FF3000181DE020EDD
:100F000003010E6F000143DD13D01F50FD080FE3F6
:100F1000010E1F26020E03010E6F1FC00FF300010A
:100F20006FDE020E03010E6F000131DD01D03ED0F5
:100F300084B218D01EC021F084A012D02050FC082A
:100F40000FE3010E2026040E03010E6F20C00FF3E5
:100F5000000156DE020E03010E6F000118DDECD712
:100F60001EC022F0AAD72150E00804E31E0E21245F
:100F70001E6E02D0FE0E1E6E010E03010E6F1EC00D
:100F80000FF300013DDE010E03010E6F0001CBDE09
:100F9000020E03010E6F0001C6DE040E03010E6F88
:100FA0000001C1DE8196000E016E1ED00BC31EF043
:100FB0000CC31FF00DC320F0010E03010E6F1EC005
:100FC0000FF300011DDE020E03010E6F1EC00FF3B2
:100FD000000116DE040E03010E6F1EC00FF30001A8
:100FE0000FDE8196010E016E000C2D802D922D9446
:100FF0002D8E70C05EF06FC05DF02B80588CFF0EA0
:10100000856F866B926BEDEF08F0C180C182C19451
:10101000C1963F0E926EC70E936E1B0E946E030E1A
:10102000956E968096829694100E806EF00E816E6C
:101030005A0E826EDF0E836E070E846EF18E200EC6
:10104000016EC250C70B0110C26EC18CC29CC28E11
:10105000C19EC280C70ED56ED180B150480BB16E13
:10106000380E016E0509CA6E7F0ECB6EB70EB11633
:101070008B940C0EBD6EBE6ABD50CF0BBD6EB70E0D
:10108000B116BA6A050EBA6EB50ECD6EF18CF18A44
:10109000B6EF02F0D6EF02F0996B9A6B9B6B9C6BEC
:1010A0009D6B9E6B366AC00E356E0C0E3F6E349A89
:1010B000FE0E0301096F0001F9EF02F0316A2F6A99
:1010C0002E6AFF0E2A6E296E299E1D9277EF03F07D
:1010D000F7EC03F01D961D98FF0E246E256E2B98DD
:1010E0002B9A2B9C2C6AEBD4386A376A3A6A396A95
:1010F0001D9A070E03010D6F00015BEC03F001C0A8
:101100001EF01E3C01D008D0010E03010E6F1EC060
:101110000FF3000175DD09D0550E1E6E010E03019F
:101120000E6F1EC00FF300016BDD090E03010D6F82
:1011300000015BEC03F001C01FF01F3C01D008D0A0
:10114000020E03010E6F1FC00FF3000159DD09D01D
:10115000700E1F6E020E03010E6F1FC00FF3000111
:101160004FDD0A0E03010D6F00015BEC03F001C0BF
:1011700020F0203C01D008D0040E03010E6F20C0E7
:101180000FF300013DDD09D0700E206E040E030147
:101190000E6F20C00FF3000133DDF2885898F096EF
:1011A00076DD080E03010D6F00015BEC03F00152C8
:1011B00004E031B002D007DE02D0216A226A0F0EAD
:1011C00003010D6F00015BEC03F001B002D09193BD
:1011D00001D091832EB802D008D71AD00C0E03018B
:1011E0000D6F00015BEC03F001C087F0873D02D07A
:1011F000550E876F589CD0A202D0D0B009D01D8662
:10120000C80E286E070E266E1C0E276ED082D08068
:101210000301086B0851020812E383948396FA0EC7
:101220000E6F0001C7EC04F083848386FA0E03017D
:101230000E6F0001C7EC04F00301082BEBD700018F
:101240007CEF15F00BC3D9F0D95302E1D69B01D046
:10125000D68BE3EF0AF0000E016E8AEF0BF0F29CE2
:10126000F29EF2BEFDD7E2EC02F0FF00000CE0C0FF
:10127000ABF0D9C0ACF0DAC0ADF00CC3AEF0FAEF11
:101280000DF0842B84C0ABF0180E03010B6F00012E
:10129000AC6BAD6B82517E5C09E28251170803E2B0
:1012A000180E836F02D082C083F007D07E501708DB
:1012B00002E2836B02D082C083F083C0AEF0825121
:1012C000F70801E297838251985D02E282C098F0AC
:1012D0008353D8B488D003010D6B7FC00CF3000199
:1012E000835103017F240E6F000E0D210F6F0F53EA
:1012F00003E10E51F7084AE21D0ED8800B55036A30
:10130000AB0F0D6F000E03200E6F036A7FC00FF34B
:10131000020E0324106FF80ED8807F54116F0EC395
:10132000EAFF0DC3E9FF10C3E2FF7FC0E1FF1151E7
:10133000016E04E0E6CFEEFF012EFCD71D0ED88033
:101340000B55F80FD8807F54036AAB0F0F6F000E58
:101350000320106FF80ED8807F540001835D0301D5
:10136000116F10C3EAFF0FC3E9FF020EE26EE16ADC
:101370001151016E04E0E6CFEEFF012EFCD7000113
:1013800083517F24080F7F6E22D003011D0ED88069
:101390000B55036AAB0F0D6F000E03200E6F036A2F
:1013A0007FC00FF3020E0324106F0EC3EAFF0DC3BC
:1013B000E9FF10C3E2FF7FC0E1FF00018351016E2E
:1013C00004E0E6CFEEFF012EFCD783517F26F29C8E
:1013D000F29EF2BEFDD78351825FC00EF21283519E
:1013E00003010B5F00017E5003010B5D03E20BC3A1
:1013F00083F002D07EC083F083C0AFF07E50F70848
:1014000003E20001978103017E500001985D02E232
:101410007EC098F08353D8B484D003010D6B7BC099
:101420000CF30001835103017B240E6F000E0D218C
:101430000F6F0F5303E10E51F7084AE21D0ED880DB
:101440000B55036AAB0F0D6F000E03200E6F036A7E
:101450007BC00FF3010E0324106FF80ED8807B546D
:10146000116F0EC3EAFF0DC3E9FF10C3E2FF7BC09B
:10147000E1FF1151016E04E0E6CFEEFF012EFCD733
:101480001D0ED8800B55F80FD8807B54036AAB0F24
:101490000F6F000E0320106FF80ED8807B540001F0
:1014A000835D0301116F10C3EAFF0FC3E9FF010E53
:1014B000E26EE16A1151016E04E0E6CFEEFF012E0B
:1014C000FCD7000183517B24080F7B6E22D00301DF
:1014D0001D0ED8800B55036AAB0F0D6F000E032055
:1014E0000E6F036A7BC00FF3010E0324106F0EC34F
:1014F000EAFF0DC3E9FF10C3E2FF7BC0E1FF00017B
:101500008351016E04E0E6CFEEFF012EFCD783513C
:101510007B26F29CF29EF2BEFDD783517E5EC00E0A
:10152000F2121DEF0CF003010B5304E01C0E2E16FB
:101530002F9203D03C0E2E162F9234AC03D034AE33
:1015400001D02E942EA805D02E98000147EC06F06D
:1015500003012E502F1003E0C50E311602D0450EA8
:1015600031160001000C306A336A326AFAEF0DF06E
:10157000016A026A006A036A0301105102E10F5115
:1015800018E0100E116FD8900D370E370036033665
:101590001051035C02E10F51005C07E30F51005E44
:1015A000D8A003061051035ED88001360236112FF1
:1015B000EAD700000001000CD6B101D02BD3030103
:1015C0000B6B00013FD69F513F0B0301086F085181
:1015D0000C0802E20C0E086F0001A051070AD8B4F3
:1015E00097D00F0AD8B495D0010AD8B496D0090A7A
:1015F000D8B4A0D0030AD8B4ADD0020AD8B4CED0A3
:10160000030AD8B4D1D0060AD8B4D9D00E0AD8B4B7
:10161000D7D0010AD8B4EFD00E0AD8B4F7D0030A55
:10162000D8B4F5D0820AD8B404D1070AD8B404D10A
:10163000030AD8B404D1020AD8B429D1160AD8B4FE
:1016400029D1110AD8B42ED1030AD8B435D1010A50
:10165000D8B433D10C0AD8B451D14D0AD8B47BD107
:10166000010AD8B4A7D1670AD8B4BED1280AD8B421
:10167000BED11A0AD8B401D2010AD8B407D2510A8D
:10168000D8B40BD2010AD8B411D2070AD8B415D2F3
:10169000010AD8B41BD27B0AD8B41FD2010AD8B42D
:1016A00027D27F0AD8B42BD2010AD8B43FD2560A27
:1016B000D8B441D20F0AD8B445D2280AD8B453D2EC
:1016C000010AD8B45CD2030AD8B45CD2010AD8B4F7
:1016D0005CD2070AD8B45CD2010AD8B45CD2030A3F
:1016E000D8B45CD2010AD8B45CD20F0AD8B45ED2A6
:1016F000010AD8B45ED2030AD8B46BD2010AD8B4B6
:101700006CD2070AD8B46DD2010AD8B46ED271D2A5
:1017100071D2A1D501C0ABF06DD2EA6AAB0EE96E11
:10172000E26AC80EE16E1D0E016EE6CFEEFF012EDD
:10173000FCD760D2EA6AAB0EE96EE26AA10EE16EF6
:1017400003010851016E04E0E6CFEEFF012EFCD745
:10175000000150D2A151010A03E0030A0FE01CD09E
:10176000EA6AAB0EE96E020EE26EF80EE16E0C0E46
:10177000016EE6CFEEFF012EFCD70FD0EA6AAB0E6A
:10178000E96E010EE26EF80EE16E040E016EE6CF18
:10179000EEFF012EFCD701D000D02CD2D6A702D06C
:1017A0001D8201D05CDD26D22EC000F02F50000B30
:1017B000036E2EC00BF32EC00CF3000158D51AD2C5
:1017C000A1C009F3A2C00AF309C3A9FF0AC3A8FF75
:1017D000A69CA69EA684F2CF00F0F29E0F01550EA5
:1017E000A76EAA0EA76EA682A6B2FED7A694005038
:1017F000F2120001FFD1A1C009F309C30DF35BECA4
:1018000003F001C00AF30AC3ABF0F4D1F3D1F29CA8
:10181000F29EF2BEFDD7A15305E0A2C00CF335EC59
:1018200006F004D0A2C00CF33EEC06F0C00EF2129B
:10183000E1D131C0ABF0DED124D53196DBD134A675
:101840000CD0349645EC03F0266AFF0E276EFA0E94
:1018500003010E6F0001C7EC04F0A1C02DF00301DD
:101860000C6BA3C00EF30D6B036A0001A2510301C0
:101870000D115D6E03500E115E6E5D505E1004E141
:10188000000145EC03F003012B800001B3D145ECCE
:1018900003F0B0D1266AFF0E276E31B402D02E8835
:1018A000318EA8D1010E03010B6F00013CDE2EC06A
:1018B000ABF02FC0ACF09ED156D603010C6BA2C08A
:1018C0000EF30D6B036A0001A15103010D110F6F9F
:1018D00003500E11106FD8901031036E0F31026E4D
:1018E000676E03C068F068BE07D06850010804E264
:1018F000010E686EFF0E676E00017CD103010C6B58
:10190000A2C00EF30D6B036A0001A15103010D117A
:101910000F6F03500E11106FD8901031706E0F3191
:101920006F6E7050010809E303E16F50210805E371
:10193000010E706E220E6F6E0CD07050000809E21E
:10194000FF0A03E16F50590804E2010E706E590E50
:101950006F6E00014FD170C00BF303010C6B0D0EC5
:10196000A96E70C0A8FFA69CA69EA684F2CF00F028
:10197000F29E0F01550EA76EAA0EA76EA682A6B202
:10198000FED7A6940050F2120E0EA96E6FC0A8FFEB
:10199000A69CA69EA684F2CF00F0F29E550EA76EDE
:1019A000AA0EA76EA682A6B2FED7A6940050F21287
:1019B000000120D19193A1B191830F0EA96EA1C016
:1019C000A8FFA69CA69EA684F2CF00F0F29E0F016F
:1019D000550EA76EAA0EA76EA682A6B2FED7A69433
:1019E0000050F212000106D1A1C072F003D1030130
:1019F0000C6BA2C00EF30D6B036A0001A151030131
:101A00000D11356E03500E11366E2BA40FD00B0E38
:101A10000E6FB80E0D6F36C010F335C00FF3000116
:101A2000A7DD02C03CF001C03BF00301365203E1E8
:101A300035509D0803E2040E3F6E1DD02E0ED88057
:101A400035540B6F010E36540C6F0CC30EF30BC3E1
:101A50000DF3106B1D0E0F6F00018ADD01C03FF00A
:101A60003F50030803E3040E3F6E05D03F500C08BF
:101A700002E20C0E3F6E0001BDD0010E03010B6FA0
:101A8000A1C00CF3000107EC04F0B4D0010E030177
:101A90000B6F0001E2EC04F0ADD0020E03010B6FFE
:101AA000A1C00CF3000107EC04F0A4D0020E030166
:101AB0000B6F0001E2EC04F09DD0040E03010B6FEC
:101AC000A1C00CF3000107EC04F094D0040E030154
:101AD0000B6F0001E2EC04F08DD0010E03010E6FDC
:101AE000A1C00FF3000100EC06F0A1C01EF082D0EF
:101AF000010E03010E6F000193EC06F07BD0080E7F
:101B0000A96EA1C0A8FFA69CA69EA684F2CF00F055
:101B1000F29E0F01550EA76EAA0EA76EA682A6B260
:101B2000FED7A6940050F212000164D0E3EC06F058
:101B300001C0ABF05FD0A15303E02B881D9601D00C
:101B40002B9858D02BA80ED0A1B38394A1A3838443
:101B5000A1B18396A1A183862B9AA1B72B8A2B9C36
:101B6000A1B52B8C47D0A15308E01D86C80E286E66
:101B7000070E266E1C0E276E01D01D963BD099C015
:101B8000ABF038D09AC0ABF035D09BC0ABF032D0C0
:101B90009CC0ABF02FD09DC0ABF02CD09EC0ABF062
:101BA00029D02EC0ABF02FC0ACF024D098C0ABF041
:101BB00021D003010C6BA2C00EF30D6B036A000170
:101BC000A15103010D11296E03500E112A6E00015F
:101BD00011D0AB6B2BBEAB2B0DD0AB6B34B0AB2BA2
:101BE00009D0AB6B83B0AB2B05D0AB6B83B2AB2B07
:101BF00001D000D0A05109080CE0EA6AC80EE96ED5
:101C0000E26A9F0EE16E0C0E016EE6CFEEFF012E32
:101C1000FCD7D69181EF15F01D8C3D6A3E6A58BC09
:101C200001D081862DA00FD02B9483985894516AAF
:101C300058904AC043F049C042F05892486A3C6A02
:101C4000030E3B6E19D02B848388416A406A2DA60F
:101C500002D0588401D058940B0E03010E6FB80EB9
:101C60000D6F36C010F335C00FF3000181DC02C0E8
:101C70003CF001C03BF0349A2DA205D05888F08684
:101C8000F7EC03F002D05898F0962DAE02D02B96C8
:101C900001D02B865D505E106BE0319C5EC060F021
:101CA0005DC05FF02BB453D01D9A58BC03D01D8487
:101CB0000A0E236E2BA627D01DA409D0010E6C6E30
:101CC0002C0E6B6E040E266E4B0E276E08D0010E86
:101CD0006C6E180E6B6E010E266E0A0E276E6CC0AF
:101CE00002F06BC001F002320132023201320232E4
:101CF00001C0BEFF02320230300B006EBD50CF0B70
:101D00000010BD6E23D058AC07D0060E266E130E01
:101D1000276E040E286E03D0266AFF0E276E60C061
:101D200002F05FC001F002320132023201320232AF
:101D300001C0BEFF02320230300B006EBD50CF0B2F
:101D40000010BD6E60C06AF05FC069F00ED01D94D7
:101D50000A0E236E336A326A2B961D8A305201E1D5
:101D6000326A030E266E260E276E1D8E3496838AE7
:101D700085EF15F061505F5C636E62506058646E71
:101D800064C06AF063C069F06ABE01D00CD0030180
:101D9000086B7250085D05E2D8806A326932082B00
:101DA000F8D70BD000010301086B7250085D05E203
:101DB000D8906A326932082BF8D76B5069266C507C
:101DC0006A226ABE07D06A50010809E303E169503C
:101DD000170805E3010E6A6E180E696E09D06ABE17
:101DE00007D06A50010804E2010E6A6EFF0E696EA8
:101DF0006AC06CF069C06BF06AC002F069C001F0A3
:101E00000232013202320132023201C0BEFF02321E
:101E10000230300B006EBD50CF0B0010BD6E2B9208
:101E2000000192EF15F002EC03F0036A7CC0E9FFB9
:101E3000010E0324EA6E4150036AEF6E7C2A7C5047
:101E4000F80801E17C6A036A7CC0E9FF010E032403
:101E5000EA6E4150000B036E40C0EFFF7C2A7C50BD
:101E6000F80801E17C6A036A7CC0E9FF010E0324E3
:101E7000EA6E460EEF6E7C2A7C50F80801E17C6A1F
:101E8000036A7CC0E9FF010E0324EA6E520EEF6E76
:101E90007C2A7C50F80801E17C6A036A7CC0E9FF77
:101EA000010E0324EA6E500EEF6E7C2A7C50F80877
:101EB00001E17C6A050E7E26036A80C0E9FF020EFE
:101EC0000324EA6E460EEF6E802B8051F80801E184
:101ED000806B036A80C0E9FF020E0324EA6E520E93
:101EE000EF6E802B8051F80801E1806B036A80C09F
:101EF000E9FF020E0324EA6E500EEF6E802B805134
:101F0000F80801E1806B030E82274DEF10F0348852
:101F10002BB41ED04050D8B4410640061DA417D0A3
:101F20002306235214E15F0EBE6EBD50CF0BBD6E73
:101F3000010E6C6E7C0E6B6E5EC060F05DC05FF07B
:101F40000A0E236E1D94010E266E0A0E276E34D0E3
:101F5000402AD8B4412A0A0E236E415203E1405070
:101F600001080BE2020E306E83AA07D02650020849
:101F700004E0020E266E0A0E276E415203E1405025
:101F8000240802E2030E306E3D5212E03D063D523F
:101F90000FE13E6A325205E1348A29AE02D02E8E1C
:101FA000318E3182020E03010C6F000135EC06F018
:101FB0003E5202E03FC03EF058A8A5D058A263D0E0
:101FC0005150020816E343C009F342C008F3512AF6
:101FD000D8905134036A490FE96E000E0320EA6E6F
:101FE000ECCF03F0ED52EFCF42F003C043F0589234
:101FF00031D058A02FD0485217E1465202E1475243
:1020000013E04750435C10E303E14250465C0CE2AE
:1020100043C009F342C008F347C043F046C042F052
:10202000476A466A589216D0445202E1455212E07D
:102030004550435C0FE303E14250445C0BE243C074
:1020400009F342C008F345C043F044C042F0456A7A
:10205000446A589258B215D042500301085D0A6F85
:10206000435009590B6F0B53D8B402D0000109D06B
:102070000A510B08D8B002D0000103D000019189A9
:1020800001D091990BD04150435C08E303E14050EB
:10209000425C04E32BB402D0C6D658822BB431D0B4
:1020A00091B92AD0010E425C03010A6F000E435819
:1020B0000B6F415CD8B002D0000123D006E10A5179
:1020C000405CD8B002D000011CD0010E42240C6F3D
:1020D000000E43200D6F41500D5DD8B002D00001BD
:1020E00010D0D8B402D0000107D040500C5DD8B059
:1020F00002D0000106D00001F096588A9195919780
:1021000002D0F086589A94EF15F003010B51016A42
:102110000A5D03E20AC300F00CD0006A080E0C6FDF
:102120000A3700360B51005CD8B0006E01360C2F18
:10213000F7D70001000CC7CF09F39E96E05302E0E9
:10214000D68F01D0D69FC6AC0CD0C69CC9CF08F3A1
:10215000C69CD46BD56BDC6BDB6BE193D683C688F6
:1021600004D1030109512D0B090A000111E0280ACD
:102170001DE0080A1BE0250AD8B497D0200AD8B47D
:10218000BAD0080AD8B4B7D00C0AD8B4D8D0DED0A8
:10219000DE6BE20EDD6FD46BC9CF08F308C3D5F058
:1021A000C69CDB6BC10ED617E193DFD0C9CF08F315
:1021B000D45319E1D42B08C3DBF00301085100010B
:1021C000D527DEC003F0DD51DD2BD8B4DE2BE96E60
:1021D00003C0EAFF08C3EFFFDBAF03D0D687DB9F66
:1021E00001D0D69761D0D42D14D0D42B08C3DCF005
:1021F000030108510001D527DEC003F0DD51DD2BBE
:10220000D8B4DE2BE96E03C0EAFF08C3EFFFADD000
:102210004BD0D6A703D0D451020804E0020EDB2530
:10222000D45D28E1D42B03010851FF0A0001D55DDC
:1022300005E0D689D685030EDA6F1AD0D6B114D050
:10224000D6A703D0DC5107080EE0EA6A9F0EE96EBC
:10225000E26AE20EE16ED451016E04E0E6CFEEFFD9
:10226000012EFCD7D68104D0D689D683060EDA6F2C
:102270007CD01AD0D4511C0807E2D42BD689D6833F
:10228000060EDA6F72D010D0030108510001D52775
:10229000DEC003F0DD51DD2BD8B4DE2BE96E03C0C8
:1022A000EAFF08C3EFFFD42B60D0DE6BE20EDD6FD8
:1022B000D46BE183D6A712D0D6A104D0D68B080E5A
:1022C000DA6F0CD0EA6AE20EE96EE26AAB0EE16EFA
:1022D0001D0E016EE6CFEEFF012EFCD7D6C008F32F
:1022E00008C3C9FF08C3D5F0D6B701D0DB6BC90E50
:1022F000D617C6883AD0DB51D45D06E1D5C008F3C5
:102300000301081F14D00001DB51D45D0EE2DEC0D2
:1023100003F0DD51DD2BD8B4DE2BE96E03C0EAFFFC
:10232000EFCF08F3030103D000010301086B08C3DA
:10233000C9FF08510001D527D42BC68816D0D46B0D
:10234000D56BDC6BDB6BE193C6880FD0C6AC01D0DC
:10235000C69CC6AE01D0C69E030109A102D008C327
:10236000C9FF0001E193C68800D021EF18F01DAC31
:1023700046D11DAE1DD0040E716E1D9E6E6A6D6A33
:1023800060C066F05FC065F066C002F065C001F035
:102390000232013202320132023201C0BEFF023289
:1023A0000230300B006EBD50CF0B0010BD6E27D138
:1023B0006D2AD8B46E2A305242E16EBE12D06E50F1
:1023C00000080FE2FF0A03E16D5077080AE21D9C46
:1023D0002E80318E800E03010C6F000135EC06F06B
:1023E0002DD066AE03D068AE0AD002D068BE26D02B
:1023F0006650685C23E303E16750655C1FE2710689
:1024000071521CE1040E716E66C003F06550652ABE
:10241000D8B4662A0301086F03C009F309330833EF
:1024200009330833093308C3BEFF09330931300BC0
:10243000006EBD50CF0B0010BD6E0001E0D0302CFF
:1024400042D06EBE12D06E5001080FE2FF0A03E1C7
:102450006D500D080AE21D9C2E80318E800E030106
:102460000C6F000135EC06F02DD066AE03D068AEDF
:102470000AD002D068BE26D06650685C23E303E130
:102480006750655C1FE2710671521CE1030E716EAC
:1024900066C003F06550652AD8B4662A0301086F48
:1024A00003C009F30933083309330833093308C378
:1024B000BEFF09330931300B006EBD50CF0B001049
:1024C000BD6E00019CD03050020832E166AE03D0F0
:1024D00068AE0AD002D068BE26D06650685C23E39E
:1024E00003E16750655C1FE2710671521CE1020E48
:1024F000716E66C003F06550652AD8B4662A030180
:10250000086F03C009F3093308330933083309336B
:1025100008C3BEFF09330931300B006EBD50CF0B2D
:102520000010BD6E000141C05AF040C059F067D0A4
:1025300060AE03D066AE0AD002D066BE4CD060500A
:10254000665C49E303E165505F5C45E271067152E8
:1025500042E1060E716E5950405C0301086F5A50FB
:102560004158096F095303E10851010819E266C097
:1025700003F06550D8B466066506086F03C009F31A
:102580000933083309330833093308C3BEFF09335D
:102590000931300B006EBD50CF0B0010BD6E16D050
:1025A000652AD8B4662A66C002F065C001F002321E
:1025B000013202320132023201C0BEFF0232023069
:1025C000300B006EBD50CF0B0010BD6E41C05AF0F5
:1025D00040C059F0000158A412D0415203E14050CC
:1025E0007D080DE245EC03F0030E266E260E276EE5
:1025F0003188100E03010C6F000135EC06F056EF28
:1026000018F003010A510C03F3CF01F0F4CF00F0EE
:102610000D03F35000260B510C03F3500020026E03
:102620000001000CC4508A27000E8B23882B885190
:102630000308D8B078D18B31036E8A31026E033231
:10264000023202C089F08B6B8A6B886B58AC3CD02D
:102650008551895D02E289C085F08951865D02E27B
:1026600089C086F091A32FD08651855D2CE28551DB
:10267000865D0301096F09C30AF3030E0B6F0001A6
:1026800044DD01508525876F8751EB0807E3140E61
:102690008725895D03E002E3588E0AD0875113082D
:1026A00006E2140E875D895D02E2589E01D03BD19F
:1026B000006A91B1008E58500018800B01E0922BF7
:1026C000919158BE91812FD18751895D02E2589E28
:1026D00001D0588E6F50695CD8A422D170506A5CCA
:1026E000D8A41ED1006A91B1008E58500018800BFA
:1026F000D8B413D19A2B58AE06D0905301E090076E
:102700008F6B8E6B09D1905304E18C531DE18D5377
:102710001BE1905301E090079051070814E38F5399
:1027200003E18E5108080FE28C5302E18D5307E05C
:102730008F518D5D08E303E18C518E5D04E28FC003
:102740008DF08EC08CF0E8D08DC00BF38CC00AF3F6
:1027500003010D6B070E0C6F000153DF02C009F37C
:1027600001C008F303010230036E0130026E033230
:102770000232033202321F0E031602C001F0035070
:1027800000018F5DD8A0C8D004E101508E5DD8A0B3
:10279000C3D08DC00BF38CC00AF303010D6B090E7F
:1027A0000C6F00012EDF02C00BF301C00AF303011E
:1027B00002300D6F01300C6F0D330C330D330C33C1
:1027C0001F0E0D17010E0C25016E000E0D21036E5C
:1027D000015000018F51035CD8A09ED004E18E51BE
:1027E000015CD8A099D0349645EC03F091A37DD03C
:1027F0008D5303E18C51120839E27050010836E321
:1028000003E16F50580832E36F2AD8B4702A70C0C1
:1028100008F30301096B0D0EA96E70C0A8FFA69CFA
:10282000A69EA684F2CF00F0F29E0F01550EA76E71
:10283000AA0EA76EA682A6B2FED7A6940050F212E8
:102840000E0EA96E6FC0A8FFA69CA69EA684F2CF0E
:1028500000F0F29E550EA76EAA0EA76EA682A6B233
:10286000FED7A6940050F2123FD000018D533DE1F7
:102870008C510A083AE37050000837E2FF0A03E17E
:102880006F50220832E26F50D8B470066F0670C0E5
:1028900008F30301096B0D0EA96E70C0A8FFA69C7A
:1028A000A69EA684F2CF00F0F29E0F01550EA76EF1
:1028B000AA0EA76EA682A6B2FED7A6940050F21268
:1028C0000E0EA96E6FC0A8FFA69CA69EA684F2CF8E
:1028D00000F0F29E550EA76EAA0EA76EA682A6B2B3
:1028E000FED7A6940050F2120001318C400E030175
:1028F0000C6F000135EC06F0266AFF0E276ED0A2A1
:1029000002D0D0B009D01D86C80E286E070E266EE4
:102910001C0E276ED082D08003D08E2BD8B48F2B84
:10292000919158BE918172EF18F084B002D0348436
:1029300001D0349484B202D0348201D03492006A3F
:1029400034B0008434500018040B05E13CC03AF068
:102950003BC039F02AD03950D8B43A06390639523A
:1029600024E13A5222E19C2B3CC03AF03BC039F0C2
:10297000349034B434802BA418D034A416D0305002
:10298000020801E2322A322C08D0590E3D6E266A26
:10299000FF0E276E3FC03EF008D03250020805E11E
:1029A0003D500D0802E20D0E3D6E006A2BBE008206
:1029B00034500018020B05E13CC038F03BC037F042
:1029C0007FD03750D8B4380637063752D8A478D0DD
:1029D0003852D8A475D09B2B3CC038F03BC037F0A0
:1029E0002B9E34B22B8E2BA435D034A227D030505E
:1029F000020823E2EA6A520EE96EE26A490EE16ECB
:102A0000060E016EE6CFEEFF012EFCD7EA6A4B0EF2
:102A1000E96EE26A520EE16E060E016EE6CFEEFF3F
:102A2000012EFCD72A0E4024496E000E41204A6E2A
:102A3000332A325202E15D0E3D6E0BD0305209E175
:102A4000010E306E3194040E03010C6F000135EC61
:102A500006F036D034A234D04850482A000A07E1A4
:102A6000110E405C446E000E4158456E06D0110EAA
:102A7000405C466E000E4158476E4850010801E226
:102A8000486A58803306335203E10B0E306E18D07B
:102A900030500B0815E134B402D034AA11D034867A
:102AA000050E266E4B0E276E100E906F8D6B8C6B85
:102AB0003184040E03010C6F000135EC06F0306A1E
:102AC000CFEF18F0F86AD09E0D8EEA6AE96AC180ED
:102AD000C182C184C196176A186A010E196E1A6AFA
:102AE0001B6A1C6A9199F29CF29EF2BEFDD703010B
:102AF0000495000105EF08F0C00EF2120400DCEFAF
:102B00000AF02BA003D00CEF0EF02B9058A60CD09F
:102B10005896992B1DA402D02B9204D02BA202D040
:102B2000BAEF0EF087EF0FF0265003080CE1325297
:102B30000AE13D5208E03D50230805E3266AFF0EF6
:102B4000276E3FC03EF09EA078D29E90030104B154
:102B500002D004815DD204912652D8B459D22650B5
:102B600003083AE334A80BD03498036A26500001D6
:102B7000F1EC01F0016E01C027F02CD00301270613
:102B8000275229E1262C16D034A214D03486050E03
:102B9000266E4B0E276E100E0001906F8D6B8C6BA6
:102BA0003184040E03010C6F000135EC06F0306A2D
:102BB00011D00301262C04D0000145EC03F00301E1
:102BC0002E80318E800E0C6F000135EC06F0266AE7
:102BD000FF0E276E03011CD2265004083BE1270696
:102BE000275212E11DA40CD0000145EC03F02F8206
:102BF000318E800E03010C6F000135EC06F00301ED
:102C0000266AFF0E276E25D0020E6B26000E6C2260
:102C10006CBE0CD06C50000809E2FF0A03E16B5057
:102C20007C0804E2010E6C6E7C0E6B6E6CC002F0D0
:102C30006BC001F00232013202320132023201C0B5
:102C4000BEFF02320230300B006EBD50CF0B0010C1
:102C5000BD6EDED127062752D8A4DAD1265005084A
:102C600020E134A60DD03496000145EC03F02E8C03
:102C7000318E800E03010C6F000135EC06F003016C
:102C8000266AFF0E276ED0A202D0D0B009D01D86D2
:102C9000C80E286E070E266E1C0E276ED082D080BE
:102CA000B7D126500608D8A492D158AC7DD12806B9
:102CB00028525EE1000191A308D091A30ED0925159
:102CC00007080BE29251130808E32850020805E3B5
:102CD0008551865D550801E253D045EC03F00C0E9A
:102CE00003010D6F00015BEC03F001C087F0873D2D
:102CF00002D0550E876F010E706E3B0E6F6E70C066
:102D000008F30301096B0D0EA96E70C0A8FFA69C05
:102D1000A69EA684F2CF00F0F29E0F01550EA76E7C
:102D2000AA0EA76EA682A6B2FED7A6940050F212F3
:102D30000E0EA96E6FC0A8FFA69CA69EA684F2CF19
:102D400000F0F29E550EA76EAA0EA76EA682A6B23E
:102D5000FED7A6940050F212589C2E8A318E800E17
:102D600003010C6F000135EC06F01DD11BD10301EE
:102D7000036A26500001F1EC01F0016E01C027F05A
:102D800091A308D091A372D0925107086FE292519B
:102D900013086CE32850020869E38551865D5508E5
:102DA00065E28551865D0301096F09C30AF3030ECD
:102DB0000B6F000185EC10F001508525876F0C0E1C
:102DC000A96E87C0A8FFA69CA69EA684F2CF00F09D
:102DD000F29E0F01550EA76EAA0EA76EA682A6B28E
:102DE000FED7A6940050F212589C000191A32ED059
:102DF00070C008F30301096B0D0EA96E70C0A8FF27
:102E0000A69CA69EA684F2CF00F0F29E0F01550E5E
:102E1000A76EAA0EA76EA682A6B2FED7A6940050F1
:102E2000F2120E0EA96E6FC0A8FFA69CA69EA684E5
:102E3000F2CF00F0F29E550EA76EAA0EA76EA682E4
:102E4000A6B2FED7A6940050F212000134BC0AD0FC
:102E50003486050E266E4B0E276E100E906F8D6B0E
:102E60008C6B03D045EC03F09ED09CD091A39AD0FC
:102E70009251080823E37050010820E303E16F50EA
:102E80004F081CE30A0E6F26000E702270C06AF015
:102E90006FC069F06AC002F069C001F0023201320D
:102EA00002320132023201C0BEFF02320230300B68
:102EB000006EBD50CF0B0010BD6E73D092510B0849
:102EC00023E37050010820E303E16F5058081CE32E
:102ED000010E6F26000E702270C06AF06FC069F09C
:102EE0006AC002F069C001F00232013202320132DE
:102EF000023201C0BEFF02320230300B006EBD5004
:102F0000CF0B0010BD6E4DD09251120824E27050CC
:102F1000000821E2FF0A03E16F5026081CE2050EBB
:102F20006F5E000E705A70C06AF06FC069F06AC0C0
:102F300002F069C001F00232013202320132023283
:102F400001C0BEFF02320230300B006EBD50CF0B0D
:102F50000010BD6E26D092510C0823E2705000087C
:102F600020E2FF0A03E16F5022081BE2010E6F5EB0
:102F7000000E705A70C06AF06FC069F06AC002F04B
:102F800069C001F00232013202320132023201C064
:102F9000BEFF02320230300B006EBD50CF0B00106E
:102FA000BD6E926B12D00301266AFF0E276ED0A26F
:102FB00002D0D0B009D01D86C80E286E070E266E2E
:102FC0001C0E276ED082D080000123D00301265032
:102FD00007081EE11DA619D02806285206E11D96F5
:102FE000266AFF0E276E81960FD0036A26500001D5
:102FF000F1EC01F0016E01C027F01DB803D0FF0E07
:10300000246E01D01D98030103D0266AFF0E276E9F
:1030100000013E5212E03E063E520FE13D6A32523E
:1030200005E1348A29AE02D02E8E318E3182020E15
:1030300003010C6F000135EC06F09EA602D09BEF59
:1030400010F058A822D0E05320E158BA09D07E50A1
:10305000D80806E38251D80803E33350020815E389
:103060000301096B0001825103017E24056F000EEC
:103070000921066F065303E10551130807E2318663
:10308000080E0C6F000135EC06F0030100019753A8
:1030900007E0318A200E03010C6F000135EC06F0C9
:1030A000F2A410D01DAA02D0B7EF11F0F2942C2A8E
:1030B0002C504A0807E22BAA01D083742BAC01D014
:1030C00083762C6A9EA2E1D09E92030104A5DAD0F9
:1030D000049534B604D058BC02D01DA604D000011B
:1030E00012EF13F0030134A64DD070AE03D06AAED8
:1030F0000AD002D06ABE20D070506A5C1DE303E1A2
:1031000069506F5C19E26AC003F06950D8B46A066E
:103110006906086F03C009F309330833093308331C
:10312000093308C3BEFF09330931300B006EBD50AF
:10313000CF0B0010BD6E26D06AAE03D070AE0AD0A1
:1031400002D070BE1FD06A50705C1CE303E16F5068
:10315000695C18E26AC003F06950692AD8B46A2A27
:10316000086F03C009F309330833093308330933FF
:1031700008C3BEFF09330931300B006EBD50CF0BC1
:103180000010BD6E1DAC07D034B605D058BC03D0BE
:10319000000195EF14F01DB601D081960001006A80
:1031A00083B0008C34500018400B01E09D2B0301CC
:1031B00004518318020B03E000019E2B030134AC81
:1031C0000ED083B004D004518318020B03E0FF0E2D
:1031D000076F01D00707049383B2048306D083B03E
:1031E00003D0FF0E076F01D0070707534AE1FF0E18
:1031F000076F349C83B0348C349E04B3348E34BC5B
:103200001FD0306A336A326A31803184319C2BB8E6
:1032100005D00B6B000193EC0AF00301010E0C6F5B
:10322000000135EC06F034AE08D02E84318E800ECD
:1032300003010C6F000135EC06F09D2B21D003013A
:103240001DBC02D031B408D02E82318E800E0C6F9E
:10325000000135EC06F0030131902EA40BD02E9422
:103260002E502F1007E1319E800E0C6F00013EECB6
:1032700006F00301319C010E0C6F000135EC06F0E5
:10328000030102D00485C28400012BB85BD058BC76
:1032900059D01DA627D0243C01D024D0246A81B067
:1032A000248058BE248283B0248483B2248A84B2CA
:1032B000248684B024882450070B0301086F25500E
:1032C000070B085D02E083741D882450380B086FDB
:1032D0002550380B085D02E083761D8824C025F058
:1032E00014D000012E502F1003E0838483960CD05D
:1032F00034AC03D08384838607D031A203D0839477
:10330000839602D08394838603011DA61AD0243CA1
:1033100018D081B607D08186050E0E6F0001C7EC6C
:1033200004F00301246A81B0248058BE248283B053
:10333000248483B2248A84B2248684B0248824C05E
:1033400025F000011DA209D01D92640E03010E6F2D
:103350000001C7EC04F02FEC09F004007FEF15F03A
:02336000030068
:020000040030CA
:0E00000000260609000181000FC00FE00F402E
:00000001FF
;PIC18F452
