:1000000000308A00472E00008A1D0A128A190A163B
:100010008A11831A0F28A500030EA6001428831244
:10002000A500030EA600A6140A1E8A110A1A8A1534
:100030000A120A08AD008A01A50E0408A7002008CC
:10004000A8002108A9002208AA002308AB00240860
:10005000AC0083128C308400801D30288C19452818
:10006000270884002808A0002908A1002A08A20067
:100070002B08A3002C08A4002D088A00260E83005C
:100080008312250EA618831609008A1166280A1005
:100090008A100A118207313432343334343435341F
:1000A00000340A108A100A1182070A340D346334AE
:1000B00063346434613463347134203472346534AD
:1000C0006134643479340A340D34003483161408EE
:1000D000D200AB08031D6E28831273288312831687
:1000E000A217831276288316A2138312141F822864
:1000F00013088316D100831214138316A2148312DB
:100100001416EB29831652082D398312A0000930EA
:1001100020020319A428213020020319B72829300E
:1001200020020319B7280C302002031960292C3053
:1001300020020319A729243020020319A7292830F7
:1001400020020319D329D829AD308316A900A001B4
:10015000831213088316D1005108A10083121413CF
:100160008316A701C130A205AC108312EB29130836
:100170008316D100A0080319BF288312D92883123F
:100180008316A00A5108A7005108A1072908A90A47
:10019000840051088000A71BCF288312D528831222
:1001A0008316A215A7138312D8288316A2118312CF
:1001B0005F298316200BDD28DF288312EE288312A7
:1001C0008316A00A5108A8005108A1072908A90A06
:1001D0008400510880008312EB295F298316A2193D
:1001E000F3288312FC28831283162008023C031D87
:1001F000FB28831205298312023083162707200269
:10020000031904298312442983128316A00A510872
:10021000FF3A2102031D0E29831216298312831629
:10022000221622150330A600831242298316221CAF
:100230001B2983123C2983123C308316D400AD3035
:10024000D30020088312A10003193829831653080C
:10025000840000088312A0008316540884008312CF
:10026000200880008316D30AD40A8312A10B262902
:10027000831622148312422983162216A2140630F2
:10028000A6008312EB295F2983162008103C031C6B
:100290004B298312552983128316A00A2216A21411
:1002A0000630A6008312EB295F2983165108A107A7
:1002B0002908A90A840051088000A00A8312EB29AA
:1002C000AD308316A900A001AC14A21969298312CC
:1002D00090298312831622186F298312762983129C
:1002E0008316A2160830A60083129029AD3083161B
:1002F000D4003030D3000C308312A1008316530891
:10030000840000088312A00083165408840083121E
:10031000200880008316D30AD40A8312A10B7E29F9
:1003200083162208D10051088312930083165108C6
:10033000A100A21D9D298312A12983128316A70162
:100340008312C9308316A20583121416EB29831673
:10035000270820020319AE298312B52983128316B8
:100360002108D100D1098312C82983162708200249
:10037000031CBC298312C529831283162908A90AE4
:1003800084000008D1008312C8298316D10183128A
:10039000831651088312930083165108A107A00AFF
:1003A00083121416EB298316A70183121416EB2966
:1003B000141B1413941B941383165218E1298312EF
:1003C000E629831283165108831293008316AC101A
:1003D00083121416EB298C118A11302810308500F5
:1003E000113086001E3087000730880089010330F5
:1003F000831685003530860018308312D4008316AA
:1004000087008312FF0007308316880000308900C0
:10041000103083128500113086001E3087000730AF
:10042000880089011F083839C1389F0004308316BD
:100430009F0083128A115B2E0130D5000F30D60049
:100440000130D700D801D9018316C101C001831240
:100450005A308400831640088407410883124720DD
:10046000800000380319392A8316C10AC00A831292
:10047000282AE0018A115C2EF030E1000C30E20005
:100480000F30E3001430E4008A115D2E8316A001C2
:10049000A201A101AD30A900A801A701A601A501F3
:1004A000AC1011308312A100AD3084008001840AA9
:1004B000A10B562A8316AB01061683120034363080
:1004C000940083164008930014172C1083124622C0
:1004D0008A11752E8512FD0100341F151F196E2A11
:1004E0001E088316CB004B088312A100003408308D
:1004F000A1001F08C73921049F005330A000A00BA2
:100500007F2A6D2221088316CA004A08A73C031CD3
:100510008B2A83128F2A83120030A1009C2A831613
:100520004A087E3C0318962A83129A2A83120030C6
:10053000A1009C2A0130A10000340030A1001F0856
:10054000C73921049F005330A000A00BA52A6D22BB
:1005500021088316CA004A08403C031CB12A8312B2
:10056000B52A83120030A100C22A83164A08333C00
:100570000318BC2A8312C02A83120030A100C22AA9
:100580000130A10000347722A1080319CB2A9D2253
:10059000A108031DCE2A0030A100D02A0130A100FD
:1005A0000034CA30840000080319E52A0330A10092
:1005B000A001A00BD92AA10BD82A3C30A000A00B87
:1005C000DF2A00000000800BD62A003477222108A1
:1005D0008316C400C4080319EF2A8312F52A831274
:1005E0008512FD010030A1002B2B9D2221088316CE
:1005F000C400C4080319FE2A8312042B8312851237
:10060000FD010030A1002B2B7D0B092B0130A10037
:100610002B2B851632308316CA008312D1229D22DD
:1006200021088316C400C408031D182B8312232B32
:100630008312772221088316C400C4080319222BD1
:100640008312272B831285120030A1002B2B01303F
:10065000FD000130A1000034831686100730CA0562
:100660000130CC05CE014A08CD004D0ECE00CD01A3
:10067000F030CE054B08CD044C08CE04831287140D
:1006800000000000071000000000871000000000BC
:100690008316CF01831283164F080F3C0318522B89
:1006A00083126B2B83128316CE1B582B83125B2B6A
:1006B000831286145C2B861003108316CD0DCE0D8D
:1006C00083120714000000000710000000008316CA
:1006D000CF0A83124B2B00000000871400348316CE
:1006E00086100730CA05CC014A08CB004B0ECC005F
:1006F000CB01F030CC05CC1783128714000000002A
:100700008710000000000710000000008316CD01D4
:10071000831283164D08033C0318902B8312AB2BD6
:1007200083128316CC1B962B8312992B831286146B
:100730009A2B861003108316CB0DCC0D0000000001
:100740008312071400000000071000000000831649
:10075000CD0A8312892B83168614CC01CB01CD01DF
:10076000831283164D080B3C0318B82B8312D12B30
:10077000831203108316CB0DCC0D831207140000D7
:100780000000861CC72B83164B148312CA2B8316BA
:100790004B1083120000000007108316CD0A83124D
:1007A000B12B000000008714831686100130CC05A1
:1007B0004B088312A10083164C088312A200003458
:1007C00083164A080B3C031CE72B8312E92B831288
:1007D000532C831686100F30CC050F30CA05CE017E
:1007E0004A08CD004D0ECE00CD01F030CE054B08AD
:1007F000CD044C08CE0403104A0D8312A000653EC0
:100800008400840A83164C08800084034B0880000F
:1008100083120715000000000710000000000711F8
:10082000000000000000000000008316CF018312CA
:1008300083164F080F3C03181F2C8312432C83127E
:10084000000000008316CE1B272C83122A2C831253
:1008500086142B2C861003108316CD0DCE0D83121B
:10086000061D362C83164D148312392C83164D1019
:100870008312000000000714000000000710831618
:10088000CF0A8312182C00000000000000000000B6
:1008900007150F308316CE054D088312A10083166D
:1008A0004E088312A200003405168316C9016400A5
:1008B0008312C322A108031D602C831649148312DE
:1008C00001308316C6002330C500C401831283168D
:1008D0004408013C03186E2C8312EB2C8312053064
:1008E0008316CA004608CC004508CB0083122C238F
:1008F00005308316CA0083126F2322088316C800AE
:10090000831221088316C7004508CA00460801392A
:10091000CB0047088312A0008316480801398312D0
:10092000A300200883164A020319982C8312A12CD5
:100930008312230883164B02031DA02C8312A42CC0
:1009400083128316C914831207308316CA0046081F
:10095000CC004508CB008312E02322088316C80090
:10096000831221088316C7000730CA004608CC004E
:100970004508CB008312E02322088316C8008312A7
:1009800021088316C7004508CA0046080F39CB0066
:1009900047088312A000831648080F398312A3006A
:1009A000200883164A020319D72C8312E02C8312E5
:1009B000230883164B02031DDF2C8312E32C8312C2
:1009C0008316491583128316C601C5018312831647
:1009D000C40A8312672CC8308316CA008312D1223E
:1009E0008316C9080319F62C8312F82C83120512FA
:1009F0006400831649088312A10000348316CA01DB
:100A0000CC01B030CB008312E02301308316CA0042
:100A1000CC01CB018312E02302308316CA00CC0143
:100A2000CB018312E02303308316CA00CC01CB0133
:100A30008312E02304308316CA00CC012030CB009F
:100A40008312E02305308316CA000730CC00F03053
:100A5000CB008312E02306308316CA000830CC0096
:100A60006630CB008312E02307308316CA00CC0126
:100A7000CB018312E02308308316CA00CC01CB01DE
:100A80008312E02309308316CA00CC01CB01831204
:100A9000E0230A308316CA000430CC00CB01831255
:100AA000E0230B308316CA00CC01CB018312E02374
:100AB000640000348316CA01CC01F830CB008312E5
:100AC0002C2301308316CA00CC018030CB00831266
:100AD0002C2302308316CA00CC01CB0183122C23B5
:100AE00003308316CA00CC01CB0183122C230430BF
:100AF0008316CA00CC01CB0183122C230530831648
:100B0000CA00CC01CB0183122C2306308316CA0005
:100B1000CC01CB0183122C2307308316CA00CC01F1
:100B2000CB0183122C23640000347D08A000A008B0
:100B300003199F2D013020020319BD2DC52DC3229D
:100B4000A1080319BC2D0516E622A1080319BC2D26
:100B5000C8308316CA008312D1226400C8308316BD
:100B6000CA008312D12264005424A108031DBB2DA6
:100B7000FE245A25BC2D6A22C82DC322A108031DBC
:100B8000C42D05166A22C42DC82D05166A22C82D4B
:100B90008A11972E83164408A500A5080319D22DA3
:100BA0008312D72D83128316A2128312DA2D831695
:100BB000A216831200340B138B138B1BDC2D4622E1
:100BC0000830A000A01DEC2D073081018130840089
:100BD0000008C0390F3880006400813084000008AC
:100BE000C03920048000F32D0034831644080B3CE8
:100BF000031CFC2D8312022E83120030A100003052
:100C0000A2000F2E03108316440D8312A000653E30
:100C100084000008A100840A00088403A2000034B4
:100C200083164408C80045083F39C90048088312A4
:100C300003178D00831603134908831203178F00CF
:100C400083168C170C140000000083120E08031387
:100C5000A30003170C0883160313C600831223088E
:100C60008316C7003F30C70546088312A1008316CC
:100C700047088312A2008A15342A0B138B138B1B8F
:100C80003E2E0E308A00063082008A15522A8401D8
:100C90001F30830583169F0103309900223098008E
:100CA000903083129800AF01FF30FF008316BF0120
:100CB000BE018312EE291C2A3C2A0F30A000A01D81
:100CC000692E07308101813084000008C0390F3857
:100CD00080006400813084000008C0392004800056
:100CE000F0308316C00083125F2A05166A227E1038
:100CF000FE14462283168C15C03083128B04831693
:100D0000C001831283164008831251208316C00A43
:100D100083120C1E892E990010308316400203198D
:100D2000932E8312822E8312FE1C982E952DFE1078
:100D30008A1500288A1164007E1CA62E7E1064305D
:100D40008316CA008312D1226400DB2583163F0874
:100D50008312A30083163E08BE0A0319BF0AC0000F
:100D6000831223088316C100003C031CB92E831292
:100D7000CA2E8312FF3A031DC52E83164008F43C89
:100D8000031CC42E8312CA2E83128316BF01BE0118
:080D90008312FE14942E63008F
:101000008316221805288312862A83128316C401A8
:1010100083128A11CA258A153C083F398316C000FD
:1010200040080C3C031C162883121B2883120C302A
:101030008316C00083123D08A00007302002031968
:101040007128083020020319722809302002031980
:101050008028A00803199B28033020020319B82810
:10106000013020020319F128023020020319FD2863
:101070000430200203191A290530200203191B2904
:101080000630200203191C29823020020319472947
:10109000833020020319672984302002031985292F
:1010A000853020020319A529803020020319C329A5
:1010B000813020020319DB29863020020319F3292D
:1010C000873020020319FA298830200203190D2ADB
:1010D000333020020319122A253020020319442A32
:1010E0005C2A642A0C30A100303084008001840A1C
:1010F000A10B76288A1154248A152108B000642A8D
:1011000030308316C5004830C4000C308312A10073
:1011100083164408840000088312A0008316450843
:1011200084008312200880008316C40AC50A831233
:10113000A10B8828642A30308316C5003E30C400D5
:1011400040088312A1000319B728831644088400BD
:1011500000088312A000831645088400831220082B
:1011600080008316C40AC50A8312A10BA528642A2D
:101170000C30A100303084008001840AA10BBC280F
:101180003E08A000013020020319CB2802302002C3
:101190000319E628EF2830308316C5005530C40007
:1011A0000C308312A10083164408840000088312C7
:1011B000A00083164508840083122008800083164F
:1011C000C40AC50A8312A10BD328F0286108B00015
:1011D0006208B1006308B2006408B300F028F02888
:1011E000642A8316A219F6288312F92883127E1422
:1011F000FC288A11DB258A15642A0C30A1003030C6
:1012000084008001840AA10B01297D088316C40093
:10121000831283162B088312B000831625088312CD
:10122000B100831626088312B20083164408831285
:10123000B300642A642A642A0B138B138B1B1D29A9
:10124000BE08031934293F088316C400831283168D
:101250004408AB04031D2E2983123329831206127E
:1012600083160612831244293F088316C400831292
:1012700083164408FF3AAB05031940298312442919
:101280008312831606168312C0308B04642A8316D9
:10129000C501831240088316C400C700C60183122B
:1012A000A3013F0883164604C20083122308831655
:1012B0004704C30083123E088316CA004308CC00CB
:1012C0004208CB0083128A11E0238A15642A0C306D
:1012D000A100303084008001840AA10B6B293E08F4
:1012E0008316C40083128A11F5258A1522088316F5
:1012F000C300831221088316C20042088312B00083
:10130000831643088312B100642A8316C501831231
:1013100040088316C400C700C6018312A3013F081A
:1013200083164604C2008312230883164704C300B1
:1013300083123E088316CA004308CC004208CB0043
:1013400083128A112C238A15642A0C30A1003030B4
:1013500084008001840AA10BA9293E088316CA00D3
:1013600083128A116F238A1522088316C300831201
:1013700021088316C20042088312B0008316430876
:101380008312B100642A8316C40183128A11F525E1
:101390008A1522088316C300831221088316C2000F
:1013A0004214CA014308CC004208CB0083128A11C0
:1013B000E0238A15642A8316C40183128A11F52555
:1013C0008A1522088316C300831221088316C200DF
:1013D0004210CA014308CC004208CB0083128A1194
:1013E000E0238A15642A8A115A258A158A11FE2457
:1013F0008A15642A8A11C3228A15A10803190C2AA6
:101400008A11E6228A15A1080319082A05120C2A56
:1014100005168A116A228A15642A05168A116A221B
:101420008A15642A0C30A100303084008001840ABF
:10143000A10B162A8316C50183123F088316C40028
:10144000C700C6018312A3013E0883164604C200EA
:101450008312230883164704C3004308C5004208CB
:10146000C40083128A11102E8A1522088316C30025
:10147000831221088316C20042088312B00083162B
:1014800043088312B100642A3E08C03C031D542A5D
:101490003F08553C031D542A4008AA3C031D542A0A
:1014A0008A113D2E8A155B2A04308316C4008312EC
:1014B0008A11CA258A15642A01308316C400831252
:1014C0008A11CA258A15642A3D08093C0319822A13
:1014D00048308316C5003C30C4000C308312A10094
:1014E00083164408840000088312A0008316450870
:1014F00084008312200880008316C40AC50A831260
:10150000A10B702A83162210640083128A119A2E6E
:02400E003E3F33
:00000001FF
;PIC16F874
