:1000000008308A00052E0000FF00030E8301A100C6
:100010000A08A0008A010408A2007708A300780853
:10002000A4007908A5007A08A6007B08A70083131E
:1000300083128C308400801D1F288C1939288B1E58
:1000400023280B193628220884002308F7002408E7
:10005000F8002508F9002608FA002708FB00200808
:100060008A00210E8300FF0E7F0E09008A110A12FA
:10007000D5298A110A123C28831614080317B600E2
:100080000313AC0803194628A2174728A2138312AA
:10009000141F5C281413130883160317B50083126A
:1000A000031314138316A001A101A801A701AD1029
:1000B000A21483121416D1298316031736082D397A
:1000C000F7000930770283120313031980282130C7
:1000D00077020319952829307702031995280C30E7
:1000E0007702031941292C30770203198329243020
:1000F000770203198329283077020319B129BC2913
:100100008316AA01AE30A900A0018312130883163A
:100110000317B50035080313A100831214138316C7
:10012000A701C130A205AD10D0291308831603170B
:10013000B5000313A008031DBB28A00A0317350848
:100140000313A700031735080313A1072A08FA00B1
:100150002908A90A0319AA0A840083137A188317A5
:100160000317350880000313A71FB928A215A7138A
:10017000BA28A2114029200BD628A00A0317350857
:100180000313A800031735080313A1072A08FA0070
:100190002908A90A0319AA0A840083137A18831765
:1001A0000317350880000313D0294029A21DDC283D
:1001B0002008023C0319E128023027072002031D12
:1001C0002229A00A03173508FF3A03132102031955
:1001D000EE28221622150330A600202922181C29F9
:1001E000A21DF6282808073C03191B290317B8018C
:1001F0003330B700BA01AE30B90003132008F8005D
:1002000003191A2903173908840083133A1883172E
:100210000008F7003708840083133818831777081D
:100220008000B70A0319B80AB90A0319BA0AF80B09
:1002300003290313221420292216A2140630A60033
:10024000D029402920081D3C03182D29A00A221678
:10025000A2140630A600D02940290317350803133D
:10026000A1072A08FA002908A90A0319AA0A840082
:1002700083137A1883170317350880000313A00A25
:10028000D0298316AA01AE30A900A001AD14A21D89
:100290006F29221C4F29A2160830A6006F290317C8
:1002A000B801AE30B700BA014130B9001E30F800D5
:1002B0003908840083133A1883170008F7003708B9
:1002C000840083133818831777088000B70A03194E
:1002D000B80AB90A0319BA0AF80B582903132208F5
:1002E0000317B50035088312031393008316031711
:1002F00035080313A100A21DA701C930A20583126E
:1003000014168316D029831627082002031D8E2970
:1003100021080317B500B509A329031327082002F4
:100320000318A1292A08FA002908A90A0319AA0A08
:10033000840083137A18831700080317B500A329D4
:1003400003130317B50135088312031393008316B3
:10035000031735080313A107A00A83121416831686
:10036000D0298316A001A101A801A701AD10831215
:1003700014168316D0298312141B1413941B941380
:1003800083160317361CCA293508831203139300FA
:10039000831603170313AD10831214168316D02986
:1003A00083128C118A110A1223282B080319AC031B
:1003B000AB03291703171708033C031C0C2A03136C
:1003C000321EE52932121F150A2A1F190A2A18306F
:1003D000031717078400831703131E0880000317F1
:1003E000970A1708033C031C032A170DF700F70DA3
:1003F000F70DF830F70503131F08C73977049F007E
:1004000032160A2A03170030F80003131F08C739F1
:1004100078049F00132A03170030F80003131F0805
:10042000C73978049F000B118A110A1223288316FA
:1004300003172A0883128D008F0183162B0883125D
:100440008C0083168C130C15831203130B08F70012
:100450008B138316031755308D00AA308D008C1432
:100460008C18302A0C117708831203138B04003484
:10047000023083169F000F308500C0308600F930AF
:100480008700831285013E3086001C30870083166A
:1004900081178312B1001F083839C1389F00031734
:1004A00097010030F80003131F08C73978049F0034
:1004B0000D30F700F71D652A073081018130840077
:1004C00083130008C0390F38800064008130840035
:1004D0000008C03977048000833090007830F8003D
:1004E00006389200FF3083169200831232122910D0
:1004F0000330FD008030FC00B2148316ED0183123E
:10050000A911291203178D018F0183168C130C1466
:1005100083120C080319962A8D018F0183168C1300
:100520000C1483120C08FF3C031DDD2A8316AA015C
:100530005030AB00831203131722013083160317C8
:10054000AA005030AB008312031317220230831627
:100550000317AA005030AB00831203131722033095
:1005600083160317AA005030AB008312031317221F
:10057000043083160317AA00D230AB008312031392
:100580001722053083160317AA00D230AB0083125E
:1005900003131722063083160317AA00D230AB00CC
:1005A000831203131722073083160317AA00D230D1
:1005B000AB0083120313172203178D018F018316DB
:1005C0008C130C1483120C08F10001308D008F0184
:1005D00083168C130C1483120C08F20002308D0069
:1005E0008F0183168C130C1483120C08F300033054
:1005F0008D008F0183168C130C1483120C08F400E9
:1006000004308D008F0183168C130C1483120C0898
:1006100083160313CC000530831203178D008F015E
:1006200083168C130C1483120C0883160313CD004D
:100630000630831203178D008F0183168C130C1460
:1006400083120C0883160313CE000730831203179E
:100650008D008F0183168C130C1483120C088316E3
:100660000313CF0083128A150A12172E0530831642
:10067000031790000E309100023092009301940114
:100680003030950096009700980099009A009B01E1
:10069000031383128A150A121A2EFA3083160317CF
:1006A0009C001E309D000F309E0014309F000313ED
:1006B00083128A150A121D2E8316A001A201A10120
:1006C000AA01AE30A900A801A701A601A501AD109D
:1006D0001E30F800AE30840083138001840AF80BCA
:1006E0006D2BAC01F9308700831200343630940052
:1006F0008316031722080313930014172D10831277
:100700005C238A150A12262E1030F700FA01831690
:100710000317AF01AC0CAB0C031C942B2D08FA078C
:100720000318AF0A2E08AF07AF0CFA0CF90CF80C3F
:10073000F70B8A2B831203130034F801F901F70138
:10074000FA01831603173008031DA92B2F0803197C
:10075000C32B1030B1000310AD0DAE0DF70DFA0D27
:1007600030087A02031DB62B2F087702031CBF2B1B
:100770002F08F702031CFA033008FA020314F80DDD
:10078000F90DB10BAB2B0000831203130034831659
:1007900003172B08FF3A0313AC05AC08031DD22B3B
:1007A000F9308700831200347D0883160317AC00EC
:1007B0007C08AB00AE010930AD0083120313842323
:1007C0007908FA00780883160317AB007908AC00A3
:1007D000ED30AE003430AD002C08B0002B08AF0077
:1007E000831203139D237908031796007808950058
:1007F0001608003C0318FF2B9601FF3095001508E2
:100800008316031392002330F5000310750DF600D4
:100810000317AA012A08033C031C2E2CD4302A07F4
:10082000840083138001D8302A0784008313800159
:10083000DC302A07840083138001E0302A0784001B
:1008400083138001E4302A07840083138001E83099
:100850002A07840083138001AA0A0A2C0530F800B5
:100860001030840083178001840AF80B332C831224
:100870000313ED01031797010313EE018316EC0137
:100880003030ED058312EF018E018F010C1003173C
:10089000EE010313B2150317EF0103130B138B13B0
:1008A0008B1B4F2C043083160317AB0083120313EA
:1008B000C723203083160317AB0083120313C7230B
:1008C000803083160317AB0083120313C723C03095
:1008D0008B040034AC3084008317000803197D2C8E
:1008E0000630F800F701F70B732CF80B722C7B30F5
:1008F000F700F70B792C800B702C0034831603174C
:100900002A080313A500A508031D882CA212892C10
:10091000A216831200340B138B138B1B8C2C5C23BD
:100920000830F700F71D9D2C0730810181308400CD
:1009300083130008C0390F388000640081308400C0
:100940000008C03977048000A42C003483160317F4
:100950002E080313AC04AC080319B52C8312B11292
:1009600031088700D93083168700831200341010B5
:100970000F0803179C0003130E0803179D000313B1
:1009800010140034831603172B083F39AF002A08D0
:1009900083128D0083162F0883128F0083168C1705
:1009A0000C140000000083120E08FA000C088316D5
:1009B000AC007A08AD003F30AD052C08F8002D08DA
:1009C000F900031383128A150A12392B0B138B13A8
:1009D0008B1BE72C1E308A00063082008A150A1213
:1009E000592B183083160317260784008317000835
:1009F000A70071302607840083130008270203181C
:100A0000052D0130F800072D072D0030F800831266
:100A100003130034031710088316A900831211086A
:100A20008316AA00831212088316AB0083121308E0
:100A30008316AC00831214088316AD00260B4F2DCD
:100A4000831203136F08153C031D2F2D05308316E9
:100A50000317A7000330A6004E2D831203136F085F
:100A6000253C031D3C2D073083160317A7000230D9
:100A7000A6004E2D831203136F080C3C031D482D56
:100A8000043083160317A700A6004E2D831203130C
:100A9000063083160317A7000130A6005C2D043032
:100AA000A70083120313B72403171C088316A90099
:100AB00083121D088316AA0083126E088316270767
:100AC0004F3C031C9A2D83126E08EE0A1E3E8400D2
:100AD00083178316A7032708800083126E08EE0A87
:100AE0001E3E84008317831626088000A801A703F2
:100AF0002708A703003A03199A2D83126E08EE0AFD
:100B00001E3EF8000130FA000318FA0A780883162E
:100B1000AF007A08B0002808A80AA93E840083170D
:100B20000008B2002F08840083133018831732089E
:100B30008000782D83126E081E3C031CA52D8316A1
:100B40002608073C031DAD2D831220308316AE000E
:100B500083120313A624831603178312031300348E
:100B6000831603172710D030260784008313000B49
:100B7000D62DD430260784008313801BD22DD43089
:100B8000260784008313800AD43026078400831349
:100B900000087F3C031DD12DD43026078400831329
:100BA0008003D52D27140130A800FD2DD030260755
:100BB000840083138008031DFD2DD4302607840094
:100BC0008313801BE72D0008003C031CFA2DD43052
:100BD0002607840083138003D43026078400831300
:100BE0000008803C031DF92DD430260784008313B0
:100BF000800AFD2D2714FF30A800271C882EE8301E
:100C00002607F800FA010318FA0A7808A9007A08FA
:100C1000AA00E4302607840083130008AB002908EB
:100C2000840083132A1883172B088000E4302607DA
:100C3000F800FA010318FA0A7808A9007A08AA004D
:100C4000E0302607840083130008AB0029088400E5
:100C500083132A1883172B088000E0302607F8003A
:100C6000FA010318FA0A7808A9007A08AA00DC3009
:100C70002607840083130008AB002908840083132F
:100C80002A1883172B088000DC302607F800FA01A9
:100C90000318FA0A7808A9007A08AA00D8302607AB
:100CA000840083130008AB002908840083132A18EA
:100CB00083172B088000D8302607F800FA010318A4
:100CC000FA0A7808A9007A08AA00D4302607840016
:100CD00083130008AB002908840083132A188317A4
:100CE0002B088000D4302607840083132808800056
:100CF0000130F7002608F8000319822E0310F70DC3
:100D0000F80B7E2E770883120313ED048316031766
:100D1000831203130034D830831603172607840088
:100D200083130008AB00DC3026078400831300081F
:100D30002B02A801A700831216088316AC008312A9
:100D400015088316AB002808AE002708AD008312F3
:100D500003138423790883160317AC007808AB00CB
:100D60002C08AE002B08AD00B0011830AF00831284
:100D700003139D23790883160317AA007808A90096
:100D80008312160883162A02031C2A2F031DD02E55
:100D9000290883121502031CCF2E83162A2F8316CF
:100DA0002A08AE002908AD00B0010B30AF00831255
:100DB00003139D23790883160317AC007808AB0052
:100DC000831216088316AE00831215088316AD0031
:100DD000B0010A30AF00831203139D237908FA0093
:100DE0007A08831603172C02031C212F031DFC2EE7
:100DF0002B0878020318212F831216088316AC00E3
:100E0000831215088316AB00AE010B30AD008312C0
:100E100003138423790883160317AC007808AB000A
:100E20002C08AE002B08AD00B0010A30AF008312D1
:100E300003139D2379080317960078089500282F3F
:100E400083162A08831296008316290883129500B8
:100E5000832F83162A08AE002908AD00B001143094
:100E6000AF00831203139D23790883160317AC0088
:100E70007808AB00831216088316AE00831215089B
:100E80008316AD00B0011530AF00831203139D230C
:100E90007908FA007808831603172C087A02031CD5
:100EA0007C2F031D572F78082B0203187C2F8312E9
:100EB00016088316AC00831215088316AB00AE012A
:100EC0001330AD00831203138423790883160317AC
:100ED000AC007808AB002C08AE002B08AD00B001C8
:100EE0001430AF00831203139D2379080317960073
:100EF00078089500832F83162A088312960083169C
:100F00002908831295001608003C03188A2F9601C1
:100F1000FF309500150883160313920083120034E6
:100F200083160317A71B952F992F2708003CF8005D
:100F30009B2F2708F800831203130034831603172E
:100F40003308F80132020318A82F3208F700B42F33
:100F5000F7010830B400B20DF70D3308770203181B
:100F6000F700F80DB40BAB2F831203130034831674
:100F70000317310832068039B400B11FC12FB109FF
:100F8000B10AB21FC52FB209B20A3208F801310204
:100F90000318CD2F3108F700D92FF7010830B3001F
:100FA000B10DF70D320877020318F700F80DB30BF7
:100FB000D02FB41FDD2FF809F80A000003138312A5
:060FC0008A150A12EA2D59
:101000008316221C962D0317AA018A11831203133B
:101010007E248A1533083F3983160317A20022085D
:101020000E3C031815280E30A20083120313340857
:10103000F700073077020319752808307702031983
:101040007628093077020319B428F7080319D7283E
:10105000033077020319FC2801307702031957295E
:1010600002307702031963290430770203198329B8
:101070000530770203198429063077020319852980
:10108000E93077020319A229E83077020319A3296E
:10109000903077020319A429913077020319292A85
:1010A000923077020319562A333077020319122B34
:1010B0002530770203194B2B933077020319682BE5
:1010C000943077020319922B953077020319092C7B
:1010D000963077020319222C973077020319262DB8
:1010E000983077020319522D632D6D2D1E30F800B4
:1010F0004130840083138001840AF80B7B28B110EF
:1011000031088700061083160317AB016400C8304E
:10111000AC008A11831203136A248A1583160317FD
:10112000AB08031DA42883120313A916B0010230D3
:10113000AF00FA30AE00F130AD00B11431088700D5
:101140000614AA288316031783120313B11031085B
:10115000870006106400831603172B08F800780830
:1011600083120313C1006D2D83160317AB014130A9
:10117000AA00AD015F30AC001E30F8002C088400DE
:1011800083132D1883170008F7002A08840083139F
:101190002B18831777088000AA0A0319AB0AAC0A38
:1011A0000319AD0AF80BBE28831203136D2D8316A5
:1011B0000317AB014130AA00AD013530AC00220865
:1011C000F8000319F9282C08840083132D188317BD
:1011D0000008F7002A08840083132B188317770868
:1011E0008000AA0A0319AB0AAC0A0319AD0AF80B6E
:1011F000E328831203136D2D1E30F8004130840064
:1012000083138001840AF80B01293508F7000130A7
:101210007702031910290230770203193429512962
:1012200083160317AB014130AA000130AD009030A6
:10123000AC000C30F8002C08840083132D188317A1
:101240000008F7002A08840083132B1883177708F7
:101250008000AA0A0319AB0AAC0A0319AD0AF80BFD
:101260001B29542983120313831603171C088312A6
:101270000313C100831603171D0883120313C20052
:10128000831603171E0883120313C3008316031764
:101290001F0883120313C4008316031754298312F3
:1012A0000313831603175429831203136D2D83161A
:1012B000A21D5E298312A917622983168A1183123F
:1012C0008B248A156D2D1E30F80041308400831365
:1012D0008001840AF80B68292A0883160317AA00DC
:1012E00003132C088312C100831625088312C20041
:1012F000831626088312C300831603172A08831255
:101300000313C4006D2D6D2D6D2D0B138B138B1BD3
:101310008629B50803199629360883160317AE00E7
:101320008A1183120313A6248A159F29360883166F
:101330000317AB008A1183120313C7238A15C03029
:101340008B046D2D6D2D6D2D8A11B7248A15031711
:101350001C080313C10003171D080313C200031761
:10136000EE0803191D2A8316A401A7010330A50066
:10137000031327020317A3001E30240784008317DA
:1013800000082302031CF02983126E08831624022E
:101390000318F0292408A40A1E3E840083170008BD
:1013A000A6002608A302A70A2608A603003A0319E6
:1013B000EF292508A50A413EAB00AC010318AC0A91
:1013C0002408A40A1E3E840083170008AE002B08E0
:1013D000840083132C1883172E088000D429BC297D
:1013E000270883120313C30083166D088312C404F5
:1013F0008316031724088312EE028316A301240820
:101400004F3C031C1B2A1E302307AA000130AB00EF
:101410000318AB0A1E302407840083170008AC00B1
:101420002A08840083132B1883172C0880002308B4
:10143000A30AA40AFF29262A831201300313C3003A
:1014400083166D088312C4008316031783120313D7
:101450006D2D83160317AB01831203133608831611
:101460000317AA00AD00AC01FA018312031335087B
:10147000831603172C04FC007A082D04FD00831248
:101480000313B708031D462AB210472AB2142914C1
:101490008A11D4238A150030F8001F08C739780450
:1014A0009F001F150317970103136D2D29100317B4
:1014B0006F08153C03180D2B831603136C08023CB0
:1014C000031DB72A0230831203178D008F01831684
:1014D0008C130C1483120C088316A3000C30230702
:1014E00073020319752A03187A2A0C302302730237
:1014F00003188C2A0310230CAA000310730C2A076C
:10150000A4000230AA002408AB008A11831203133E
:1015100017228A1583160317033083128D008F015B
:1015200083168C130C1483120C088316A3000C3042
:101530002307740203199E2A0318A32A0C302302DE
:1015400074020318B52A0310230CAA000310740CAC
:101550002A07A4000330AA002408AB008A118312D2
:10156000031317228A15831603170C2B03136C0B16
:101570000B2B831203178D018F0183168C130C1410
:1015800083120C088316A3000C3023077102031981
:10159000CB2A0318D02A0C30230271020318E12A47
:1015A0000310230CAA000310710C2A07A400AA013F
:1015B0002408AB008A118312031317228A1583169D
:1015C0000317013083128D008F0183168C130C14C6
:1015D00083120C088316A3000C3023077202031930
:1015E000F32A0318F82A0C302302720203180A2B7C
:1015F0000310230CAA000310720C2A07A400013068
:10160000AA002408AB008A118312031317228A153B
:10161000831603170313031783128A110313D423AA
:101620008A156D2D1E30F80041308400831380012F
:10163000840AF80B172B83160317AB0183120313CD
:10164000360883160317AA00AD00AC01FA01831215
:1016500003133508831603172C04A8007A082D04F9
:10166000A9002908AB002808AA008A1183120313D5
:10167000C22C8A15790883160317A9007808A800D8
:10168000280883120313C100831603172908831245
:101690000313C2006D2D3508CA3C031D5B2B3608B1
:1016A000553C031D5B2B3708AA3C031D5B2B8A119D
:1016B000E62C8A15672B043083160317AA008A11BB
:1016C000831203137E248A158316A21683126D2DAE
:1016D00003171708033C031C722B83160313962D64
:1016E0008312031718080313C10003171908031303
:1016F000C20003171A080313C30003171B080313C0
:10170000C400C501871BC50AC601071BC60A0030F5
:10171000F8001F08C73978049F001F1503179701A9
:1017200003136D2D83160317AA01831203133508C3
:1017300083160317AB008A118312031317228A152D
:10174000013083160317AA00831203133608831689
:101750000317AB008A118312031317228A15023074
:1017600083160317AA00831203133708831603177F
:10177000AB008A118312031317228A1503308316D4
:101780000317AA0083120313380883160317AB004C
:101790008A118312031317228A1504308316031744
:1017A000AA0083120313390883160317AB008A11AA
:1017B0008312031317228A15053083160317AA0014
:1017C000831203133A0883160317AB008A1183129E
:1017D000031317228A15063083160317AA008312F3
:1017E00003133B0883160317AB008A1183120313FC
:1017F00017228A15073083160317AA0083120313D2
:101800003C0883160317AB008A11831203131722B7
:101810008A153508F1003608F2003708F300380859
:10182000F40039088316CC0083123A088316CD00E1
:1018300083123B088316CE0083123C088316CF0028
:1018400083126D2D350883160317AA008312031324
:10185000360883160317AB00831203133708831669
:101860000317AC0083120313380883160317AD0067
:101870008312031331113108870086128316031770
:10188000AA1B432C482C83120313861083160317BC
:10189000AB1B4B2C502C831203130611831603171A
:1018A000AC1B532C582C8312031386118316031779
:1018B000AD1B5B2C602C83120313061283160317D7
:1018C000AA1B692CAB1B692CAC1B692CAD1B692CAA
:1018D000982CAA1B6C2C6E2CAA0A732C831203134F
:1018E000861483160317AB1B762C782CAB0A7D2C41
:1018F00083120313061583160317AC1B802C822C4E
:10190000AC0A872C83120313861583160317AD1BAD
:101910008A2C8C2CAD0A912C831203130616831685
:101920000317831203138616861283160317602C7F
:101930008312031331153108870083160317AA1B7E
:10194000AA2C2A08003C0318AA2C83120313861021
:1019500083160317AB1BB52C2B08003C0318B52CC2
:1019600083120313061183160317AC1BC02C2C081B
:10197000003C0318C02C831203138611831603172F
:10198000AD1BCB2C2D08003C0318CB2C831203136A
:10199000061283160317AA1BD12C2A08003C031C2D
:1019A000E32CAB1BD72C2B08003C031CE32CAC1BFB
:1019B000DD2C2C08003C031CE32CAD1B1E2D2D0838
:1019C000003C03181E2DAA1BEB2C2A08003C031810
:1019D000EB2CAA03F02C831203138614831603172F
:1019E000AB1BF82C2B08003C0318F82CAB03FD2C88
:1019F00083120313061583160317AC1B052D2C0841
:101A0000003C0318052DAC030A2D83120313861521
:101A100083160317AD1B122D2D08003C0318122D41
:101A2000AD03172D831203130616831603178312B3
:101A300003138616861283160317CB2C8312031307
:101A4000861406158615061686166D2D350883161E
:101A50000317AA002A1C322D831203138610861442
:101A600083160317AA1C3A2D8312031306110615B9
:101A7000831603172A1D422D831203138611861520
:101A800083160317AA1D4A2D831203130612061686
:101A9000831603170A30AC008A11831203136A24D9
:101AA0008A156D2DB1103518B11431088700A911B0
:101AB0003519A915B51C0610B51806142912B51943
:101AC0002916A9126D2D013083160317AA008A1159
:101AD000831203137E248A156D2D3408093C0319E3
:101AE000932D83160317AB015F30AA00AD0133308D
:101AF000AC000E30F8002C08840083132D188317D7
:101B00000008F7002A08840083132B18831777082E
:101B10008000AA0A0319AB0AAC0A0319AD0AF80B34
:101B20007B2D8312031383162210640083128A15FF
:101B30000A124D2E83160317AB080319022EAC08A8
:101B40000319022ED8302A07840083130008AF003F
:101B5000AF1BCF2D2F08003C0318CF2D2F08B2004C
:101B60002B08B3008A11831203139E278A15780865
:101B700083160317AD00DC302A07840083130008A6
:101B8000003CB100B2002C08B3008A118312031389
:101B90009E278A15780883160317AE00EF2D2F08AD
:101BA000003CB100B2002B08B3008A11831203136A
:101BB0009E278A15780883160317AE00DC302A07A3
:101BC000840083130008B1002C08B2008A1183122C
:101BD0000313B72F8A15780883160317AD002D0855
:101BE0002E020319022E2E082D020318FD2D71302E
:101BF0002A0784008313800A022E71302A0784008A
:101C000083138003831203130034840183131F3072
:101C10008305073083169F000317A001A1018312DB
:101C200003130B138B138B1B122E8A11382A8A1560
:101C30008A11362B8A158A114D2B8A15FA30831694
:101C40000317A2008A1183120313762B8A158A11B7
:101C50005C238A15AA0183168C1583128B16A9148E
:101C60002915A916B0010230AF00FA30AE00F130EC
:101C7000AD00B114310887000614C0308B048A11FE
:101C8000D4238A15643083160317AC008A1183129B
:101C900003136A248A1564000028F701871BF714D0
:101CA0002908770602390319682EA910871BA91481
:101CB000A91C5E2E8316ED16602E83128316ED127C
:101CC00002300317AE008A1183120313A6248A156B
:101CD000F701071B77152908770604390319832EA6
:101CE0002911071B2915291D792E83166D167B2EA8
:101CF000831283166D1201300317AE008A1183120E
:101D00000313A6248A15291FA12E2913A91EA12E6B
:101D1000FF30AD07031CAE07031CAF07031CB00761
:101D2000AD08031DA12EAE08031DA12EAF08031D93
:101D3000A12EB008031DA12E0610B1103108870096
:101D4000A912AC1BA42EB22E2630AC002530AB005D
:101D5000A91DAC2E0230B10631088700291EB22E13
:101D600001308606291CB92E0A168A1100280A128B
:101D70008A15A91FC92EA913643083160317AC0056
:101D80008A11831203136A248A1564008A118B2432
:061D90008A154B2E6300D2
:102000000C1C0C280C10043083160317AE000A12A7
:1020100083120313A6240A168C1C1428031717080E
:10202000033C031C162803136D2D031703138C1098
:1020300083160317A6010A1283120313F1240A164A
:1020400078088316D00001300317A6000A12831205
:102050000313F1240A1678088316D10002300317FF
:10206000A6000A1283120313F1240A1678088316B5
:10207000D20003300317A6000A1283120313F124BF
:102080000A1678088316D3006C08023C031D6E28DC
:10209000831203171808831603134C0203185F28D2
:1020A0008312B2195D28B215083083160317A600F3
:1020B0000A12831203130A250A166C288316831248
:1020C000B21D6C28B211073083160317A6000A123E
:1020D000831203130A250A16922883168312031704
:1020E0001A08831603134E02031885288312B219A7
:1020F0008328B215083083160317A6000A1283122C
:1021000003130A250A16922883168312B21D9228F9
:10211000B211073083160317A6000A1283120313A5
:102120000A250A160030F8001F08C73978049F00F6
:102130001F15031797018316A6010A1283120313B2
:10214000B0250A16013083160317A6000A1283125F
:102150000313B0250A16023083160317A6000A12CD
:1021600083120313B0250A16033083160317A60043
:102170000A1283120313B0250A16F60BD228EE08B2
:10218000031DC6280310750DF600D228EE010317B3
:10219000EF08031DD02883160313EC0183120317E5
:1021A0000313EF01ED0803196D2D6E08F700F70812
:1021B0000319E728043077020319452B053077020D
:1021C0000319452B063077020319312D6B2D831629
:1021D0000317A51003136C08023C0319E3295408E4
:1021E000003CF700F71BE3297708053C0318E329B7
:1021F0005508003CF700F71BE3297708003C03185B
:10220000E329D81BE3295808143C0318E329D81BF9
:102210000D295808473C031CE3295508003CF700EA
:10222000F71B16297708113C031CE329D91B1C292D
:1022300059082A3C031CE3295D08003CF700F71B02
:10224000252977082A3C031CE329E11B2B29610877
:102250002A3C031CE329D91BE3295908053C031830
:10226000E3295D08003CF700F71BE3297708053CEC
:102270000318E329E11BE3296108053C0318E3295E
:102280005D08590261070317A300031358080317D9
:102290002302A600A61F4E292608003CA400A41B6A
:1022A00055292408113C031C6029A5140130FE00A7
:1022B000053083120313EE003211D229831603175F
:1022C0000313650803172302031369070317A30009
:1022D0000313580803172302A600A61F7129260816
:1022E000003CA400A41B78292408113C031CD0291D
:1022F0000313D81F7D290317D0295808283C031C35
:1023000083290317D029D81B8B2958086B3C031845
:102310008B290317D0290317A31B922923084A3CB2
:10232000031CD02903136508003CF700F71B9E2906
:102330007708193C03189E290317D029E91BA62901
:102340006908193C0318A6290317D0296508003C21
:10235000F700F71FAD290317D0297708053C031CA8
:10236000B3290317D029E91FB7290317D029690812
:10237000053C031CBD290317D0290317A514FE0132
:10238000043083120313EE00321505308316031751
:10239000A6000A12831203130A250A1683160317CE
:1023A0008312031383160317A51CE22901300313BC
:1023B000EC000317A6000A12831203138B260A16D9
:1023C0008316031703136C0BE629DB2A5608003C1F
:1023D000F700F71BDB2A7708053C0318DB2A5708B0
:1023E000003CF700F71BDB2A7708003C0318DB2AC8
:1023F000DA1BDB2A5A08143C0318DB2ADA1B042AEE
:102400005A08473C031CDB2A5708003CF700F71B1F
:102410000D2A7708113C031CDB2ADB1B132A5B08FF
:102420002A3C031CDB2A5F08003CF700F71B1C2A30
:1024300077082A3C031CDB2AE31B222A63082A3C78
:10244000031CDB2ADB1BDB2A5B08053C0318DB2AA9
:102450005F08003CF700F71BDB2A7708053C0318F0
:10246000DB2AE31BDB2A6308053C0318DB2A5F0831
:102470005B0263070317A30003135A080317230221
:10248000A600A61F452A2608003CA400A41B4C2A2F
:102490002408113C031C572AA5140130FE00053006
:1024A00083120313EE003211C92A83160317031394
:1024B00067080317230203136B070317A300031313
:1024C0005A0803172302A600A61F682A2608003C04
:1024D000A400A41B6F2A2408113C031CC72A031361
:1024E000DA1F742A0317C72A5A08283C031C7A2AC1
:1024F0000317C72ADA1B822A5A086B3C0318822A60
:102500000317C72A0317A31B892A23084A3C031C65
:10251000C72A03136708003CF700F71B952A7708C2
:10252000193C0318952A0317C72AEB1B9D2A6B0831
:10253000193C03189D2A0317C72A6708003CF700B7
:10254000F71FA42A0317C72A7708053C031CAA2AE9
:102550000317C72AEB1FAE2A0317C72A6B08053CCF
:10256000031CB42A0317C72A0317A514FE0104305D
:1025700083120313EE003215053083160317A600ED
:102580000A12831203130A250A16831603178312ED
:10259000031383160317A51CDA2A02300313EC0079
:1025A00003300317A6000A12831203138B260A16A0
:1025B0008316031703130317A51CF12A83120313B1
:1025C000EF01ED010530F800103084008317800121
:1025D000840AF80BE72A7508F6008316EE01EF016E
:1025E000031783120313B218442B8316EC08031D40
:1025F000FB2A8312442B6C0B1E2B8312ED18022B2B
:1026000083161E2B83165508003CF700F71B1E2B64
:102610007708053C03181E2BD91B1E2B5908223C9A
:1026200003181E2B8312ED01063083160317A60034
:102630000A12831203130A250A1683166C08023C39
:10264000031D432B8312ED19272B8316432B83166F
:102650005708003CF700F71B432B7708053C03188D
:10266000432BDB1B432B5B08223C0318432B8312B9
:10267000ED01063083160317A6000A128312031316
:102680000A250A16831683126D2D83166C0B5B2B9D
:1026900083126D184D2B83165B2B8316540803177A
:1026A000A7000A128312031390270A167808053C24
:1026B000031C732B83166C08023C031D232C83120E
:1026C0006D19642B8316232C831656080317A70055
:1026D0000A128312031390270A167808053C031C7C
:1026E000732B8316232C83166C0B822B023003175B
:1026F000A6000130A700A801031355080317A9007D
:102700008D2B031308300317A6000330A7000230F7
:10271000A800031357080317A900831203136D08B9
:10272000831603172605003A0319C52BA91BB12BE5
:102730002908003C0318B12B2708AA0003136F08CF
:102740000317AB0003136E080317AC000A128A15B7
:10275000831203139A250A168A118316EE01C42BDD
:1027600003172708AA0003136E080317AB0003130F
:102770006F080317AC000A128A15831203139A25F7
:102780000A168A118316EF010317A91BD12B2908FA
:10279000003C0318D12B0130A6000313EE0AD42B02
:1027A0000317A6010313EF0A83126E08043C031DEE
:1027B000E62B831603172608AA00AA0C8312900D95
:1027C000910D920D930D940D0F2C03138316031787
:1027D0002608AA00AA0803190E2C831203136F08F7
:1027E000073983160317AB00831203136F0CF7002E
:1027F000F70CF70C1F30F7057708103E840083179D
:102800000130F700831603172B08F80003190C2C6E
:102810000310F70DF80B082C7708800483120313BC
:10282000EF0A7508F600ED01831603172808AA00C1
:102830000130AB00AC000A128A15831203139A25EB
:102840000A168A1183166C0B2B2CD41B2B2C5408C4
:10285000193C031C352C6C08023C031D2F2DD61B84
:102860002F2D5608193C03182F2D83126E08043C97
:10287000031D4B2C03100317940C930C920C910C1A
:10288000900C0310940C930C920C910C900C03136D
:10289000EF03EF037D2C023083160317A700A70870
:1028A00003197B2C831203136F0807398316031750
:1028B000A600831203136F0CF700F70CF70C1F3000
:1028C000F7057708103E840083170130F700831660
:1028D00003172608F8000319712C0310F70DF80BE5
:1028E0006D2C7708FF3A800583120313EF038316DC
:1028F0000317A7034F2C831203130630EE00750D48
:10290000F600F60DFC30F605ED0183166C0BDC2CA1
:1029100083126F08153C0319992C6F08253C031985
:10292000992C6F080C3C0319992C6F081F3C031D50
:10293000D02C0317EF0A0313321DA82C0130831685
:102940000317A6000A12831203130A250A16CF2CB6
:1029500003176F08013C0318BE2C831603136D1B6D
:10296000BA2C80300317AE000A1283120313A62478
:102970000A1683166D17ED1783120317013083169D
:10298000A6000A12831203130A250A1605308316BD
:102990000317A6000A12831203130A250A16DA2C5B
:1029A0000317EF08031DD92C83160313EC018312C0
:1029B000031703132E2D831683126F08153C03197A
:1029C000ED2C6F08253C0319ED2C6F080C3C031906
:1029D000ED2C6F081F3C031D242D0317EF0A031372
:1029E000321D082D83166D1BFE2C80300317AE00A0
:1029F0000A1283120313A6240A1683166D170130D8
:102A00000317A6000A12831203130A250A16232DA0
:102A100003176F08013C0318122D83160313ED17DB
:102A20008312031701308316A6000A1283120313C0
:102A30000A250A16053083160317A6000A12831208
:102A400003130A250A162E2D0317EF08031D2D2D3B
:102A500083160313EC0183120317031383168312E7
:102A60006D2D83166C0B382D83126D18412D831636
:102A70006C08023C031D692D83126D19412D8316CC
:102A8000692D0310750DF600EE01ED018316031795
:102A9000A2012208033C031C682DD83022078400C1
:102AA00083138001DC302207840083138001E0302F
:102AB0002207840083138001E430220784008313FB
:102AC0008001E8302207840083138001A20A492D87
:102AD000031383126D2DEE016D2D8A150A12B72E88
:02400E00763FFB
:00000001FF
;PIC16F877
