:020000040000FA
:040340003CEF14F08A
:08034800056ED8CF06F0E95064
:10035000076EEA50086EE150096EE2500A6ED950FD
:100360000B6EDA500C6EF350146EF450156EE050B4
:100370000D6E000100500F6E0150106E0250116E94
:100380000350126E0450136E9DA6CAEF01F09EB684
:10039000F1EF01F0F2AAD0EF01F0F2B40DEF03F0AB
:1003A0000F50006E1050016E1150026E1250036E0D
:1003B0001350046E0D50E06E0D8E0750E96E08501C
:1003C000EA6E0950E16E0A50E26E0B50D96E0C5085
:1003D000DA6E1450F36E1550F46E055006C0D8FF57
:1003E0001000C7CF40F1675202E05D8E01D05D9EE4
:1003F000C6AC0CD0C69CC9CF3FF1C69C5B6A5C6A98
:10040000636A626A68925D82C68804D101014051C4
:100410002D0B090A000111E0280A1DE0080A1BE063
:10042000250AD8B497D0200AD8B4BAD0080AD8B4CC
:10043000B7D00C0AD8B4D8D0DED0656A690E646E25
:100440005B6AC9CF3FF13FC15CF0C69C626AC10ED6
:100450005D166892DFD0C9CF3FF15B5219E15B2A8C
:100460003FC162F001013F515C2665C003F064505A
:10047000642AD8B4652AE96E03C0EAFF3FC1EFFFE2
:1004800062AE03D05D86629E01D05D9661D00001B0
:100490005B2C14D05B2A3FC163F001013F515C2605
:1004A00065C003F06450642AD8B4652AE96E03C0BD
:1004B000EAFF3FC1EFFF0001ADD04BD05DA603D0F6
:1004C0005B50020804E0020E62245B5C28E15B2AB8
:1004D00001013F51FF0A5C5C05E05D885D84030E0D
:1004E000616E1AD05DB014D05DA603D063500708CA
:1004F0000EE0EA6A210EE96EE26A690EE16E5B5077
:10050000016E04E0E6CFEEFF012EFCD75D8004D043
:100510005D885D82060E616E00017CD01AD05B5052
:100520001D0807E25B2A5D885D82060E616E72D04F
:1005300010D001013F515C2665C003F06450642A6D
:10054000D8B4652AE96E03C0EAFF3FC1EFFF5B2A1A
:10055000000160D0656A690E646E5B6A68825DA6A0
:1005600012D05DA004D05D8A080E616E0CD0EA6ADC
:10057000690EE96EE26A2F0EE16E1E0E016EE6CF85
:10058000EEFF012EFCD75DC03FF13FC1C9FF3FC167
:100590005CF05DB601D0626AC90E5D16C6883AD0BD
:1005A00062505B5C06E15CC03FF101013F1F14D06B
:1005B000000162505B5C0EE265C003F06450642A87
:1005C000D8B4652AE96E03C0EAFFEFCF3FF101011D
:1005D00003D0000101013F6B3FC1C9FF3F515C26C1
:1005E0005B2AC688000116D05B6A5C6A636A626A2D
:1005F0006892C6880FD0C6AC01D0C69CC6AE01D0EA
:10060000C69E010140A102D03FC1C9FF6892C688C1
:10061000000100D09E96D0EF01F01950D8B41A0610
:100620001906178CDC51030827E320A803D0209873
:10063000C28421D0C2B41FD0036ADC51DD0FE96E41
:10064000000E0320EA6EC4CFEFFFDC2BDC51030861
:100650000CE3DC35006E00360036F80E0016C25092
:10066000C70B0010C26E208806D0000E016EC2506B
:10067000C70B0110C26E06D0000E016EC250C70B30
:100680000110C26EF294D0EF01F001013491F2BE7C
:10069000348134A104D0F29CF29EF2BEFDD7F2CF99
:1006A00035F1F29E32C1A9FFA69CA69EA680A85055
:1006B00035BFF28E336F34A102D0C00EF21233C1B7
:1006C00001F00001000C32C1A9FF33C1A8FFA69CB4
:1006D000A69EA684F2CF00F0F29E0F01550EA76EE3
:1006E000AA0EA76EA682A6B2FED7A6940050F2125A
:1006F0000001000CC190C182C194C1960F0E926E90
:10070000C00E936EF90E946E806A3E0E816E1C0EC2
:10071000826EF18E1F6EC19CC28CC28EC19EC28041
:10072000DC6B000E016EC250C70B0110C26EC80E0A
:10073000D56ED180830ECD6E780E016E0609CA6E1D
:10074000FF0ECB6E20981790030ED46F800ED36FE0
:100750002082D76B179617980B0E0101326F00019C
:1007600094DF015207E00B0E0101326F00018DDFB3
:10077000013C38D00B0E0101326F500E336F000177
:10078000A2DF010E0101326F500E336F00019BDFBB
:10079000020E0101326F500E336F000194DF030E21
:1007A0000101326F500E336F00018DDF040E010125
:1007B000326FD20E336F000186DF050E0101326FFA
:1007C000D20E336F00017FDF060E0101326FD20EB1
:1007D000336F000178DF070E0101326FD20E336FE5
:1007E000000171DF0B0E0101326F00014EDF01C00D
:1007F00087F0010E0101326F000147DF01C088F070
:10080000020E0101326F000140DF01C089F0030ECA
:100810000101326F000139DF01C08AF0040E0101CD
:10082000326F000132DF01C08BF0050E0101326F23
:1008300000012BDF01C08CF0060E0101326F0001B8
:1008400024DF01C08DF0070E0101326F00011DDFB2
:1008500001C08EF00101146B156B00014FEF14F015
:100860000E0E0101166F020E176F186B196B1A6BC3
:10087000300E1B6F1C6F1D6F1E6F1F6F206F216B63
:10088000000151EF14F03C0E0101226F1E0E236F88
:100890000F0E246F140E256F000153EF14F05B6AE6
:1008A0005D6A5C6A656A690E646E636A626A616A3F
:1008B000606A68921E0E016EEA6A690EE96EEE6A5F
:1008C000012EFDD7676AF90E946E000C360EC66EC7
:1008D00028C1C8FFC78C6890E2DF59EF14F001010E
:1008E00036513803F3CF01F0F4CF00F03903F35061
:1008F000002637513803F3500020026E0001000C2F
:10090000016A026A006A036A01013B5102E13A513D
:1009100018E0100E3C6FD890383739370036033660
:100920003B51035C02E13A51005C07E33A51005E3F
:10093000D8A003063B51035ED880013602363C2F17
:10094000EAD700000001000C01013351FF0A6716CD
:10095000675202E1F90E946E0001000CD4C037F129
:10096000D3C036F10101396B060E386F0001B7DFD5
:1009700002C034F1010101C033F1F20E396FE50E0E
:10098000386F02C03BF101C03AF10001B9DF02C08B
:10099000DBF001C0DAF0DB51000803E2DB6BFF0E95
:1009A000DA6FDAC0CBFF170ED16FFF0ED26F0101E5
:1009B000326B325103083AE3036A32518F0FE96E0A
:1009C000000E0320EA6EEF6A036A3251AF0FE96E40
:1009D000000E0320EA6EEF6A036A3251B30FE96E2C
:1009E000000E0320EA6EEF6A036A3251B70FE96E18
:1009F000000E0320EA6EEF6A036A3251BB0FE96E04
:100A0000000E0320EA6EEF6A036A3251BF0FE96EEF
:100A1000000E0320EA6EEF6A036A3251C30FE96EDB
:100A2000000E0320EA6EEF6A322BC3D787C093F023
:100A300000018751F30804E30C0E8725976F02D05D
:100A4000FF0E976F88510B0804E20C0E885D946FBF
:100A500001D0946B88C098F089C095F08951E30863
:100A600004E31C0E8925996F02D0FF0E996F8A51FD
:100A70001B0804E21C0E8A5D966F01D0966B8AC03B
:100A80009AF09AC0A6F098C0A4F00101326B3251DE
:100A900003081BE3036A32519B0FE96E000E03202B
:100AA000EA6EFF0EEF6E036A32519F0FE96E000E81
:100AB0000320EA6EEF6A036A3251A70FE96E000E57
:100AC0000320EA6EEF6A322BE2D7116B126B136BC5
:100AD000050E016EEA6AC90EE96EEE6A012EFDD7B7
:100AE0000001C76BDC6BC86BD66B300ED717CE6BB3
:100AF000CF6ACE6A9E9001010F6B2086106BF29C2C
:100B0000F29EF2BEFDD7040E336F00011DDF200EF2
:100B10000101336F000118DF800E0101336F000106
:100B200013DFC00EF212000C010EEA6E330EE96EF6
:100B3000EF500EE0090E016E006A002EFED7012E66
:100B4000FBD7F50E006E002EFED70000EF2EF2D779
:100B5000000C32C160F0605202E15D9A01D05D8A02
:100B6000000C1F921FC082FF81900101326B0400B4
:100B7000C80E336F0001D8DF010132530DE1178A2F
:100B80001E6A040E1D6E930E1C6EE00E1B6E1F82FD
:100B90001FC082FF818004D01F921FC082FF8190FE
:100BA000040032C101F0000100EF07F0F29CF29E58
:100BB000F2BEFDD774DEFF00000C67C02FF060C0EE
:100BC00030F061C031F032C132F0A9EF09F001011B
:100BD00038516712675205E01F9A1FC082FFD90E75
:100BE000946E0001000CCECFE2F0CFCFE1F0000C0C
:100BF0001F941FC082FF819A010132BF01D001D032
:100C0000819233BF01D001D0819434BF01D001D093
:100C1000819635BF01D001D0819832BF07D033BF54
:100C200005D034BF03D035BF01D01BD032BF01D0B7
:100C300002D0322B01D0818233BF01D002D0332BBE
:100C400001D0818434BF01D002D0342B01D0818601
:100C500035BF01D002D0352B01D08188818A819A9D
:100C6000DCD71F841FC082FF32BF04D0325100087E
:100C700001E2819233BF04D03351000801E2819434
:100C800034BF04D03451000801E2819635BF04D04E
:100C90003551000801E2819832BF03D0325100087B
:100CA0000FE333BF03D0335100080AE334BF03D04E
:100CB0003451000805E335BF26D03551000823E242
:100CC00032BF05D03251000802E2320701D08182E2
:100CD00033BF05D03351000802E2330701D08184CD
:100CE00034BF05D03451000802E2340701D08186B8
:100CF00035BF05D03551000802E2350701D08188A3
:100D0000818A819AC9D78182818481868188818AFA
:100D10000001A9EF09F0010132A102D08192818284
:100D200032A302D08194818432A502D0819681863B
:100D300032A702D0819881880A0E336F0001F4DE59
:100D4000A9EF09F05DB001D015D30101326B0001AC
:100D500000DF21503F0B0101286F28510E0802E2ED
:100D60000E0E286F2250070A000140E00F0A3FE0F4
:100D7000010A49E0090A54E0030AD8B461D0020A22
:100D8000D8B48AD0030AD8B48DD0080AD8B495D084
:100D9000010AD8B4ADD00F0AD8B4B5D0010AD8B47E
:100DA000B3D0030AD8B4B1D0EF0AD8B4BED0010A88
:100DB000D8B4BCD0780AD8B4BAD0010AD8B42FD1EC
:100DC000030AD8B44FD1010AD8B434D2070AD8B430
:100DD0004CD2010AD8B489D2030AD8B497D2010AF6
:100DE000D8B49DD20F0AD8B49DD2ADD2B2D21E0EC5
:100DF000016EEA6A2F0EE96EEE6A012EFDD7B1D6BA
:100E000001C02FF0A6D2EA6A2F0EE96EE26A4D0EFB
:100E1000E16E1E0E016EE6CFEEFF012EFCD799D2D9
:100E2000EA6A2F0EE96EE26A230EE16E0101285193
:100E3000016E04E0E6CFEEFF012EFCD7000189D25F
:100E40001E0E016EEA6A2F0EE96EEE6A012EFDD7C4
:100E50002350010A03E0030A0FE01CD0EA6A2F0EB8
:100E6000E96E010EE26E160EE16E0C0E016EE6CF1B
:100E7000EEFF012EFCD70FD0EA6A2F0EE96E010EAD
:100E8000E26E220EE16E040E016EE6CFEEFF012E41
:100E9000FCD701D000D05DD25DA602D0178E01D064
:100EA00085DE57D21E0E016EEA6A2F0EE96EEE6ADB
:100EB000012EFDD718C032F180D623C030F124C0F6
:100EC00031F130C1A9FF31C1A8FFA69CA69EA6841E
:100ED000F2CF00F0F29E0F01550EA76EAA0EA76E7C
:100EE000A682A6B2FED7A6940050F212000131D21B
:100EF00023C030F130C132F145EC03F001C031F1D3
:100F000031C12FF026D225D224D2F29CF29EF2BE1D
:100F1000FDD7235204E024C038F159DE03D024C0A9
:100F200033F112DDC00EF21214D213D212D25BDEF4
:100F3000E1C02FF0E2C030F001010F5369E02A6BED
:100F40002D6B030E2B6F625C296F036A2A51E30F2E
:100F5000E96E000E0320EA6EEF50295D31E30F5178
:100F60002A5D2EE22A512A2B036AE30FE96E000E56
:100F70000320EA6EEFCF2CF12C51295F2D2B2C5141
:100F80002C07000A1CE02B512B2B036A2F0F016E3C
:100F9000000E032201C033F103C034F12A512A2B81
:100FA000036AE30FE96E000E0320EA6EEFCF36F11D
:100FB00034C1EAFF01C0E9FF36C1EFFFE0D7C5D772
:100FC0002DC131F00001D751321201012A510F5FBA
:100FD000296B2A512B081BE3036A2951E30F016E89
:100FE000000E032203C033F1036A2A51E30FE96EB6
:100FF000000E0320EA6EEFCF34F133C1EAFF01C0E7
:10100000E9FF34C1EFFF2951292B2A2BE2D705D064
:10101000010E316E0001D7C032F000019AD10101FA
:10102000336B346B036A235034110001D36F0350C8
:10103000010124100001D46F255202E1000E01D0FD
:10104000010E016E01B002D0209201D020821780E3
:1010500085DC000E016EC250C70B0110C26EC28447
:10106000DC6B77D11790010110511508D8B0DED094
:101070000001D6510208D8A46CD0200E9925010198
:10108000155D17E016E31539006E0F0E00160050BF
:10109000155D296F00018D510101295D0AE229C109
:1010A0008DF0060E326F29C133F1000163EC03F0BD
:1010B0000101020E326F000145EC03F001C029F17D
:1010C0000C0E010129250001895D01E006E20C0EEC
:1010D0000101295D0001895D13E2D89001012931E8
:1010E000326FD89000018931010132252A6F020E3A
:1010F000326F2AC133F1000163EC03F02AC189F099
:10110000030E0101326F000145EC03F001C029F12B
:101110000C0E0101292500018A5D01E006E20C0E9A
:101120000101295D00018A5D13E2D8900101293196
:10113000326FD89000018A31010132252A6F030EE7
:10114000326F2AC133F1000163EC03F02AC18AF047
:101150006DD0D62D6BD0200E97250101145D17E0C0
:1011600016E31439006E0F0E00160050145D296F3F
:1011700000018B510101295D0AE229C18BF0040EA7
:10118000326F29C133F1000163EC03F001010B0E52
:10119000326F000145EC03F001C029F10C0E010192
:1011A00029250001875D01E006E20C0E0101295DA1
:1011B0000001875D13E2D89001012931326FD89088
:1011C00000018731010132252A6F0B0E326F2AC1CF
:1011D00033F1000163EC03F02AC187F0010E010135
:1011E000326F000145EC03F001C029F10C0E010142
:1011F00029250001885D01E006E20C0E0101295D50
:101200000001885D13E2D89001012931326FD89036
:1012100000018831010132252A6F010E326F2AC187
:1012200033F1000163EC03F02AC188F00001AEEC59
:1012300004F08FD0DC51030801E39CD0DDC02FF017
:10124000DEC030F0DFC031F0E0C032F0336A82BE81
:10125000332A346A82BC342A000E016EC250C70B96
:101260000110C26EC284DC6B74D00B0E0101326FB0
:1012700023C033F1000163EC03F0010E0101326F72
:1012800024C033F1000163EC03F0020E0101326F60
:1012900025C033F1000163EC03F0030E0101326F4E
:1012A00026C033F1000163EC03F0040E0101326F3C
:1012B00027C033F1000163EC03F0050E0101326F2A
:1012C00028C033F1000163EC03F0060E0101326F18
:1012D00029C033F1000163EC03F0070E0101326F06
:1012E0002AC033F1000163EC03F023C087F024C06F
:1012F00088F025C089F026C08AF027C08BF028C06E
:101300008CF029C08DF02AC08EF023D023C032F19A
:1013100024C033F125C034F126C035F169D423C08F
:1013200032F1F9D41F9223B01F821FC082FF17969B
:1013300023B4178623A2819023B28180179823B605
:101340001788179A06D0010E0101326F000101DCE7
:1013500000D0225009080CE0EA6A4D0EE96EE26AFC
:10136000210EE16E0E0E016EE6CFEEFF012EFCD7D0
:101370005D90040079EF14F0036A01013051870F8A
:10138000E96E000E0320EA6EEFCF31F10001C85381
:101390003EE101013051000A000107E0020A05E0C8
:1013A000030A0EE0020A0CE02ED0036A010130515C
:1013B000870FE96E000E0320EA6EEFCF31F125D0E2
:1013C000036A01013051870FE96E000E0320EA6EB7
:1013D000EFCF31F1100E315D326F036A30519B0F48
:1013E000E96E000E0320EA6EEF50325D0BE00AE377
:1013F000036A30519B0FE96E000E0320EA6E100E57
:10140000EF24316F02D0010100D027D00001C85174
:10141000040803E0C851050821E10101302D01D085
:1014200003D03051030810E1010E305D036AAB0FA9
:10143000E96E000E0320EA6EEF5203E112C131F1B2
:1014400002D013C131F109D0036A3051870FE96E20
:10145000000E0320EA6EEFCF31F10001036A0101B3
:101460003051DD0FE96E000E0320EA6E3151EF5C62
:1014700004E2010E016E04D003D0000E016E00D014
:101480000001000CC9C033F1CAC034F1CBC035F142
:10149000CCC036F1CDC037F10101302D24D0000190
:1014A000CE51150807E1050E0101316F030E306FB3
:1014B00019D00001CE51250807E1070E0101316F57
:1014C000020E306F0FD00001CE510C0806E1040E61
:1014D0000101316F306F06D00001060E0101316F3E
:1014E000010E306F0AD0040E316F0001F3EC05F0ED
:1014F000E1C033F1E2C034F101010F5131252B0875
:1015000037E30F510F2B036AE30FE96E000E032040
:10151000EA6E310731C1EFFF0F510F2B036AE30F62
:10152000E96E000E0320EA6E30C1EFFF326B310727
:1015300031513107000A1CE00F510F2B036AE30FF2
:10154000016E000E032201C039F103C03AF132519D
:10155000322B036A330FE96E010E0320EA6EEFCFE0
:101560003CF13AC1EAFF01C0E9FF3CC1EFFFE0D71F
:101570000F511D0803E33051070806E1200E386FB4
:101580000001E7EC05F001010001000C01013191BF
:10159000036A3051AB0FE96E000E0320EA6EEF2CA8
:1015A00028D0036A3051AF0FE96E000E0320EA6EB7
:1015B000EFBE1BD0036A3051AF0FE96E000E03205F
:1015C000EA6EEF2A036A3051AF0FE96E000E032076
:1015D000EA6EEF507F0808E1036A3051AF0FE96E01
:1015E000000E0320EA6EEF0603D03181010E326F48
:1015F00033D0036A3051AB0FE96E000E0320EA6E60
:10160000EF522AE1036A3051AF0FE96E000E03205A
:10161000EA6EEFBE03D0EF5000081BE3036A3051BF
:10162000AF0FE96E000E0320EA6EEF06036A305139
:10163000AF0FE96E000E0320EA6EEF50800808E15C
:10164000036A3051AF0FE96E000E0320EA6EEF2AF5
:1016500003D03181FF0E326F31A189D0036A30513E
:10166000C30F016E000E032203C034F1036A305130
:10167000BF0FE96E000E0320EA6EEFCF35F134C1E3
:10168000EAFF01C0E9FF35C1EFFF036A3051BF0F28
:10169000016E000E032203C034F1036A3051BB0F08
:1016A000E96E000E0320EA6EEFCF35F134C1EAFF98
:1016B00001C0E9FF35C1EFFF036A3051BB0F016E76
:1016C000000E032203C034F1036A3051B70FE96EF4
:1016D000000E0320EA6EEFCF35F134C1EAFF01C0FE
:1016E000E9FF35C1EFFF036A3051B70F016E000EFD
:1016F000032203C034F1036A3051B30FE96E000EC8
:101700000320EA6EEFCF35F134C1EAFF01C0E9FFF3
:1017100035C1EFFF036A3051B30F016E000E032293
:1017200003C034F1036A3051AF0FE96E000E03209D
:10173000EA6EEFCF35F134C1EAFF01C0E9FF35C1F0
:10174000EFFF036A3051AF0FE96E000E0320EA6E1F
:1017500032C1EFFF010E006E3051016E04E0D890EF
:101760000036012EFCD700500001C7130101000113
:10177000000CD207D2530AE1C85308E0C86B01013C
:10178000105302E10001D66B0001CE6B12EF0FF097
:10179000036A01013151B30FE96E000E0320EA6EB6
:1017A000EFCF36F1036A3151B70FE96E000E032017
:1017B000EA6EEF50365D336B326FDBC037F1DAC063
:1017C00036F133C139F132C138F100016FEC04F068
:1017D00002C037F101C036F102C039F101C038F161
:1017E00001013B6B180E3A6F000180EC04F002C05F
:1017F00035F101C034F1DB510101355D52E308E1FF
:1018000034510001DA5DD8A002D001014AD00101B3
:1018100035C139F134C138F13B6B0B0E3A6F000121
:1018200080EC04F002C037F101C036F1DBC039F1C1
:10183000DAC038F101013B6B0A0E3A6F000180EC0F
:1018400004F002C003F002500101375D23E303E11D
:101850003651015C1FE2DBC037F1DAC036F1396B7B
:101860000B0E386F00016FEC04F002C037F101C0BD
:1018700036F102C039F101C038F101013B6B0A0EAB
:101880003A6F000180EC04F002C0DBF001C0DAF036
:1018900006D0010135C1DBF034C1DAF0000149D0D6
:1018A000010135C139F134C138F13B6B140E3A6F87
:1018B000000180EC04F002C037F101C036F1DBC05A
:1018C00039F1DAC038F101013B6B150E3A6F0001B6
:1018D00080EC04F002C003F0015001013751025CBA
:1018E00023E303E10150365D1FE2DBC037F1DAC0CC
:1018F00036F1396B130E386F00016FEC04F002C043
:1019000037F101C036F102C039F101C038F10101EF
:101910003B6B140E3A6F000180EC04F002C0DBF068
:1019200001C0DAF006D0010135C1DBF034C1DAF0D4
:101930000001DB51000803E2DB6BFF0EDA6FDAC057
:10194000CBFF000CD62D31D0010E0101316F00010B
:101950001FDF0101105308E19BC093F09FC097F077
:101960009CC094F0A0C098F0A8C0A4F000019451CD
:10197000A45D006ED89000300101306F105303E178
:1019800030C111F106D030511125006ED8900030D1
:10199000116F11510001985D0101126F1151000189
:1019A00094250101136F30D00001030E0101316F46
:1019B0000001EEDE0101105308E19DC095F0A1C0C9
:1019C00099F09EC096F0A2C09AF0AAC0A6F00001BD
:1019D0009651A65D006ED89000300101306F105313
:1019E00003E130C111F106D030511125006ED890BD
:1019F0000030116F115100019A5D0101126F1151F8
:101A0000000196250101136F0001CE6BC76B050E17
:101A1000016EEA6AC90EE96EEE6A012EFDD7D1C0E9
:101A2000D2F0D86BD96B0101306B305103081BE346
:101A3000036A30519B0FE96E000E0320EA6EFF0E21
:101A4000EF6E036A30519F0FE96E000E0320EA6EBD
:101A5000EF6A036A3051A70FE96E000E0320EA6EA9
:101A6000EF6A302BE2D70001000C010131BF01D039
:101A700005D0000ED8803155016E02D031C101F081
:101A80000001000C010134330001C937CA37CB37DC
:101A9000CC37CD372DEF0EF0010134531FE000019C
:101AA000CE51070B0101356F0001CE31006E0032BF
:101AB00000321F0E00160050036AC90FE96E000EB7
:101AC0000320EA6E010E006E01013551016E04E043
:101AD000D8900036012EFCD70050EF1200012DEFF8
:101AE0000EF001013D51016A3C5D03E23CC100F092
:101AF0000CD0006A080E3E6F3C3700363D51005C4A
:101B0000D8B0006E01363E2FF7D70001000C01015E
:101B1000355362E0365360E0036A3451B30FE96E27
:101B2000000E0320EA6EEFCF39F139BF21D03951D1
:101B300000081EE239C13CF135C13DF10001D1DFA1
:101B400001C037F1036A01013451B70FE96E000E8D
:101B50000320EA6EEF50FF0A010F3B6F3BC13CF1DF
:101B600036C13DF10001BDDF01C038F11DD00101DA
:101B7000000ED88039553B6F3BC13CF135C13DF17A
:101B80000001AFDF01C038F1036A01013451B70F22
:101B9000E96E000E0320EA6EEFCF3CF136C13DF155
:101BA00000019FDF01C037F101013751385D14E0BA
:101BB0003851375D09E2036A3451870FE96E000E30
:101BC0000320EA6EEF2A08D0036A3451870FE96ECA
:101BD000000E0320EA6EEF06000139EF0EF0D62D5D
:101BE0000AD0020E0101306F010E316F326BB0C0AE
:101BF00033F10AD00001080E0101306F030E316F7E
:101C0000020E326FB2C033F10001C751010130152D
:101C1000000A0CE033BF07D03351000804E2000192
:101C2000D86B03D001010001D96B010133BF09D08A
:101C30003351000806E2010E306F0001D82B04D0AA
:101C40000101306B0001D92BC851040803E130C1F8
:101C500034F118D730C134F11FD7CE2BD1C0D2F018
:101C6000C76B32C134F1010E0101356F366F0001CF
:101C70004ED7E0EF12F0C85104080FE10390CD33C6
:101C8000CC33CB33CA33C9330390CD33CC33CB33CE
:101C9000CA33C933CE07CE072BD0020E0101316FF4
:101CA000315325E00001CE51070B0101306F0001D7
:101CB000CE31006E003200321F0E00160050036A53
:101CC000C90FE96E000E0320EA6E010E006E0101DD
:101CD0003051016E04E0D8900036012EFCD7005040
:101CE000FF0AEF160001CE0701013107D9D7000125
:101CF000F3EF12F09EA007D09E90040E0101386F02
:101D00000001E7EC05F09EA203D0DC51030802E3DA
:101D10003AEF14F09E920101306B0001BCEC09F027
:101D200001C0ABF0010E0101306F0001BCEC09F005
:101D300001C0ACF0020E0101306F0001BCEC09F0F3
:101D400001C0ADF0030E0101306F0001BCEC09F0E1
:101D500001C0AEF0DDC029F1DEC02AF1DFC02BF1F9
:101D6000E0C02CF1000E016EC250C70B0110C26E14
:101D7000C284DC6B01012951145D02E229C114F116
:101D80002B51155D02E22BC115F10001D65102085D
:101D900019E10101295100018B5D0AE220B607D04B
:101DA0002086080E0101306F000142EC0AF009D0D4
:101DB00020A607D02096070E0101306F000142ECEB
:101DC0000AF018D001012B5100018D5D0AE220B606
:101DD00007D02086080E0101306F000142EC0AF0A6
:101DE00009D020A607D02096070E0101306F000110
:101DF00042EC0AF00101306B0001C6EC0AF0010E62
:101E00000101306F0001C6EC0AF0020E0101306FD3
:101E10000001C6EC0AF0030E0101306F0001C6ECB0
:101E20000AF0A7D4C75302E13AEF14F0C851000AF0
:101E30000EE0040AD8B46FEF12F0010AD8B46FEFC5
:101E400012F0030AD8B4DEEF13F036EF14F00101FC
:101E50002F930001D6510208D8B46FD1AFBF03D081
:101E6000AF51000817E3000ED880AF55006E00BEDA
:101E700003D000500A083DE3000ED880AF55006E35
:101E800000BE37D00050000834E2B3BF32D0B351A7
:101E90001D082FE29B510101295D03E229C19BF03E
:101EA00006D0295100019F5D02E229C19FF0000187
:101EB0009C5101012A5D03E22AC19CF018D02A51ED
:101EC0000001A05D02E22AC1A0F0AFBF03D0AF5174
:101ED0001C080CE3AFBF0AD0AF51000807E20101B4
:101EE0002A510001A85D02E22AC1A8F0010129D00F
:101EF0000001000ED880B055006E00BE0FD000501B
:101F00000B080CE2000ED880AF55006E00BE06D064
:101F100000500B0803E2FF0E9C6F12D0000ED88019
:101F2000AF55006E00BE0CD000500B0809E2FF0E4A
:101F30009B6F9F6BA06BA86B20A202D0FF0E9C6FC3
:101F40000101000ED8800001AF55006E00BEF5D033
:101F500000500508D8B0F1D0000ED880B755006EFB
:101F600000BEEBD000500508D8B0E7D0000ED880F6
:101F7000B055006E00BEE1D000500008D8B0DDD0F2
:101F8000B3BFDBD0B3511D08D8B0D7D0B3BF04D096
:101F9000B3515308D8A0D1D0000ED880B055006EF0
:101FA00000BE04D000501108D8A0C7D0B4BF04D0E0
:101FB000B4511908D8A0C1D0000ED880B855006E11
:101FC00000BE04D000501908D8A0B7D0BCBF04D0C0
:101FD000BC511908D8A0B1D0B4BFAFD0B4510008DB
:101FE000D8B0ABD0000ED880B855006E00BEA5D0DA
:101FF00000500008D8B0A1D0BCBF9FD0BC51000891
:10200000D8B09BD0B851B45DBC2501012D6F000143
:10201000B35101012D5D306F305130AF03D0000E50
:10202000D88030552E6F2EBF03D02E51110821E3DA
:102030000001B3BF06D0B3513208D8B002D00101BD
:1020400018D0000ED880C055006E00AE02D001013D
:1020500010D000500508D8A002D001010AD001011B
:102060002F83010E0001D56F050EC86F20945ED03E
:1020700001010001C05101012D5D0001C4250101D4
:102080002D6F0001B35101012D5D306F305130AF24
:1020900003D0000ED88030552E6F2EBF03D02E51A6
:1020A000110845E30001B3AF02D0010140D0B351A4
:1020B0003108D8A002D001013AD0000ED880C05516
:1020C000006E00AE02D0010132D000500008D8A04E
:1020D00002D001012CD0C4AF02D0010128D0C451DC
:1020E0000008D8A002D0010122D0000ED880C0552F
:1020F000006E00BE06D000501908D8B002D0010111
:1021000016D0C4BF06D0C4511908D8B002D00101FE
:102110000ED001012F830001D56B040EC86F2084FF
:10212000050E0101306F000142EC0AF001012FA3FE
:1021300005D0010E0001D66F05DC01010001D62D8E
:1021400001D070D1B1BF03D0B151000817E3000E28
:10215000D880B155006E00BE03D000500A083DE3A0
:10216000000ED880B155006E00BE37D00050000878
:1021700034E2B5BF32D0B5511D082FE29D510101A7
:102180002B5D03E22BC19DF006D02B510001A15D18
:1021900002E22BC1A1F000019E5101012C5D03E27E
:1021A0002CC19EF018D02C510001A25D02E22CC17E
:1021B000A2F0B1BF03D0B1511C080CE3B1BF0AD0EB
:1021C000B151000807E201012C510001AA5D02E2B1
:1021D0002CC1AAF0010129D00001000ED880B2550F
:1021E000006E00BE0FD000500B080CE2000ED8802D
:1021F000B155006E00BE06D000500B0803E2FF0E82
:102200009E6F12D0000ED880B155006E00BE0CD06B
:1022100000500B0809E2FF0E9D6FA16BA26BAA6B29
:1022200020A202D0FF0E9E6F0101000ED880000197
:10223000B155006E00BEF6D000500508D8B0F2D0FF
:10224000000ED880B955006E00BEECD000500508D5
:10225000D8B0E8D0000ED880B255006E00BEE2D0F3
:1022600000500008D8B0DED0B5BFDCD0B5511D0895
:10227000D8B0D8D0B5BF04D0B5515308D8A0D2D06B
:10228000000ED880B255006E00BE04D00050110878
:10229000D8A0C8D0B6BFC6D0B6510008D8B0C2D0FA
:1022A000000ED880BA55006E00BEBCD000500008A9
:1022B000D8B0B8D0BEBFB6D0BE510008D8B0B2D0EA
:1022C000B6BF04D0B6511908D8A0ACD0000ED88043
:1022D000BA55006E00BE04D000501908D8A0A2D094
:1022E000BEBF04D0BE511908D8A09CD0BA51B65D6B
:1022F000BE2501012D6F0001B55101012D5D306F2B
:10230000305130AF03D0000ED88030552E6F2EBF25
:1023100003D02E51110821E30001B5BF06D0B551FD
:102320003208D8B002D0010118D0000ED880C255B2
:10233000006E00AE02D0010110D000500508D8A0F8
:1023400002D001010AD001012F83010E0001D56FD7
:10235000050EC86F20945ED001010001C251010139
:102360002D5D0001C62501012D6F0001B551010150
:102370002D5D306F305130AF03D0000ED880305516
:102380002E6F2EBF03D02E51110845E30001B5AFCB
:1023900002D0010140D0B5513108D8A002D00101CE
:1023A0003AD0000ED880C255006E00AE02D00101B6
:1023B00032D000500008D8A002D001012CD0C6AF06
:1023C00002D0010128D0C6510008D8A002D00101D6
:1023D00022D0000ED880C255006E00BE06D000503C
:1023E0001908D8B002D0010116D0C6BF06D0C65118
:1023F0001908D8B002D001010ED001012F830001CD
:10240000D56B040EC86F2084050E0101306F0001EA
:1024100042EC0AF001012FA306D0020E0001D66F94
:10242000A2EC0CF0010120B258D00001D653D8A480
:1024300002D0010152D0D62D26D0C7A324D0000E41
:10244000D880AF55006E00BE1ED0005005081BE2BC
:10245000000ED880B055006E00BE15D000500508A3
:1024600012E2B4BF10D0B45122080DE2C76B060EC1
:102470000101306F000142EC0AF0FF0E9B6F9C6F70
:102480009F6BA06BA86BD651020826E1C7A724D08A
:10249000000ED880B155006E00BE1ED00050050859
:1024A0001BE2000ED880B255006E00BE15D0005061
:1024B000050812E2B6BF10D0B65122080DE2C76B74
:1024C000060E0101306F000142EC0AF0FF0E9D6F15
:1024D0009E6FA16BA26BAA6B0101CBD10001D62D1F
:1024E0001ED09B510101295D03E229C19BF006D05A
:1024F000295100019F5D02E229C19FF000019C511A
:1025000001012A5D03E22AC19CF007D02A51000193
:10251000A05D02E22AC1A0F001011DD000019D5181
:1025200001012B5D03E22BC19DF006D02B51000170
:10253000A15D02E22BC1A1F000019E5101012C5DC1
:1025400003E22CC19EF007D02C510001A25D02E2F3
:102550002CC1A2F001010001D62D09D0C7A107D0DE
:10256000AFC031F135EC0DF0015005080CE3D65148
:1025700002080BE1C7A509D0B1C031F135EC0DF06F
:102580000150050802E2EFEF0DF0D62D07D0B3C0E1
:1025900031F135EC0DF0015005080AE2D651020880
:1025A0000FE1B5C031F135EC0DF00150050808E33D
:1025B000C86B0101105302E10001D66B0001CE6B24
:1025C000D62D05D0AFBF03D0AF5119080AE3D651BD
:1025D0000208D8A4F0D0B1BFEED0B1511908D8B0DC
:1025E000EAD03BEF0EF0060EC86FD151080DF3CFC5
:1025F000D2F0C76BD62D70D0CE51150809E0CE5160
:10260000250806E0CE510C0803E0CE511F085CE11E
:102610000101102B20A407D0010E306F000142EC05
:102620000AF01BD00101105101080CE20001D7BDD6
:1026300006D0800E0101386F0001E7EC05F0D78D60
:10264000D78F0101010E306F000142EC0AF0050E38
:102650000101306F000142EC0AF00101316B94C0BE
:1026600030F10001985101013025326F000E312107
:10267000336FD8903331036E3231026E0001886FB0
:102680000101102D09D09BC093F09FC097F09CC012
:1026900094F0A0C098F016D0000193519B5D02E227
:1026A0009BC093F09F51975D02E29FC097F09451B9
:1026B0009C5D02E29CC094F0A051985D02E2A0C033
:1026C00098F0010107D000010101105303E100015E
:1026D000D66B010171D00001CE51150809E0CE5131
:1026E000250806E0CE510C0803E0CE511F085EE13C
:1026F0000101102B20A412D00001D7BD06D0800EFE
:102700000101386F0001E7EC05F0D78D010E0101E2
:10271000306F000142EC0AF012D0010110510108A3
:1027200003E20001D78F0101010E306F000142EC7E
:102730000AF0050E0101306F000142EC0AF00101C0
:10274000316B96C030F100019A5101013025326F92
:10275000000E3121336FD8903331036E3231026E67
:1027600000018A6F0101102D09D09DC095F0A1C014
:1027700099F09EC096F0A2C09AF016D00001955133
:102780009D5D02E29DC095F0A151995D02E2A1C05C
:1027900099F096519E5D02E29EC096F0A2519A5D1C
:1027A00002E2A2C09AF0010107D00001010110531A
:1027B00003E10001D66B01015CD00001D62D02D0EF
:1027C000C7B105D0D65102084EE1C7A54CD0FF0EC7
:1027D000D26FC86BC76B0101286B2851030843E314
:1027E000036A2851B30FE96E000E0320EA6EEF6A08
:1027F000036A2851B70FE96E000E0320EA6EEF6AF4
:10280000036A2851BB0FE96E000E0320EA6EEF6ADF
:10281000036A2851BF0FE96E000E0320EA6EEF6ACB
:10282000036A2851C30FE96E000E0320EA6EEF6AB7
:10283000036A28519B0FE96E000E0320EA6EFF0E1B
:10284000EF6E036A28519F0FE96E000E0320EA6EB7
:10285000EF6A036A2851A70FE96E000E0320EA6EA3
:10286000EF6A282BBAD7010104D00001C86B01011F
:1028700000D00001D0EF14F0F86AD09E0D8EEA6A05
:10288000E96AC180C182C184C1960101266B276BB0
:10289000F29CF29EF2BEFDD700017AEF03F030EF1A
:1028A00004F043EF04F03C0E0101286F000166EFD5
:1028B00004F04FEC04F0186A9D86F28A17821784A0
:1028C000178A1E6A040E1D6E930E1C6EE00E1B6EA0
:1028D0001F821FC082FF8180C00EF212AEEC04F096
:1028E000640E0101336F000194EC05F00400A2EFC7
:1028F00006F0006A82BE008217500018020B0EE03C
:10290000179282BE178217A202D0D78B01D0D79B15
:10291000020E0101386F0001E7EC05F0006A82BC8D
:10292000008417500018040B0EE0179482BC178423
:1029300017A402D0D78901D0D799010E0101386FB1
:102940000001E7EC05F017AC18D0179C17AA15D0BA
:10295000FF0E1B26D8A01C26D8A01D26D8A01E26F8
:102960001B520BE11C5209E11D5207E11E5205E109
:1029700081901F921FC082FF179A1ABE01D00CD0FF
:102980003A0E1A6E980E196E17A601D01F721FC04C
:1029900082FF17A801D0817017A002D07AEF0EF045
:1029A00017AE0AD0179E640E0101336F000194EC3C
:0C29B00005F00400D6EC05F099D70300F8
:020000040030CA
:0E0000000026060B000181000FC00FE00F402C
:00000001FF
;PIC18F452
