:020000040000FA
:040340005CEF14F06A
:08034800FFFF056ED8CF06F09F
:10035000E950076EEA50086EE150096EE2500A6EED
:10036000D9500B6EDA500C6EF350146EF450156EBB
:10037000E0500D6E000100500F6E0150106E0250E3
:10038000116E0350126E0450136E9DA6CBEF01F058
:100390009EB6F2EF01F0F2AAD1EF01F0F2B462EFF3
:1003A00003F00F50006E1050016E1150026E12508B
:1003B000036E1350046E0D50E06E0D8E0750E96E03
:1003C0000850EA6E0950E16E0A50E26E0B50D96E89
:1003D0000C50DA6E1450F36E1550F46E055006C0D2
:1003E000D8FF1000FFFFC7CF3FF16752D8B4FCEF32
:1003F00001F05D8EFDEF01F05D9EC6AC0DEF02F0E9
:10040000C69CC9CF3EF1C69C5B6A5C6A636A626A3D
:1004100068925D82C6885FEF03F001013F512D0BAA
:10042000006E090E005C0001D8B437EF02F0210E17
:10043000005CD8B446EF02F0290E005CD8B446EF59
:1004400002F00C0E005CD8B4E9EF02F02C0E005C58
:10045000D8B415EF03F0240E005CD8B415EF03F008
:10046000280E005CD8B442EF03F04AEF03F0656A4F
:10047000690E646E5B6AC9CF3EF13EC15CF0C69CFA
:10048000626AC10E5D1668925FEF03F0C9CF3EF15C
:100490005B52D8A468EF02F05B2A3EC162F0010112
:1004A0003E515C266550036E6450642AD8B4652AB8
:1004B000E96E000103C0EAFF3EC1EFFF62AE65EFE7
:1004C00002F05D86629E66EF02F05D96E7EF02F055
:1004D0005B2C81EF02F05B2A3EC163F001013E51CB
:1004E0005C266550036E6450642AD8B4652AE96EB0
:1004F000000103C0EAFF3EC1EFFF5FEF03F0E7EF4B
:1005000002F05DA689EF02F05B500208D8B48FEFCD
:1005100002F0020E62245B5CD8A4C9EF02F05B2AF1
:1005200001013E51FF0A5C5CD8B49DEF02F05D888A
:100530005D84030E616EC4EF02F05DB0C0EF02F0A7
:100540005DA6A8EF02F063500708D8B4BEEF02F032
:10055000EA6A210EE96EE26A690EE16E5B50016E95
:10056000D8B4BDEF02F00001E6CFEEFF012E01D0BE
:1005700003D00101B3EF02F001015D80C4EF02F08E
:100580005D885D82060E616E00015FEF03F0E7EFAC
:1005900002F05B501D08D8B0D7EF02F05B2A5D88EF
:1005A0005D82060E616E5FEF03F0E7EF02F001017E
:1005B0003E515C266550036E6450642AD8B4652AA7
:1005C000E96E000103C0EAFF3EC1EFFF5B2A5FEF67
:1005D00003F0656A690E646E5B6A68825DA606EF69
:1005E00003F05DA0F9EF02F05D8A080E616E06EF80
:1005F00003F0EA6A690EE96EE26A2F0EE16E1E0EE2
:10060000016EE6CFEEFF012E01EF03F05DC03EF17B
:100610003EC1C9FF3EC15CF05DB610EF03F0626AF7
:10062000C90E5D16C6885FEF03F062505B5CD8A40C
:1006300021EF03F05C5001013E6F3E1F37EF03F0E6
:10064000000162505B5CD8B035EF03F06550036E7B
:100650006450642AD8B4652AE96E03C0EAFFEF50FB
:1006600001013E6F37EF03F0000101013E6B000115
:100670003EC1C9FF01013E515C265B2AC6880001CC
:100680005FEF03F05B6A5C6A636A626A6892C688BD
:100690005FEF03F0C6AC4EEF03F0C69CC6AE52EF60
:1006A00003F0C69E01013FA15AEF03F000013EC1D5
:1006B000C9FF01016892C68800015FEF03F09E96B2
:1006C000D1EF01F0FFFF1950D8B41A061906178CA4
:1006D000C0510308D8A09DEF03F020A874EF03F0E9
:1006E0002098C2849BEF03F0C2B49BEF03F0036A2F
:1006F000C051C10FE96E000E0320EA6EC4CFEFFFB8
:10070000C02BC0510308D8A095EF03F0C035006E90
:1007100000360036F80E00160050016EC250C70BAE
:100720000110C26E20889BEF03F0000E016EC250D4
:10073000C70B0110C26EA3EF03F0000E016EC25092
:10074000C70B0110C26EF294D1EF01F0FFFF01015F
:100750003791F2BE378137A1B3EF03F0F29CF29EDE
:10076000F2BEAFEF03F00001F2CF38F1F29EAA6AB9
:1007700035C1A9FFA69CA69EA680A850010138BF3E
:10078000F28E366F37A1C7EF03F0C00EF21236516A
:10079000016E0001000CFFFFFFFFAA6A35C1A9FF2F
:1007A00036C1A8FFA69CA69EA684F250006EF29EBB
:1007B0000F01550EA76EAA0EA76EA682A6B2DEEF97
:1007C00003F0A6940050F2120001000CFFFFFFFF9F
:1007D000020EC16E0F0E926EC00E936EF90E946EE5
:1007E000806A3E0E816E1C0E826EF18E1F6EC19C61
:1007F000C250380BC109C26EC06B000E016EC250F0
:10080000C70B0110C26EC80ED56ED180830ECD6E9F
:10081000780E016E0609CA6EFF0ECB6E20981790F7
:10082000030EB86F800EB76F2082BB6B17961798B8
:100830000B0E0101356F0001A6EC03F00152D8B494
:100840002BEF04F00B0E0101356F0001A6EC03F055
:10085000013C6BEF04F00B0E0101356F500E366F4B
:100860000001CCEC03F0010E0101356F500E366F24
:100870000001CCEC03F0020E0101356F500E366F13
:100880000001CCEC03F0030E0101356F500E366F02
:100890000001CCEC03F0040E0101356FD20E366F6F
:1008A0000001CCEC03F0050E0101356FD20E366F5E
:1008B0000001CCEC03F0060E0101356FD20E366F4D
:1008C0000001CCEC03F0070E0101356FD20E366F3C
:1008D0000001CCEC03F00B0E0101356F0001A6EC1A
:1008E00003F001C087F0010E0101356F0001A6EC95
:1008F00003F001C088F0020E0101356F0001A6EC83
:1009000003F001C089F0030E0101356F0001A6EC70
:1009100003F001C08AF0040E0101356F0001A6EC5E
:1009200003F001C08BF0050E0101356F0001A6EC4C
:1009300003F001C08CF0060E0101356F0001A6EC3A
:1009400003F001C08DF0070E0101356F0001A6EC28
:1009500003F001C08EF06FEF14F0FFFFFFFF0E0EEB
:100960000101196F010E1A6F1B6B1C6B1D6B300E92
:100970001E6F1F6F206F216F226F236F246B00018A
:1009800071EF14F0FFFFFFFF3C0E0101256F1E0EFB
:10099000266F0F0E276F140E286F000173EF14F0EF
:1009A000FFFFFFFF5B6A5D6A5C6A656A690E646EE1
:1009B000636A626A616A606A68921E0E016EEA6A20
:1009C000690EE96EEE6A012EE2EF04F0676AF90E35
:1009D000946E000CFFFFFFFF360EC66E2BC1C8FFE2
:1009E000C78C6890D1EC04F079EF14F0FFFFFFFFA3
:1009F0000101365138030001F3CF01F0F4CF00F0CC
:100A000001013903F350002637513803F350002019
:100A1000026E0001000CFFFFFFFF016A026A006A1C
:100A2000036A01013B51D8A41AEF05F03A51D8B43A
:100A300037EF05F0100E3C6FD89038373937003655
:100A400003363B51035CD8A428EF05F03A51005C13
:100A5000D8A032EF05F03A51005ED8A003063B5112
:100A6000035ED880013602363C2F1CEF05F00000F3
:100A70000001000CFFFFFFFF01013651FF0A67165E
:100A80006752D8A446EF05F0F90E946E0001000CF1
:100A9000FFFFFFFFB8C037F1B7C036F10101396B76
:100AA000060E386F0001F7EC04F002C003F00150AD
:100AB0000101366F000102C037F1F20E0101396FFA
:100AC000E50E386F000102C03BF136C13AF10CEC83
:100AD00005F002C0BFF001C0BEF0BF510008D8B0A1
:100AE00075EF05F0BF6BFF0EBE6FBEC0CBFF230ED0
:100AF000B56FD890B535B66F0101356B3551030828
:100B0000D8A0B6EF05F0036A3551930FE96E000ED9
:100B10000320EA6EEF6A036A3551970FE96E000E03
:100B20000320EA6EEF6A036A35519B0FE96E000EEF
:100B30000320EA6EEF6A036A35519F0FE96E000EDB
:100B40000320EA6EEF6A036A3551A30FE96E000EC7
:100B50000320EA6EEF6A036A3551A70FE96E000EB3
:100B60000320EA6EEF6A352B7EEF05F0050E016E6D
:100B7000EA6AAD0EE96EEE6A012EBBEF05F00001E8
:100B8000AB6BC06BAC6BBA6B300EBB17B26BCF6A82
:100B9000CE6A9E900101176B2086186BF29CF29E24
:100BA000F2BECFEF05F0040E366F00013BEC05F00E
:100BB000200E0101366F00013BEC05F0800E0101B3
:100BC000366F00013BEC05F0C00EF212000CFFFF87
:100BD000FFFF010EEA6E370EE96EEF50D8B4FFEF5B
:100BE00005F0090E016E006A002EFED7012EFBD71C
:100BF000F50E006E002EFED70000EF2EF2D7000C8F
:100C0000FFFFFFFF35C160F06052D8A40BEF06F084
:100C10005D9A0CEF06F05D8A000CFFFFFFFF1F924C
:100C20001FC082FF81900101366B0400C80E376F30
:100C30000001E8EC05F001013653D8A430EF06F0CE
:100C4000178A1E6A040E1D6E930E1C6EE00E1B6E3C
:100C50001F8200011FC082FF818035EF06F0010175
:100C60001F9200011FC082FF8190040001013651D4
:100C7000016E0001FFEF07F0FFFFFFFFF29CF29E05
:100C8000F2BE3FEF06F0D1EC04F0FF00000CFFFFD6
:100C9000FFFF67C02FF060C030F061C031F035C198
:100CA00032F07DEF08F0FFFFFFFF010137516712BF
:100CB0006752D8B463EF06F01F9A00011FC082FF8D
:100CC000D90E946E01010001000CFFFFFFFFCECF93
:100CD000C6F0CFCFC5F0000CFFFFFFFF1F941FC071
:100CE00082FF819A010135BF78EF06F079EF06F0B7
:100CF000819236BF7EEF06F07FEF06F0819437BF1A
:100D000084EF06F085EF06F0819638BF8AEF06F093
:100D10008BEF06F0819835BF99EF06F036BF99EF5B
:100D200006F037BF99EF06F038BF99EF06F0C1EF34
:100D300006F035BF9EEF06F0A1EF06F0352BA2EFCF
:100D400006F0818236BFA7EF06F0AAEF06F0362B39
:100D5000ABEF06F0818437BFB0EF06F0B3EF06F0DB
:100D6000372BB4EF06F0818638BFB9EF06F0BCEF41
:100D700006F0382BBDEF06F08188818A819A8BEFCF
:100D800006F01F8400011FC082FF010135BFCFEFB5
:100D900006F035510008D8B0CFEF06F0819236BF8B
:100DA000D8EF06F036510008D8B0D8EF06F081949D
:100DB00037BFE1EF06F037510008D8B0E1EF06F099
:100DC000819638BFEAEF06F038510008D8B0EAEF54
:100DD00006F0819835BFF2EF06F035510008D8A033
:100DE0000AEF07F036BFFAEF06F036510008D8A038
:100DF0000AEF07F037BF02EF07F037510008D8A01D
:100E00000AEF07F038BF3EEF07F038510008D8B0BE
:100E10003EEF07F035BF15EF07F035510008D8B0A9
:100E200015EF07F0350716EF07F0818236BF21EF87
:100E300007F036510008D8B021EF07F0360722EF4F
:100E400007F0818437BF2DEF07F037510008D8B085
:100E50002DEF07F037072EEF07F0818638BF39EF07
:100E600007F038510008D8B039EF07F038073AEFEB
:100E700007F08188818A819AEAEF06F08182818475
:100E800081868188818A0001C2EF0AF0FFFFFFFF9F
:100E9000010135A14EEF07F08192818235A353EF16
:100EA00007F08194818435A558EF07F081968186FB
:100EB00035A75DEF07F0819881880A0E376F000132
:100EC000E8EC05F0C8EF0AF0FFFFFFFF5DB06BEF45
:100ED00007F0F8EF0AF00101356B000101EC06F0B4
:100EE00021503F0B01012B6F2B510E08D8B07BEF27
:100EF00007F00E0E2B6F2250006E070E005C0001F3
:100F0000D8B4F2EF07F0080E005CD8B4F4EF07F0A5
:100F1000090E005CD8B403EF08F00052D8B412EF09
:100F200008F0030E005CD8B42BEF08F0010E005C53
:100F3000D8B466EF08F0020E005CD8B470EF08F089
:100F40000A0E005CD8B47FEF08F00B0E005CD8B43A
:100F50009DEF08F0040E005CD8B4A9EF08F0050E70
:100F6000005CD8B4ABEF08F0060E005CD8B4ADEF6F
:100F700008F0E90E005CD8B4C4EF08F0E80E005C9D
:100F8000D8B4C6EF08F0900E005CD8B4C8EF08F0F3
:100F9000910E005CD8B45BEF09F0920E005CD8B4FF
:100FA0007FEF09F0930E005CD8B447EF0AF0940E7F
:100FB000005CD8B466EF0AF0950E005CD8B4A6EFDA
:100FC0000AF0960E005CD8B4B8EF0AF0970E005CF9
:100FD000D8B4C4EF0AF0980E005CD8B4CAEF0AF097
:100FE000DCEF0AF0E4EF0AF01E0E016EEA6A2F0E43
:100FF000E96EEE6A012EF9EF07F00EEF06F001C080
:101000002FF0E4EF0AF0EA6A2F0EE96EE26A4D0E65
:10101000E16E1E0E016EE6CFEEFF012E0BEF08F023
:10102000E4EF0AF0EA6A2F0EE96EE26A230EE16E3F
:1010300001012B51016ED8B428EF08F00001E6CF72
:10104000EEFF012E01D003D001011EEF08F00101D7
:101050000001E4EF0AF01E0E016EEA6A2F0EE96E3F
:10106000EE6A012E30EF08F02350006E010E005C96
:10107000D8B442EF08F0020E005CD8B452EF08F08A
:1010800062EF08F0EA6A2F0EE96E010EE26E190EA9
:10109000E16E0C0E016EE6CFEEFF012E4BEF08F075
:1010A00064EF08F0EA6A2F0EE96E010EE26E250E7B
:1010B000E16E040E016EE6CFEEFF012E5BEF08F04D
:1010C00064EF08F064EF08F0E4EF0AF05DA66CEF5F
:1010D00008F0178E6EEF08F03DEC06F0E4EF0AF032
:1010E0001E0E016EEA6A2F0EE96EEE6A012E75EF92
:1010F00008F018C035F148EF06F0E4EF0AF023C01D
:1011000033F124C034F1AA6A33C1A9FF34C1A8FF66
:10111000A69CA69EA684F250006EF29E0F01550E6C
:10112000A76EAA0EA76EA682A6B294EF08F0A694A8
:101130000050F2120001E4EF0AF023C033F133C192
:1011400035F1A6EC03F001C034F134C12FF0E4EF27
:101150000AF0E4EF0AF0E4EF0AF0F29CF29EF2BE2D
:10116000AEEF08F02352D8B4BCEF08F024C037F13A
:1011700054EC06F0C0EF08F024C036F13BEC05F06B
:10118000C00EF212E4EF0AF0E4EF0AF0E4EF0AF026
:1011900066EC06F0C5C02FF0C6C030F00101175351
:1011A000D8B452EF09F02D6B306B030E2E6F625CDA
:1011B0002C6F036A2D51C70FE96E000E0320EA6EF3
:1011C000EF502C5DD8A020EF09F017512D5DD8B05D
:1011D00020EF09F02D512D2B036AC70FE96E000E89
:1011E0000320EA6EEF502F6F2F512C5F302B2F51C1
:1011F0002F07000AD8B41EEF09F02E512E2B036AD8
:101200002F0F016E000E03220150366F000103C044
:1012100037F101012D512D2B036AC70FE96E000E26
:101220000320EA6EEF50396F000137C1EAFF36C183
:10123000E9FF39C1EFFF0101F7EF08F0D9EF08F03E
:10124000000130C131F0BB51321201012D51175F45
:101250002C6B2D514F08D8A050EF09F0036A2C5188
:10126000C70F016E000E03220150356F000103C04D
:1012700036F1036A01012D51C70FE96E000E0320FC
:10128000EA6EEF50376F000136C1EAFF35C1E9FF62
:1012900037C1EFFF01012C512C2B2D2B29EF09F029
:1012A00058EF09F0010E316E0001BB51326E0101A1
:1012B0000001E4EF0AF00101366B00010101376B18
:1012C000036A235037110001B76F03500101241046
:1012D0000001B86F2552D8A471EF09F0209272EF87
:1012E00009F02082178049EC05F0000E016EC25013
:1012F000C70B0110C26EC284C06BE4EF0AF01790F6
:10130000010118511508D8B042EF0AF00001BA5196
:101310000208D8A4E6EF09F0020E0101356F0001C2
:10132000A6EC03F001C02CF10C0E01012C250001EC
:10133000895DD8B49FEF09F0D8B0A7EF09F00C0E83
:1013400001012C5D0001895DD8B0B8EF09F0D8909B
:1013500001012C31356FD89000018931010135250B
:101360002D6F020E356F00012DC136F1CCEC03F06C
:10137000030E0101356F0001A6EC03F001C02CF152
:101380000C0E01012C2500018A5DD8B4CBEF09F0C9
:10139000D8B0D3EF09F00C0E01012C5D00018A5D7D
:1013A000D8B0E4EF09F0D89001012C31356FD89016
:1013B00000018A31010135252D6F030E356F0001C3
:1013C0002DC136F1CCEC03F041EF0AF0BA2D41EF1C
:1013D0000AF00B0E0101356F0001A6EC03F001C00D
:1013E0002CF10C0E01012C250001875DD8B4FCEF17
:1013F00009F0D8B004EF0AF00C0E01012C5D0001D9
:10140000875DD8B015EF0AF0D89001012C31356F07
:10141000D89000018731010135252D6F0B0E356FF6
:1014200000012DC136F1CCEC03F0010E0101356F46
:101430000001A6EC03F001C02CF10C0E01012C25DB
:101440000001885DD8B428EF0AF0D8B030EF0AF078
:101450000C0E01012C5D0001885DD8B041EF0AF04F
:10146000D89001012C31356FD890000188310101ED
:1014700035252D6F010E356F00012DC136F1CCECF5
:1014800003F00101000149EC05F0E4EF0AF0C0515E
:101490000308D8A04EEF0AF0F8EF0AF0C1C02FF011
:1014A000C2C030F0C3C031F0C4C032F0336A82BE73
:1014B000332A346A82BC342A000E016EC250C70B34
:1014C0000110C26EC284C06BE4EF0AF00B0E010182
:1014D000356F000123C036F1CCEC03F0010E0101A1
:1014E000356F000124C036F1CCEC03F0020E01018F
:1014F000356F000125C036F1CCEC03F0030E01017D
:10150000356F000126C036F1CCEC03F0040E01016A
:10151000356F000127C036F1CCEC03F0050E010158
:10152000356F000128C036F1CCEC03F0060E010146
:10153000356F000129C036F1CCEC03F0070E010134
:10154000356F00012AC036F1CCEC03F023C087F0E0
:1015500024C088F025C089F026C08AF027C08BF00F
:1015600028C08CF029C08DF02AC08EF0E4EF0AF07C
:1015700023C035F124C036F125C037F126C038F13B
:101580006DEF06F0E4EF0AF023C035F147EF07F006
:10159000E4EF0AF01F9223B01F821FC082FF17964C
:1015A00023B4178623A2819023B28180179823B693
:1015B0001788179AE4EF0AF0010E0101356F000158
:1015C00001EC06F0E4EF0AF022500908D8B4F6EF77
:1015D0000AF0EA6A4D0EE96EE26A210EE16E0E0E25
:1015E000016EE6CFEEFF012EF1EF0AF05D900400F0
:1015F00099EF14F0FFFFFFFF036A01012F51C10FA4
:10160000E96E000E0320EA6EEF50306F036A2F512F
:10161000870FE96E000E0320EA6EEF50305DD8B000
:1016200018EF0BF0010E016E1CEF0BF01CEF0BF02E
:10163000000E016E1CEF0BF00001000CFFFFFFFF1E
:10164000ADC032F1AEC033F1AFC034F1B0C035F14E
:10165000B1C036F101012F2D5CEF0BF00001B2514A
:101660001508D8A43CEF0BF0050E0101306F030EF6
:101670002F6F5AEF0BF00001B2512508D8A449EFA3
:101680000BF0070E0101306F020E2F6F5AEF0BF0B7
:101690000001B2510C08D8A455EF0BF0040E010163
:1016A000306F2F6F5AEF0BF00001060E0101306F03
:1016B000010E2F6F66EF0BF0040E306F000166EC29
:1016C00006F0C5C032F1C6C033F101011751302513
:1016D0004F08D8A0AEEF0BF01751172B036AC70FB6
:1016E000E96E000E0320EA6E3007000130C1EFFF03
:1016F00001011751172B036AC70FE96E000E032073
:10170000EA6E00012FC1EFFF0101316B300730514C
:101710003007000AD8B4AEEF0BF01751172B036A4D
:10172000C70F016E000E03220150386F000103C085
:1017300039F101013151312B036A320FE96E010E8B
:101740000320EA6EEF503B6F000139C1EAFF38C158
:10175000E9FF3BC1EFFF010187EF0BF017511E08B6
:10176000D8A0B8EF0BF02F510708D8A4BEEF0BF0AC
:10177000200E376F000154EC06F001010001000C4F
:10178000FFFFFFFF01013091036A2F518F0FE96EB8
:10179000000E0320EA6EEF2CFBEF0BF0036A2F51D3
:1017A000930FE96E000E0320EA6EEFBEF6EF0BF02A
:1017B000036A2F51930FE96E000E0320EA6EEF2AA1
:1017C000036A2F51930FE96E000E0320EA6EEF506B
:1017D0007F08D8A4F4EF0BF0036A2F51930FE96E42
:1017E000000E0320EA6EEF06F9EF0BF03081010ED8
:1017F000316F36EF0CF0036A2F518F0FE96E000E38
:101800000320EA6EEF52D8A436EF0CF0036A2F5192
:10181000930FE96E000E0320EA6EEFBE15EF0CF099
:10182000EF500008D8A033EF0CF0036A2F51930F4C
:10183000E96E000E0320EA6EEF06036A2F51930F44
:10184000E96E000E0320EA6EEF508008D8A431EF55
:101850000CF0036A2F51930FE96E000E0320EA6E1D
:10186000EF2A36EF0CF03081FF0E316F30A1E5EF3B
:101870000CF0036A2F51A70F016E000E03220150D6
:10188000326F000103C033F1036A01012F51A30F2E
:10189000E96E000E0320EA6EEF50346F000133C191
:1018A000EAFF32C1E9FF34C1EFFF036A01012F51A2
:1018B000A30F016E000E03220150326F000103C01E
:1018C00033F1036A01012F519F0FE96E000E0320CF
:1018D000EA6EEF50346F000133C1EAFF32C1E9FF15
:1018E00034C1EFFF036A01012F519F0F016E000EFB
:1018F00003220150326F000103C033F1036A01017A
:101900002F519B0FE96E000E0320EA6EEF50346FEB
:10191000000133C1EAFF32C1E9FF34C1EFFF036ABE
:1019200001012F519B0F016E000E03220150326FF7
:10193000000103C033F1036A01012F51970FE96ED3
:10194000000E0320EA6EEF50346F000133C1EAFF4E
:1019500032C1E9FF34C1EFFF036A01012F51970F34
:10196000016E000E03220150326F000103C033F1FB
:10197000036A01012F51930FE96E000E0320EA6EF6
:10198000EF50346F000133C1EAFF32C1E9FF34C1C7
:10199000EFFF036A01012F51930FE96E000E032040
:1019A000EA6E000131C1EFFF010E006E01012F51FF
:1019B000016ED8B4E1EF0CF0D8900036012EDCEFC8
:1019C0000CF000500001AB1301010001000CFFFFFF
:1019D000FFFFB607B653D8A402EF0DF0AC53D8A45E
:1019E000F7EF0CF0D890B535B66F02EF0DF0AC6B99
:1019F00001011853D8A400EF0DF00001BA6B0101EA
:101A00000001B26B62EF10F0FFFFFFFF036A0101FC
:101A10002F51970FE96E000E0320EA6E0001EFCF01
:101A200034F1036A01012F519B0FE96E000E032070
:101A3000EA6EEF50345D316B306F0001BFC037F19B
:101A4000BEC036F131C139F130C138F1F7EC04F0E4
:101A500002C035F101C034F102C039F101C038F1E2
:101A600001013B6B180E3A6F00010CEC05F002C04F
:101A700033F101C032F1BF510101335DD8A0A2EFB3
:101A80000DF0D8A44DEF0DF032510001BE5DD8A08D
:101A900003D00101A2EF0DF00101000133C139F1C2
:101AA00032C138F101013B6B0B0E3A6F00010CECB7
:101AB00005F002C035F101C034F1BFC039F1BEC03C
:101AC00038F101013B6B0A0E3A6F00010CEC05F096
:101AD00002C003F002500101355DD8A09AEF0DF06D
:101AE000D8A478EF0DF03451015CD8B09AEF0DF026
:101AF0000001BFC037F1BEC036F10101396B0B0EDA
:101B0000386F0001F7EC04F002C035F101C034F188
:101B100002C039F101C038F101013B6B0A0E3A6F86
:101B200000010CEC05F002C0BFF001C0BEF09FEF59
:101B30000DF00101000133C1BFF032C1BEF0F5EF7D
:101B40000DF00101000133C139F132C138F1010159
:101B50003B6B140E3A6F00010CEC05F002C035F13E
:101B600001C034F1BFC039F1BEC038F101013B6B97
:101B7000150E3A6F00010CEC05F002C003F00150A5
:101B800001013551025CD8A0F0EF0DF0D8A4CEEFE2
:101B90000DF00150345DD8B0F0EF0DF00001BFC082
:101BA00037F1BEC036F10101396B130E386F0001F9
:101BB000F7EC04F002C035F101C034F102C039F194
:101BC00001C038F101013B6B140E3A6F00010CECBF
:101BD00005F002C0BFF001C0BEF0F5EF0DF001014D
:101BE000000133C1BFF032C1BEF0BF510008D8B010
:101BF000FDEF0DF0BF6BFF0EBE6FBEC0CBFF000C44
:101C0000FFFFFFFF010130BF08EF0EF00EEF0EF0F7
:101C1000000ED8803055016E10EF0EF03051016E7D
:101C20000001000CFFFFFFFF01013C51016A3B5D19
:101C3000D8B01FEF0EF03B51006E2CEF0EF0006A93
:101C4000080E3D6F3B3700363C51005CD8B0006E4B
:101C500001363D2F22EF0EF00001000CFFFFFFFFC9
:101C600001013A513B19800B3D6F3AAF3AEF0EF04C
:101C70003A1F3A2B3BAF3FEF0EF03B1F3B2B3B5144
:101C8000016A3A5DD8B049EF0EF03A51006E56EF56
:101C90000EF0006A080E3C6F3A3700363B51005C8C
:101CA000D8B0006E01363C2F4CEF0EF03DAF5BEF2D
:101CB0000EF0011E012A00000001B8EF0EF0FFFF38
:101CC000FFFF01013453D8B4D9EF0EF03553D8B427
:101CD000D9EF0EF0036A3351970FE96E000E03201F
:101CE000EA6EEF50386F38BF9CEF0EF038510008A5
:101CF000D8B09CEF0EF0000138C13BF134C13CF18B
:101D000013EC0EF001C036F1036A010133519B0F51
:101D1000E96E000E0320EA6EEF50FF0A010F3A6FE2
:101D200000013AC13BF135C13CF113EC0EF001C0AA
:101D300037F1BCEF0EF00101000ED88038553A6F34
:101D400000013AC13BF134C13CF113EC0EF001C08B
:101D500037F1036A010133519B0FE96E000E032036
:101D6000EA6E0001EFCF3AF135C13BF12FEF0EF0F3
:101D700001500101366F000101013651375DD8B4C1
:101D8000D9EF0EF03751365DD8B0D1EF0EF0036ABF
:101D90003351870FE96E000E0320EA6EEF2AD9EF68
:101DA0000EF0036A3351870FE96E000E0320EA6ECE
:101DB000EF060001000CFFFFFFFF010133330001BC
:101DC000AD37AE37AF37B037B1376FEF0FF0FFFF3A
:101DD000FFFF01013353D8B410EF0FF00001B251EF
:101DE000070B0101346F0001B231006E0032003286
:101DF0001F0E00160050036AAD0FE96E000E03209F
:101E0000EA6E010E006E01013451016ED8B40EEF7E
:101E10000FF0D8900036012E09EF0FF00050EF12AE
:101E2000000175EF0FF0FFFFFFFFBA2D23EF0FF05A
:101E3000020E01012F6F010E306F316B000194C053
:101E400032F12DEF0FF0080E01012F6F030E306FEE
:101E5000020E316F000196C032F1AB5101012F1516
:101E6000000AD8B454EF0FF032BF49EF0FF03251EF
:101E70000008D8B049EF0FF0000130C133F1BDC008
:101E800034F1BCC035F160EC0EF0BC6B53EF0FF0D9
:101E90000101000130C133F1BCC034F1BDC035F1E6
:101EA00060EC0EF0BD6B010132BF63EF0FF03251F9
:101EB0000008D8B063EF0FF0010E2F6F0001BC2BAC
:101EC00066EF0FF001012F6B0001BD2BAC51040830
:101ED000D8A471EF0FF02FC133F1DCEF0EF075EFE6
:101EE0000FF02FC133F1E8EF0EF0B22BB5C0B6F012
:101EF000AB6B31C133F1010E0101346F356F00015D
:101F000060EC0EF04EEF13F0FFFFFFFFAC51040842
:101F1000D8A49BEF0FF00390B133B033AF33AE339F
:101F2000AD330390B133B033AF33AE33AD33B2071B
:101F3000B207CCEF0FF0020E0101306F3053D8B46E
:101F4000CBEF0FF00001B251070B01012F6F000121
:101F5000B231006E003200321F0E00160050036ACC
:101F6000AD0FE96E000E0320EA6E010E006E010156
:101F70002F51016ED8B4C2EF0FF0D8900036012E69
:101F8000BDEF0FF00050FF0AEF160001B20701018C
:101F900030079EEF0FF0000168EF13F0FFFFFFFF27
:101FA0009EA0DAEF0FF09E90040E0101376F000142
:101FB00054EC06F09EA2E2EF0FF0C0510308D8A047
:101FC000E4EF0FF059EF14F09E9201012F6B000126
:101FD000FBEC0AF001C08FF0010E01012F6F000130
:101FE000FBEC0AF001C090F0020E01012F6F00011E
:101FF000FBEC0AF001C091F0030E01012F6F00010C
:10200000FBEC0AF001C092F0BA510208D8A426EF06
:1020100010F0C1518B5DD8B01AEF10F020B618EF58
:1020200010F02086080E01012F6F00011FEC0BF04D
:1020300024EF10F020A624EF10F02096070E0101E7
:102040002F6F00011FEC0BF041EF10F0C3518D5DBD
:10205000D8B037EF10F020B635EF10F02086080E1C
:1020600001012F6F00011FEC0BF041EF10F020A6D3
:1020700041EF10F02096070E01012F6F00011FECB9
:102080000BF0000E016EC250C70B0110C26EC2846D
:10209000C06B01012F6B0001C1EC0BF0010E0101BF
:1020A0002F6F0001C1EC0BF0020E01012F6F000138
:1020B000C1EC0BF0030E01012F6F0001C1EC0BF01E
:1020C000E8EF0CF0AB53D8A468EF10F059EF14F020
:1020D000AC51006E0052D8B47FEF10F0040E005CDB
:1020E000D8B42CEF13F0050E005CD8B42CEF13F02D
:1020F000060E005CD8B40AEF14F054EF14F001019E
:102100002E930001BA510208D8B4A2EF11F0000ECC
:10211000D8809355006E00BEA2EF11F00050050864
:10212000D8B0A2EF11F0000ED8809455006E00BE1A
:10213000A2EF11F000500008D8B0A2EF11F097BF45
:10214000A2EF11F097511408D8B0A2EF11F097BF89
:10215000AFEF10F097514708D8A0A2EF11F0000E92
:10216000D8809455006E00BEBBEF10F000501108EF
:10217000D8A0A2EF11F098BFC3EF10F098512A0831
:10218000D8A0A2EF11F0000ED8809C55006E00BEC2
:10219000CFEF10F000502A08D8A0A2EF11F0A0BF96
:1021A000D7EF10F0A0512A08D8A0A2EF11F098BFE5
:1021B000A2EF11F098510508D8B0A2EF11F0000E6F
:1021C000D8809C55006E00BEA2EF11F000500508AB
:1021D000D8B0A2EF11F0A0BFA2EF11F0A0510508F6
:1021E000D8B0A2EF11F09C51985DA02501012C6F91
:1021F0000001975101012C5D2F6F2F512FAF04EF7C
:1022000011F0000ED8802F552D6F2DBF0DEF11F05E
:102210002D511108D8A017EF11F02E83010E0001E7
:10222000B96F050EAC6F209496EF11F0010100011B
:10223000A45101012C5D0001A82501012C6F0001B2
:10224000975101012C5D2F6F2F512FAF2BEF11F004
:10225000000ED8802F552D6F2DBF34EF11F02D516A
:102260001108D8A097EF11F0000197AF03D001013A
:1022700097EF11F097512808D8A003D0010197EFEC
:1022800011F097BF4BEF11F097516B08D8B003D006
:10229000010197EF11F001012CBF54EF11F02C5107
:1022A0004A08D8A097EF11F0000ED8800001A4557D
:1022B000006E00BE63EF11F000501908D8B003D0D3
:1022C000010197EF11F0A8BF6DEF11F0A8511908A7
:1022D000D8B003D0010197EF11F0000ED880A455BB
:1022E000006E00AE03D0010197EF11F00050050819
:1022F000D8A003D0010197EF11F0A8AF03D00101DE
:1023000097EF11F0A8510508D8A003D0010197EF6D
:1023100011F001012E830001B96B040EAC6F208413
:10232000050E01012F6F00011FEC0BF001012EA320
:10233000A3EF11F0010E0001BA6F01012F6F000130
:1023400005EC0DF001010001BA2DA9EF11F0C5EF68
:1023500012F0000ED8809555006E00BEC5EF12F049
:1023600000500508D8B0C5EF12F0000ED880965581
:10237000006E00BEC5EF12F000500008D8B0C5EFE7
:1023800012F099BFC5EF12F099511408D8B0C5EFFB
:1023900012F099BFD1EF11F099514708D8A0C5EFBD
:1023A00012F0000ED8809655006E00BEDDEF11F0E1
:1023B00000501108D8A0C5EF12F09ABFE5EF11F058
:1023C0009A512A08D8A0C5EF12F0000ED8809E5569
:1023D000006E00BEF1EF11F000502A08D8A0C5EF42
:1023E00012F0A2BFF9EF11F0A2512A08D8A0C5EF50
:1023F00012F09ABFC5EF12F09A510508D8B0C5EF98
:1024000012F0000ED8809E55006E00BEC5EF12F08F
:1024100000500508D8B0C5EF12F0A2BFC5EF12F00A
:10242000A2510508D8B0C5EF12F09E519A5DA225C1
:1024300001012C6F0001995101012C5D2F6F2F516B
:102440002FAF26EF12F0000ED8802F552D6F2DBF25
:102450002FEF12F02D511108D8A039EF12F02E8372
:10246000010E0001B96F050EAC6F2094B8EF12F0A9
:1024700001010001A65101012C5D0001AA25010105
:102480002C6F0001995101012C5D2F6F2F512FAF3F
:102490004DEF12F0000ED8802F552D6F2DBF56EF47
:1024A00012F02D511108D8A0B9EF12F0000199AF28
:1024B00003D00101B9EF12F099512808D8A003D038
:1024C0000101B9EF12F099BF6DEF12F099516B084D
:1024D000D8B003D00101B9EF12F001012CBF76EFA3
:1024E00012F02C514A08D8A0B9EF12F0000ED88093
:1024F0000001A655006E00BE85EF12F000501908CD
:10250000D8B003D00101B9EF12F0AABF8FEF12F0DB
:10251000AA511908D8B003D00101B9EF12F0000E8A
:10252000D880A655006E00AE03D00101B9EF12F0BD
:1025300000500508D8A003D00101B9EF12F0AAAFEE
:1025400003D00101B9EF12F0AA510508D8A003D0B9
:102550000101B9EF12F001012E830001B96B040EE5
:10256000AC6F2084050E01012F6F00011FEC0BF0F2
:1025700001012EA3C6EF12F0020E0001BA6F030E86
:1025800001012F6F000105EC0DF001012EA3DAEF20
:1025900012F00001B26BAB6B050E016EEA6AAD0E74
:1025A000E96EEE6A012ED1EF12F0B5C0B6F0BC6B49
:1025B000BD6B010120B229EF13F00001BA53D8A47A
:1025C00003D0010129EF13F0BA2D05EF13F0ABA3EF
:1025D00005EF13F0000ED8809455006E00BE05EF95
:1025E00013F000500508D8B005EF13F098BF05EFC1
:1025F00013F098512208D8B005EF13F0AB6B060E1C
:1026000001012F6F00011FEC0BF0BA510208D8A492
:1026100028EF13F0ABA728EF13F0000ED8809655E3
:10262000006E00BE28EF13F000500508D8B028EF68
:1026300013F09ABF28EF13F09A512208D8B028EF70
:1026400013F0AB6B060E01012F6F00011FEC0BF0B6
:10265000010158EF14F00001BA2D3BEF13F0ABA1CC
:102660003BEF13F093C030F101EC0EF00150050880
:10267000D8A04CEF13F0BA510208D8A44EEF13F0D3
:10268000ABA54EEF13F095C030F101EC0EF0015008
:102690000508D8B04EEF13F014EF0FF0BA2D59EF34
:1026A00013F093BF59EF13F093511908D8A066EFB8
:1026B00013F0BA510208D8A406EF14F095BF06EF44
:1026C00014F095511908D8B006EF14F085EF0FF00B
:1026D000060EAC6FB551040DF350B66FAB6BBA2D4F
:1026E000BDEF13F0B2511508D8B486EF13F0B25114
:1026F0002508D8B486EF13F0B2510C08D8B486EF91
:1027000013F0B2511F08D8A4B2EF13F00101182B37
:1027100020A493EF13F0010E2F6F00011FEC0BF0BC
:10272000B0EF13F0010118510108D8B0A5EF13F074
:102730000001BBBDA2EF13F0800E0101376F000155
:1027400054EC06F0BB8DBB8F0101010E2F6F000111
:102750001FEC0BF0050E01012F6F00011FEC0BF0B9
:10276000B9EF13F001011853D8A4BAEF13F0000128
:10277000BA6B010107EF14F00001B2511508D8B48B
:10278000D1EF13F0B2512508D8B4D1EF13F0B25104
:102790000C08D8B4D1EF13F0B2511F08D8A4FFEF42
:1027A00013F00101182B20A4EAEF13F00001BBBDC8
:1027B000E0EF13F0800E0101376F000154EC06F0DA
:1027C000BB8D010E01012F6F00011FEC0BF0FDEF1F
:1027D00013F0010118510108D8B0F2EF13F0000115
:1027E000BB8F0101010E2F6F00011FEC0BF0050ED6
:1027F00001012F6F00011FEC0BF006EF14F0010137
:102800001853D8A407EF14F00001BA6B010158EF78
:1028100014F00001BA2D10EF14F0ABB118EF14F062
:10282000BA510208D8A450EF14F0ABA550EF14F041
:10283000D890B535B66FAC6BAB6B01012B6B2B51E0
:102840000308D8A04FEF14F0036A2B51970FE96EDD
:10285000000E0320EA6EEF6A036A2B519B0FE96EAC
:10286000000E0320EA6EEF6A036A2B519F0FE96E98
:10287000000E0320EA6EEF6A036A2B51A30FE96E84
:10288000000E0320EA6EEF6A036A2B51A70FE96E70
:10289000000E0320EA6EEF6A2B2B1FEF14F00001ED
:1028A000010158EF14F00001AC6B010158EF14F076
:1028B000000107EF15F0FFFFFFFFF86AD09E0D8EB5
:1028C000EA6AE96A060EC16E0101296B2A6BF29C65
:1028D000F29EF2BE68EF14F00001E7EF03F0AEEFF6
:1028E00004F0C3EF04F03C0E01012B6F0001EBEF8D
:1028F00004F0D1EC04F0186A9D86F28A17821784DE
:10290000178A1E6A040E1D6E930E1C6EE00E1B6E5F
:102910001F821FC082FF8180C00EF21249EC05F0B9
:10292000640E0101376F0001E8EC05F0040065EF6B
:1029300007F0006A82BE008217500018020BD8B45C
:10294000B2EF14F0179282BE178217A2ABEF14F009
:10295000BB8BACEF14F0BB9B020E0101376F000183
:1029600054EC06F0006A82BC008417500018040B77
:10297000D8B4CBEF14F0179482BC178417A4C4EF1B
:1029800014F0BB89C5EF14F0BB99010E0101376F3C
:10299000000154EC06F017ACEFEF14F0179C17AAE7
:1029A000EFEF14F0FF0E1B26D8A01C26D8A01D2682
:1029B000D8A01E261B52D8A4EFEF14F01C52D8A4A6
:1029C000EFEF14F01D52D8A4EFEF14F01E52D8A46C
:1029D000EFEF14F081901F921FC082FF179A1ABE6A
:1029E000F4EF14F002EF15F03A0E1A6E980E196E0D
:1029F00017A6FCEF14F01F721FC082FF17A802EF8A
:102A000015F0817017A007EF15F0CFEF0FF017AE9C
:102A100014EF15F0179E640E0101376F0001E8EC0A
:0E2A200005F004003DEC06F096EF14F0030004
:020000040030CA
:0E0000000026060B000181000FC00FE00F402C
:00000001FF
;PIC18F452
