:1000000008308A00472A0000FF00030E8301A60083
:100010007F08A5000A08AD008A01A50E0408A70004
:100020002008A8002108A9002208AA002308AB0084
:100030002408AC00831383128C308400801D222896
:100040008C193528270884002808A0002908A10059
:100050002A08A2002B08A3002C08A4002D088A005F
:10006000260E8300FF0E7F0E09008A1141280A1018
:100070008A100A118207313432343334343435343F
:10008000003483161408EF00B10803194928A81793
:100090004A28A8138312141F572813088316EE004A
:1000A000831214138316A814831214166A29831654
:1000B0006F082D398312A000093020020319792816
:1000C0002130200203198B282930200203198B28A4
:1000D0000C302002031902292C3020020319332985
:1000E0002430200203193329283020020319522911
:1000F0005929B3308316AF00A60183121308831663
:10010000EE006E08A700831214138316AD01C130F0
:10011000A805B210692913088316EE00A608031D6E
:10012000A228A60A6E08AD006E08A7072F08AF0A1E
:1001300084006E088000AD1FA028A815AD13A1286B
:10014000A8110129260BB028A60A6E08AE006E0879
:10015000A7072F08AF0A84006E08800069290129CB
:10016000A81DB6282608023C0319BB2802302D071B
:100170002602031DEE28A60A6E08FF3A270203197D
:10018000C628281628150330AC00EC282818E828C3
:10019000A81DCE282E08073C0319E72840308312FB
:1001A000A200B330A300831626088312A10003190E
:1001B000E528230884000008A00022088400200805
:1001C0008000A20AA30AA10BD92883162814EC28C0
:1001D0002816A8140630AC00692901292608133C0A
:1001E0000318F928A60A2816A8140630AC006929B5
:1001F00001296E08A7072F08AF0A84006E08800047
:10020000A60A6929B3308316AF00A601B214A81D4F
:100210002329281C0F29A8160830AC002329B33045
:100220008312A2002F30A3001130A1002308840004
:100230000008A0002208840020088000A20AA30A67
:10024000A10B162983162808EE006E08831293006E
:1002500083166E08A700A81DAD01C930A80583123A
:1002600014168316692983162D082602031D3C29BE
:100270002708EE00EE0947292D0826020318462913
:100280002F08AF0A84000008EE004729EE016E082F
:100290008312930083166E08A707A60A831214160A
:1002A000831669298316AD018312141683166929F2
:1002B0008312141B1413941B941383166F1C64294C
:1002C0006E08831293008316B210831214168316DD
:1002D000692983128C118A112228A101A201A0018F
:1002E000A30183165508031D7829540803199C2976
:1002F0001030D6000310D20DD30D8312A00DA30D24
:100300008316550883122302031D8A298316540875
:1003100083122002031C9729831654088312A0021B
:10032000031CA303831655088312A3020314A10D13
:10033000A20D8316D60B7A29000083128A11DD29BB
:1003400003178D018F0183168C130C1483120C0874
:1003500083160313D101D000D300D20101308312E0
:1003600003178D008F0183168C130C1483120C0855
:100370000313A30183165204A000831223088316DB
:100380005304A100A008031DC829A1080319CC2902
:10039000200FD029210FD0292230A100E130A00068
:1003A0000310200DD000210DD100D3005008D20041
:1003B000D5010330D40083126D2922088316A300CF
:1003C000831221088316A2008312003410308500A6
:1003D0000B30860018308700B83088000230890062
:1003E0002F308316850011308600DE308312CE0058
:1003F00083168700C700043088000910891409118A
:100400001030831285000B30860018308700B8301A
:100410008800023089001F083839C1389F008230B7
:1004200083169F0008308312A1001F08C7392104DA
:100430009F008F018E01B5309000FF30EA00E90087
:100440008316A4138312FE01FD01071197010530E5
:1004500097000C11A0210030A100063892004C300A
:100460008316920083128A15612A0330CF00103060
:10047000D0000230D100D201D3018316CD01CE01CC
:10048000543084004D0884074E08831237208000C2
:1004900000380319502A8316CE0ACD0A402A831247
:1004A000DA018A15642AF630DB001130DC000F30E7
:1004B000DD000A30DE008A15672A0F30EE00FF30BB
:1004C000ED000F30F000FF30EF008A156A2AF201CC
:1004D000F101F401F3010430F700E230F8000530D7
:1004E000F9002130FA000130FB008A156D2A8316CD
:1004F000A601A801A701B330AF00AE01AD01AC0168
:10050000AB01B21014308312A100B330840080011B
:10051000840AA10B872A8316B10111308600831249
:1005200000343630940083164D08930014173210AF
:10053000831277228A15872A831651088312FB00BB
:100540007B1CA42A0130A52A0030003A031DAA2AE8
:100550000611AB2A0615FB1CAF2A0130B02A003069
:10056000003A031DB52A8612B62A861600340910F1
:100570008316D10183129C22FC0100340516013040
:10058000A100003420308316EC00E801E901EA0103
:10059000EB0163088312A300831662088312A20092
:1005A000831661088312A100831660088312A000DD
:1005B0000310201CEB2A83166408E807650803185B
:1005C000650FE90766080318660FEA07670803184E
:1005D000670FEB0783128316EB0CEA0CE90CE80CAF
:1005E0008312A30CA20CA10CA00C8316EC0BF92A0D
:1005F000FB2A8312D82A83120034A001A101A20190
:10060000A3018316E901EA01EB01EC016808670424
:100610006604650403193E2B2030ED000310E10D44
:10062000E20DE30DE40DE90DEA0DEB0DEC0D6808AC
:100630006C02031D252B67086B02031D252B660822
:100640006A02031D252B65086902031C362B650809
:10065000E9026608031C660FEA026708031C670FBD
:10066000EB026808031C680FEC0203148312A00D50
:10067000A10DA20DA30D8316ED0B0E2B0000E9308A
:10068000840083120034081688178816881508100D
:100690008316DA080319582B831288138316590816
:1006A0008312F600831658088312F500622B831616
:1006B00083120812831659088312F0008316580813
:1006C0008312EF008316DB015B080B3C031C7A2BC3
:1006D000D91D6E2B83128814702B831683128810F9
:1006E000081403108316D80DD90D83120810831631
:1006F000DB0A642BDA080319822B83128811881510
:10070000852B8316831288128816081688170034E2
:100710008614831624138312003483165708043C6E
:1007200003189D2BFF3A031D992B5608DC3C031838
:100730009D2B0530D700DC30D60057088312F2001D
:10074000831656088312F10083165708D9005608FD
:10075000D800DF01DE015908DD005808DC005F0821
:10076000E3005E08E2005908E1005808E000E701F4
:10077000E6010130E5001130E4008312C2222308B3
:100780008316E000831222088316DF0083122108FB
:100790008316DE00831220088316DD006008E40063
:1007A0005F08E3005E08E2005D08E100E801E701A0
:1007B000E6016430E5008312FD2221088316DB0088
:1007C000831220088316DA005B080F3C0318EC2B19
:1007D0000F30DB00FF30DA005A088312A1008316C5
:1007E0005B088312A2002208F4002108F3007408B9
:1007F0008316D900831273088316D8000130DA00FB
:1008000083124323F108031D0A2CF208031D0A2C4E
:1008100088230E2C861083162417831200340817A1
:10082000081008138316D2015208013C031C262C21
:100830005008D00A840000088312A3018316D30055
:10084000831223088316D400D20A142C5308D40030
:10085000D3015008D00A84000008D304D101510804
:100860000A3C031C452CD41D392C831288143B2CC4
:10087000831683128810081403108316D30DD40D29
:10088000831208108316D10A2F2C83120817003404
:100890007B088316D10083129C2277308316D00008
:1008A00083120F248A15A12A831659083A3C03188B
:1008B000642CFF3A031D602C5808923C0318642CEA
:1008C0003B30DB009230DA005808923CDA003B30D3
:1008D000DB005908031C590FDB02DF01DE015B0856
:1008E000DD005A08DC005F08E3005E08E2005B08F8
:1008F000E1005A08E000E701E6010130E5001F30A1
:10090000E4008312C22223088316E0008312220827
:100910008316DF00831221088316DE00831220086D
:100920008316DD006008E4005F08E3005E08E20073
:100930005D08E100E801E7010330E600E830E5008A
:100940008312FD2221088316DB0083122008831600
:10095000DA005B080F3C0318B12C0F30DB00FF30CE
:10096000DA005A088312A10083165B088312A200E2
:100970008A11DC2C83165708393C0318CA2CFF3A1D
:10098000031DC62C5608343C0318CA2C3A30D70035
:100990003430D60057080F3C031CD62C031DD42C32
:1009A00056089F3C031CD62CD701D6015708D90006
:1009B0005608D8008312542C2208EE002108ED00BE
:1009C0006D0FE62C6E080F3C0319EB2C09148611F1
:1009D0008316A416831200346F086D02031D002DC8
:1009E00070086E02031D002D6F0FFF2C70080F3C66
:1009F000031DFF2C091086158316A4128312292DBE
:100A0000FF308316CE00CD00831270086E02031CE7
:100A1000142D031D0F2D6D086F020318142D83165E
:100A2000CE010130CD00831283164D0883126F076B
:100A30008316CF00831270088316D0000318D00AE3
:100A40004E08D0075008D9004F08D800DA018312A9
:100A500043238A15D02AEB01EC011F151F192E2DF7
:100A600083161E088312E5001E08E6000830A10068
:100A70001F08C73921049F000D30A000A00B3E2D98
:100A80001F151F19412D83161E088312DF001E0833
:100A9000E0000030A1001F08C73921049F000D307D
:100AA000A000A00B512D1F151F19542D83161E08D1
:100AB0008312E1001E08E2001030A1001F08C739B0
:100AC00021049F000D30A000A00B642D1F151F19DD
:100AD000672D83161E088312E3001E08E4002030F1
:100AE000A1001F08C73921049F008316251C9A2DD9
:100AF000210883126A02031C882D031D872D6908B3
:100B000083162002031C862D8312882D83126B17F7
:100B10008316230883126A02031C992D031D982D46
:100B2000690883162202031C972D8312992D8312C4
:100B30006C17831683126408013C0318A62DFF3A34
:100B4000031DA52D6308023C031CEB156408003C43
:100B50000318B12DFF3A031DB02D6308ED3C031CB3
:100B6000EC156008003C0318C32DFF3A031DBC2D93
:100B70005F086F3C0318C32DE408031DC32D6308F1
:100B8000343C0318EB16E608031DC92D65088F3C9D
:100B9000031C6B16E608031DD02D65087A3C031C68
:100BA0006C168A15D72A83165008B104B1080319A8
:100BB000DE2D831206120130831686008312003464
:100BC0006B08E80001308316D0008312D325EB1D9B
:100BD000ED2D0F30F000FE30EF00EB19F32D6B1A06
:100BE000F32DEB1E022E8316D701D6018312BA24F1
:100BF0008316D701D60183128D2388238316A4156B
:100C0000281783128A15E42A0B138B138B1B052ECE
:100C100077220830A000A01D152E073081018130F9
:100C200084000008C0390F388000640081308400DF
:100C30000008C039200480001C2E003483165008A0
:100C4000FF3AB105B108031D272E1130860083122B
:100C50008A151529D1308400000803193E2E03306F
:100C6000A100A001A00B322EA10B312E3C30A00020
:100C7000A00B382E00000000800B2F2E0034003017
:100C8000A1001F08C73921049F005330A000A00B0A
:100C9000472E1F151F194A2E831683121E0883160E
:100CA000D400540CD2001E0CD100D20CD10C3F3019
:100CB000D205031D5F2E5108AD3C0318642E003091
:100CC0008312A100732E8316D208031D702E5108C3
:100CD000913C031C702E00308312A100732E8316EA
:100CE00001308312A10021088316D000D008031D13
:100CF000842E831209108316D10183129C22FC01D9
:100D00000030A100932E831683127C0B8A2E0130B3
:100D1000A100932E091464308316D10083122A2671
:100D200064000130A1008A15AE2983165008831291
:100D300003178D008F0183160313510883120317C5
:100D40008C0083168C130C15831203130B08A00060
:100D50008B138316031755308D00AA308D008C1429
:100D60008C18B02E0C118312031320088B0400344E
:100D7000831651083F39D5005008831203178D00A0
:100D8000831603135508831203178F0083168C17DD
:100D90000C140000000083120E080313A3000317B5
:100DA0000C0883160313D200831223088316D30082
:100DB0003F30D30552088312A100831653088312D3
:100DC000A2008A15F9290B138B138B1BE42E0E300E
:100DD0008A00063082008A15172A83165008AB0055
:100DE000AB08031DF52EA812F62EA81683120034A8
:101000008316281C442A831240083F398316CD00DA
:101010004D08073C03180E280730CD008312410805
:10102000A0000730200203196D28083020020319A0
:101030006E280930200203197C28A00803198F2884
:10104000033020020319A628013020020319D728F3
:10105000023020020319E328043020020319FE287D
:10106000053020020319FF28063020020319002949
:101070009030200203191E299130200203193D29C6
:101080009230200203194A29933020020319522971
:10109000803020020319632981302002031982293C
:1010A0009630200203198A29863020020319A629C6
:1010B000943020020319A729953020020319B92979
:1010C000873020020319BE29333020020319D729A3
:1010D000253020020319092A242A2F2A1130A100C1
:1010E0002F3084008001840AA10B72288A11BE224D
:1010F0008A152108AF002F2A2F30A2004730A30005
:101100001130A100230884000008A00022088400F8
:1011100020088000A20AA30AA10B82282F2A2F30C0
:10112000A2004230A30083164D088312A1000319C8
:10113000A528230884000008A000220884002008B5
:101140008000A20AA30AA10B99282F2A1130A1001E
:101150002F3084008001840AA10BAA284208A00035
:10116000013020020319B928023020020319CC28CB
:10117000D5282F30A2004F30A3000C30A100230847
:1011800084000008A0002208840020088000A20A31
:10119000A30AA10BBF28D6285B08AF005C08B000EB
:1011A0005D08B1005E08B200D628D6282F2A831623
:1011B000A81DDC282414E1288A11831204268A152C
:1011C000831683122F2A1130A1002F308400800152
:1011D000840AA10BE7287C088316D000310883120B
:1011E000AF0083162B088312B00083162C088312DD
:1011F000B100831650088312B2002F2A2F2A2F2AFB
:101200000B138B138B1B0129C20803190F294308E9
:101210008316D0008A118312D3258A151629430814
:101220008316D0008A1183121E2E8A158316B108E8
:10123000031D1A29C03083128B042F2A8316A41988
:101240003B29D101831243088316D000D300D20179
:101250008312A301420883165204D4008312230888
:1012600083165304D500D7005408D6008A11831280
:101270008D238A15831683122F2A1130A1002F3057
:1012800084008001840AA10B41297108AF00720813
:10129000B0002F2A42308316D0008A1183120F2407
:1012A0008A152F2A1130A1002F3084008001840A72
:1012B000A10B56297708AF007808B0007908B10073
:1012C0007A08B2002F2A8316A4198029D10183122B
:1012D00043088316D000D300D2018312A301420831
:1012E00083165204D4008312230883165304D500B6
:1012F000D7005408D6008A118312BA248A1583169F
:1013000083122F2A8316D701D6018A118312BA2499
:101310008A152F2A1130A1002F3084008001840A01
:10132000A10B8E292F30A2005F30A3000E30A10048
:10133000230884000008A000220884002008800000
:10134000A20AA30AA10B9829E7012F2A2F2A01300C
:10135000A100A1080319B8298A113F2E8A15A108F6
:101360000319B4290512B82905168A11B7228A155E
:101370002F2A05168A11B7228A152F2A8316D00123
:10138000831243088316D1008A11831295268A1589
:1013900001308316D000831242088316D1008A11CF
:1013A000831295268A158A11A0218A152F2A1130B9
:1013B000A1002F3084008001840AA10BDB29831651
:1013C000D101831243088316D000D300D2018312C7
:1013D000A301420883165204CE0083122308831609
:1013E0005304CF004F08D1004E08D0008A11831259
:1013F000B82E8A1522088316CF008312210883167F
:10140000CE004E088312AF0083164F088312B0003F
:101410002F2A4208C63C031D192A4308553C031DC8
:10142000192A4408AA3C031D192A8A11E32E8A1599
:10143000232A04308316D0008A118312ED268A15E0
:101440008316A81683122F2A01308316D0008A1122
:101450008312ED268A158316A81683122F2A4108B7
:10146000093C0319412A4008C7004108C800420846
:10147000C9004308CA004408CB004508CC00460810
:10148000CD0083162810640083128A152B2B84014B
:101490001F308305073083169F00FF30C700C80147
:1014A000C9012410A4142411A4118312E801EB0132
:1014B000EC01E7018316CA01CB0125108A118312C2
:1014C000E6298A158A11352A8A158A11532A8A151E
:1014D0008A115D2A8A158A11672A8A150F30A000A1
:1014E000A01D7A2A07308101813084000008C039AC
:1014F0000F3880006400813084000008C039200467
:101500008000F6308316CD008A118312912A8A1545
:1015100005168A11B7228A158A11BE228A158A11E8
:1015200077228A15831628138C15C03083128B04FA
:101530008316D701D6018A1183128D238A158A1149
:10154000482C8A158A1188238A152E308316D700D5
:10155000E030D6008A118312BA248A150F30831620
:10156000D900FF30D800DA018A11831243238A158B
:101570000C1DCB2A0C118316A41383127D081502AF
:10158000E9001608EA007E08031C7E0FEA0216082E
:10159000FE001508FD008C1CD12A8C108A11EC2C41
:1015A0008A158316A41C042B8A1183122B2D8A15ED
:1015B000EB080319E82A83164A08CA0A013C0318F3
:1015C000E62A8A118312E02D8A158316EA2A8312ED
:1015D0008316CA018312EC080319012B83164B08EA
:1015E000CB0A013C0318FF2A83126C08E700023083
:1015F0008316D0008A118312D3258A158316032BF4
:1016000083128316CB01A4108312E8080319272B39
:101610008316241D252B0030241A0130013C031DA4
:101620001B2B831205168316A41D192B83128615F6
:1016300083162412242B831205128316A41D232B38
:1016400083128611831624162411292B8312051266
:1016500083168312002864008316241C3B2B24105D
:101660000A30D1008A1183122A268A1564008A1151
:1016700004268A15831683120C1C562B0C10831615
:10168000A4144908C90A013C0318482BC9012415B0
:10169000C80A480F4C2B2514A41F542BFF3083126B
:1016A000EA00E900562B8316A4178312B82A6300B8
:02400E003E3F33
:00000001FF
;PIC16F874
