:020000040000FA
:04034000D1EF0FF0FA
:08034800056ED8CF06F0E0CFEE
:1003500007F00001E9CF0DF0EACF08F0E1CF09F096
:10036000E2CF0AF0D9CF0BF0DACF0CF0F3CF14F0D4
:10037000F4CF15F0FACF16F000C00FF001C010F066
:1003800002C011F003C012F004C013F09DA6CCEF20
:1003900001F09EB6FBEF01F0A0A0D2EF01F0A1B0FA
:1003A00005EF03F0F2AAD8EF01F0F2B42CEF03F05E
:1003B0000FC000F010C001F011C002F012C003F035
:1003C00013C004F00E8E0DC0E9FF08C0EAFF09C09B
:1003D000E1FF0AC0E2FF0BC0D9FF0CC0DAFF14C076
:1003E000F3FF15C0F4FF16C0FAFF055007C0E0FF89
:1003F00006C0D8FF1000C7CFF3F08B5302E0818F07
:1004000001D0819FC6AC0CD0C69CC9CFF2F0C69C6F
:100410007F6A806B876B866B8C938183C688F2D0F2
:10042000F3512D0B090A11E0280A1DE0080A1BE010
:10043000250AD8B48FD0200AD8B4B2D0080AD8B4CC
:10044000AFD00C0AD8B4CAD0D0D0896B8D0E886FCB
:100450007F6AC9CFF2F0F2C080F0C69C866BC10EF5
:1004600081178C93CFD0C9CFF2F07F5217E17F2A4A
:10047000F2C086F0F251802789C003F08851882BA2
:10048000D8B4892BE96E03C0EAFFF2C0EFFF86AF54
:1004900003D08187869F01D081975BD07F2C12D0BB
:1004A0007F2AF2C087F0F251802789C003F088517B
:1004B000882BD8B4892BE96E03C0EAFFF2C0EFFFA6
:1004C000A1D047D081A703D07F50020804E0020EDC
:1004D00086257F5C26E17F2AF251FF0A805D05E0D8
:1004E00081898185030E856F1AD081B114D081A7CF
:1004F00003D0875107080EE0EA6A210EE96EE26A2E
:100500008D0EE16E7F50016E04E0E6CFEEFF012E0E
:10051000FCD7818104D081898183060E856F72D0DA
:1005200018D07F50100807E27F2A81898183060E48
:10053000856F68D00ED0F251802789C003F08851B2
:10054000882BD8B4892BE96E03C0EAFFF2C0EFFF15
:100550007F2A58D0896B8D0E886F7F6A8C8381A724
:1005600012D081A104D0818B080E856F0CD0EA6A6D
:100570008D0EE96EE26A2D0EE16E0C0E016EE6CF75
:10058000EEFF012EFCD781C0F2F0F2C0C9FFF2C02D
:1005900080F081B701D0866BC90E8117C68832D032
:1005A00086517F5C04E180C0F2F0F21F10D08651CA
:1005B0007F5C0CE289C003F08851882BD8B4892B6A
:1005C000E96E03C0EAFFEFCFF2F001D0F26BF2C0A8
:1005D000C9FFF25180277F2AC68814D07F6A806BBA
:1005E000876B866B8C93C6880DD0C6AC01D0C69C39
:1005F000C6AE01D0C69EF3A102D0F2C0C9FF8C9353
:10060000C68800D09E96D8EF01F0BCCFF3F0BBCFE8
:10061000F2F020A814D060A002D060900BD020ACE3
:1006200002D0209C07D0D351F25D556ED451F359BE
:10063000566E2086D207BCCFD4F0BBCFD3F0A190AA
:10064000D8EF01F0FF518B138B5305E01F9A1FC0A9
:1006500082FF1A0E946E000CFF0E01019E27D8A097
:100660009F27D8A0A027D8A0A1276CA85DD0000103
:10067000BA5358E1B9C0BAF081BA4FD06CBA3BD086
:10068000B15326E1B25324E184A009D0B4C0B6F03E
:10069000B3C0B5F0B46BB36B6C98618218D0B8512D
:1006A000B45D0DE303E1B351B75D09E26C98B46B3F
:1006B000B36B61827B84010EFF6FC4DF08D0B32B64
:1006C000D8B4B42B81AA02D0819A01D0818A12D0E9
:1006D000B351B15D06E1B451B25D03E16C986C8C2D
:1006E00009D0B351D8B4B407B30781AA02D0819A14
:1006F00001D0818A11D0B351B15D06E1B451B25D30
:1007000003E16C98618208D0B32BD8B4B42B81AAD2
:1007100002D0819A01D0818A05D081AA02D0819A23
:1007200001D0818ABA0701016CAE5DD00001C453CB
:1007300058E1C3C0C4F081B84FD0C5B13BD0BB5362
:1007400026E1BC5324E184A209D0BEC0C0F0BDC0E4
:10075000BFF06C9EBE6BBD6B618418D0C251BE5D94
:100760000DE303E1BD51C15D09E2BE6BBD6B6C9E43
:100770006184010EFF6F66DF7B8608D0BD2BD8B485
:10078000BE2B81A802D0819801D0818812D0BD51A2
:10079000BB5D06E1BE51BC5D03E16C9E618409D086
:1007A000BD51D8B4BE07BD0781A802D0819801D041
:1007B000818811D0BD51BB5D06E1BE51BC5D03E136
:1007C0006C9EC58308D0BD2BD8B4BE2B81A802D0A7
:1007D000819801D0818805D081A802D0819801D06C
:1007E0008188C40701016BAA63D06AAE36D0795202
:1007F00009E10001F66BF80EF56F020E715CFB6FFC
:100800001DD00101792C08D00001F66B200EF56F88
:1008100071C0FBF013D001017950030809E1000118
:10082000F66BA80EF56F020E715CFB6F07D001012D
:100830000001F66BA80EF56F71C0FBF0745207E172
:10084000755205E16A9E010EF76FFD9104D0745058
:10085000D8B4750674062BD001010001F707F753D1
:1008600026E183A802D0839801D08388FBC0F7F0EB
:1008700083B80AD0F551D8B4F607F507F551F6114B
:1008800002E16A886B9A13D0FDA102D0FD9101D0DC
:10089000FD81FDA10CD0792C01D003D07950040842
:1008A00006E1F65304E1F5513F0801E3FB2B01019A
:1008B0006BAC4FD06CA025D07A5206E10001F96BE9
:1008C000F80EF86F16D001017A2C06D00001F96BF2
:1008D000200EF86F0ED001017A50040806E10001E5
:1008E000F96BA80EF86F05D001010001F96BA80E95
:1008F000F86F70C0FCF06C90010EFA6FFD9328D079
:1009000001010001FA07FA5323E183AA02D0839A76
:1009100001D0838AFCC0FAF083BA0AD0F851D8B467
:10092000F907F807F851F91102E16A8A6B9C10D0B7
:10093000FDA302D0FD9301D0FD83FDA309D0F9539F
:1009400007E1F851090804E37A50030801E1FC2BA0
:10095000010160A82AD060AA0CD0030E0001F46F38
:10096000340EF36F609A010EF26F080EFE6F1CD00A
:1009700001010001F22F18D083AC02D0839C01D07A
:10098000838C7CC0F2F07C500C0805E2FE2F03D073
:100990007C06080EFE6FF351D8B4F407F307F35149
:1009A000F41102E1608E60980101F2940001D8EF29
:1009B00001F076C0E5F0E46BE45107080AE3E5478F
:1009C000E5A102D0818601D0819681828192E42BBB
:1009D000F3D781848194000C77C0E7F06A90F2BA73
:1009E0006A806AA001D0F29AE66BE65107080AE332
:1009F000E747E7A102D0818601D081968384839462
:100A0000E62BF3D7838683966AA001D0F28A000C86
:100A1000C190C192C184C1960F0E926EC10E936EA9
:100A20003A0E946E000E956E968096829694100EF5
:100A3000806EC00E816E180E826E0E0E836E040ED6
:100A4000846EF18E180E1F6EC19CC28CC28EC19E28
:100A5000C280000E016EC250C70B0110C26EC20EE2
:100A6000D56ED180B70EB1168B940C0EBD6E000EF4
:100A70000509CA6E870ECB6EB70EB116BA6A070E9D
:100A8000BA6E950ECD6E030E5C6EF90E5B6E6A98B3
:100A90006A9A796A7A6A766A8CDF776A9DDF080ECD
:100AA0007D6E7E6E6E6A6D6A6F6A6C84618A756A2D
:100AB000746A618C6A966B9A6B9C0D0E706E716E87
:100AC000000E016EC250C70B0110C26EC681C599DF
:100AD000C59BC59DC59FC693C695C697010E686EFA
:100AE000696E618EF5EF0FF05CC05EF05BC05DF08B
:100AF000586A576A7F0E5A6EFF0E596E2096000C88
:100B00002098209A8380A0906B94000CF9DF60926B
:100B10006094BE6A0CEF10F0DCC045F0DDC046F01A
:100B2000DEC047F0DFC048F0E0C049F0EA6A4A0E94
:100B3000E96EE2C0E2FFE1C0E1FFE752E6CFEEFF7F
:100B4000FCE1E3C050F019EF10F0DCC051F0DDC063
:100B500052F0DEC053F0DFC054F023EF10F0E46732
:100B600003D0E56702D007D0E52BE3C0EEFFE42F0A
:100B7000FCD7E52FFAD7000C7F6A816B806B896BFD
:100B80008D0E886F876B866B856B846B8C93EA6A9E
:100B9000E96EE36BE56B110EE46FE1DF8B6B3A0EF0
:100BA000946E000C360EC66EDCC0C8FFC78C8C91EC
:100BB000E3DF27EF10F0EA6AE30EE96EEF500DE095
:100BC0000C0E016E006A002EFED7012EFBD7BF0E61
:100BD000006E002EFED7EF2EF3D7000CE3C084F09A
:100BE000845302E1819B01D0818BF6EF08F0E36B27
:100BF000E46B609220965CC002F05BC001F00232B0
:100C0000013202320132023201C0BEFF0232023032
:100C1000300B006EBD50CF0B0010BD6E8390608016
:100C20002088208A208CA08020B609D0E32BD8B45D
:100C3000E42B0400E351E41101E101D0F5D7209841
:100C4000209A8380A09020B604D0000E016E05D0BB
:100C500004D02096010E016E00D037EF06F07B6ABB
:100C6000C595C59777927790B7DE0400C0D701523B
:100C700001E17B827B520FE0F29CF29EF2BEFDD737
:100C8000186AF2BE188EF29E010EFF6FDBDC18BEF2
:100C9000F28EC00EF2127BC001F085EF09F0F29CDB
:100CA000F29EF2BEFDD768DFFF00000C8BC02DF076
:100CB00084C02EF085C02FF0E3C030F0D7EF0BF0EA
:100CC000E591F2BEE581F29CF29EF2BEFDD7F2CF35
:100CD000E6F0F29EE3C0A9FFA69CA69EA680A850BF
:100CE000E6BFF28EE46FE5A102D0C00EF212E4C0BE
:100CF00001F0000CE351FF0A8B178B5302E13A0E0F
:100D0000946E1DEF0AF06BAA01D019D0E35303E0F3
:100D100077846A8202D077946A925EDE6A96E5B141
:100D20006A86E42D01D0796A1F801FC082FF5B0EA6
:100D3000006E002EFED700006A8E6B8AF28A000CCD
:100D4000B70EB116BA6A070EBA6EE45101080CE389
:100D500003E1E3515D0808E30D0E706E716E3E0E07
:100D6000736E800E726E52D0E45102080CE303E100
:100D7000E3513D0808E30D0E706E716E360E736E12
:100D8000B00E726E43D0E45103080CE303E1E3516B
:100D9000190808E3080E706E716E220E736E290E2C
:100DA000726E34D0E45104080CE303E1E3517B0894
:100DB00008E3060E706E716E1B0E736E500E726E2F
:100DC00025D0E45105080CE303E1E351F00808E302
:100DD000040E706E716E110E736E150E726E16D05B
:100DE000E45109080CE303E1E3518B0808E3040E26
:100DF000706E716E0E0E736ECE0E726E07D0040E94
:100E0000706E716E070E736E660E726EE4C05CF0EB
:100E1000E3C05BF0E45306E1E3515A0803E3400EFC
:100E2000696E32D0E45306E1E351A00803E3200EDB
:100E3000696E2AD0E451010807E303E1E351A108F8
:100E400003E3100E696E20D0E451020807E303E1CA
:100E5000E351E30803E3080E696E16D0E451060877
:100E600007E303E1E351130803E3040E696E0CD0BA
:100E7000E451090807E303E1E351B50803E3020E77
:100E8000696E02D0010E696E000CE39184B4E381B7
:100E90008494B251030809E2FF0A03E1B151D80872
:100EA00004E2040EB26FD80EB16FB451B25D08E324
:100EB00003E1B151B35D04E26C8A76907ADD0DD026
:100EC0006C9A768076DDB151B21105E0010EB15F0A
:100ED000000EB25B02D0B46BB36B76B203D0E38189
:100EE000768267DD6192BA6B0D0EB96FE3A105D012
:100EF0005B0E006E002EFED700006C886B82F28ABB
:100F0000000CE39184B4E3818494BC51060809E2A7
:100F1000FF0A03E1BB51FE0804E2070EBC6FFE0EA0
:100F2000BB6FBE51BC5D0FE303E1BB51BD5D0BE286
:100F3000C58176943EDDBB51BC1104E0010EBB2798
:100F4000000EBC2309D0BB5304E1BC5302E1BE6BCD
:100F5000BD6BC59176842DDD76B603D0E3817686B0
:100F600028DD6194C46B0D0EC36FE3A105D05B0E49
:100F7000006E002EFED700006C8E6B80F28A000C93
:100F8000768E17DD5B0E006E002EFED700001E0E63
:100F90007C6E609E609CE3B1608C608A60AC02D025
:100FA000768C01D0769C05DD6B986B866088F28A22
:100FB000000C020EE65F0BE3EA6AE60EE96EEF5004
:100FC00006E0020E006E002EFED7EF2EFAD7000CC0
:100FD0006C92000E016EC250C70B0110C26EE56B21
:100FE000E46B800EE36FE3530DE09C0EE66FE1DFF0
:100FF000C284C2B4FED7C450E427000EE523040027
:10100000E307F1D7E531036EE431026E03320232B9
:10101000033202320332023203320232033202322C
:101020000332023202C062F062C066F0280E625CD7
:10103000646E090E625C7D6E050EA96E66C0A8FF27
:10104000A69CA69EA684F2CF00F0F29E0F01550E3C
:10105000A76EAA0EA76EA682A6B2FED7A6940050CF
:10106000F212030EA96E64C0A8FFA69CA69EA684D9
:10107000F2CF00F0F29E550EA76EAA0EA76EA682C2
:10108000A6B2FED7A6940050F212080E016EC2500E
:10109000C70B0110C26E0001E56BE46B800EE36FBD
:1010A000E3530DE09C0EE66F84DFC284C2B4FED72A
:1010B000C450E427000EE5230400E307F1D7E5312F
:1010C000036EE431026E0332023203320232033223
:1010D000023203320232033202320332023202C0DF
:1010E00063F063C067F0280E635C656E090E635C95
:1010F0007E6E010EA96E67C0A8FFA69CA69EA68460
:10110000F2CF00F0F29E0F01550EA76EAA0EA76E49
:10111000A682A6B2FED7A6940050F212040EA96EC3
:1011200065C0A8FFA69CA69EA684F2CF00F0F29E02
:10113000550EA76EAA0EA76EA682A6B2FED7A694DB
:101140000050F212CC0E786E6E6A6D6A6F6A618A18
:101150006C94618C000E016EC250C70B0110C26E00
:101160006C82020EA96E78C0A8FFA69CA69EA684DB
:10117000F2CF00F0F29E550EA76EAA0EA76EA682C1
:10118000A6B2FED7A6940050F2120001000C84848F
:1011900083802098209A6B9476926C986B927696C6
:1011A0006C9E6B90769E609804DCD7EF0BF06BAC76
:1011B00001D017D0E35303E077866A8402D0779694
:1011C0006A940ADC6A9CE5B16A8C808A5B0E006EC8
:1011D000002EFED700006C80E42D01D07A6A6B8C63
:1011E000F28A000C81A1F4D2E36BF8D421503F0BBA
:1011F000DD6FDD510C0802E20C0EDD6F2250070A94
:10120000D8B479D00F0AD8B477D0010AD8B480D036
:10121000090AD8B48AD0030AD8B495D0020AD8B43F
:10122000BCD0030AD8B4BFD0E80AD8B4C8D0E00A0A
:10123000D8B4C8D0010AD8B4E0D00F0AD8B4E7D0E7
:10124000010AD8B4E5D0030AD8B4E3D0860AD8B4EA
:10125000F7D0010AD8B403D1710AD8B40FD1010A6A
:10126000D8B436D1030AD8B449D1700AD8B452D10F
:10127000070AD8B452D1030AD8B45DD1010AD8B450
:101280006CD10F0AD8B46DD1020AD8B47DD1010A4D
:10129000D8B47ED1020AD8B48ED1120AD8B49DD166
:1012A000170AD8B4AED1100AD8B4BDD17C0AD8B4CC
:1012B000CED1010AD8B4E3D10A0AD8B4F9D1180AB8
:1012C000D8B4F8D17C0AD8B40ED2160AD8B40ED24B
:1012D000030AD8B40DD2020AD8B40CD2760AD8B414
:1012E0001CD2020AD8B449D2010AD8B449D2020A9F
:1012F000D8B449D25BD25BD2EA6A2D0EE96EE36BB9
:10130000E56B0C0EE46F2BDCAAD401C02DF04FD29C
:10131000EA6A2D0EE96EE26A390EE16E0C0E016E7C
:10132000E6CFEEFF012EFCD742D2EA6A2D0EE96E1F
:10133000E26A230EE16EDD51016E04E0E6CFEEFFBE
:10134000012EFCD734D2EA6A2D0EE96EE36BE56B11
:101350000C0EE46F04DC2350010A03E0030A0EE0E4
:101360001AD0EA6A2D0EE96EE26A450EE16E0C0EA5
:10137000016EE6CFEEFF012EFCD70ED0EA6A2D0EED
:10138000E96EE26A510EE16E040E016EE6CFEEFFE9
:10139000012EFCD701D000D00AD281A702D0208034
:1013A00001D07DDC04D2EA6A2D0EE96EE36BE56BB9
:1013B0000C0EE46FAFEC05F07BC0E3F077D46BC0AC
:1013C0002DF0F5D123C0E1F024C0E2F0E1C0A9FF87
:1013D000E2C0A8FFA69CA69EA684F2CF00F0F29ED3
:1013E0000F01550EA76EAA0EA76EA682A6B2FED753
:1013F000A6940050F2120001DAD123C0E1F0E1C05E
:10140000E3F05EDC01C0E2F0E2C02DF0D0D1CFD13C
:10141000CED1F29CF29EF2BEFDD723520BE0186AA9
:10142000F2BE188EF29E24C0FFF022EC03F018BE2C
:10143000F28E03D024C0E3F05DD4C00EF212B7D117
:101440006092208EC59DC59FC681C693C69561A03A
:1014500003D0C59BC59902D0C58BC599A8D1608220
:10146000208EC59DC59FC681C693C69561A003D039
:10147000C59BC59902D0C58BC59999D1C691C5990F
:1014800023A002D0608201D0609223A204D0C59B29
:10149000C58DC59F09D023A404D0C58BC59DC58F1C
:1014A00003D0C59BC59DC59F24C0D1F0E46B000E41
:1014B0002524C76F2650E421C86FE46B000E272453
:1014C000C96F2850E421CA6FC693C695208E6FD18C
:1014D000C5AD03D0C683C68507D0C5AF03D0C683CC
:1014E000C69502D0C693C695C8C0CCF0C7C0CBF095
:1014F000CAC0CEF0C9C0CDF0618859D17950030877
:1015000007E1010EE36F020EE46FE56B83EC06F07A
:1015100061984DD180EC05F04AD1E56B036A235008
:10152000E511DF6F03502410E06FE0C0E4F0DFC08E
:10153000E3F006DC3CD1EA6A2D0EE96EE36BE56B65
:101540000C0EE46FAFEC05F05CC0E0F05BC0DFF0C8
:10155000DFC02DF0E0C02EF02AD1B26BB16B95DC6C
:1015600026D1E56B036A2350E511B16F03502410B7
:10157000B26FB351B15D006EB451B259036E0050F9
:10158000031001E082DC13D1BC6BBB6BBADC0FD162
:10159000E56B036A2350E511BB6F03502410BC6F49
:1015A000BD51BB5D006EBE51BC59036E00500310AF
:1015B00001E0A7DCFCD0EA6A2D0EE96EE36BE56B77
:1015C0000C0EE46FAFEC05F0B4C0E0F0B3C0DFF098
:1015D000DFC02DF0E0C02EF0EAD0EA6A2D0EE96EF1
:1015E000E36BE56B0C0EE46FAFEC05F0B6C0E0F01A
:1015F000B5C0DFF0DFC02DF0E0C02EF0B66BB56BEC
:10160000D6D0EA6A2D0EE96EE36BE56B0C0EE46F43
:10161000AFEC05F0BEC0E0F0BDC0DFF0DFC02DF0E4
:10162000E0C02EF0C4D0EA6A2D0EE96EE36BE56BE4
:101630000C0EE46FAFEC05F0C0C0E0F0BFC0DFF00F
:10164000DFC02DF0E0C02EF0C06BBF6BB0D06BA838
:1016500013D06BB611D0F29CF29EF2BEFDD7186A81
:10166000F2BE188EF29E020EFF6F22EC03F018BE3F
:10167000F28EC00EF21202D0E36B82DC98D06BB611
:1016800002D06BA804D0010EE36F7ADC10D0F29C7C
:10169000F29EF2BEFDD7186AF2BE188EF29E020EBE
:1016A000FF6F22EC03F018BEF28EC00EF2127FD054
:1016B0008FDC7DD0050EE36F60EC06F001C02DF0ED
:1016C000010EE36F60EC06F001C02EF0030EE36F35
:1016D00060EC06F001C02FF0040EE36F60EC06F042
:1016E00001C030F064D080EC05F051D520845FD08B
:1016F00020945DD020B410D06C968098779223B05F
:101700007782C59523B4C585779023B27780C59736
:1017100023B6C587ECEC04F04AD0E06B23C0DFF0C1
:10172000C59BC599DFB10AD07950040806E1E36B87
:10173000020EE46FE56B83EC06F00AD079500308E3
:1017400007E1010EE36F020EE46FE56B83EC06F038
:10175000DFB309D07A50040805E1E36B020EE46FB1
:10176000E56B25DD09D07A50030806E1010EE36F31
:10177000020EE46FE56B1BDD1AD023C07DF017D09D
:1017800023C07EF014D084942096DE6B060EE36FA7
:10179000DBEC05F020A601D0DE8184A001D0DE8341
:1017A00084A201D0DE85DEC02DF001D000D0225011
:1017B00009080CE0EA6A390EE96EE26A210EE16E70
:1017C0000C0E016EE6CFEEFF012EFCD781910400D6
:1017D000000CDC5311E0DC510A0807E20A0EE36F4B
:1017E000DBEC05F00A0EDC5F05D0DCC0E3F0DBECDF
:1017F00005F0DC6BF7DCEDD70400000CB46BB36BC9
:10180000B26BB16BB66BB56B6C9C050EB86F080E06
:10181000B76F45EC07F0000CBE6BBD6BBC6BBB6BD0
:10182000C06BBF6BC593080EC26F2E0EC16F81ECEB
:1018300007F0000C050EE36F60EC06F001C066F0E7
:10184000010EE36F60EC06F001C067F0030EE36F7A
:1018500060EC06F001C064F0040EE36F60EC06F08B
:1018600001C065F0010E665CDC6F6450665C006E62
:10187000003200323F0E00160050DC5D7D6E010E1E
:10188000675CDC6F6550675C006E003200323F0EB3
:1018900000160050DC5D7E6E40EF10F0E751EB1952
:1018A000800BF16FE7AF0BD0E41FE51FE61FE71FCA
:1018B000E42BD8B4E52BD8B4E62BD8B4E72BEBAFA8
:1018C0000BD0E81FE91FEA1FEB1FE82BD8B4E92B68
:1018D000D8B4EA2BD8B4EB2B006A016A026A036A17
:1018E000EC6BED6BEE6BEF6BEB51EA11E911E8116C
:1018F0002CE0200EF06FD890E437E537E637E73775
:10190000EC37ED37EE37EF37EB51EF5D08E1EA5199
:10191000EE5D05E1E951ED5D02E1E851EC5D0FE3BB
:10192000E851EC5FE951D8A0E93DED5FEA51D8A05C
:10193000EA3DEE5FEB51D8A0EB3DEF5FD88000367B
:10194000013602360336F02FD6D7F1AF0BD0001E8A
:10195000011E021E031E002AD8B4012AD8B4022A8E
:10196000D8B4032AEA6AEC0EE96E25EF0DF0E051D7
:10197000E203F3CF01F0F4CF00F0E303F3500026CD
:10198000E151E203F3500020026E51EF0DF0E351FC
:10199000E519800BE76FE3AF05D0E21FE31FE22BF1
:1019A000D8B4E32BE5AF05D0E41FE51FE42BD8B492
:1019B000E52B016A026A006A036AE55102E1E4511B
:1019C00018E0100EE66FD890E237E33700360336A2
:1019D000E551035C02E1E451005C07E3E451005E81
:1019E000D8A00306E551035ED88001360236E62F03
:1019F000EAD7E7AF05D0011E021E012AD8B4022A99
:101A00005DEF0DF0A09055C000F056C001F0026AE5
:101A1000036A56AE02D00206030603C0E3F002C01A
:101A2000E2F001C0E1F000C0E0F0E76B1E0EE66FEF
:101A3000AB0EE56F880EE46F03C0EBF002C0EAF076
:101A400001C0E9F000C0E8F029D701C0DFF000C014
:101A5000DEF0208C2096A080DE515B5C5D6EDF5155
:101A60005C585E6E5EAE03D05AAE0AD002D05ABE4B
:101A70000CD05E505A5C09E303E159505D5C05E20D
:101A80005D5057265E50582204D0595057265A5060
:101A900058225EC0E1F05DC0E0F0E36B030EE26F40
:101AA00066D702C0E1F001C0E0F058C0E3F057C0D3
:101AB000E2F0E56B200EE46F6AD70150E025DC6FA1
:101AC0000250E121DD6FDDBF07D0DD51030804E2E4
:101AD000030EDD6FFF0EDC6FDDBF05D0DD5306E1C9
:101AE000DC51310803E3DD6B320EDC6FDDC002F048
:101AF000DCC001F00232013202320132023201C096
:101B0000BEFF02320230300B006EBD50CF0B001012
:101B1000BD6EFF0ED8805754596E7F0E58545A6EC2
:101B2000000C61AA04D0619AC2843CD10FD0C2B427
:101B30000CD06F2A036AC4506D2603506E226F507A
:101B40007F0802E3C2842ED101D02CD16E30036E07
:101B50006D30026E0332023203320232033202323D
:101B600003320232033202320332023202C0DCF0AC
:101B70006E6A6D6A6F6A6CA485D0C6A10BD061AE27
:101B800009D0080E016EC250C70B0110C26E618AE7
:101B90006C9401D0C284DE917D50DC5D01E2DE8177
:101BA000006A61B60080DE510018010B02E161ACF1
:101BB0005BD06196DEB161861F9CDEB11F8C1FC0B9
:101BC00082FF61BC33D061A611D06650625C01E235
:101BD0006606010E665CDF6F6450665C006E003A5C
:101BE0000F0E00160050DF5D7D6E1FD06250645CEA
:101BF00002E2642A0CD0080EDD6FDD5308E0645069
:101C0000625C02E2640601D002D0DD07F6D7010E65
:101C1000665CDF6F6450665C006E0032003200323A
:101C20001F0E00160050DF5D7D6E05D0DCC062F037
:101C3000619CC6B1618C61B601D0618E61B613D072
:101C400061A811D0C5AB08D0E36B020EE46F010EA2
:101C5000E56F83EC06F007D0C5AD05D0C6870B0E47
:101C6000D06FB80ECF6F0DD061A606D06250DC5D8C
:101C700002E2DCC062F005D0DC51625C02E2DCC052
:101C800062F090D06C84000E016EC250C70B011040
:101C9000C26E618ADE917E50DC5D01E2DE81006A07
:101CA00061B80080DE510018010B02E161AC6BD01D
:101CB00061A804D06806685201E074D06198DEB172
:101CC00061881F9EDEB11F8E1FC082FF61BC38D0AD
:101CD00061A816D06750635C02E2670604D06350C7
:101CE000675C01E2672A010E675CDF6F6550675C25
:101CF000006E003A0F0E00160050DF5D7E6E1FD0A2
:101D00006350655C02E2652A0CD0080EDD6FDD537E
:101D100008E06550635C02E2650601D002D0DD0791
:101D2000F6D7010E675CDF6F6550675C006E0032AE
:101D3000003200321F0E00160050DF5D7E6E03D0B1
:101D4000DCC063F0619C61A803D061A601D0619EF4
:101D5000C5A918D061A80BD07A50030808E1010E7C
:101D6000E36F020EE46FE56BD7EC08F00BD061B8BF
:101D700009D07A50040806E1E36B020EE46FE56BCC
:101D8000D7EC08F00DD061A806D06350DC5D02E20C
:101D9000DCC063F005D0DC51635C02E2DCC063F0C0
:101DA00069C068F076EF10F06B9A6AA211D0795290
:101DB00009E1010E796EE36B020EE46FE56B83ECD3
:101DC00006F005D0040E796E1F901FC082FF1CD054
:101DD0007950040814E1030E796E6AA60CD073C022
:101DE00075F072C074F0010EE36F020EE46FE56BE4
:101DF00083EC06F003D01F901FC082FF05D0040EB5
:101E0000796E1F901FC082FF79EF10F06B9C6AA45F
:101E10000FD07A5209E1010E7A6EE36B020EE46F85
:101E2000E56BD7EC08F003D0040E7A6E809A13D0DD
:101E30007A2C04D0040E7A6E809A0DD0030E7A6E3E
:101E40006AAC08D0010EE36F020EE46FE56BD7ECCD
:101E500008F001D0809A7DEF10F05F6A006A60B4EC
:101E6000008260500018020B07E08380609460B22B
:101E70006084210EDC6FADDC60A202D0839201D0C1
:101E800083825CC0E4F05BC0E3F0A0EC06F074EC8D
:101E900005F06CB202D0E8EC07F0C5BB02D0C5ADCE
:101EA0000AD07950030807E1010EE36F020EE46FD8
:101EB000E56B83EC06F061B00AD07A50030807E1C5
:101EC000010EE36F020EE46FE56BD7EC08F0D1C0B2
:101ED000D2F05CBE07D05C50010809E303E15B501F
:101EE0002B0805E34B0EBE6EBD50CF0BBD6E83902D
:101EF000030EDC6F6EDC6B845CC002F05BC001F033
:101F00000232013202320132023201C0BEFF02321D
:101F10000230300B006EBD50CF0B0010BD6E6080E4
:101F20002088208A208CA080A2EF10F0839C769ECF
:101F3000D9EC04F076BC04D06B966B88618003D03A
:101F40006B966B986190F29CF29EF2BEFDD7186A78
:101F5000F2BE188EF29E100EFF6F22EC03F018BE38
:101F6000F28EC00EF212EDEF10F0DD5302E077803A
:101F700001D07790ECEC04F0000CDD5302E07782A6
:101F800001D07792ECEC04F0000C000E61B8010E69
:101F9000DD6FEBDF000E61B6010EDD6FEEDFB8EF37
:101FA00011F0F86AD09E0D8EEA6AE96AC180C1829A
:101FB000C184C196196A1A6A020EA76FA86B010E36
:101FC000A96FAA6BAB6FAC6B020EAD6FAE6BAF6B54
:101FD000030EB06FD36BD46B310ED86F320ED96F46
:101FE000330EDA6FDB6B08EF05F0D76BD66B209EF4
:101FF00060986C986C9E6B9A6B9C6B6A0101A16BEC
:10200000A06B080E9F6FCA0E9E6F20922084000165
:1020100074EC05F086EF05F00C0EDC6F060EDD6F3C
:10202000DE6BDF6BE06BE26BD80EE16FE36B8CEF86
:1020300005F0340EDC6F0C0EDD6F0F0EDE6F270E19
:10204000DF6FA5EF05F0340EDC6FD2EF05F0BCECCE
:1020500005F07B6A9D86C00EF2120A0EDC6FE9EC79
:102060000BF0FEEC0BF00CEC0CF0020EE36F60ECEE
:1020700006F001C078F07850CC0804E11AEF0CF0BB
:102080006C8201D06C92C595C59780986C860E0EB7
:10209000D56FFEEC0BF00CEC0CF0010EE36FE46F6F
:1020A000E56B83EC06F0010EE36FE46FE56BD7ECB4
:1020B00008F00400F2EC08F020A604D0A3DC5F6A6C
:1020C000F8D711D020A80FD05F2A5F50FD080BE28F
:1020D000553C03D056507F0804E07F0E566EFF0E2D
:1020E000556E5F6A8FDC6CA201D01BD56AA802D046
:1020F0005BD66A986AAA02D089D66A9A60B808D074
:102100006CB806D06CBE04D06BBA02D06BAC02D0F7
:10211000608615D08484F29A60A611D06096F29CF5
:10212000F29EF2BEFDD7186AF2BE188EF29E020E23
:10213000FF6F22EC03F018BEF28EC00EF21220AE3A
:1021400002D08BD6209E6CAC09D06C9C010EB325BE
:10215000B16F000EB421B26F45EC07F0C5A309D0F2
:10216000C593010EBD5DBB6F000EBE59BC6F81EC07
:1021700007F061A216D06192D9EC04F0190ED66F67
:102180006B92F29CF29EF2BEFDD7186AF2BE188ED8
:10219000F29E200EFF6F22EC03F018BEF28EC00EEE
:1021A000F21261A416D06194D9EC04F0190ED76F25
:1021B0006B90F29CF29EF2BEFDD7186AF2BE188EAA
:1021C000F29E400EFF6F22EC03F018BEF28EC00E9E
:1021D000F21260AE0AD0609EA9D661A006D020A4FB
:1021E00004D0DD6BC2DEDD6BC8DE20A007D02090FE
:1021F0000A0EDC6FE9EC0BF04FEC06F0F2A40AD00B
:10220000F294FF0E01019E27D8A09F27D8A0A027F7
:10221000D8A0A1270101A1BF01D053D00001D751FF
:10222000000808E2D707D75305E16BB003D07696D4
:10223000D9EC04F0D651000808E2D607D65305E1E0
:102240006BB203D07692D9EC04F0C5A505D077A285
:1022500002D0779201D07782C5A705D077A002D0AF
:10226000779001D07780ECEC04F06CA623D0D507F2
:1022700080A802D0809801D08088D551080812E14A
:102280005CC0E4F05BC0E3F0A0EC06F0E36B020E90
:10229000E46FE56B83EC06F0E36B020EE46FE56B35
:1022A000D7EC08F0D55306E1010EE36FC0EC07F060
:1022B0006C9680980101A16BA06B080E9F6FCA0EEF
:1022C0009E6F0001C6B304D0C6B502D0C6A74BD0DE
:1022D000D25303E0D251D15D46E2F29CF29EF2BEAF
:1022E000FDD7D151D227C00EF212C6A313D0CB51C5
:1022F000D8B4CC07CB07CB530DE1CC530BE1C6933D
:102300007A50040807E1E36B020EE46F010EE56FFB
:10231000D7EC08F0C6A512D0CD51D8B4CE07CD0762
:10232000CD530CE1CE530AE1C6957950040806E17D
:10233000E36B020EE46FE56B83EC06F0C6A713D0E7
:10234000CF51D8B4D007CF07CF530DE1D0530BE115
:10235000C6977950030807E1010EE36F020EE46FA0
:10236000E56B83EC06F020A403D020A801D00DD6A5
:04237000A0D60300F0
:020000040030CA
:0E00000000260601000181000FC00FE00F4036
:00000001FF
;PIC18F452
