:020000040000FA
:0403400068EF0FF063
:08034800056ED8CF06F0E95064
:10035000076EEA50086EE150096EE2500A6ED950FD
:100360000B6EDA500C6EF350146EF450156EE050B4
:100370000D6E000100500F6E0150106E0250116E94
:100380000350126E0450136E9DA6CAEF01F09EB684
:10039000F7EF01F0A0A0D0EF01F0A1B001EF03F062
:1003A000F2AAD6EF01F0F2B428EF03F00F50006E7E
:1003B0001050016E1150026E1250036E1350046EF5
:1003C0000D50E06E0D8E0750E96E0850EA6E095030
:1003D000E16E0A50E26E0B50D96E0C50DA6E14507A
:1003E000F36E1550F46E055006C0D8FF1000C7CF4D
:1003F000ECF0605202E0568E01D0569EC6AC0CD096
:10040000C69CC9CFEBF0C69C546A556A5C6A5B6AAD
:1004100061925682C688F2D0EC512D0B090A11E088
:10042000280A1DE0080A1BE0250AD8B48FD0200A4C
:10043000D8B4B2D0080AD8B4AFD00C0AD8B4CAD055
:10044000D0D05E6A620E5D6E546AC9CFEBF0EBC02D
:1004500055F0C69C5B6AC10E56166192CFD0C9CFCB
:10046000EBF0545217E1542AEBC05BF0EB515526E8
:100470005EC003F05D505D2AD8B45E2AE96E03C009
:10048000EAFFEBC0EFFF5BAE03D056865B9E01D068
:1004900056965BD0542C12D0542AEBC05CF0EB5132
:1004A00055265EC003F05D505D2AD8B45E2AE96E21
:1004B00003C0EAFFEBC0EFFFA1D047D056A603D0A0
:1004C0005450020804E0020E5B24545C26E1542AD6
:1004D000EB51FF0A555C05E056885684030E5A6EB0
:1004E0001AD056B014D056A603D05C5007080EE0C0
:1004F000EA6A200EE96EE26A620EE16E5450016E05
:1005000004E0E6CFEEFF012EFCD7568004D05688DB
:100510005682060E5A6E72D018D05450100807E258
:10052000542A56885682060E5A6E68D00ED0EB5169
:1005300055265EC003F05D505D2AD8B45E2AE96E90
:1005400003C0EAFFEBC0EFFF542A58D05E6A620E88
:100550005D6E546A618256A612D056A004D0568AA7
:10056000080E5A6E0CD0EA6A620EE96EE26A2C0E30
:10057000E16E0C0E016EE6CFEEFF012EFCD756C0E9
:10058000EBF0EBC0C9FFEBC055F056B601D05B6A8B
:10059000C90E5616C68832D05B50545C04E155C073
:1005A000EBF0EB1F10D05B50545C0CE25EC003F02C
:1005B0005D505D2AD8B45E2AE96E03C0EAFFEFCF32
:1005C000EBF001D0EB6BEBC0C9FFEB515526542A81
:1005D000C68814D0546A556A5C6A5B6A6192C688A0
:1005E0000DD0C6AC01D0C69CC6AE01D0C69EECA153
:1005F00002D0EBC0C9FF6192C68800D09E96D6EFAC
:1006000001F0BCCFF0F0BBCFEFF01FA814D08BA14E
:1006100002D08B910BD01FAC02D01F9C07D0CC51C5
:10062000EF5D806FCD51F059816F1F86CB07BCCF36
:10063000CDF0BBCFCCF0A190D6EF01F0FE5160120F
:10064000605205E01E9A1EC082FF1A0E946E000CC6
:10065000FF0E01019E27D8A09F27D8A0A027D8A0D1
:10066000A127000197A94BD0B35348E1B2C0B3F022
:1006700081BA43D097BB33D0AA5322E1AB5320E1D8
:1006800084A009D0ADC0AFF0ACC0AEF0AD6BAC6B28
:1006900097998C8314D0B151AD5D0DE303E1AC515A
:1006A000B05D09E29799AD6BAC6B8C83A685010EAA
:1006B000FE6FC4DF04D0AC2BD8B4AD2B817A0ED042
:1006C000AC51AA5D06E1AD51AB5D03E19799978D01
:1006D00005D0AC51D8B4AD07AC07817A0DD0AC5180
:1006E000AA5D06E1AD51AB5D03E197998C8304D01F
:1006F000AC2BD8B4AD2B817A01D0817AB30797AFF8
:100700004BD0BD5348E1BCC0BDF081B843D0BEB1B1
:1007100033D0B45322E1B55320E184A209D0B7C04D
:10072000B9F0B6C0B8F0979FB76BB66B8C8514D094
:10073000BB51B75D0DE303E1B651BA5D09E2B76B9A
:10074000B66B979F8C85010EFE6F78DFA68704D06D
:10075000B62BD8B4B72B81780ED0B651B45D06E174
:10076000B751B55D03E1979F8C8505D0B651D8B4DC
:10077000B707B60781780DD0B651B45D06E1B75121
:10078000B55D03E1979FBE8304D0B62BD8B4B72BD9
:10079000817801D08178BD0796AB51D095AF2ED02E
:1007A000A45307E1F56BF80EF46F020E9C5DFA6F2F
:1007B00017D0A42D06D0F56B200EF46F9CC0FAF074
:1007C0000FD0A451030807E1F56BA80EF46F020ED9
:1007D0009C5DFA6F05D0F56BA80EF46F9CC0FAF023
:1007E0009F5307E1A05305E1959F010EF66FFC9121
:1007F00004D09F51D8B4A0079F0721D0F607F65325
:100800001EE18378FAC0F6F083B80AD0F451D8B468
:10081000F507F407F451F51102E19589969B0FD085
:10082000FC71FCA10CD0A42D01D003D0A45104086C
:1008300006E1F55304E1F4513F0801E3FA2B96ADCC
:100840003DD097A11DD0A55304E1F86BF80EF76FCA
:1008500010D0A52D04D0F86B200EF76F0AD0A5514B
:10086000040804E1F86BA80EF76F03D0F86BA80E2C
:10087000F76F9BC0FBF09791010EF96FFC931ED0B0
:10088000F907F9531BE1837AFBC0F9F083BA0AD068
:10089000F751D8B4F807F707F751F81102E1958B33
:1008A000969D0CD0FC73FCA309D0F85307E1F751D7
:1008B000090804E3A551030801E1FB2B8BA922D011
:1008C0008BAB0AD0030EF36F340EF26F8B9B010ECD
:1008D000F16F080EFD6F16D0F12F14D0837CA7C0E6
:1008E000F1F0A7510C0805E2FD2F03D0A707080E71
:1008F000FD6FF251D8B4F307F207F251F31102E1A0
:100900008B8F8B99F294D6EF01F0A1C0DEF0DD6BF6
:10091000DD5107080AE3DE47DEA102D0818601D05F
:10092000819681828192DD2BF3D781848194000CA2
:10093000A2C0E0F09591F2BA958195A101D0F29A0A
:10094000DF6BDF5107080AE3E047E0A102D08186B0
:1009500001D0819683848394DF2BF3D7838683969B
:1009600095A101D0F28A000CC190C192C184C196B8
:100970000F0E926EC10E936E3A0E946E000E956E2F
:10098000968096829694100E806EC00E816E180E20
:10099000826E0E0E836E040E846EF18E180E1E6E25
:1009A000C19CC28CC28EC19EC280000E016EC2501C
:1009B000C70B0110C26EC20ED56ED180B70EB11634
:1009C0008B940C0EBD6E000E016E0509CA6E870E6B
:1009D000CB6EB70EB116BA6A070EBA6E950ECD6E13
:1009E000030E876FF90E866F9599959BA46BA56B87
:1009F000A16B8BDFA26B9CDF080EA86FA96F996BB0
:100A0000986B9A6B97858C8BA06B9F6B8C8D959751
:100A1000969B969D0D0E9B6F9C6F000E016EC250B3
:100A2000C70B0110C26EBF81BE99BE9BBE9DBE9F0B
:100A3000BF93BF95BF97010E936F946F8C8F89EF13
:100A40000FF087C089F086C088F0836B826B7F0EC1
:100A5000856FFF0E846F1F96000C1F981F9A83806E
:100A6000A0909695000CF9DF8B938B95BE6AA0EF52
:100A70000FF0D5C044F0D6C045F0D7C046F0D8C07E
:100A800047F0D9C048F0EA6A490EE96EDBC0E2FFE0
:100A9000DAC0E1FFE752E6CFEEFFFCE1DCC04FF049
:100AA000ADEF0FF0D5C050F0D6C051F0D7C052F026
:100AB000D8C053F0B7EF0FF0546A566A556A5E6AB1
:100AC000620E5D6E5C6A5B6A5A6A596A6192110EC7
:100AD000016EEA6A620EE96EEE6A012EFDD7606A67
:100AE0003A0E946E000C360EC66ED5C0C8FFC78C89
:100AF0006190E2DFBBEF0FF0EA6ADC0EE96EEF50C7
:100B00000DE00C0E016E006A002EFED7012EFBD701
:100B1000BF0E006E002EFED7EF2EF3D7000CDCC008
:100B200059F0595202E1569A01D0568A8FEF08F0D7
:100B3000DC6BDD6B8B931F9687C002F086C001F0E3
:100B40000232013202320132023201C0BEFF0232F1
:100B50000230300B006EBD50CF0B0010BD6E839085
:100B60008B811F881F8A1F8CA0801FB609D0DC2BA9
:100B7000D8B4DD2B0400DC51DD1101E101D0F5D743
:100B80001F981F9A8380A0901FB604D0000E016E9C
:100B900005D004D01F96010E016E00D0D8EF05F0ED
:100BA000A66BBE95BE97A293A291C2DE0400C0D7E9
:100BB000015201E1A683A65309E0176AF2BE178E1F
:100BC000F29E010EFE6F3ADD17BEF28EA6C001F056
:100BD0001EEF09F0F29CF29EF2BEFDD76DDFFF0022
:100BE000000C60C02CF059C02DF05AC02EF0DCC0B3
:100BF0002FF064EF0BF0DE91F2BEDE81F29CF29EEC
:100C0000F2BEFDD7F2CFDFF0F29EDCC0A9FFA69CBA
:100C1000A69EA680A850DFBFF28EDD6FDEA102D0B7
:100C2000C00EF212DDC001F0000CDC51FF0A6016AC
:100C3000605202E13A0E946EB5EF09F096AB01D026
:100C400019D0DC5303E0A285958302D0A295959339
:100C50006FDE9597DEB19587DD2D01D0A46B1E80E8
:100C60001EC082FF5B0E006E002EFED70000958F27
:100C7000968BF28A000CB70EB116BA6A070EBA6EDE
:100C8000DD5101080CE303E1DC515D0808E30D0EC2
:100C90009B6F9C6F3E0E9E6F800E9D6F52D0DD51FC
:100CA00002080CE303E1DC513D0808E30D0E9B6FE5
:100CB0009C6F360E9E6FB00E9D6F43D0DD510308C2
:100CC0000CE303E1DC51190808E3080E9B6F9C6FED
:100CD000220E9E6F290E9D6F34D0DD5104080CE367
:100CE00003E1DC517B0808E3060E9B6F9C6F1B0E33
:100CF0009E6F500E9D6F25D0DD5105080CE303E17A
:100D0000DC51F00808E3040E9B6F9C6F110E9E6F80
:100D1000150E9D6F16D0DD5109080CE303E1DC517F
:100D20008B0808E3040E9B6F9C6F0E0E9E6FCE0E19
:100D30009D6F07D0040E9B6F9C6F070E9E6F660E13
:100D40009D6FDDC087F0DCC086F0DD5306E1DC512D
:100D50005A0803E3400E946F32D0DD5306E1DC51B4
:100D6000A00803E3200E946F2AD0DD51010807E3A9
:100D700003E1DC51A10803E3100E946F20D0DD5194
:100D8000020807E303E1DC51E30803E3080E946F74
:100D900016D0DD51060807E303E1DC51130803E335
:100DA000040E946F0CD0DD51090807E303E1DC5118
:100DB000B50803E3020E946F02D0010E946F000C8D
:100DC0008494AB51030809E2FF0A03E1AA51D80851
:100DD00004E2040EAB6FD80EAA6FAD51AB5D08E311
:100DE00003E1AA51AC5D04E2978BA1918EDD0DD099
:100DF000979BA1818ADDAA51AB1105E0010EAA5F84
:100E0000000EAB5B02D0AD6BAC6BDC91A1B303D039
:100E1000DC81A1837ADD8C93B36B0D0EB26FDCA104
:100E200005D05B0E006E002EFED7000097899683DA
:100E3000F28A000C8494B551060809E2FF0A03E126
:100E4000B451FE0804E2070EB56FFE0EB46FB75141
:100E5000B55D0FE303E1B451B65D0BE2BE81A19530
:100E600054DDB451B51104E0010EB427000EB523D2
:100E700009D0B45304E1B55302E1B76BB66BBE9130
:100E8000A18543DDDC91A1B703D0DC81A1873DDDE5
:100E90008C95BD6B0D0EBC6FDCA105D05B0E006E9A
:100EA000002EFED70000978F9681F28A000CA18F4A
:100EB0002CDD5B0E006E002EFED700001E0EA76F0D
:100EC0008B9F8B9DDCB18B8D8B8B8BAD02D0A18DDD
:100ED00001D0A19D1ADD969996878B89F28A000C24
:100EE000020EDF5F0BE3EA6ADF0EE96EEF5006E009
:100EF000020E006E002EFED7EF2EFAD7000C97934D
:100F0000000E016EC250C70B0110C26EDE6BDD6BAE
:100F1000800EDC6FDC530DE09C0EDF6FE1DFC284DE
:100F2000C2B4FED7C450DD27000EDE230400DC0768
:100F3000F1D7DE31036EDD31026E0332023203324D
:100F400002320332023203320232033202320332FD
:100F5000023202C08DF08DC091F0280E8D5D8F6F32
:100F6000090E8D5DA86F050EA96E91C0A8FFA69C05
:100F7000A69EA684F2CF00F0F29E0F01550EA76E3A
:100F8000AA0EA76EA682A6B2FED7A6940050F212B1
:100F9000030EA96E8FC0A8FFA69CA69EA684F2CFC2
:100FA00000F0F29E550EA76EAA0EA76EA682A6B2FC
:100FB000FED7A6940050F212080E016EC250C70B65
:100FC0000110C26E0001DE6BDD6B800EDC6FDC5346
:100FD0000DE09C0EDF6F84DFC284C2B4FED7C45024
:100FE000DD27000EDE230400DC07F1D7DE31036EBF
:100FF000DD31026E03320232033202320332023238
:1010000003320232033202320332023202C08EF065
:101010008EC092F0280E8E5D906F090E8E5DA96FC6
:10102000010EA96E92C0A8FFA69CA69EA684F2CF30
:1010300000F0F29E0F01550EA76EAA0EA76EA682B3
:10104000A6B2FED7A6940050F212040EA96E90C06C
:10105000A8FFA69CA69EA684F2CF00F0F29E550E95
:10106000A76EAA0EA76EA682A6B2FED7A6940050BF
:10107000F212CC0E0001A36F996B986B9A6B8C8B5C
:1010800097958C8D000E016EC250C70B0110C26E79
:101090009783020EA96EA3C0A8FFA69CA69EA68455
:1010A000F2CF00F0F29E0F01550EA76EAA0EA76EAA
:1010B000A682A6B2FED7A6940050F2120001000C40
:1010C000848483801F981F9A9695A19397999693ED
:1010D000A197979F9691A19F8B9917DC64EF0BF0D6
:1010E00096AD01D017D0DC5303E0A287958502D0DE
:1010F000A29795951DDC959DDEB1958D808A5B0E3E
:10110000006E002EFED700009781DD2D01D0A56B6B
:10111000968DF28A000C56A0E8D2DC6B00D52050E8
:101120003F0BD66FD6510C0802E20C0ED66F215041
:10113000070AD8B479D00F0AD8B477D0010AD8B446
:1011400080D0090AD8B48AD0030AD8B495D0020A4C
:10115000D8B4BCD0030AD8B4BFD0E80AD8B4C7D03A
:10116000E00AD8B4C7D0010AD8B4DFD00F0AD8B487
:10117000E6D0010AD8B4E4D0030AD8B4E2D0860A93
:10118000D8B4F6D0010AD8B402D1710AD8B40ED1BD
:10119000010AD8B437D1030AD8B44AD1700AD8B4F6
:1011A00053D1070AD8B453D1030AD8B45FD1010A86
:1011B000D8B46DD10F0AD8B46ED1020AD8B47FD199
:1011C000010AD8B480D1020AD8B491D1120AD8B495
:1011D0009FD1170AD8B4AFD1100AD8B4BDD17C0AB8
:1011E000D8B4CDD1010AD8B4DCD10A0AD8B4ECD134
:1011F000180AD8B4EBD17C0AD8B401D2160AD8B4F4
:1012000001D2030AD8B400D2020AD8B4FFD1760AB8
:10121000D8B40FD2020AD8B43CD2010AD8B43CD216
:10122000020AD8B43CD24FD24FD20C0E016EEA6AF9
:101230002C0EE96EEE6A012EFDD7B2D401C02CF05F
:1012400043D2EA6A2C0EE96EE26A380EE16E0C0EA9
:10125000016EE6CFEEFF012EFCD736D2EA6A2C0EE5
:10126000E96EE26A220EE16ED651016E04E0E6CF2D
:10127000EEFF012EFCD728D20C0E016EEA6A2C0E6E
:10128000E96EEE6A012EFDD72250010A03E0030A3F
:101290000EE01AD0EA6A2C0EE96EE26A440EE16EA4
:1012A0000C0E016EE6CFEEFF012EFCD70ED0EA6ADF
:1012B0002C0EE96EE26A500EE16E040E016EE6CF6E
:1012C000EEFF012EFCD701D000D0FED156A602D0F1
:1012D0001F8001D07FDCF8D10C0E016EEA6A2C0E63
:1012E000E96EEE6A012EFDD7A6C0DCF07AD496C076
:1012F0002CF0EAD122C0DAF023C0DBF0DAC0A9FF7B
:10130000DBC0A8FFA69CA69EA684F2CF00F0F29EAA
:101310000F01550EA76EAA0EA76EA682A6B2FED723
:10132000A6940050F2120001CFD122C0DAF0DAC048
:10133000DCF061DC01C0DBF0DBC02CF0C5D1C4D136
:10134000C3D1F29CF29EF2BEFDD722520BE0176A87
:10135000F2BE178EF29E23C0FEF01EEC03F017BE05
:10136000F28E03D023C0DCF060D4C00EF212ACD1F8
:101370008B931F8EBE9DBE9FBF81BF93BF958CA1D7
:1013800003D0BE9BBE9902D0BE8BBE999DD18B83EC
:101390001F8EBE9DBE9FBF81BF93BF958CA103D002
:1013A000BE9BBE9902D0BE8BBE998ED1BF91BE9915
:1013B00022A002D08B8301D08B9322A204D0BE9BAB
:1013C000BE8DBE9F09D022A404D0BE8BBE9DBE8F11
:1013D00003D0BE9BBE9DBE9F23C0CAF0DD6BDF6BFA
:1013E000000E2424C06F2550DD21C16FDD6BDF6B43
:1013F000000E2624C26F2750DD21C36FBF93BF9517
:101400001F8E62D1BEAD03D0BF83BF8507D0BEAFF4
:1014100003D0BF83BF9502D0BF93BF95C1C0C5F0B5
:10142000C0C0C4F0C3C0C7F0C2C0C6F08C894CD1E4
:10143000A451030807E1010EDC6F020EDD6FDE6BC5
:101440001EEC06F08C9940D12DEC05F03DD1DD6B02
:10145000DE6B036A2250DE11D86F03502310D96F60
:10146000D9C0DDF0D8C0DCF006DC2ED10C0E016E48
:10147000EA6A2C0EE96EEE6A012EFDD787C0D9F01C
:1014800086C0D8F0D8C02CF0D9C02DF01DD1AB6BE0
:10149000AA6B96DC19D1DD6BDE6B036A2250DE117C
:1014A000AA6F03502310AB6FAC51AA5D006EAD5113
:1014B000AB59036E0050031001E082DC05D1B56B1F
:1014C000B46BB8DC01D1DD6BDE6B036A2250DE1138
:1014D000B46F03502310B56FB651B45D006EB751B1
:1014E000B559036E0050031001E0A4DCEDD00C0EE2
:1014F000016EEA6A2C0EE96EEE6A012EFDD7ADC0D0
:10150000D9F0ACC0D8F0D8C02CF0D9C02DF0DCD0C8
:101510000C0E016EEA6A2C0EE96EEE6A012EFDD702
:10152000AFC0D9F0AEC0D8F0D8C02CF0D9C02DF0E3
:10153000AF6BAE6BC9D00C0E016EEA6A2C0EE96E71
:10154000EE6A012EFDD7B7C0D9F0B6C0D8F0D8C02A
:101550002CF0D9C02DF0B8D00C0E016EEA6A2C0E1A
:10156000E96EEE6A012EFDD7B9C0D9F0B8C0D8F047
:10157000D8C02CF0D9C02DF0B96BB86BA5D096A906
:101580000DD096B70BD0176AF2BE178EF29E020EE0
:10159000FE6F1EEC03F017BEF28E02D0DC6B87DC10
:1015A00093D096B702D096A904D0010EDC6F7FDCF1
:1015B0000AD0176AF2BE178EF29E020EFE6F1EEC64
:1015C00003F017BEF28E80D09ADC7ED0050EDC6F61
:1015D000FBEC05F001C02CF0010EDC6FFBEC05F01C
:1015E00001C02DF0030EDC6FFBEC05F001C02EF006
:1015F000040EDC6FFBEC05F001C02FF065D02DEC84
:1016000005F05ED51F8460D01F945ED01FB410D04B
:1016100097978098A29322B0A283BE9522B4BE85EC
:10162000A29122B2A281BE9722B6BE8798EC04F0A6
:101630004BD0D96B22C0D8F0BE9BBE99D8B10AD08E
:10164000A451040806E1DC6B020EDD6FDE6B1EECBC
:1016500006F00AD0A451030807E1010EDC6F020E68
:10166000DD6FDE6B1EEC06F0D8B309D0A55104087F
:1016700005E1DC6B020EDD6FDE6B32DD09D0A551BA
:10168000030806E1010EDC6F020EDD6FDE6B28DD64
:101690001BD022C0A8F018D022C0A9F015D0849485
:1016A0001F96D76B060EDC6F7CEC05F01FA601D0F1
:1016B000D78184A001D0D78384A201D0D785D7C099
:1016C0002CF0848401D000D0215009080CE0EA6A93
:1016D000380EE96EE26A200EE16E0C0E016EE6CF66
:1016E000EEFF012EFCD756900400000CD55311E0FC
:1016F000D5510A0807E20A0EDC6F7CEC05F00A0EF1
:10170000D55F05D0D5C0DCF07CEC05F0D56B03DDF2
:10171000EDD70400000CAD6BAC6BAB6BAA6BAF6B81
:10172000AE6B979D050EB16F080EB06FE0EC06F042
:10173000000CB76BB66BB56BB46BB96BB86BBE9383
:10174000080EBB6F2E0EBA6F1AEC07F0000C050ED8
:10175000DC6FFBEC05F001C091F0010EDC6FFBECDF
:1017600005F001C092F0030EDC6FFBEC05F001C048
:101770008FF0040EDC6FFBEC05F001C090F0010E61
:10178000915DD56F8F51915D006E003200323F0E3A
:1017900000160050D55DA86F010E925DD56F905177
:1017A000925D006E003200323F0E00160050D55D93
:1017B000A96FD4EF0FF0E051E419800BEA6FE0AFAE
:1017C0000BD0DD1FDE1FDF1FE01FDD2BD8B4DE2BAB
:1017D000D8B4DF2BD8B4E02BE4AF0BD0E11FE21F6D
:1017E000E31FE41FE12BD8B4E22BD8B4E32BD8B429
:1017F000E42B006A016A026A036AE56BE66BE76B39
:10180000E86BE451E311E211E1112CE0200EE96FE5
:10181000D890DD37DE37DF37E037E537E637E737B3
:10182000E837E451E85D08E1E351E75D05E1E251A5
:10183000E65D02E1E151E55D0FE3E151E55FE25173
:10184000D8A0E23DE65FE351D8A0E33DE75FE45175
:10185000D8A0E43DE85FD880003601360236033672
:10186000E92FD6D70000EAAF0BD0001E011E021EE2
:10187000031E002AD8B4012AD8B4022AD8B4032AF5
:10188000EA6AE50EE96EB4EF0CF0D951DB03F3CF51
:1018900001F0F4CF00F0DC03F3500026DA51DB0353
:1018A000F3500020026EE0EF0CF0DC51DE19800BEB
:1018B000E06FDCAF05D0DB1FDC1FDB2BD8B4DC2BEB
:1018C000DEAF05D0DD1FDE1FDD2BD8B4DE2B016AB5
:1018D000026A006A036ADE5102E1DD5118E0100E6F
:1018E000DF6FD890DB37DC3700360336DE51035C20
:1018F00002E1DD51005C07E3DD51005ED8A0030684
:10190000DE51035ED88001360236DF2FEAD70000B1
:10191000E0AF05D0011E021E012AD8B4022AECEF66
:101920000CF0A09080C000F081C001F0026A036A50
:1019300081AF02D00206030603C0DCF002C0DBF078
:1019400001C0DAF000C0D9F0E06B1E0EDF6FAB0E05
:10195000DE6F880EDD6F03C0E4F002C0E3F001C06B
:10196000E2F000C0E1F027D701C0D8F000C0D7F006
:101970001F8C1F96A080D751865D886FD8518759DC
:10198000896F89AF03D085AF0AD002D085BF0CD054
:101990008951855D09E303E18451885D05E2885141
:1019A00082278951832304D0845182278551832340
:1019B00089C0DAF088C0D9F0DC6B030EDB6F65D725
:1019C00002C0DAF001C0D9F083C0DCF082C0DBF0E5
:1019D000DE6B200EDD6F69D70150D925D56F02501F
:1019E000DA21D66FD6BF07D0D651030804E2030E22
:1019F000D66FFF0ED56FD6BF05D0D65306E1D551B1
:101A0000310803E3D66B320ED56FD6C002F0D5C0D5
:101A100001F00232013202320132023201C0BEFF55
:101A200002320230300B006EBD50CF0B0010BD6E85
:101A3000FF0ED8808255846F7F0E8355856F000C12
:101A40008CAB04D08C9BC2844AD10FD0C2B40CD0D2
:101A50009A2B036AC4509827035099239A517F0800
:101A600002E3C2843CD101D03AD19931036E98315E
:101A7000026E033202320332023203320232033286
:101A80000232033202320332023202C0D5F0996BC5
:101A9000986B9A6B97A58CD0BFA10BD08CAF09D057
:101AA000080E016EC250C70B0110C26E8C8B979549
:101AB00001D0C284A851D55D02E3000E01D0010E11
:101AC000016E01B002D0D79101D0D781006A8CB7E6
:101AD0000080D7510018010B02E18CAD5BD08C97D0
:101AE000D7B18C871E9CD7B11E8C1EC082FF8CBDC7
:101AF00033D08CA711D091518D5D01E29107010E79
:101B0000915DD86F8F51915D006E003A0F0E0016F7
:101B10000050D85DA86F1FD08D518F5D02E28F2BD2
:101B20000CD0080ED66FD65308E08F518D5D02E2BF
:101B30008F0701D002D0D607F6D7010E915DD86F7E
:101B40008F51915D006E0032003200321F0E001680
:101B50000050D85DA86F05D0D5C08DF08C9DBFB169
:101B60008C8D8CB701D08C8F8CB713D08CA911D0F1
:101B7000BEAB08D0DC6B020EDD6F010EDE6F1EEC1B
:101B800006F007D0BEAD05D0BF870B0EC96FB80EEB
:101B9000C86F0DD08CA706D08D51D55D02E2D5C09F
:101BA0008DF005D0D5518D5D02E2D5C08DF097D076
:101BB0009785000E016EC250C70B0110C26E8C8B50
:101BC000A951D55D02E3000E01D0010E016E01B0F6
:101BD00002D0D79101D0D781006A8CB90080D7514B
:101BE0000018010B02E18CAD6BD08CA904D09307D7
:101BF000935301E074D08C99D7B18C891E9ED7B1D4
:101C00001E8E1EC082FF8CBD38D08CA916D092517A
:101C10008E5D02E2920704D08E51925D01E2922B1A
:101C2000010E925DD86F9051925D006E003A0F0EDA
:101C300000160050D85DA96F1FD08E51905D02E252
:101C4000902B0CD0080ED66FD65308E090518E5DC5
:101C500002E2900701D002D0D607F6D7010E925DBE
:101C6000D86F9051925D006E0032003200321F0E2C
:101C700000160050D85DA96F03D0D5C08EF08C9DA2
:101C80008CA903D08CA701D08C9FBEA918D08CA999
:101C90000BD0A551030808E1010EDC6F020EDD6FC9
:101CA000DE6B70EC08F00BD08CB909D0A55104089C
:101CB00006E1DC6B020EDD6FDE6B70EC08F00DD020
:101CC0008CA906D08E51D55D02E2D5C08EF005D02C
:101CD000D5518E5D02E2D5C08EF094C093F00AEF2C
:101CE00010F0969B95A311D0A45309E1010EA46FA7
:101CF000DC6B020EDD6FDE6B1EEC06F005D0040E11
:101D0000A46F1E901EC082FF1CD0A451040814E1D1
:101D1000030EA46F95A70CD09EC0A0F09DC09FF0AD
:101D2000010EDC6F020EDD6FDE6B1EEC06F003D0E1
:101D30001E901EC082FF05D0040EA46F1E901EC010
:101D400082FF0DEF10F0969D95A50FD0A55309E1E8
:101D5000010EA56FDC6B020EDD6FDE6B70EC08F020
:101D600003D0040EA56F809A13D0A52D04D0040EC5
:101D7000A56F809A0DD0030EA56F95AD08D0010E0A
:101D8000DC6F020EDD6FDE6B70EC08F001D0809A24
:101D900011EF10F08A6B006A8BB500828B5100182E
:101DA000020B07E083808B958BB38B85210ED56F5B
:101DB0009DDC8BA302D0839201D0838287C0DDF0AB
:101DC00086C0DCF03BEC06F021EC05F097B302D0C6
:101DD0007FEC07F0BEBB02D0BEAD0AD0A451030811
:101DE00007E1010EDC6F020EDD6FDE6B1EEC06F00C
:101DF0008CB10AD0A551030807E1010EDC6F020E79
:101E0000DD6FDE6B70EC08F0CAC0CBF087BF07D087
:101E10008751010809E303E186512B0805E34B0EC6
:101E2000BE6EBD50CF0BBD6E8390030ED56F5EDCD2
:101E3000968587C002F086C001F00232013202327C
:101E40000132023201C0BEFF02320230300B006E9E
:101E5000BD50CF0B0010BD6E8B811F881F8A1F8C59
:101E6000A08030EF10F0839CA19F85EC04F0A1BD11
:101E700004D0969796898C8103D0969796998C91E9
:101E8000176AF2BE178EF29E100EFE6F1EEC03F064
:101E900017BEF28E6FEF10F0D65302E0A28101D090
:101EA000A29198EC04F0000CD65302E0A28301D07A
:101EB000A29398EC04F0000C000E8CB9010ED66FC2
:101EC000EBDF000E8CB7010ED66FEEDF2EEF11F0B8
:101ED000F86AD09E0D8EEA6AE96AC180C182C18427
:101EE000C196186A196A010E1A6E1B6A1C6A1D6A6D
:101EF000020E7C6E7D6A010E7E6E7F6ACC6BCD6BAE
:101F0000310ED16F320ED26F330ED36FD46BB4EF6C
:101F100004F0D06BCF6B1F9E8B999799979F969BE0
:101F2000969D966B0101A16BA06B080E9F6FCA0E68
:101F30009E6F1F921F84000121EC05F033EF05F026
:101F40000C0ED56F050ED66FD76BD86BD96BDB6BCC
:101F5000D10EDA6FDC6B39EF05F0340ED56F0C0E55
:101F6000D66F0F0ED76F270ED86F52EF05F0340ED5
:101F7000D56F73EF05F05CEC05F0A66B9D86C00E87
:101F8000F2120A0ED56F76EC0BF08BEC0BF099EC9D
:101F90000BF0020EDC6FFBEC05F001C0A3F0A351C7
:101FA000CC0804E1A7EF0BF0978301D09793BE957F
:101FB000BE97809897870E0ECE6F8BEC0BF099EC46
:101FC0000BF0010EDC6FDD6FDE6B1EEC06F0010E18
:101FD000DC6FDD6FDE6B70EC08F004008BEC08F05A
:101FE0001FA604D09EDC8A6BF8D711D01FA80FD093
:101FF0008A2B8A51FD080BE2803D03D081517F0876
:1020000004E07F0E816FFF0E806F8A6B8ADC97A3DE
:1020100001D016D595A902D064D6959995AB02D07A
:1020200092D6959B8BB908D097B906D097BF04D0AC
:1020300096BB02D096AD02D08B870FD08484F29AE3
:102040008BA70BD08B97176AF2BE178EF29E020EEB
:10205000FE6F1EEC03F017BEF28E1FAE02D09AD6B2
:102060001F9E97AD09D0979D010EAC25AA6F000E5B
:10207000AD21AB6FE0EC06F0BEA309D0BE93010E1C
:10208000B65DB46F000EB759B56F1AEC07F08CA3AC
:1020900010D08C9385EC04F0190ECF6F9693176ACD
:1020A000F2BE178EF29E200EFE6F1EEC03F017BEDE
:1020B000F28E8CA510D08C9585EC04F0190ED06FA3
:1020C0009691176AF2BE178EF29E400EFE6F1EECBE
:1020D00003F017BEF28E8BAF0AD08B9FC4D68CA1B3
:1020E00006D01FA404D0D66BD7DED66BDDDE1FA0D2
:1020F00007D01F900A0ED56F76EC0BF0EAEC05F0D6
:10210000F2A40AD0F294FF0E01019E27D8A09F27C7
:10211000D8A0A027D8A0A1270101A1BF01D047D0F6
:102120000001D051000808E2D007D05305E196B174
:1021300003D0A19785EC04F0CF51000808E2CF0747
:10214000CF5305E196B303D0A19385EC04F0BEA56F
:1021500001D0A273BEA701D0A27198EC04F097A79A
:102160001FD0CE078078CE51080812E187C0DDF07D
:1021700086C0DCF03BEC06F0DC6B020EDD6FDE6B44
:102180001EEC06F0DC6B020EDD6FDE6B70EC08F00F
:10219000CE5306E1010EDC6F57EC07F0979780985D
:1021A0000101A16BA06B080E9F6FCA0E9E6F00010C
:1021B000BFB304D0BFB502D0BFA74BD0CB5303E011
:1021C000CB51CA5D46E2F29CF29EF2BEFDD7CA51E7
:1021D000CB27C00EF212BFA313D0C451D8B4C50789
:1021E000C407C4530DE1C5530BE1BF93A5510408C7
:1021F00007E1DC6B020EDD6F010EDE6F70EC08F0A4
:10220000BFA512D0C651D8B4C707C607C6530CE144
:10221000C7530AE1BF95A451040806E1DC6B020E26
:10222000DD6FDE6B1EEC06F0BFA713D0C851D8B42B
:10223000C907C807C8530DE1C9530BE1BF97A451A3
:10224000030807E1010EDC6F020EDD6FDE6B1EEC92
:1022500006F01FA403D01FA801D02ED6BED60300BF
:020000040030CA
:0E00000000260601000181000FC00FE00F4036
:00000001FF
;PIC18F452
