:020000040000FA
:0403400074EF33F033
:08034800056ED8CF06F0E95064
:10035000076EEA50086EE150096EE2500A6ED950FD
:100360000B6EDA500C6EF350146EF450156EE050B4
:100370000D6E000100500F6E0150106E0250116E94
:100380000350126E0450136E9DA6CAEF01F09EB684
:1003900057EF02F00F50006E1050016E1150026EB8
:1003A0001250036E1350046E0D50E06E0D8E075008
:1003B000E96E0850EA6E0950E16E0A50E26E0B5089
:1003C000D96E0C50DA6E1450F36E1550F46E055061
:1003D00006C0D8FF1000F2CF0EF0F29EF76AF00FC1
:1003E000F66E030EF7220900F5500EBEF28E1200D3
:1003F00038010100F2CF0EF0F29EF76A0E0FF66E92
:10040000040EF7220900F5500EBEF28E1200506A5B
:100410006A00F2CF0EF0F29EF76A2C0FF66E040E11
:10042000F7220900F5500EBEF28E12003E000000C9
:10043000F2CF0EF0F29EF76A4A0FF66E040EF72224
:100440000900F5500EBEF28E1200251F1F00F2CFDC
:100450000EF0F29EF76A680FF66E040EF72209009E
:10046000F5500EBEF28E1200CC383800F2CF0EF0EE
:10047000F29EF76A860FF66E040EF7220900F55019
:100480000EBEF28E120000252500F2CF0EF0F29E75
:10049000F76AA40FF66E040EF7220900F5500EBE9F
:1004A000F28E1200000818585A5E7E7FFF00C7CFF8
:1004B00090F201012F5302E0258F01D0259FC6AC99
:1004C0000CD0C69CC9CF8FF2C69C236B246B2B6BC0
:1004D0002A6B30932583C6880ED1020190512D0BD3
:1004E000090A000111E0280A1FE0080A1DE0250A98
:1004F000D8B49BD0200AD8B4C1D0080AD8B4BED092
:100500000C0AD8B4E0D0E8D0010E01012D6F310EF5
:100510002C6F236BC9CF8FF28FC224F1C69C2A6B3C
:10052000C10E25173093E7D0C9CF8FF201012353B5
:1005300019E1232B8FC22AF102018F5101012427D7
:100540002DC103F02C512C2BD8B42D2BE96E03C0F8
:10055000EAFF8FC2EFFF2AAF03D025872A9F01D081
:10056000259762D0232D14D0232B8FC22BF10201AB
:100570008F51010124272DC103F02C512C2BD8B40D
:100580002D2BE96E03C0EAFF8FC2EFFFB4D04CD031
:1005900025A703D02351020804E0020E2A25235D7B
:1005A00029E1232B02018F51FF0A0101245D05E09F
:1005B00025892585030E296F1BD025B115D025A7C8
:1005C00003D02B5107080FE0EA6ACC0EE96E010E4A
:1005D000E26E310EE16E2351016E04E0E6CFEEFFD4
:1005E000012EFCD7258104D025892583060E296F8D
:1005F00082D01AD023511D0807E2232B2589258399
:10060000060E296F78D010D002018F5101012427E6
:100610002DC103F02C512C2BD8B42D2BE96E03C027
:10062000EAFF8FC2EFFF232B66D0010E01012D6F71
:10063000310E2C6F236B308325A713D025A104D056
:10064000258B080E296F0DD0010EEA6E310EE96E72
:10065000E26ADA0EE16E1E0E016EE6CFEEFF012EAB
:10066000FCD725C18FF28FC2C9FF8FC224F125B7F5
:1006700001D02A6BC90E2517C6883DD001012A5129
:10068000235D06E124C18FF202018F1F14D0010106
:100690002A51235D0EE22DC103F02C512C2BD8B42E
:1006A0002D2BE96E03C0EAFFEFCF8FF2020103D0DA
:1006B000010102018F6B8FC2C9FF8F5101012427F5
:1006C000232BC68818D00101236B246B2B6B2A6B5C
:1006D0003093C68810D00001C6AC01D0C69CC6AE0F
:1006E00001D0C69E020190A102D08FC2C9FF0101B4
:1006F0003093C68800D09E960001CAEF01F0819029
:1007000001010AAF819A0ABF818A818081900AAD76
:10071000819A0ABD818A818081900AAB819A0ABB45
:10072000818A818081900AA9819A0AB9818A81800F
:1007300081900AA7819A0AB7818A818081900AA54F
:10074000819A0AB5818A818081900AA3819A0AB32D
:10075000818A818081900AA1819A0AB1818A8180EF
:1007600081908192818281920001000C81843F0EF0
:1007700001010A6F0001C3DF8194C7EF14F0006A22
:10078000016A026A036A0201696B6A6B6B6B6C6BCC
:1007900068516711661165112CE0200E6D6FD890BD
:1007A000613762376337643769376A376B376C375D
:1007B00068516C5D08E167516B5D05E166516A5DEA
:1007C00002E16551695D0FE36551695F6651D8A02B
:1007D000663D6A5F6751D8A0673D6B5F6851D8A0DE
:1007E000683D6C5FD88000360136023603366D2FC7
:1007F000D6D70000020EEA6E690EE96E0001000C09
:100800000201646B090E636F270E626FC00E616F89
:10081000686B676B59C266F258C265F20001AFDFC0
:10082000010E00240101526F000E0120536F0201DE
:10083000646B030E636F0D0E626F400E616F686B29
:10084000676B59C266F258C265F2000198DF010E6B
:1008500000240101546F000E0120556F0201646BEA
:10086000060E636F1A0E626F800E616F686B676BA6
:1008700059C266F258C265F2000181DF010E002400
:100880000101566F000E0120576F0201646B2D0E9F
:10089000636FC60E626FC00E616F686B676B59C283
:1008A00066F258C265F200016ADF010E0024010100
:1008B000506F000E0120516F4F6B04000001F1EFEB
:1008C00014F00201686B696B010E6A6FDA6AD96A0B
:1008D000020E6D6F600E6C6F020EEA6E640EE96EB2
:1008E0006DC2E2FF6CC2E1FF6AC26BF2D890E550C4
:1008F000EE02F3506823F45069236B2FF7D768C2D8
:10090000DEFF69C268F2696BD8B0692B6C2BD8B472
:100910006D2B6A2B6A510508DFE10001A8EF04F096
:1009200002015F6B5E6B59C25DF258C25CF25FC23E
:1009300063F25EC262F259C261F258C260F2676B42
:100940000F0E666F420E656F400E646F0001B9D7DF
:1009500003C060F202C05FF201C05EF200C05DF24F
:1009600003C064F202C063F201C062F200C061F22F
:100970000201686B676B5BC266F25AC265F20001E6
:10098000FEDE010E00240101586F000E0120596F98
:1009900059C15BF158C15AF10400000100EF15F094
:1009A0000201586B585103080AE3036A5851680F53
:1009B000E96E000E0320EA6EEF6A582BF3D7010EA2
:1009C0006D6E900E6C6E010E6F6E900E6E6E010E5F
:1009D000716E900E706E736A726A010E756E900E73
:1009E000746E030E776ED60E766E00018D6B8C6B77
:1009F0004BEF15F002018A518C19800B8E6F8AAF74
:100A000005D0891F8A1F892BD8B48A2B8CAF05D0BB
:100A10008B1F8C1F8B2BD8B48C2B016A026A006A47
:100A2000036A8C5102E18B5118E0100E8D6FD89043
:100A300089378A37003603368C51035C02E18B51CB
:100A4000005C07E38B51005ED8A003068C51035E67
:100A5000D880013602368D2FEAD700008EAF05D040
:100A6000011E021E012AD8B4022A0001000C020154
:100A700089518B03F3CF01F0F4CF00F08C03F350D6
:100A800000268A518B03F3500020026E0001000CF7
:100A9000B3A901D00FD202017F6B00018CA50ED04B
:100AA0006950100807E2100E695C692402017F2773
:100AB00004D00001695002017F2700018CA70ED0ED
:100AC0006A50100807E2100E6A5C6A2402017F2750
:100AD00004D000016A5002017F2700018CB903D0C5
:100AE000D89002017F37020125517F5D03E10001AB
:100AF000E1D102017FC225F27F53D8A4B2D0BAC09F
:100B0000B5F0B9C0B4F00001CBBB44D08272CB8B3E
:100B1000B41D0201866F0001B51D0201876F862B8F
:100B2000D8B4872B87C28AF286C289F28C6B180EE2
:100B30008B6F00015FDF02C088F201C087F202C044
:100B40008AF201C089F202018C6B090E8B6F0001E1
:100B50008EDF02C085F201C084F2B5C08AF2B4C053
:100B600089F202018C6B030E8B6F000180DF02C0E3
:100B700087F201C086F202C08AF201C089F2020146
:100B80008C6B040E8B6F000135DF02C0B5F001C025
:100B9000B4F025D0B41D0201866F0001B51D02011D
:100BA000876F862BD8B4872B87C28AF286C289F2D8
:100BB0008C6B180E8B6F00011DDF02C088F201C024
:100BC00087F202C08AF201C089F202018C6B020E28
:100BD0008B6F00014CDF02C085F201C084F2B5AF1B
:100BE00008D0B551FE080AE2FF0A03E1B4518808B3
:100BF00005E2FF0EB56F880EB46F0DD0B5AF0BD008
:100C0000B551E30808E303E1B451DF0804E3E30E60
:100C1000B56FE00EB46F020185BF07D085510108A2
:100C200018E303E184518F0814E385C202F084C203
:100C300001F00232013202320132023201C0BEFF43
:100C400002320230300B006EBD50CF0B0010BD6E73
:100C500005D0640EBE6EBD50CF0BBD6E00012AD113
:100C600002010001B65102017F5D036A006E00BE01
:100C70000306866F03C087F28A6B300E896F03C04C
:100C80008CF286C28BF20001F2DE02C081F201C05A
:100C900080F2010106A305D0B5C083F2B4C082F290
:100CA00004D0B8C083F2B7C082F2020183BF05D07E
:100CB000835309E18251000806E30001CBBB01D058
:100CC000F9D005D002010001CBAB01D0F3D0020175
:100CD000805182250001B46F0201815183210001FE
:100CE000B56FB5BF01D06CD0CBBB28D08272CB8B97
:100CF000B41D0201866F0001B51D0201876F862BAE
:100D0000D8B4872B87C28AF286C289F28C6B180E00
:100D10008B6F00016FDE02C088F201C087F202C053
:100D20008AF201C089F202018C6B0A0E8B6F0001FE
:100D30009EDE02C085F201C084F225D0B41D0201FE
:100D4000866F0001B51D0201876F862BD8B4872BF3
:100D500087C28AF286C289F28C6B180E8B6F0001F3
:100D600049DE02C088F201C087F202C08AF201C0E7
:100D700089F202018C6B040E8B6F00013BDE02C016
:100D800085F201C084F2B5AF08D0B551FE080AE281
:100D9000FF0A03E1B451880805E2FF0EB56F880E23
:100DA000B46F0DD0B5AF0BD0B551E30808E303E144
:100DB000B451DF0804E3E30EB56FE00EB46F56D014
:100DC000CBAB1FD08272CB9BB5C08AF2B4C089F284
:100DD00002018C6B180E8B6F00010CDE02C087F2D3
:100DE00001C086F202C08AF201C089F202018C6B56
:100DF0000A0E8B6F00013BDE02C085F201C084F257
:100E00001CD0B5C08AF2B4C089F202018C6B180EF6
:100E10008B6F0001EFDD02C087F201C086F202C0D5
:100E20008AF201C089F202018C6B040E8B6F000103
:100E3000E1DD02C085F201C084F2B5BF05D0B55333
:100E400007E1B451770804E3B56B780EB46F0ED0A8
:100E5000B5BF0CD0B5511B0809E2FF0A03E1B4513C
:100E6000200804E21C0EB56F200EB46F020185BF8E
:100E700007D08551010818E303E184518F0814E37A
:100E800085C202F084C201F0023201320232013224
:100E9000023201C0BEFF02320230300B006EBD5084
:100EA000CF0B0010BD6E05D0640EBE6EBD50CF0BD3
:100EB000BD6E0001000C02017F5303E001010A8DA9
:100EC00002D001010A9D00011ADC000C02017F53CF
:100ED00003E001010A8102D001010A9100010FDC47
:100EE000000C02017F5303E001010A8302D00101DB
:100EF0000A93000104DC000CCBDD036A685045EC6A
:100F000002F0016E01C07CF269C07DF202017D51E8
:100F1000100804E27E81080E7D5F01D07E91D8909A
:100F20007D31766F036A7651000145EC02F0016E67
:100F300001C079F2020176517D5D036A000145EC42
:100F400002F0016E01C07AF26AC07DF202017D51A9
:100F5000100804E27E83080E7D5F01D07E93D89056
:100F60007D31766F036A7651000145EC02F0016E27
:100F700001C077F2020176517D5D036A000145EC04
:100F800002F0016E01C078F2036A6B5045EC02F08A
:100F9000016E01C07BF20201766B76512F080FE3E0
:100FA0007C357737783779377A377B377C3702E388
:100FB000818A01D0819A81888198762BEED7010EA3
:100FC0007F6F000178DF02017F6B000174DF020197
:100FD0007EA105D07F6B000179DF05D00201010EF3
:100FE0007F6F000173DF02017EA305D07F6B0001DC
:100FF00078DF05D00201010E7F6F000172DF010171
:1010000006890201766B765103080FE3036A765175
:10101000680FE96E000E0320EA6EEF5204E0010152
:101020000699020102D0762BEED7010106970695AC
:1010300006930001B3878F6B8E6B000C0201815306
:1010400003E001010A8702D001010A9700017FEC49
:1010500003F0000C02017B51060804E2000E016E51
:10106000026E73D00F0E7D177B177F6B7BC27EF2F3
:101070007E397F6F7E6BF00E7F177C517E137D5122
:101080007F13D8907B35036A780FE96E000E03203A
:10109000EA6E7DC2ECFFED527CC2EFFF010E816F64
:1010A0000001CCDF0400020E006E002EFED700000F
:1010B000000081980400020E006E002EFED7000092
:1010C00000000201816B0001B9DF0400060E006E12
:1010D000002EFED70201806B80510F0826E304002A
:1010E000020E006E002EFED7000000007FAF02D07F
:1010F000818A01D0819AD8907E377F3781A602D02D
:101100007E8101D07E910400020E006E002EFED77B
:101110000000000081880400020E006E002EFED741
:10112000000000008198802BD7D70400060E006EC7
:10113000002EFED7010E816F000180DF0F0E02012D
:101140007F177EC201F07FC202F00001000CA0DC1C
:10115000060E02017B6F77C07DF276C07CF2000143
:1011600079DF010E02017B6F73C07DF272C07CF2E9
:10117000000170DF020E02017B6F71C07DF270C052
:101180007CF2000167DF030E02017B6F75C07DF208
:1011900074C07CF200015EDF040E02017B6F6DC043
:1011A0007DF26CC07CF2000155DF050E02017B6F01
:1011B0006FC07DF26EC07CF200014CDF02017B6BE0
:1011C0008DC07DF28CC07CF2000144DF8C511F0B7E
:1011D0000201766F00018D51000B0201776F76538B
:1011E00005E1775303E10001CB8302D00001CB93EB
:1011F000000C02016191F2BE6181F29CF29EF2BE8E
:10120000FDD7F2CF62F2F29E5FC2A9FFA69CA69E16
:10121000A680A85062BFF28E606F61A102D0C00E9E
:10122000F21260C201F00001000C020171BF06D091
:1012300071511F0803E21F0E716F06D07151800AB1
:10124000600802E3E10E716F72BF06D072511F0891
:1012500003E21F0E726F06D07251800A600802E32B
:10126000E10E726F73BF06D073511F0803E21F0EA9
:10127000736F06D07351800A600802E3E10E736F4A
:1012800074BF06D074511F0803E21F0E746F06D09E
:101290007451800A600802E3E10E746F71511B27DC
:1012A0001BBF06D01B511F0803E21F0E1B6F04D08B
:1012B0001BBF01D001D01B6B72511C271CBF06D075
:1012C0001C511F0803E21F0E1C6F04D01CBF01D06D
:1012D00001D01C6B73511D271DBF06D01D511F0867
:1012E00003E21F0E1D6F04D01DBF01D001D01D6B86
:1012F00074511E271EBF06D01E511F0803E21F0E89
:101300001E6F04D01EBF01D001D01E6B839204005B
:10131000090E006E002EFED70000838071BF01D041
:1013200001D0839472BF01D001D0839673BF01D0E6
:1013300001D0839874BF01D001D0839A71BF07D0C8
:1013400072BF05D073BF03D074BF01D025D071BF69
:1013500001D002D0712B01D0838472BF01D002D0A2
:10136000722B01D0838673BF01D002D0732B01D0C2
:10137000838874BF01D002D0742B01D0838A8390FC
:101380000400060E006E002EFED783800400060EB9
:10139000006E002EFED7D2D783820400090E006EA5
:1013A000002EFED7000071BF04D07151000801E289
:1013B000839472BF04D07251000801E2839673BF18
:1013C00004D07351000801E2839874BF04D07451B3
:1013D000000801E2839A71BF03D0715100080FE346
:1013E00072BF03D0725100080AE373BF03D0735178
:1013F000000805E374BF30D0745100082DE271BFBE
:1014000005D07151000802E2710701D0838472BFD8
:1014100005D07251000802E2720701D0838673BFC3
:1014200005D07351000802E2730701D0838874BFAE
:1014300005D07451000802E2740701D0838A8390BA
:101440000400060E006E002EFED783800400060EF8
:10145000006E002EFED7BFD70400100E006E002EC7
:10146000FED70001000C020EEA6E760EE96EEF5018
:1014700011E00C0E016EBF0E006E0400002EFDD7B1
:10148000012EF9D7F70E006E002EFED700000400E3
:10149000EF2EEFD7000C0201715101012F132F53D2
:1014A00002E0829A949A0001000CA6B2FED7F2CF15
:1014B0007EF2F29E7BC2A9FFA69CA69EA680A850A3
:1014C00002017EBFF28E7C5D1DE0A198A0987BC2D8
:1014D000A9FF7CC2A8FFA69EA69CA6847D91F2BE11
:1014E0007D81F29CF29EF2BEFDD7550EA76EAA0E2C
:1014F000A76EA6827DA102D0C00EF212A1A8FED7CF
:10150000A198A6940001000C0201765304E008C1E2
:1015100079F209C17AF2010E7B6F030E7D6F560ED0
:101520007C6F000197DD736A726A010E02017B6FA6
:1015300073C07DF272C07CF200018CDD02C078F2D3
:1015400001C077F202017751560803E17851030890
:1015500006E0010108890681098507D00201010121
:10156000089908B702D0069109950201765317E051
:10157000010108510201795D06E0130E7B6F08C17D
:101580007CF2000192DF0101095102017A5D07E05E
:10159000140E7B6F09C17CF2000187DF020100019C
:1015A000000C0201746B726B716B8088829E819853
:1015B000736B73510F0805E3818800008198732BCA
:1015C000F8D70000838C959C736B73510F0805E36B
:1015D000818800008198732BF8D70000958C736B7D
:1015E00073510F080BE3818883BC02D0D89001D0DF
:1015F000D880713772378198732BF2D70000839CA3
:10160000959C736B7351070805E3818800008198EE
:10161000732BF8D70000828E958C7151000B756F7B
:1016200072C276F2755303E17651540801E0748377
:10163000726B716B828E80988198736B73510F08F7
:1016400005E3818800008198732BF8D70000838C14
:10165000959C736B73510F0805E381880000819896
:10166000732BF8D70000958C736B73510F080BE345
:10167000818883BC02D0D89001D0D880713772376E
:101680008198732BF2D70000839C959C736B7351E8
:10169000070805E3818800008198732BF8D70000C4
:1016A0008088958C7151FC0B756F72C276F2755300
:1016B00003E1765154080BE07151000B756F72C253
:1016C00076F2755303E17651540801E07485080EF3
:1016D0000001A26FB395020174C201F00001A8EFEE
:1016E0000CF00101086BE10E0201716F726F736FF4
:1016F000746F00019ADD010E0201766F0001B3DE06
:10170000000E016EC250C70B0110C26E0400200E05
:10171000006E002EFED700000000C284C2B4FED7C7
:10172000C4CF60F20201080E016EC250C70B011057
:10173000C26E0400200E006E002EFED700000000D6
:10174000C284C2B4FED7C4CF61F2100E016EC25083
:10175000C70B0110C26E0400200E006E002EFED7D3
:1017600000000000C284C2B4FED7C4CF62F2180EDB
:10177000016EC250C70B0110C26E0400200E006E35
:10178000002EFED700000000C284C2B4FED7C4CF32
:1017900063F21F0E716F726F736F746F000145DD1E
:1017A000010E0201766F00015EDE000E016EC25076
:1017B000C70B0110C26E0400200E006E002EFED773
:1017C00000000000C284C2B4FED7C4CF64F202019C
:1017D000080E016EC250C70B0110C26E0400200E2D
:1017E000006E002EFED700000000C284C2B4FED7F7
:1017F000C4CF65F2100E016EC250C70B0110C26E4D
:101800000400200E006E002EFED700000000C284EF
:10181000C2B4FED7C4CF66F2180E016EC250C70B19
:101820000110C26E0400200E006E002EFED70000D4
:101830000000C284C2B4FED7C4CF67F26051645DB9
:101840003F0804E26151655D3F0809E30101088B2F
:101850000987800E0201716F00011DDE02016251D5
:10186000665D3F0804E26351675D3F0809E30101DB
:10187000088D0987800E0201716F00010CDE0201E4
:10188000550E6C6FCC0E6B6FAA0E6A6F330E696FBC
:101890006CC270F26BC26FF26AC26EF269C26DF214
:1018A0007F6B00015BEC07F081980201686B685167
:1018B0001F080DE370356D376E376F37703702E3F1
:1018C000818A01D0819A81888198682BF0D7819A8A
:1018D000686B68510F0804E381888198682BF9D7F9
:1018E000706B6F6B6E6B6D6B819A686B68511F08C4
:1018F0000DE381B602D0D89001D0D8806D376E3715
:101900006F37703781888198682BF0D7010E7F6F11
:1019100000015BEC07F002017F6B00015BEC07F05C
:1019200001010689020169516D5D09E16A516E5D2F
:1019300006E16B516F5D03E16C51705D05E00101E3
:101940000887068109850201766B0001DDDD29D655
:1019500001C05FF202015FA50AD001010885068F70
:101960000983100E0201716F000195DD02015FA372
:101970000AD001010883068706930983100E02012D
:10198000716F000188DD010108B306D00001CB8D25
:10199000CB8F01010C6B0B6B130E02017B6F08C127
:1019A0007CF2000182DD140E02017B6F09C17CF222
:1019B00000017BDD0400000C01010A8500017FECC1
:1019C00003F0000C02015B6B5B5103080AE3036A3E
:1019D0005B51680FE96E000E0320EA6EEF6A5B2B25
:1019E000F3D70001CB81E00E8C17B38FE5DFB39BFB
:1019F000BE6A0101068B0001000C02015D6B3E0E08
:101A00000001916F700E906F010108A304D00201D4
:101A10005D8386D0010102015C6B5B6B8088829ED6
:101A200081980000818883AC01D05C898198000096
:101A3000818883AC01D05C8781980000818883AC69
:101A400001D05C8581980000818883AC01D05C83E3
:101A500081980000818883AC01D05C81819800006E
:101A6000818883AC01D05B8F81980000818883AC32
:101A700001D05B8D81980000818883AC01D05B8BA5
:101A800081980000818883AC01D05B898198000037
:101A9000818883AC01D05B8781980000818883AC0A
:101AA00001D05B8581980000818883AC01D05B8385
:101AB00081980000818883AC01D05B81819800000F
:101AC00081885E9183BC5E8181980000828E0000D7
:101AD0000000839C959C958C5CA902D0E00E5C1361
:101AE00029B31AD05EA116D05CAF08D05C51FB08B8
:101AF00011E2FF0A03E15B5190080CE25CBF07D0E2
:101B00005C51070807E303E15B51CF0803E3298336
:101B100003D001D05D8304D05CC291F05BC290F031
:101B200000019451905D986F95519159996F020100
:101B30002A510001985D9C6F02012B5100019959B7
:101B40009D6F99C02BF298C02AF2CBB304D001014B
:101B500006A917D00001020E9425016E000E9521F2
:101B6000036E0150905D9A6F035091599B6F020173
:101B70002987FE0E00019425966FFF0E9521976F21
:101B80002BD0020129A724D000019651905D9A6FB5
:101B9000975191599B6F9A5319E19B5317E19DBF40
:101BA00001D014D0962BD8B4972B95AF03D097AF14
:101BB0000AD002D097BF0AD09551975D07E303E1A1
:101BC0009451965D03E302012997000105D00201BB
:101BD00099C09BF098C09AF00201297929B901D0E7
:101BE00091D03E0E0001936F700E926F010108A517
:101BF00004D002015D8586D0010102015C6B5B6B44
:101C0000828E809881980000818883AC01D05C89A5
:101C100081980000818883AC01D05C8781980000A6
:101C2000818883AC01D05C8581980000818883AC79
:101C300001D05C8381980000818883AC01D05C81F5
:101C400081980000818883AC01D05B8F819800006F
:101C5000818883AC01D05B8D81980000818883AC42
:101C600001D05B8B81980000818883AC01D05B89B7
:101C700081980000818883AC01D05B878198000047
:101C8000818883AC01D05B8581980000818883AC1A
:101C900001D05B8381980000818883AC01D05B8197
:101CA0008198000081885E9183BC5E8181980000EC
:101CB000808800000000839C959C958C5CA902D0D4
:101CC000E00E5C1329B51AD05EA116D05CAF08D027
:101CD0005C51FB0811E2FF0A03E15B5190080CE242
:101CE0005CBF07D05C51070807E303E15B51CF08F5
:101CF00003E3298503D001D05D8504D05CC293F055
:101D00005BC292F05DC201F00001000C01010A9576
:101D100000017FEC03F0000C0201586B010108B3D5
:101D200002D008A104D000014DDEB8D001010001AD
:101D300064DE015210E0140E0201766F000133ECF4
:101D40000AF00201582B5851190802E20001A6D0EE
:101D50000101EDD70001B3B906D0CBB304D0010126
:101D600006A911D00001CBB902D0828201D08292A3
:101D7000CB8BFF0EB56F880EB46F02015A6B050E48
:101D8000596F63D00101000191AF03D095AF0AD024
:101D900002D095BF12D09151955D0FE303E19051B0
:101DA000945D0BE3CBB902D0828201D08292CB8BBF
:101DB000FF0EB56F880EB46F09D0CBB902D08292F6
:101DC00001D08282CB9BB56B780EB46F99C08AF23A
:101DD00098C089F202018C6B050E8B6F000137EC05
:101DE00005F002C05CF201C05BF202C08AF201C0E1
:101DF00089F202018C6B040E8B6F0001FAEC04F087
:101E000002C05DF201C05CF202C08AF201C089F238
:101E100002018C6B030E8B6F0001FAEC04F002C020
:101E20005AF201C059F2CBAB0FD05AC28AF259C252
:101E300089F2FF0E02018C6F8B6F000137EC05F009
:101E400002C05AF201C059F202015ABF01D003D0B8
:101E50005A6B596B0ED05ABF0CD05A51000809E288
:101E6000FF0A03E159512C0804E2010E5A6F2C0EAF
:101E7000596F00014BDF5AC202F059C201F0023221
:101E8000013202320132023201C0BEFF02320230A0
:101E9000300B006EBD50CF0B0010BD6E000C020168
:101EA000795303E001010A8B02D001010A9B000172
:101EB0007FEC03F0000C0201795303E001010A8971
:101EC00002D001010A9900017FEC03F0000C036AC3
:101ED000020177511A0FE96E000E0320EA6EEF52ED
:101EE0000BE0036A7751170FE96E000E0320EA6ECC
:101EF0007851EF5CD8B4B8D0036A7751170FE96E08
:101F0000000E0320EA6E78C2EFFF8198775305E157
:101F1000796B0001C4DF04D00201796B0001CBDFD3
:101F20000201772D02D0819A01D0818A818881981F
:101F3000036A7751170FE96E000E0320EA6EEFCFA8
:101F400079F279BF02D0819A01D0818A8188819803
:101F5000036A7751170FE96E000E0320EA6EEFCF88
:101F600079F279BD02D0819A01D0818A81888198E5
:101F7000036A7751170FE96E000E0320EA6EEFCF68
:101F800079F279BB02D0819A01D0818A81888198C7
:101F9000036A7751170FE96E000E0320EA6EEFCF48
:101FA00079F279B902D0819A01D0818A81888198A9
:101FB000036A7751170FE96E000E0320EA6EEFCF28
:101FC00079F279B702D0819A01D0818A818881988B
:101FD000036A7751170FE96E000E0320EA6EEFCF08
:101FE00079F279B502D0819A01D0818A818881986D
:101FF000036A7751170FE96E000E0320EA6EEFCFE8
:1020000079F279B302D0819A01D0818A818881984E
:10201000036A7751170FE96E000E0320EA6EEFCFC7
:1020200079F279B102D0819A01D0818A8188819830
:10203000775306E1010E796F000131DF05D002010F
:10204000010E796F000137DF0400090E006E002ECB
:10205000FED70000036A020177511A0FE96E000EE5
:102060000320EA6E010EEF6E0001000C01010791E2
:102070000793079509990201756B7551030821E3D0
:10208000036A7551610F016E020E032203C077F2DD
:10209000036A7551680FE96E000E0320EA6EEFCFF8
:1020A00078F277C2EAFF01C0E9FF78C2EFFF036A66
:1020B0007551680FE96E000E0320EA6EEF6A752B0A
:1020C000DCD700017CEC07F00201756B7551040848
:1020D0002CE3D8907535036A650F016E020E03225A
:1020E00003C077F2D8907535036A6C0FE96E000E65
:1020F0000320EA6EECCF03F0ED52EFCF78F277C217
:10210000EAFF01C0E9FF03C0ECFFED5278C2EFFF28
:10211000D8907535036A6C0FE96E000E0320EA6EE5
:10212000EC6AED52EF6A752BD1D777C070F276C0AA
:102130006FF2030E776ED60E766E8DC060F28CC095
:102140005FF200018D6B8C6B8C8DA7EC08F0CB835C
:102150000201716B380E016EC250C70B0110C26EC6
:102160000400200E006E002EFED700000000010EBD
:10217000726F72510808D8A015D1036A7151680FA7
:10218000E96E000E0320EA6E72C2EFFF00017CECE4
:1021900007F0036A02017151000109EC02F0016EBF
:1021A00001C073F271C277F273C278F290DE02015D
:1021B000722D06D0460E766F000133EC0AF0020154
:1021C000010E766F000133EC0AF0C284C2B4FED770
:1021D000C4CF74F20201010108A919D0010E020155
:1021E000766F000184EC0AF0010108B910D00001FB
:1021F000A7EC08F0010E0201766F000133EC0AF043
:10220000C284C2B4FED7C4CF74F202010101036AD2
:1022100002017151000118EC02F0016E0201745DBF
:1022200029E27307036A71510001EBEC01F0016EC2
:102230000201735D1EE371C277F273C278F200018E
:1022400046DE010E0201766F000133EC0AF0C28413
:10225000C2B4FED7C4CF74F20201036A7151000107
:1022600018EC02F0016E0201745D01E302D0730705
:10227000D9D734D0036A7151000127EC02F0016E06
:1022800002017451015C2AE2732B036A715100014F
:10229000FAEC01F0016E02017351015C1FE371C29F
:1022A00077F273C278F2000112DE010E0201766F3E
:1022B000000133EC0AF0C284C2B4FED7C4CF74F27A
:1022C0000201036A7151000127EC02F0016E020164
:1022D0007451015C01E302D0732BD7D7036A7151AB
:1022E0000001EBEC01F0016E0201735D1EE2715121
:1022F000190DF350776B766F036A72517625016E74
:102300007751032201501D0FE96E000E0320EA6E83
:10231000036A71510001EBEC01F0016E01C0EFFFA7
:102320000101078109893BD00201036A7151000153
:10233000FAEC01F0016E02017351015C1CE2715173
:10234000190DF350776B766F036A72517625016E23
:102350007751032201501D0FE96E000E0320EA6E33
:10236000036A71510001FAEC01F0016E01C0EFFF48
:10237000D7D714D002017151190DF350776B766FD6
:10238000036A72517625016E7751032201501D0FA9
:10239000E96E000E0320EA6E73C2EFFF0101020135
:1023A000722BE7D6010E726F725108080DE3036AB3
:1023B00072511D0FE96E000E0320EA6EEF503E08C9
:1023C00001E102D0722BF0D77251080803E33E0EF0
:1023D0001D6E0DD0776B25501E24786F000E77216F
:1023E000796FD8907931036E7831026E1D6E010ECF
:1023F000716F71510208D8A0E9D0712D08D0280E54
:10240000016EC250C70B0110C26E686A07D0300E51
:10241000016EC250C70B0110C26E696A0400200E23
:10242000006E002EFED700000000010E726F725188
:102430001808D8A0C9D0712D03D072C269F002D09B
:1024400072C26AF000017CEC07F00201722D0AD022
:10245000036A71510001FAEC01F0016E01C073F2E0
:1024600016D002017151190DF350776B766F010E82
:10247000725D036A7625016E7751032201501D0FAC
:10248000E96E000E0320EA6EEFCF73F20001036ADB
:10249000020171510001EBEC01F0016E0201735178
:1024A000015C4EE271C277F273C278F200010FDD77
:1024B000036A020171510001FAEC01F0016E0201A0
:1024C000735D08E1722D06D0460E766F000133EC85
:1024D0000AF00201010E766F000133EC0AF0C284AB
:1024E000C2B4FED7C4CF74F20201010108A919D009
:1024F000010E0201766F000184EC0AF0010108B9B7
:1025000010D00001A7EC08F0010E0201766F000167
:1025100033EC0AF0C284C2B4FED7C4CF74F2020115
:102520000101036A02017151000136EC02F0016EF3
:102530000201745D01E304D073070001A8D7020112
:10254000036A71510001EBEC01F0016E0201735D51
:102550001EE1036A7151000118EC02F0016E0201E4
:10256000745D0AE2712D03D00101078302D00101DD
:10257000078509890DD00201036A7151000127EC1A
:1025800002F0016E02017451015C01E2EBD701011E
:1025900002017151190DF350776B766F036A725116
:1025A0007625016E7751032201501D0FE96E000E52
:1025B0000320EA6E73C2EFFF7251080803E1715302
:1025C00001E102D0722B33D7712B13D7776B4E50AA
:1025D0003724786F000E7721796FD8907931036EA8
:1025E0007831026E366E776B67505024786F000E2C
:1025F0007721796FD8907931036E7831026E4F6E02
:10260000756B7551030819E3036A7551680F016E04
:10261000000E032203C077F2036A7551610FE96E61
:10262000020E0320EA6EEFCF78F277C2EAFF01C014
:10263000E9FF78C2EFFF752BE4D7036A68501D0FDE
:10264000E96E000E0320EA6EEFCF76F2776B76C26A
:1026500078F200013CDC036A6950190F016E000E2C
:10266000032201501D0FE96E000E0320EA6EEFCF2A
:1026700076F2010E0201776F76C278F2000127DC54
:10268000036A6A50320F016E000E032201501D0FC3
:10269000E96E000E0320EA6EEFCF76F2020E020121
:1026A000776F76C278F2000112DC7CEC07F0020151
:1026B000756B7551040821E3D8907535036A6C0F6A
:1026C000016E000E032203C077F2D8907535036ABD
:1026D000650FE96E020E0320EA6EECCF03F0ED52B7
:1026E000EFCF78F277C2EAFF01C0E9FF03C0ECFF49
:1026F000ED5278C2EFFF752BDCD770C277F06FC256
:1027000076F060C28DF05FC28CF00001A7EC08F09B
:10271000000C020E02015F6F0001F9EC08F001C02D
:1027200066F10101665302E0663D73D0030E0201BB
:102730007B6F500E7C6F000155EC0AF0040E020115
:102740007B6F500E7C6F000155EC0AF0050E020104
:102750007B6F500E7C6F000155EC0AF0500E0101AA
:10276000666F676F686F696F060E02017B6FD20E2E
:102770007C6F000155EC0AF0070E02017B6FD20E50
:102780007C6F000155EC0AF0080E02017B6FD20E3F
:102790007C6F000155EC0AF0090E02017B6FD20E2E
:1027A0007C6F000155EC0AF0D20E01016A6F6B6F6D
:1027B0006C6F6D6F0A0E02017B6F030E7C6F000160
:1027C00055EC0AF00B0E02017B6F030E7C6F0001CB
:1027D00055EC0AF00C0E02017B6F030E7C6F0001BA
:1027E00055EC0AF00D0E02017B6F030E7C6F0001A9
:1027F00055EC0AF0030E0201586F596F5A6F5B6F68
:10280000020E7B6F500E7C6F000155EC0AF059D020
:102810000101030E02015F6F0001F9EC08F001C035
:1028200067F1040E02015F6F0001F9EC08F001C0CE
:1028300068F1050E02015F6F0001F9EC08F001C0BC
:1028400069F1060E02015F6F0001F9EC08F001C0AA
:102850006AF1070E02015F6F0001F9EC08F001C098
:102860006BF1080E02015F6F0001F9EC08F001C086
:102870006CF1090E02015F6F0001F9EC08F001C074
:102880006DF10A0E02015F6F0001F9EC08F001C062
:1028900058F20B0E02015F6F0001F9EC08F001C065
:1028A00059F20C0E02015F6F0001F9EC08F001C053
:1028B0005AF20D0E02015F6F0001F9EC08F001C041
:1028C0005BF20201146B156B1B6B1C6B1D6B1E6B9B
:1028D000E10E716F726F736F746F000115EC09F088
:1028E00058C271F259C272F25AC273F25BC274F2E8
:1028F00015EC09F09CEF15F00201626B636B6151FE
:102900006107000A0EE060C203F05F515F2BD8B48C
:10291000602BE96E03C0EAFFEF506227000E6323CD
:10292000EED763C264F2656B62C200F06351000BC4
:10293000036E62516325626F03506521636F6351BB
:10294000036A62270350632363C203F0031E6251CC
:10295000FF0A016E0001000CC190C192C194C196A2
:102960002F0E926EC80E936E390E946EC00E956E39
:10297000968096829684100E806E040E816ED80E1C
:10298000826E3F0E836E846AF18EB6EF03F0C19CB7
:10299000C28CC28EC19EC280000E016EC250C70B97
:1029A0000110C26E0101B66B0D8BC00ED56E830E89
:1029B000CD6EB70EB1168B940C0EBD6E000E016E6F
:1029C0000409CA6E630ECB6EBE6AB150480BB509DE
:1029D000B16ECC0E0201596FCD0E586F000100EFA1
:1029E00004F00101B06BC60EAF6F0201596B0D0E02
:1029F000586FCC0E5B6FCD0E5A6F000190EF04F054
:102A000001010D93B36B020E0001956F800E946F60
:102A1000FF0EA46FE80EA36FA66B180EA56FA86B30
:102A2000A00EA76F030EAA6F240EA96FFF0EAC6F46
:102A3000E00EAB6FAE6B200EAD6FB06B500EAF6F94
:102A4000030EB26F730EB16F9F6B200E9E6FFF0E61
:102A5000A16FE00EA06FB391B383B56BB46BB38B72
:102A6000B395CB91B39DB39F0101076B066B06979E
:102A7000069506930001B3878F6B8E6BB389B3877E
:102A8000080EA26F0101096B0001CB9701010D91A6
:102A90000001D0EF04F07CEC07F0A7EC08F0CB8548
:102AA000120E02015F6F0001F9EC08F001B003D0D3
:102AB0000201519102D002015181110E5F6F00019C
:102AC000F9EC08F001B002D0CB9901D0CB8902011A
:102AD00051B104D0D0A202D0D0B005D0000171EC29
:102AE0000BF013D00201130E5F6F0001F9EC08F038
:102AF00001C008F1140E02015F6F0001F9EC08F04B
:102B000001C009F1CB9D8CEC0EF0D0A202D0D0B068
:102B10000DD0800E176E010E1A6E800E186E010E0B
:102B20001B6E800E196E010E1C6E03D01A6A1B6A92
:102B30001C6A36EC10F0EDD5FE0E02015F6F00014D
:102B4000F9EC08F001C022F10101223D01D0226B15
:102B5000222D01D0D8D02253D8A4D5D0176B010E86
:102B6000166F150E02017B6F010E7C6F000155EC94
:102B70000AF0160E02017B6F7C6B000155EC0AF027
:102B8000900E0101186F18C119F12B0E02017B6F15
:102B900018C17CF2000155EC0AF00201536B53514D
:102BA00003080AE3036A53511D0FE96E010E032067
:102BB000EA6EEF6A532BF3D7010E606F1D0E5F6F45
:102BC000040E616F000198DE01C021F101010F6B5D
:102BD0000E6B116B106B170E02017B6F7C6B00018B
:102BE00055EC0AF0180E02017B6F7C6B000155EC6E
:102BF0000AF0190E02017B6F7C6B000155EC0AF0A4
:102C00001A0E02017B6F7C6B000155EC0AF01B0E63
:102C100002017B6F21C17CF2000155EC0AF01C0E11
:102C200002017B6F7C6B000155EC0AF01D0E020166
:102C30007B6F7C6B000155EC0AF01E0E02017B6F6E
:102C40007C6B000155EC0AF01F0E02017B6F7C6B60
:102C5000000155EC0AF0200E02017B6F21C17CF2CD
:102C6000000155EC0AF00101136B126B156B146B2C
:102C7000210E02017B6F7C6B000155EC0AF0220EE5
:102C800002017B6F7C6B000155EC0AF0230E020100
:102C90007B6F7C6B000155EC0AF0240E02017B6F08
:102CA0007C6B000155EC0AF0250E02017B6F21C1FF
:102CB0007CF2000155EC0AF0260E02017B6F7C6B62
:102CC000000155EC0AF0270E02017B6F7C6B0001BE
:102CD00055EC0AF0280E02017B6F7C6B000155EC6D
:102CE0000AF0290E02017B6F7C6B000155EC0AF0A3
:102CF0002A0E02017B6F21C17CF2000155EC0AF023
:102D0000C4EF1AF00101160E02015F6F0001F9EC29
:102D100008F00201596B01C058F201C05BF25A6B16
:102D2000150E5F6F0001F9EC08F0036A0150020113
:102D30005A110101166F035002015B110101176F57
:102D40002B0E02015F6F0001F9EC08F001C018F1D1
:102D50000101185104080BE3050E186F2B0E020138
:102D60007B6F18C17CF2000155EC0AF0010118C11B
:102D700019F1180E02015F6F0001F9EC08F0020171
:102D8000596B01C058F201C05BF25A6B170E5F6FAE
:102D90000001F9EC08F0036A015002015A11546F66
:102DA00003505B11556F1A0E5F6F0001F9EC08F0CC
:102DB0000201596B01C058F201C05BF25A6B190E47
:102DC0005F6F0001F9EC08F0036A015002015A112B
:102DD000566F03505B11576F1B0E5F6F0001F9ECCC
:102DE00008F001C021F11D0E02015F6F0001F9EC36
:102DF00008F00201596B01C058F201C05BF25A6B36
:102E00001C0E5F6F0001F9EC08F0036A015002012B
:102E10005A1101010E6F035002015B1101010F6F86
:102E20001F0E02015F6F0001F9EC08F00201596BFF
:102E300001C058F201C05BF25A6B1E0E5F6F0001B9
:102E4000F9EC08F0036A015002015A110101106FF8
:102E5000035002015B110101116F200E02015F6F2F
:102E60000001F9EC08F001C052F254C21DF155C244
:102E70001EF156C21FF157C220F1010E0201606F10
:102E80001D0E5F6F040E616F000136DD0150010100
:102E9000215D03E00201519302D0020151830EC172
:102EA0001DF10FC11EF110C11FF111C120F1010E62
:102EB000606F1D0E5F6F040E616F00011DDD01501C
:102EC0000201525D02E0519501D0518551A389D094
:102ED00051A587D001010F510201555D08E31FE1A3
:102EE000545101010E5DD8B002D0020118D0010189
:102EF0000E510201545D4CE101010F510201555D7B
:102F000047E1010111510201575D42E308E15651C9
:102F10000101105DD8A002D002013AD0020155C2D1
:102F20000FF154C20EF157C211F156C210F10EC189
:102F30001DF10FC11EF110C11FF111C120F11C0EB6
:102F40007B6F1DC17CF2000155EC0AF01D0E0201E1
:102F50007B6F1EC17CF2000155EC0AF01E0E0201CF
:102F60007B6F1FC17CF2000155EC0AF01F0E0201BD
:102F70007B6F20C17CF2000155EC0AF0200E0201AB
:102F80007B6F21C17CF2000155EC0AF028D00201D0
:102F9000170E7B6F1DC17CF2000155EC0AF0180E74
:102FA00002017B6F1EC17CF2000155EC0AF0190E84
:102FB00002017B6F1FC17CF2000155EC0AF01A0E72
:102FC00002017B6F20C17CF2000155EC0AF01B0E60
:102FD00002017B6F52C27CF2000155EC0AF0CDD0A9
:102FE000020151A339D055C20FF154C20EF157C29C
:102FF00011F156C210F10EC11DF10FC11EF110C129
:103000001FF111C120F11C0E7B6F1DC17CF200016C
:1030100055EC0AF01D0E02017B6F1EC17CF200010F
:1030200055EC0AF01E0E02017B6F1FC17CF20001FD
:1030300055EC0AF01F0E02017B6F20C17CF20001EB
:1030400055EC0AF0200E02017B6F21C17CF20001D9
:1030500055EC0AF092D0020151A529D0170E7B6FD2
:103060001DC17CF2000155EC0AF0180E02017B6FC5
:103070001EC17CF2000155EC0AF0190E02017B6FB3
:103080001FC17CF2000155EC0AF01A0E02017B6FA1
:1030900020C17CF2000155EC0AF01B0E02017B6F8F
:1030A00052C27CF2000155EC0AF067D00201010126
:1030B0000F6B0E6B116B106B0201536B53510308B6
:1030C0000AE3036A53511D0FE96E010E0320EA6EF5
:1030D000EF6A532BF3D7010E606F1D0E5F6F040E66
:1030E000616F000109DC01C021F1170E02017B6F45
:1030F0007C6B000155EC0AF0180E02017B6F7C6BB3
:10310000000155EC0AF0190E02017B6F7C6B000187
:1031100055EC0AF01A0E02017B6F7C6B000155EC36
:103120000AF01B0E02017B6F21C17CF2000155ECFD
:103130000AF01C0E02017B6F7C6B000155EC0AF05B
:103140001D0E02017B6F7C6B000155EC0AF01E0E18
:1031500002017B6F7C6B000155EC0AF01F0E02012F
:103160007B6F7C6B000155EC0AF0200E02017B6F37
:1031700021C17CF2000155EC0AF0220E02015F6FC2
:103180000001F9EC08F00201596B01C058F201C0CE
:103190005BF25A6B210E5F6F0001F9EC08F0036AD5
:1031A000015002015A11546F03505B11556F240EE8
:1031B0005F6F0001F9EC08F00201596B01C058F291
:1031C00001C05BF25A6B230E5F6F0001F9EC08F04F
:1031D000036A015002015A11566F03505B11576F79
:1031E000250E5F6F0001F9EC08F001C021F1270EF8
:1031F00002015F6F0001F9EC08F00201596B01C098
:1032000058F201C05BF25A6B260E5F6F0001F9ECB9
:1032100008F0036A015002015A110101126F0350B4
:1032200002015B110101136F290E02015F6F0001A2
:10323000F9EC08F00201596B01C058F201C05BF2D1
:103240005A6B280E5F6F0001F9EC08F0036A015019
:1032500002015A110101146F035002015B110101B7
:10326000156F2A0E02015F6F0001F9EC08F001C032
:1032700052F254C21DF155C21EF156C21FF157C27F
:1032800020F1010E0201606F1D0E5F6F040E616F71
:1032900000017CEC14F001500101215D03E002010A
:1032A000519302D00201518312C11DF113C11EF1CD
:1032B00014C11FF115C120F1010E606F1D0E5F6F6B
:1032C000040E616F00017CEC14F001500201525DAC
:1032D00002E0519501D0518551A389D051A587D0E5
:1032E000010113510201555D08E31FE15451010131
:1032F000125DD8B002D0020118D0010112510201B2
:10330000545D4CE1010113510201555D47E101019A
:1033100015510201575D42E308E156510101145D68
:10332000D8A002D002013AD0020155C213F154C212
:1033300012F157C215F156C214F112C11DF113C199
:103340001EF114C11FF115C120F1260E7B6F1DC1A6
:103350007CF2000155EC0AF0270E02017B6F1EC1C2
:103360007CF2000155EC0AF0280E02017B6F1FC1B0
:103370007CF2000155EC0AF0290E02017B6F20C19E
:103380007CF2000155EC0AF02A0E02017B6F21C18C
:103390007CF2000155EC0AF028D00201210E7B6F6F
:1033A0001DC17CF2000155EC0AF0220E02017B6F78
:1033B0001EC17CF2000155EC0AF0230E02017B6F66
:1033C0001FC17CF2000155EC0AF0240E02017B6F54
:1033D00020C17CF2000155EC0AF0250E02017B6F42
:1033E00052C27CF2000155EC0AF0CED0020151A38A
:1033F00039D055C213F154C212F157C215F156C259
:1034000014F112C11DF113C11EF114C11FF115C138
:1034100020F1260E7B6F1DC17CF2000155EC0AF0F5
:10342000270E02017B6F1EC17CF2000155EC0AF0F1
:10343000280E02017B6F1FC17CF2000155EC0AF0DF
:10344000290E02017B6F20C17CF2000155EC0AF0CD
:103450002A0E02017B6F21C17CF2000155EC0AF0BB
:1034600093D0020151A529D0210E7B6F1DC17CF2A2
:10347000000155EC0AF0220E02017B6F1EC17CF2A6
:10348000000155EC0AF0230E02017B6F1FC17CF294
:10349000000155EC0AF0240E02017B6F20C17CF282
:1034A000000155EC0AF0250E02017B6F52C27CF23E
:1034B000000155EC0AF068D002010101136B126B98
:1034C000156B146B0201536B535103080AE3036A33
:1034D00053511D0FE96E010E0320EA6EEF6A532B64
:1034E000F3D7010E606F1D0E5F6F040E616F000158
:1034F0007CEC14F001C021F1210E02017B6F7C6B8A
:10350000000155EC0AF0220E02017B6F7C6B00017A
:1035100055EC0AF0230E02017B6F7C6B000155EC29
:103520000AF0240E02017B6F7C6B000155EC0AF05F
:10353000250E02017B6F21C17CF2000155EC0AF0DF
:10354000260E02017B6F7C6B000155EC0AF0270E02
:1035500002017B6F7C6B000155EC0AF0280E020122
:103560007B6F7C6B000155EC0AF0290E02017B6F2A
:103570007C6B000155EC0AF02A0E02017B6F21C121
:103580007CF2000155EC0AF001011A6B1C6B1B6BFD
:103590000001D2EF33F051C2BBF052C2BCF053C2B3
:1035A000BDF054C2BEF055C2BFF0EA6AC00EE96E6B
:1035B00057C2E2FF56C2E1FFE752E6CFEEFFFCE161
:1035C00058C2C6F0E3EF33F051C2C7F052C2C8F0A0
:1035D00053C2C9F054C2CAF0EFEF33F00101236BBC
:1035E000256B246B010E2D6F310E2C6F2B6B2A6B0C
:1035F000296B286B30931E0E016E010EEA6E310EA0
:10360000E96EEE6A012EFDD72F6B948A0001000C43
:10361000360EC66E51C2C8FFC78C01013091000141
:10362000DDDFF5EF33F0016A026A006A036A020126
:10363000645102E1635118E0100E656FD890613754
:103640006237003603366451035C02E16351005C6B
:1036500007E36351005ED8A003066451035ED8807F
:1036600001360236652FEAD700000001000C020186
:103670006151FF0A01012F172F5301E1948A0001C4
:10368000000C180E0201626F290E616FB0C164F266
:10369000AFC163F20001C7DF02C019F201C018F226
:1036A0000201176B166B01010D9D0D9F170EAD6F7B
:1036B000FF0EAE6F02015F6B5F5103083AE3036ACE
:1036C0005F516E0FE96E010E0320EA6EEF6A036A26
:1036D0005F518E0FE96E010E0320EA6EEF6A036AF6
:1036E0005F51920FE96E010E0320EA6EEF6A036AE2
:1036F0005F51960FE96E010E0320EA6EEF6A036ACE
:103700005F519A0FE96E010E0320EA6EEF6A036AB9
:103710005F519E0FE96E010E0320EA6EEF6A036AA5
:103720005F51A20FE96E010E0320EA6EEF6A5F2B74
:10373000C3D766C172F101016651F30804E30C0EB0
:103740006625766F02D0FF0E766F67510B0804E294
:103750000C0E675D736F01D0736B67C177F168C141
:1037600074F16851E30804E31C0E6825786F02D0F9
:10377000FF0E786F69511B0804E21C0E695D756FBE
:1037800001D0756B69C179F179C185F177C183F198
:1037900002015F6B5F5103081BE3036A5F517A0FFD
:1037A000E96E010E0320EA6EFF0EEF6E036A5F51B1
:1037B0007E0FE96E010E0320EA6EEF6A036A5F5125
:1037C000860FE96E010E0320EA6EEF6A5F2BE2D7E7
:1037D000116B126B136B040E016E010EEA6EA80ED4
:1037E000E96EEE6A012EFDD70101A66BA76BB26BE5
:1037F000300EB317AC6BCF6ACE6A9E9002010F6B8E
:10380000106B6091F2BE6081F29CF29EF2BEFDD719
:10381000040E616F00012BDF200E0201616F0001B9
:1038200026DF800E0201616F000121DF020160A12D
:1038300002D0C00EF2120001000C5FC228F101019B
:10384000285302E1259B01D0258B0001000CF29C3E
:10385000F29EF2BEFDD7C2DEFF0075EF23F02FC14E
:10386000DAF028C1DBF029C1DCF05FC2DDF075EFD2
:1038700023F002015FA108D00A0E7B6F1BC27CF20D
:10388000000155EC0AF002015FA308D00B0E7B6F1C
:103890001CC27CF2000155EC0AF002015FA508D0C1
:1038A0000C0E7B6F1DC27CF2000155EC0AF0020188
:1038B0005FA708D00D0E7B6F1EC27CF2000155EC95
:1038C0000AF00201000175EF23F00201536B0101C0
:1038D00025A189EF23F002015F6B0001AEDFCC511F
:1038E0003F0B0201516F51510E0802E20E0E516F53
:1038F0000001CD51070AD8B4B8D00F0AD8B4B7D058
:10390000060AD8B4BAD01E0AD8B4BBD0190AD8B4A3
:10391000CCD0090AD8B4D7D0030AD8B4E5D0020A6B
:10392000D8B405D1030AD8B403D1080AD8B40BD14E
:10393000010AD8B424D10D0AD8B42DD1170AD8B4AD
:1039400045D1920AD8B467D1500AD8B46BD1070ACE
:10395000D8B46CD1010AD8B46FD1030AD8B470D1ED
:10396000460AD8B475D1010AD8B4DFD1030AD8B455
:10397000F9D1010AD8B4E2D2070AD8B4F0D2010AC8
:10398000D8B42DD3030AD8B43BD3010AD8B443D357
:10399000170AD8B443D3070AD8B44ED30E0AD8B402
:1039A0005ED3080AD8B462D3F00AD8B45FD3F30A5E
:1039B000D8B466D3070AD8B471D3F00AD8B46ED39A
:1039C000F30AD8B484D30C0AD8B4D8EF20F0020A92
:1039D000D8B4DAEF20F00C0AD8B4EBEF20F00A0AE2
:1039E000D8B4F4EF20F0010AD8B418EF21F0040A9B
:1039F000D8B43FEF21F0070AD8B466EF21F0010AEE
:103A0000D8B48DEF21F05A0AD8B4B4EF21F0050AEA
:103A1000D8B4C5EF21F00A0AD8B4DCEF21F0080AC7
:103A2000D8B419EF22F0010AD8B41FEF22F0080A27
:103A3000D8B425EF22F0030AD8B42AEF22F0010A05
:103A4000D8B43DEF22F0070AD8B446EF22F0010ABD
:103A5000D8B4CDEF22F0030AD8B4D6EF22F0010A91
:103A6000D8B45DEF23F06EEF23F075EF23F071EC27
:103A70000BF008C1DAF075EF23F008C1DAF075EF4A
:103A800023F0CE5309E0120E02017B6F010E7C6F12
:103A9000000155EC0AF007D0120E02017B6F7C6B1F
:103AA000000155EC0AF075EF23F0EA6ADA0EE96ED0
:103AB000E26AF80EE16E1E0E016EE6CFEEFF012EF9
:103AC000FCD775EF23F0EA6ADA0EE96EE26ACE0EF1
:103AD000E16E02015151016E04E0E6CFEEFF012ECE
:103AE000FCD7000175EF23F0CE51010A03E0030A71
:103AF0000EE01AD0EA6ADA0EE96EE26ABB0EE16EF7
:103B00000C0E016EE6CFEEFF012EFCD70ED0EA6A56
:103B1000DA0EE96EE26AC70EE16E040E016EE6CFC0
:103B2000EEFF012EFCD701D000D075EF23F08FD629
:103B30001E0E016EEA6ADA0EE96EEE6A012EFDD7FC
:103B400006C15FF28CD6CEC058F2CFC059F258C22F
:103B5000A9FF59C2A8FFA69CA69EA684F2CF00F09A
:103B6000F29E0F01550EA76EAA0EA76EA682A6B2F0
:103B7000FED7A6940050F212000175EF23F0CEC0DC
:103B800058F258C25FF2F9EC08F001C059F259C27C
:103B9000DAF075EF23F002015A91F2BE5A81F29CDD
:103BA000F29EF2BEFDD70001CE5305E0CFC071F208
:103BB0004BEC0AF003D0CFC061F259DD02015AA1EB
:103BC00002D0C00EF212000175EF23F0CE35006E68
:103BD00000360036F80E0016C250C70B0010C26E39
:103BE0000400200E006E002EFED700000000C284EC
:103BF000C2B4FED7C4CFDAF00101B635006E00368C
:103C00000036F80E0016C250C70B0010C26E0D8BA6
:103C1000000175EF23F006C1DAF0000107C1DBF007
:103C200075EF23F00AC1DAF075EF23F0CEC00AF188
:103C30007FEC03F075EF23F036EC10F075EF23F016
:103C4000CEC077F2CFC078F267EC0FF075EF23F0BB
:103C5000CECFDBF0CFCFDAF002010F535DE05B6B2C
:103C60005E6B030E5C6F01012A5D0201526F5251BF
:103C7000040829E20F515B5D26E2050E5D6F5D5180
:103C8000525F5E2B5D515D07000A1CE05C515C2BAE
:103C9000036ADA0F016E000E032201C060F203C056
:103CA00061F25B515B2B036ABF0FE96E010E0320CB
:103CB000EA6EEFCF63F261C2EAFF01C0E9FF63C2BF
:103CC000EFFFE0D7D4D75EC2DCF00101B3510001B1
:103CD000DD1302015B510F5F526B5B514F081BE319
:103CE000036A5251BF0F016E010E032203C060F23E
:103CF000036A5B51BF0FE96E010E0320EA6EEFCF3E
:103D000061F260C2EAFF01C0E9FF61C2EFFF5251F8
:103D1000522B5B2BE2D706D0010E0001DC6FB3C142
:103D2000DDF00001000175EF23F00201606BCFC0F0
:103D300062F2616B036A0001CE510201611101015F
:103D4000AF6F0350020162110101B06FAF5305E183
:103D5000B05303E1B06B010EAF6F0D83000191DC36
:103D600075EF23F001010D93020110511508D8B031
:103D7000E0D00101B2510208D8A46DD0200E782500
:103D80000201155D17E016E31539006E0F0E0016DF
:103D90000050155D526F01016C510201525D0AE243
:103DA00052C26CF1080E7B6F52C27CF2000155ECDE
:103DB0000AF00201040E5F6F0001F9EC08F001C087
:103DC00052F20C0E020152250101685D01E006E28B
:103DD0000C0E0201525D0101685D13E2D8900201F0
:103DE00052315F6FD8900101683102015F255B6F2E
:103DF000040E7B6F5BC27CF2000155EC0AF05BC2E3
:103E000068F1050E02015F6F0001F9EC08F001C0D6
:103E100052F20C0E020152250101695D01E006E239
:103E20000C0E0201525D0101695D14E2D89002019D
:103E300052315F6FD8900101693102015F255B6FDC
:103E4000050E7B6F5BC27CF2000155EC0AF05BC291
:103E500069F101016ED0B22D6CD0200E76250201E1
:103E6000145D17E016E31439006E0F0E00160050B3
:103E7000145D526F01016A510201525D0AE252C2A1
:103E80006AF1060E7B6F52C27CF2000155EC0AF01B
:103E90000201020E5F6F0001F9EC08F001C052F25E
:103EA0000C0E020152250101665D01E006E20C0ED6
:103EB0000201525D0101665D13E2D89002015231A8
:103EC0005F6FD8900101663102015F255B6F020EC2
:103ED0007B6F5BC27CF2000155EC0AF05BC266F1BD
:103EE000030E02015F6F0001F9EC08F001C052F20D
:103EF0000C0E020152250101675D01E006E20C0E85
:103F00000201525D0101675D14E2D8900201523155
:103F10005F6FD8900101673102015F255B6F030E6F
:103F20007B6F5BC27CF2000155EC0AF05BC267F16B
:103F30000101000141EC1BF075EF23F00101B651C6
:103F4000030802E389EF23F0B7C1DAF0B8C1DBF070
:103F5000B9C1DCF0BAC1DDF0000175EF23F0020E4B
:103F600002017B6FCEC07CF2000155EC0AF0030E1B
:103F700002017B6FCFC07CF2000155EC0AF0040E09
:103F800002017B6FD0C07CF2000155EC0AF0050EF7
:103F900002017B6FD1C07CF2000155EC0AF0060EE5
:103FA00002017B6FD2C07CF2000155EC0AF0070ED3
:103FB00002017B6FD3C07CF2000155EC0AF0080EC1
:103FC00002017B6FD4C07CF2000155EC0AF0090EAF
:103FD00002017B6FD5C07CF2000155EC0AF0CEC027
:103FE00066F1CFC067F1D0C068F1D1C069F1D2C02D
:103FF0006AF1D3C06BF1D4C06CF1D5C06DF175D34B
:10400000CEC071F2CFC072F2D0C073F2D1C074F2E0
:1040100015EC09F06AD3CEC05FF22BD4CEA103D049
:104020000F0E8C1302D0F00E8C17CEA302D08C8909
:1040300001D08C99B38F59D30201606BCFC062F26B
:10404000616B036A0001CE510201611100018C6FA6
:1040500003500201621100018D6FB38F46D3CE531E
:1040600002E08D8301D08D93B38F3FD3D0C068F031
:10407000D2C069F0CEC06AF0CFC06BF0CB8135D32F
:10408000EA6A6C0EE96EE26ACE0EE16E0C0E016E0B
:10409000E6CFEEFF012EFCD7B38D27D3CE51000A19
:1040A00007E0010A08E0030A09E0010A0AE00CD06F
:1040B000CFC06AF00AD0CFC06BF007D0CFC068F095
:1040C00004D0CFC069F001D000D0CB810ED3CEC0D8
:1040D00053F20201606BD0C062F2616B036A0001AF
:1040E000CF5102016111546F03506211556FD89086
:1040F0005335036A6C0FE96E000E0320EA6E55C259
:10410000ECFFED5254C2EFFF5351000A00010BE0E7
:10411000010A14E0030A1DE0010A26E0070A2FE065
:10412000010A38E042D0040E02017B6F6DC07DF2BF
:104130006CC07CF200012AEC08F038D0050E0201B8
:104140007B6F6FC07DF26EC07CF200012AEC08F03C
:104150002DD0020E02017B6F71C07DF270C07CF227
:1041600000012AEC08F022D0010E02017B6F73C01F
:104170007DF272C07CF200012AEC08F017D0030E29
:1041800002017B6F75C07DF274C07CF200012AECE5
:1041900008F00CD0060E02017B6F77C07DF276C06E
:1041A0007CF200012AEC08F001D000D0B38F9DD240
:1041B000B38D9BD29151000B036E90C0DAF09151F8
:1041C000036ADB6F9351000B036E92C0DCF09351D6
:1041D000036ADD6F8AD29551000B036E94C0DAF04A
:1041E0009551036ADB6F81D20201606BCFC062F22E
:1041F000616B036A0001CE5102016111006E035030
:104200006211036E00C056F203C057F257C295F018
:1042100056C294F0000186EC0EF0B38B0101069BB0
:104220000697069506930001B3878F6B8E6B5DD260
:104230000201606BCFC062F2616B036A0001CE5174
:1042400002016111006E03506211036E00C0A3F001
:10425000000103C0A4F00201606BD1C062F2616B87
:10426000036A0001D05102016111006E0350621116
:10427000036E00C0A5F0000103C0A6F036D2020113
:10428000606BCFC062F2616B036A0001CE51020124
:104290006111006E03506211036E00C0A7F00001AF
:1042A00003C0A8F00201606BD1C062F2616B036AC7
:1042B0000001D05102016111006E03506211036EC2
:1042C00000C0A9F0000103C0AAF00FD20201606B88
:1042D000CFC062F2616B036A0001CE51020161112D
:1042E000006E03506211036E00C0ABF0000103C00A
:1042F000ACF00201606BD1C062F2616B036A000135
:10430000D05102016111006E03506211036E00C0B2
:10431000ADF0000103C0AEF0E8D10201606BCFC088
:1043200062F2616B036A0001CE5102016111006EFD
:1043300003506211036E00C0AFF0000103C0B0F083
:104340000201606BD1C062F2616B036A0001D0515F
:1043500002016111006E03506211036E00C0B1F0E2
:10436000000103C0B2F0C1D19F51000B036E9EC08B
:10437000DAF09F51036ADB6FA151000B036EA0C0FE
:10438000DCF0A151036ADD6FB0D1CE5307E086ECBB
:104390000EF0B38B0101069B07D00001DCEC0CF0A2
:1043A000B39BBE6A0101068B069706950693000132
:1043B000B3878F6B8E6B99D1B39BCE5305E0CBBB8C
:1043C00002D08272CB8B04D0CBAB02D08272CB9B5B
:1043D0000201606BD0C062F2616B036A0001CF51D1
:1043E00002016111546F03506211556F555100085D
:1043F00009E2FF0A03E15451900804E2010E556FEF
:10440000900E546F55C202F054C201F002320132D4
:1044100002320132023201C0BEFF02320230300BE2
:10442000006EBD50CF0B0010BD6E000186EC0EF08B
:104430005CD1CE5302E0B38101D0B39156D1CE53BB
:1044400002E0B38301D0B39350D116C1DAF017C1A3
:10445000DBF04BD10201606BCFC062F2616B036A8B
:104460000001CE51020161110101166F03500201DA
:1044700062110101176F000138D10EC1DAF00FC1CE
:10448000DBF010C1DCF011C1DDF02FD10201606B57
:10449000CFC062F2616B036A0001CE51020161116B
:1044A00001010E6F03500201621101010F6F020141
:1044B000606BD1C062F2616B036A0001D0510201EE
:1044C00061110101106F0350020162110101116FAE
:1044D0000EC11DF10FC11EF110C11FF111C120F15C
:1044E000010E0201606F1D0E5F6F040E616F00010F
:1044F0007CEC14F001C021F1170E02017B6F1DC18D
:104500007CF2000155EC0AF0180E02017B6F1EC10F
:104510007CF2000155EC0AF0190E02017B6F1FC1FD
:104520007CF2000155EC0AF01A0E02017B6F20C1EB
:104530007CF2000155EC0AF01B0E02017B6F21C1D9
:104540007CF2000155EC0AF01C0E02017B6F1DC1CC
:104550007CF2000155EC0AF01D0E02017B6F1EC1BA
:104560007CF2000155EC0AF01E0E02017B6F1FC1A8
:104570007CF2000155EC0AF01F0E02017B6F20C196
:104580007CF2000155EC0AF0200E02017B6F21C184
:104590007CF2000155EC0AF0A8D012C1DAF013C188
:1045A000DBF014C1DCF015C1DDF09FD00201606BBF
:1045B000CFC062F2616B036A0001CE51020161114A
:1045C0000101126F0350020162110101136F020118
:1045D000606BD1C062F2616B036A0001D0510201CD
:1045E00061110101146F0350020162110101156F85
:1045F00012C11DF113C11EF114C11FF115C120F12B
:10460000010E0201606F1D0E5F6F040E616F0001ED
:104610007CEC14F001C021F1210E02017B6F1DC161
:104620007CF2000155EC0AF0220E02017B6F1EC1E4
:104630007CF2000155EC0AF0230E02017B6F1FC1D2
:104640007CF2000155EC0AF0240E02017B6F20C1C0
:104650007CF2000155EC0AF0250E02017B6F21C1AE
:104660007CF2000155EC0AF0260E02017B6F1DC1A1
:104670007CF2000155EC0AF0270E02017B6F1EC18F
:104680007CF2000155EC0AF0280E02017B6F1FC17D
:104690007CF2000155EC0AF0290E02017B6F20C16B
:1046A0007CF2000155EC0AF02A0E02017B6F21C159
:1046B0007CF2000155EC0AF018D0CEC018F10101CF
:1046C0001851040802E3050E186F2B0E02017B6FD0
:1046D00018C17CF2000155EC0AF007D0010E02016E
:1046E0005F6F00011DEC1CF000D0CD5109080CE0FB
:1046F000EA6AF80EE96EE26ACC0EE16E0E0E016E09
:10470000E6CFEEFF012EFCD718C119F1010125916A
:10471000040000012FEF34F001010DAB05D0C2B44D
:1047200002D00D9BC28436D0C2B434D0036AB651D5
:10473000B70FE96E010E0320EA6EC4CFEFFFB62B70
:10474000B65107081CE3B635006E00360036F80E89
:104750000016C250C70B0010C26E020129B10DD065
:1047600001010DB302D0020108D0B6510408D8A04F
:1047700002D0020102D0020129810AD00101000EFB
:10478000016EC250C70B0110C26EB66B02012981C7
:1047900001010D8B0201162BD8B4172B1951175D8F
:1047A00014E303E11851165D10E329A10ED0176B35
:1047B000166B01010D8D000E016EC250C70B01106A
:1047C000C26EB66B0D8B0201299101010DAD05D0B2
:1047D000B651030802E20D8F0D9D000134EF34F055
:1047E000A207A25303E1080EA26FB385CB8739EF6E
:1047F00034F0036A02015951660FE96E010E03207D
:10480000EA6EEFCF5AF20101A7533EE1020159517E
:10481000000A000107E0020A05E0030A0EE0020AAE
:104820000CE02ED0036A02015951660FE96E010EA9
:104830000320EA6EEFCF5AF225D0036A02015951E4
:10484000660FE96E010E0320EA6EEFCF5AF2100EEA
:104850005A5D5B6F036A59517A0FE96E010E0320AE
:10486000EA6EEF505B5D0BE00AE3036A59517A0F81
:10487000E96E010E0320EA6E100EEF245A6F02D08B
:10488000020100D02AD00101A751040803E0A7517A
:10489000050824E10201592D0AD001018A5303E1E0
:1048A00012C25AF202D013C25AF218D00201595160
:1048B00003080AE101018C5303E112C25AF202D04B
:1048C00013C25AF20BD00201036A5951660FE96E06
:1048D000010E0320EA6EEFCF5AF20101036A0201D2
:1048E0005951B70FE96E010E0320EA6E5A51EF5C81
:1048F00004E2010E016E04D003D0000E016E00D060
:104900000001000C0201595103081AE10101AC51E8
:10491000150807E1A8C15AF2A9C15BF2AAC15CF26D
:104920000DD0AC510C080AE1040E0201596FA8C168
:104930005AF2A9C15BF2AA0E5C6F010107D0020115
:10494000CECF5BF2CFCF5AF2CC0E5C6F050E0201D8
:104950000F254F0832E30F510F2B036ABF0FE96E8B
:10496000010E0320EA6E59C2EFFF0F510F2B036AAD
:10497000BF0FE96E010E0320EA6E1AC2EFFF0F515E
:104980000F2B036ABF0FE96E010E0320EA6E5AC2B5
:10499000EFFF0F510F2B036ABF0FE96E010E0320CB
:1049A000EA6E5BC2EFFF0F510F2B036ABF0FE96E78
:1049B000010E0320EA6E5CC2EFFF1A6B0F511E0856
:1049C00006E35951070803E05951080806E1200E93
:1049D000716F00014BEC0AF002010001000C0201B2
:1049E0005A91036A59518A0FE96E010E0320EA6E4B
:1049F000EF2C28D0036A59518E0FE96E010E032067
:104A0000EA6EEFBE1BD0036A59518E0FE96E010E9C
:104A10000320EA6EEF2A036A59518E0FE96E010EE8
:104A20000320EA6EEF507F0808E1036A59518E0FA8
:104A3000E96E010E0320EA6EEF0603D05A81010EE3
:104A40005B6F33D0036A59518A0FE96E010E032060
:104A5000EA6EEF522AE1036A59518E0FE96E010E98
:104A60000320EA6EEFBE03D0EF5000081BE3036A99
:104A700059518E0FE96E010E0320EA6EEF06036AAC
:104A800059518E0FE96E010E0320EA6EEF50800837
:104A900008E1036A59518E0FE96E010E0320EA6E98
:104AA000EF2A03D05A81FF0E5B6F5AA189D0036AA7
:104AB0005951A20F016E010E032203C05DF2036A79
:104AC00059519E0FE96E010E0320EA6EEFCF5EF2A0
:104AD0005DC2EAFF01C0E9FF5EC2EFFF036A595100
:104AE0009E0F016E010E032203C05DF2036A59514D
:104AF0009A0FE96E010E0320EA6EEFCF5EF25DC2FF
:104B0000EAFF01C0E9FF5EC2EFFF036A59519A0F45
:104B1000016E010E032203C05DF2036A5951960F24
:104B2000E96E010E0320EA6EEFCF5EF25DC2EAFF8E
:104B300001C0E9FF5EC2EFFF036A5951960F016E93
:104B4000010E032203C05DF2036A5951920FE96E10
:104B5000010E0320EA6EEFCF5EF25DC2EAFF01C0F4
:104B6000E9FF5EC2EFFF036A5951920F016E010E19
:104B7000032203C05DF2036A59518E0FE96E010EE4
:104B80000320EA6EEFCF5EF25DC2EAFF01C0E9FFEB
:104B90005EC2EFFF036A59518E0FE96E010E0320CA
:104BA000EA6E5BC2EFFF010E006E5951016E04E028
:104BB000D8900036012EFCD700500101A613020147
:104BC0000001000C0101AE07AE530AE1A75308E053
:104BD000A76B0201105302E10101B26B0101AC6B42
:104BE000000141EF29F0036A02015A51920FE96E68
:104BF000010E0320EA6EEFCF5FF2036A5A51960F5F
:104C0000E96E010E0320EA6EEF505F5D5C6B5B6F37
:104C100019C28AF218C289F25CC28CF25BC28BF2B2
:104C2000000137EC05F002C060F201C05FF202C083
:104C300062F201C061F20201646B180E636F000141
:104C400013EC1BF002C05EF201C05DF202011951CB
:104C50005E5D4DE303E15D51185D49E25EC262F2C3
:104C60005DC261F2646B0B0E636F000113EC1BF00D
:104C700002C060F201C05FF219C262F218C261F2B2
:104C80000201646B0A0E636F000113EC1BF002C09B
:104C900003F002500201605D23E303E15F51015C18
:104CA0001FE219C28AF218C289F28C6B0B0E8B6F4D
:104CB000000137EC05F002C060F201C05FF202C0F3
:104CC00062F201C061F20201646B0A0E636F0001BF
:104CD00013EC1BF002C019F201C018F206D0020159
:104CE0005EC219F25DC218F2000149D002015EC233
:104CF00062F25DC261F2646B140E636F000113EC2B
:104D00001BF002C060F201C05FF219C262F218C269
:104D100061F20201646B150E636F000113EC1BF06E
:104D200002C003F0015002016051025C23E303E181
:104D300001505F5D1FE219C28AF218C289F28C6BC2
:104D4000130E8B6F000137EC05F002C060F201C05A
:104D50005FF202C062F201C061F20201646B140EE4
:104D6000636F000113EC1BF002C019F201C018F2CE
:104D700006D002015EC219F25DC218F20001000CF9
:104D80000101B22D31D0010E02015A6F00012BDF5B
:104D90000201105308E17AC172F17EC176F17BC144
:104DA00073F17FC177F187C183F101017351835D95
:104DB000006ED89000300201596F105303E159C2C0
:104DC00011F206D059511125006ED8900030116FA4
:104DD00011510101775D0201126F1151010173251B
:104DE0000201136F30D00101030E02015A6F00015E
:104DF000FADE0201105308E17CC174F180C178F140
:104E00007DC175F181C179F189C185F101017551CA
:104E1000855D006ED89000300201596F105303E198
:104E200059C211F206D059511125006ED8900030A8
:104E3000116F11510101795D0201126F11510101D0
:104E400075250201136F0101AC6BA66B040E016E98
:104E5000010EEA6EA80EE96EEE6A012EFDD7ADC115
:104E6000AEF1B46BB56B0201596B595103081BE3EA
:104E7000036A59517A0FE96E010E0320EA6EFF0EA4
:104E8000EF6E036A59517E0FE96E010E0320EA6E40
:104E9000EF6A036A5951860FE96E010E0320EA6E2C
:104EA000EF6A592BE2D70001000C02015ABF01D072
:104EB00005D0000ED8805A55016E02D05AC201F0BA
:104EC0000001000C02015D330101A837A937AA37A0
:104ED000AB37000150EF28F002015D531FE00101E4
:104EE000AC51070B02015E6F0101AC31006E003264
:104EF00000321F0E00160050036AA80FE96E010E63
:104F00000320EA6E010E006E02015E51016E04E0A4
:104F1000D8900036012EFCD70050EF12000150EF60
:104F200028F002016651016A655D03E265C200F086
:104F30000CD0006A080E676F653700366651005C5A
:104F4000D8B0006E0136672FF7D70001000C0201C0
:104F50005E5362E05F5360E0036A5D51920FE96E59
:104F6000010E0320EA6EEFCF62F262BF21D06251E0
:104F700000081EE262C265F25EC266F20001D1DF85
:104F800001C060F2036A02015D51960FE96E010EE5
:104F90000320EA6EEF50FF0A010F646F64C265F2EE
:104FA0005FC266F20001BDDF01C061F21DD00201E7
:104FB000000ED8806255646F64C265F25EC266F20C
:104FC0000001AFDF01C061F2036A02015D51960F7B
:104FD000E96E010E0320EA6EEFCF65F25FC266F262
:104FE00000019FDF01C060F202016051615D14E0C9
:104FF0006151605D09E2036A5D51660FE96E010E61
:105000000320EA6EEF2A08D0036A5D51660FE96E4D
:10501000010E0320EA6EEF0600015DEF28F00101AA
:10502000B22D0AD0020E0201596F010E5A6F5B6B4E
:105030008FC15CF20AD00101100E0201596F030EFC
:105040005A6F020E5B6F91C15CF20101A651020121
:105050005915000A0CE05CBF07D05C51000804E25F
:105060000101B46B03D002010101B56B02015CBF09
:1050700009D05C51000806E2010E596F0101B42B02
:1050800004D00201596B0101B52BA751040804E1BA
:1050900059C25DF2000116D759C25DF200011CD75A
:1050A0000101AC2BADC1AEF1A66B5BC25DF2010E8E
:1050B00002015E6F5F6F00014AD7C6EF2CF001015D
:1050C000A75104080DE10390AB33AA33A933A833E9
:1050D0000390AB33AA33A933A833AC07AC072BD06A
:1050E000020E02015A6F5A5325E00101AC51070B21
:1050F0000201596F0101AC31006E003200321F0E07
:1051000000160050036AA80FE96E010E0320EA6E34
:10511000010E006E02015951016E04E0D890003674
:10512000012EFCD70050FF0AEF160101AC07020167
:105130005A07D9D701010001DBEF2CF09EA00AD05D
:105140009E9001010DA307D0040E0201716F0001B2
:105150004BEC0AF001010DBF02D024EF2EF00D9FA1
:105160000201596B0001F9EC23F001C08AF1010E34
:105170000201596F0001F9EC23F001C08BF1020E1E
:105180000201596F0001F9EC23F001C08CF1030E0C
:105190000201596F0001F9EC23F001C08DF1B7C194
:1051A00052F2B8C153F2B9C154F2BAC155F2020178
:1051B0005251145D02E252C214F25451155D02E2E2
:1051C00054C215F2525101016A5D0FE20DB70CD0C5
:1051D0000D8702011A810101B39B080E0201596F6C
:1051E000000182EC24F001010ED00DA70CD00D9728
:1051F00002011A810101B38B070E0201596F0001F0
:1052000082EC24F001010201545101016C5D0FE2B6
:105210000DB90CD00D8902011A830101B399080E52
:105220000201596F000182EC24F001010ED00DA99A
:105230000CD00D9902011A830101B389070E0201F6
:10524000596F000182EC24F001010DB302D024EF6C
:105250002EF00201596B0001EFEC24F0010E020167
:10526000596F0001EFEC24F0020E0201596F0001AA
:10527000EFEC24F0030E0201596F0001EFEC24F073
:10528000A1D40101A65302E124EF2EF0A751000A98
:1052900000010CE0040AD8B4F9D2010AD8B4F6D25D
:1052A000030AD8B4C8EF2DF021EF2EF00201589177
:1052B0000101B2510208D8B472D18EBF03D08E5111
:1052C000000817E3000ED8808E55006E00BE03D094
:1052D00000500A083DE3000ED8808E55006E00BED7
:1052E00037D00050000834E292BF32D092511D08EE
:1052F0002FE27A510201525D03E252C27AF106D0E6
:10530000525101017E5D02E252C27EF101017B51E8
:105310000201535D03E253C27BF118D053510101E6
:105320007F5D02E253C27FF18EBF03D08E511C0815
:105330000CE38EBF0AD08E51000807E202015351E0
:105340000101875D02E253C287F1020126D001010B
:10535000000ED8808F55006E00BE0FD000500B0895
:105360000CE2000ED8808E55006E00BE06D00050B4
:105370000B0803E2FF0E7B6F0FD0000ED8808E5516
:10538000006E00BE09D000500B0806E2FF0E7A6FD7
:105390007E6B7B6F7F6B876B0201000ED8800101F3
:1053A0008E55006E00BEFBD000500508D8B0F7D077
:1053B000000ED8809655006E00BEF1D00050050852
:1053C000D8B0EDD0000ED8808F55006E00BEE7D06B
:1053D00000500008D8B0E3D092BFE1D092511D0830
:1053E000D8B0DDD092BF04D092515308D8A0D7D006
:1053F000000ED8808F55006E00BE04D000501108FA
:10540000D8A0CDD093BF04D093511908D8A0C7D04D
:10541000000ED8809755006E00BE04D000501908C9
:10542000D8A0BDD09BBF04D09B511908D8A0B7D03D
:1054300093BFB5D093510008D8B0B1D0000ED8803A
:105440009755006E00BEABD000500008D8B0A7D072
:105450009BBFA5D09B510008D8B0A1D09751935DB8
:105460009B250201566F010192510201565D596F51
:10547000595159AF03D0000ED8805955576F57BFB7
:1054800003D05751110821E3010192BF06D0925178
:105490003208D8B002D0020118D0000ED8809F5533
:1054A000006E00AE02D0020110D000500508D8A056
:1054B00002D002010AD002015881010E0101B16F30
:1054C000050EA76F0D9560D0020101019F510201E9
:1054D000565D0101A3250201566F0101925102019F
:1054E000565D596F595159AF03D0000ED8805955A8
:1054F000576F57BF03D05751110846E3010192AFD0
:1055000002D0020141D092513108D8A002D002014C
:105510003BD0000ED8809F55006E00AE02D0020135
:1055200033D000500008D8A002D002012DD0A3AF84
:1055300002D0020129D0A3510008D8A002D0020154
:1055400023D0000ED8809F55006E00BE06D00050BC
:105550001908D8B002D0020117D0A3BF06D0A351BA
:105560001908D8B002D002010FD002015881010100
:10557000B16B040EA76F0D8502011A81050E596FDC
:10558000000182EC24F00201020158A107D0010EB3
:105590000101B26F0001C0EC26F002010101B22D41
:1055A00001D072D190BF03D09051000817E3000ED4
:1055B000D8809055006E00BE03D000500A083DE32D
:1055C000000ED8809055006E00BE37D00050000805
:1055D00034E294BF32D094511D082FE27C51020175
:1055E000545D03E254C27CF106D054510101805D48
:1055F00002E254C280F101017D510201555D03E2D6
:1056000055C27DF118D055510101815D02E255C2AC
:1056100081F190BF03D090511C080CE390BF0AD0D9
:105620009051000807E2020155510101895D02E233
:1056300055C289F1020126D00101000ED880915592
:10564000006E00BE0FD000500B080CE2000ED88098
:105650009055006E00BE06D000500B0803E2FF0E0E
:105660007D6F0FD0000ED8809055006E00BE09D01F
:1056700000500B0806E2FF0E7C6F806B7D6F816B24
:10568000896B0201000ED88001019055006E00BEAA
:10569000FBD000500508D8B0F7D0000ED880985540
:1056A000006E00BEF1D000500508D8B0EDD0000E5D
:1056B000D8809155006E00BEE7D000500008D8B0E9
:1056C000E3D094BFE1D094511D08D8B0DDD094BF91
:1056D00004D094515308D8A0D7D0000ED88091554B
:1056E000006E00BE04D000501108D8A0CDD095BFE8
:1056F000CBD095510008D8B0C7D0000ED8809955AE
:10570000006E00BEC1D000500008D8B0BDD09DBF13
:10571000BBD09D510008D8B0B7D095BF04D09551EB
:105720001908D8A0B1D0000ED8809955006E00BEDF
:1057300004D000501908D8A0A7D09DBF04D09D5117
:105740001908D8A0A1D09951955D9D250201566FE9
:10575000010194510201565D596F595159AF03D05F
:10576000000ED8805955576F57BF03D057511108B5
:1057700021E3010194BF06D094513208D8B002D081
:10578000020118D0000ED880A155006E00AE02D0E4
:10579000020110D000500508D8A002D002010AD0A2
:1057A00002015881010E0101B16F050EA76F0D9521
:1057B00060D002010101A1510201565D0101A52540
:1057C0000201566F010194510201565D596F595102
:1057D00059AF03D0000ED8805955576F57BF03D02B
:1057E0005751110846E3010194AF02D0020141D0A4
:1057F00094513108D8A002D002013BD0000ED880CD
:10580000A155006E00AE02D0020133D00050000856
:10581000D8A002D002012DD0A5AF02D0020129D01C
:10582000A5510008D8A002D0020123D0000ED880D4
:10583000A155006E00BE06D000501908D8B002D0A5
:10584000020117D0A5BF06D0A5511908D8B002D0C3
:1058500002010FD0020158810101B16B040EA76F44
:105860000D8502011A83050E596F000182EC24F0A8
:105870000201020158A107D0020E0101B26F00011E
:10588000C0EC26F002010101DFD100010101B22DBF
:105890001ED07A510201525D03E252C27AF106D063
:1058A000525101017E5D02E252C27EF101017B5143
:1058B0000201535D03E253C27BF107D05351010152
:1058C0007F5D02E253C27FF102011DD001017C51D4
:1058D0000201545D03E254C27CF106D0545101012F
:1058E000805D02E254C280F101017D510201555DEB
:1058F00003E255C27DF107D055510101815D02E2FD
:1059000055C281F102010101B22D0BD0A6A109D02F
:105910008EC15AF2000155EC27F00150050811E341
:105920000101B25102080FE1A6A50DD090C15AF2B3
:10593000000155EC27F001500508D8A002D0010164
:1059400002D00FEF28F0B22D09D092C15AF2000117
:1059500055EC27F0015005080FE20101B251020891
:1059600014E194C15AF2000155EC27F001500508EA
:10597000D8B002D0010109D00101A76B0201105378
:1059800002E10101B26B0101AC6B00010101B22D1A
:1059900005D08EBF03D08E5119080AE3B251020818
:1059A000D8A4F2D090BFF0D090511908D8B0ECD064
:1059B00000015FEF28F0060E0101A76FAD51080D41
:1059C000F3CFAEF1A66BB22D71D0AC51150803E048
:1059D000AC510C0863E10201102B01010DA509D0A7
:1059E00002011A81030E596F000182EC24F01FD0CE
:1059F00001010201105101080DE20101B3BD07D000
:105A0000800E0201716F00014BEC0AF00101B38DB1
:105A1000B38F02011A81030E596F000182EC24F04A
:105A200002011A81050E596F000182EC24F0020177
:105A30005A6B73C159F201017751020159255B6F0D
:105A4000000E5A215C6FD8905C31036E5B31026EA0
:105A50000101676F0201102D09D07AC172F17EC178
:105A600076F17BC173F17FC177F116D001017251DC
:105A70007A5D02E27AC172F17E51765D02E27EC108
:105A800076F173517B5D02E27BC173F17F51775DEB
:105A900002E27FC177F1020107D001010201105338
:105AA00003E10101B26B020170D00101AC51150894
:105AB00003E0AC510C0863E10201102B01010DA5BC
:105AC00013D0B3BD07D0800E0201716F00014BEC03
:105AD0000AF00101B38D02011A83030E596F000110
:105AE00082EC24F015D0010102011051010803E2FB
:105AF0000101B38F02011A83030E596F000182EC7A
:105B000024F002011A83050E596F000182EC24F083
:105B100002015A6B75C159F20101795102015925EF
:105B20005B6F000E5A215C6FD8905C31036E5B3165
:105B3000026E0101696F0201102D09D07CC174F160
:105B400080C178F17DC175F181C179F116D0010173
:105B500074517C5D02E27CC174F18051785D02E297
:105B600080C178F175517D5D02E27DC175F1815191
:105B7000795D02E281C179F1020107D001010201E0
:105B8000105303E10101B26B020101015DD000017C
:105B90000101B22D02D0A6B105D0B25102084FE1E9
:105BA000A6A54DD0FF0EAE6FA76BA66B0201516B81
:105BB0005151030843E3036A5151920FE96E010EFC
:105BC0000320EA6EEF6A036A5151960FE96E010EE7
:105BD0000320EA6EEF6A036A51519A0FE96E010ED3
:105BE0000320EA6EEF6A036A51519E0FE96E010EBF
:105BF0000320EA6EEF6A036A5151A20FE96E010EAB
:105C00000320EA6EEF6A036A51517A0FE96E010EC2
:105C10000320EA6EFF0EEF6E036A51517E0FE96EAC
:105C2000010E0320EA6EEF6A036A5151860FE96E96
:105C3000010E0320EA6EEF6A512BBAD7010104D09E
:105C400000010101A76B00D0000146EF34F0010113
:105C50000B2BD8B40C2B0001CBAF58D09DAF08D084
:105C60009D51FE080FE2FF0A03E19C51FD080AE284
:105C70009DBF05D09D5306E19C51020803E302013C
:105C8000282B02D00201286B01010C5303E10B51B8
:105C900013081CE2020128510408D8A002D0010117
:105CA00015D001010C6B0B6B0001CB9F91C027F24B
:105CB00090C026F2CBB902D0828201D08292CB8BE7
:105CC000320EBE6E86EC0EF01ED001010C5303E1C5
:105CD0000B518F0819E20001DCEC0CF0BE6ACB9D81
:105CE000010108810981130E02017B6F08C17CF25A
:105CF000000155EC0AF0140E02017B6F09C17CF221
:105D0000000155EC0AF00101ACD00001320E010196
:105D10000B250201516F000E01010C210201526F8F
:105D200001081DE303E15151040819E3320E01019A
:105D30000B250201516F000E01010C210201526F6F
:105D40005233513352335133523351C2BEFF523367
:105D50005231300B006EBD50CF0B0010BD6E0101F3
:105D60000C531BE10B51070818E300019DAF7AD0DB
:105D70009D51FF08D8A076D004E19C51F808D8A026
:105D800071D09DBF6FD09D53D8B402D0010105D012
:105D90009C510708D8B066D00101100E02012625DB
:105DA000016E000E2721036E015003AE04D00001E6
:105DB00091AF0BD003D0000191BF0ED00350915D85
:105DC0000BE303E10150905D07E3CB9DCBB901D01C
:105DD0002BD08CEC0EF046D0100E0201265D006E2A
:105DE000000E2759036E00C001F0000191AF03D0EF
:105DF00003AE0AD002D003BE2DD09151035C2AE33A
:105E000003E19051015C26E3CB9DCB79000ECBB929
:105E1000010E0201516F110E7B6F51C27CF2000125
