:020000040000FA
:040400009DEF14F068
:08040800056ED8CF06F0E950A3
:10041000076EEA50086EE150096EE2500A6ED9503C
:100420000B6EDA500C6EF350146EF450156EE050F3
:100430000D6E000100500F6E0150106E0250116ED3
:100440000350126E0450136E9DA62AEF02F09EB662
:10045000A6EF02F0A0A030EF02F0A1B0C2EF03F0CF
:100460000F50006E1050016E1150026E1250036E4C
:100470001350046E0D50E06E0D8E0750E96E08505B
:10048000EA6E0950E16E0A50E26E0B50D96E0C50C4
:10049000DA6E1450F36E1550F46E055006C0D8FF96
:1004A0001000F2CF0EF0F29EF76ABC0FF66E040E4B
:1004B000F7220900F5500EBEF28E1200B9CC7FA8CB
:1004C000665E5E00F2CF0EF0F29EF76ADE0FF66E09
:1004D000040EF7220900F5500EBEF28E1200F2FF54
:1004E00086B8D3FFFFC0F2CF0EF0F29EF76A000F7E
:1004F000F66E050EF7220900F5500EBEF28E1200C0
:10050000CCD585B3CBEFEFA0F2CF0EF0F29EF76A19
:10051000220FF66E050EF7220900F5500EBEF28E80
:10052000120097B4719956343400F2CF0EF0F29E57
:10053000F76A440FF66E050EF7220900F5500EBE5D
:10054000F28E120090A36B9655333300C7CF47F15C
:10055000D45302E0CA8F01D0CA9FC6AC0CD0C69C4F
:10056000C9CF46F1C69CC86BC96BD06BCF6BD59316
:10057000CA83C68804D1010147512D0B090A000125
:1005800011E0280A1DE0080A1BE0250AD8B497D01C
:10059000200AD8B4BAD0080AD8B4B7D00C0AD8B454
:1005A000D8D0DED0D26BD60ED16FC86BC9CF46F192
:1005B00046C1C9F0C69CCF6BC10ECA17D593DFD018
:1005C000C9CF46F1C85319E1C82B46C1CFF001018C
:1005D00046510001C927D2C003F0D151D12BD8B464
:1005E000D22BE96E03C0EAFF46C1EFFFCFAF03D0C5
:1005F000CA87CF9F01D0CA9761D0C82D14D0C82B0D
:1006000046C1D0F0010146510001C927D2C003F014
:10061000D151D12BD8B4D22BE96E03C0EAFF46C129
:10062000EFFFADD04BD0CAA703D0C851020804E0F9
:10063000020ECF25C85D28E1C82B01014651FF0AF3
:100640000001C95D05E0CA89CA85030ECE6F1AD0C4
:10065000CAB114D0CAA703D0D05107080EE0EA6A85
:100660002B0EE96EE26AD60EE16EC851016E04E00F
:10067000E6CFEEFF012EFCD7CA8104D0CA89CA8317
:10068000060ECE6F7CD01AD0C851150807E2C82BD1
:10069000CA89CA83060ECE6F72D010D001014651AE
:1006A0000001C927D2C003F0D151D12BD8B4D22B2D
:1006B000E96E03C0EAFF46C1EFFFC82B60D0D26BE2
:1006C000D60ED16FC86BD583CAA712D0CAA104D0E9
:1006D000CA8B080ECE6F0CD0EA6AD60EE96EE26ABB
:1006E000410EE16E160E016EE6CFEEFF012EFCD735
:1006F000CAC046F146C1C9FF46C1C9F0CAB701D058
:10070000CF6BC90ECA17C6883AD0CF51C85D06E173
:10071000C9C046F10101461F14D00001CF51C85D88
:100720000EE2D2C003F0D151D12BD8B4D22BE96E56
:1007300003C0EAFFEFCF46F1010103D00001010140
:10074000466B46C1C9FF46510001C927C82BC68860
:1007500016D0C86BC96BD06BCF6BD593C6880FD042
:10076000C6AC01D0C69CC6AE01D0C69E010147A151
:1007700002D046C1C9FF0001D593C68800D09E961D
:1007800030EF02F0BCCF4BF1BBCF4AF1A1909EAF4E
:100790002ED0010101A508D002510207000A03E191
:1007A000030E026F01951ED000019EAB02D09E9BEE
:1007B00018D0A1A00BD001014A51BB5C0001F96F18
:1007C00001014B51BC580001FA6F0AD001010A51D6
:1007D0004A5D0001F96F01010B514B590001FA6F9D
:1007E0009E8D0101BCCF0BF1BBCF0AF10001A1909E
:1007F00030EF02F001013751030809E2040E016EE7
:10080000EA6A9F0EE96EEE6A012EFDD73BD03851A1
:1008100008080BE1036A37519F0FE96E000E0320B1
:10082000EA6EEF50F00BEF6E2DD0385109080BE156
:10083000036A37519F0FE96E000E0320EA6EEF50F6
:100840000F0BEF6E1FD03851090809E2036A3751C8
:100850009F0FE96E000E0320EA6EEF6A13D0036A61
:1008600037519F0FE96E000E0320EA6E010E006EF5
:100870003851016E04E0D8900036012EFCD70050AC
:10088000FF0AEF160001000C010EEA6E390EE96E48
:10089000EF5012E00C0E016EBF0E006E0400002E31
:1008A000FDD7012EF9D7BE0E006E002EFED7000038
:1008B00000000400EF2EEED7000C0101386B385118
:1008C00063080CE30A0E396F0001DEDF81AA03D052
:1008D000010104D000010101382BF1D73851630820
:1008E00003E3010E016E02D0000E016E0001000C48
:1008F000010137510B0804E2000E016E026E68D050
:100900000F0E391737173B6B37C13AF13A393B6F46
:100910003A6BF00E3B1738513A1339513B13D890CC
:100920003735036A0E0FE96E010E0320EA6E39C1F6
:10093000ECFFED5238C1EFFF828E82800400020E80
:10094000006E002EFED7000081940400020E006E9F
:10095000002EFED70000829E0400050E006E002EC1
:10096000FED7000000003C6B3C510F0823E304005D
:10097000020E006E002EFED700003BAF02D0818831
:1009800001D08198D8903A373B3781A602D03A817E
:1009900001D03A910400020E006E002EFED7000036
:1009A00081840400020E006E002EFED700008194A8
:1009B0003C2BDAD70400050E006E002EFED7000097
:1009C0000000828E0F0E3B173AC101F03BC102F0CE
:1009D0000001000C016A026A006A036A01014451C5
:1009E00002E1435118E0100E456FD890413742376D
:1009F000003603364451035C02E14351005C07E3D7
:100A00004351005ED8A003064451035ED8800136EE
:100A10000236452FEAD700000001000C01013851D1
:100A2000070801E2C9D0D8903831396F3851010B2D
:100A3000000A02E13A6B02D0040E3A6F036A3951A0
:100A40009F0FE96E000E0320EA6EEFCF3BF1036AC1
:100A50003851860FE96E000E0320EA6EEFCF3CF1AD
:100A6000036A3851BB0FE96E000E0320EA6EEF50A7
:100A70003C5D13E2036A39519F0FE96E000E0320BB
:100A8000EA6E010E006E3A51016E04E0D890003615
:100A9000012EFCD70050EF127CD0036A3851860F2C
:100AA000E96E000E0320EA6EEFCF3CF1036A385185
:100AB000B30FE96E000E0320EA6EEF503C5D16E2C4
:100AC000036A39519F0FE96E000E0320EA6E010E92
:100AD0003A253C6F010E006E3C51016E04E0D89047
:100AE0000036012EFCD70050EF1253D0036A385164
:100AF000860FE96E000E0320EA6EEFCF3CF1036A29
:100B00003851A30FE96E000E0320EA6EEF503C5DF2
:100B100017E016E3036A39519F0FE96E000E0320B8
:100B2000EA6E030E3A253C6F010E006E3C51016ED9
:100B300004E0D8900036012EFCD70050EF1229D0E7
:100B4000036A3851860FE96E000E0320EA6EEFCF7C
:100B50003CF1036A3851AB0FE96E000E0320EA6ED8
:100B6000EF503C5D16E015E3036A39519F0FE96EC3
:100B7000000E0320EA6E020E3A253C6F010E006E55
:100B80003C51016E04E0D8900036012EFCD7005095
:100B9000EF12036A39519F0FE96E000E0320EA6ECF
:100BA0003B51EF5C09E0036A39519F0FE96E000E7B
:100BB0000320EA6E3BC1EFFF00017FEF09F0010166
:100BC00038510001D413D45302E0949A829A000C55
:100BD0003EC142F13DC141F10101446B170E436F2B
:100BE0000001F8DE490E010101243F6F000E0220D2
:100BF000406F4051030804E2030E406FFF0E3F6F49
:100C0000405306E13F51310803E3406B320E3F6F22
:100C10003FC101F040C102F00001000C0101386B3E
:100C2000396B3C91F2BE3C81018700019E9D660EAE
:100C300001013E6FDD0E3D6F0001CADF02C03BF1D6
:100C400001C03AF13BC102F03AC101F00232013277
:100C500002320132023201C0BEFF02320230300BDA
:100C6000006EBD50CF0B0010BD6E83900101018559
:100C700000019E8F9E8BA190A080C00EF2129EBD9F
:100C80000CD00101382BD8B4392B0400385139115C
:100C900002E1000102D00001F2D79E9F8380A09064
:100CA00001013CB104D0F29CF29EF2BEFDD70001DE
:100CB0009EBD04D0000E016E05D004D09E9D010E95
:100CC000016E00D0E9EF09F00101386B828E82805D
:100CD0000400020E006E002EFED700008194040076
:100CE000020E006E002EFED70000829E0400050E4C
:100CF000006E002EFED700000000396B39510F083E
:100D00001BE30400020E006E002EFED7000039A186
:100D100002D0818801D081980400020E006E002E5E
:100D2000FED7000081840400020E006E002EFED764
:100D300000008194392BE2D7396B39510F081FE33A
:100D40000400020E006E002EFED70000000E81B6D9
:100D5000010E3A6F3951010B3A5D01E1382B040065
:100D6000020E006E002EFED7000081840400020EE9
:100D7000006E002EFED700008194392BDED70400D0
:100D8000050E006E002EFED700000000828E38C1D6
:100D900001F0000116EF0AF0070E01013E17010EE7
:100DA0004017426B3EC141F14139426F416BF00E39
:100DB00042173F51411340514213828E82800400FA
:100DC000020E006E002EFED7000081940400020E79
:100DD000006E002EFED7000082900400050E006E0B
:100DE000002EFED700000000436B43510F0818E3AC
:100DF00042AF02D0818801D08198D89041374237E4
:100E000081840400020E006E002EFED70000819443
:100E10000400020E006E002EFED70000432BE5D723
:100E20000400050E006E002EFED700000000828038
:100E30000001000C070E01013E17406B3EC13FF15F
:100E40003F39406F3F6BF00E4017408F828E82809B
:100E50000400020E006E002EFED7000081940400F4
:100E6000020E006E002EFED7000082900400050ED8
:100E7000006E002EFED700000000416B41510308B8
:100E80001EE340AF02D0818801D08198D8903F37CF
:100E900040370400020E006E002EFED70000818451
:100EA0000400020E006E002EFED7000081940400A4
:100EB000020E006E002EFED70000412BDFD7406BE4
:100EC0003F6B416B41510B0819E3D8903F374037D6
:100ED00081840400050E006E002EFED70000000085
:100EE00081A602D03F8101D03F910400020E006E26
:100EF000002EFED700008194412BE4D70400050E9C
:100F0000006E002EFED7000000008280010E401708
:100F10003FC101F040C102F00001000C01013D9110
:100F2000010E396F670E386F3C6B3C51010827E3A7
:100F3000050E3E6F39C140F138C13FF100012CDF91
:100F4000050E01013E6F000175DF02C03BF101C0DB
:100F50003AF1010138C13EF13951010B3F6F3AC1FD
:100F600000F03B51010B036E3A51385D03E1035031
:100F70003F5D01E03D81396B386B3C2BD6D7000ECD
:100F80003DB1010E016E00011DEF0AF0F2CF3DF1FF
:100F9000F29E3AC1A9FFA69CA69EA680A850010178
:100FA0003DBFF28E3B5D1DE0A198A0983AC1A9FF1C
:100FB0003BC1A8FFA69EA69CA6843C91F2BE3C81A4
:100FC000F29CF29EF2BEFDD7550EA76EAA0EA76E3A
:100FD000A6823CA102D0C00EF212A1A8FED7A19811
:100FE000A6940001000C0400296A286A0101376BED
:100FF00037510708D8A0C6D13735006E0036003605
:10100000F80E0016C250C70B0010C26E0400200E6E
:10101000006E002EFED7036A37517E0FE96E000E78
:101020000320EA6EC284C2B4FED7C4CFEFFF036AC6
:1010300037517E0FE96E000E0320EA6EEFCF38F1D4
:10104000036A37518E0FE96E000E0320EA6EEF50EF
:10105000385D18E2036A37518E0F016E000E0322CD
:1010600003C039F1036A37517E0FE96E000E032089
:10107000EA6EEFCF3AF139C1EAFF01C0E9FF3AC1A8
:10108000EFFF2BD0036A37517E0FE96E000E03206D
:10109000EA6EEFCF38F1036A3751960FE96E000E12
:1010A0000320EA6EEF50385D18E017E3036A37510A
:1010B000960F016E000E032203C039F1036A375107
:1010C0007E0FE96E000E0320EA6EEFCF3AF139C1D0
:1010D000EAFF01C0E9FF3AC1EFFF0400200E006EF5
:1010E000002EFED7036A3751760FE96E000E0320FB
:1010F000EA6EC284C2B4FED7C4CFEFFF036A375191
:10110000760FE96E000E0320EA6EEFCF38F1036A26
:1011100037518E0FE96E000E0320EA6EEF50385DF6
:1011200018E2036A37518E0F016E000E032203C0CE
:1011300039F1036A3751760FE96E000E0320EA6E2B
:10114000EFCF3AF139C1EAFF01C0E9FF3AC1EFFF41
:101150002BD0036A3751760FE96E000E0320EA6E3A
:10116000EFCF38F1036A3751960FE96E000E032076
:10117000EA6EEF50385D18E017E3036A3751960FB7
:10118000016E000E032203C039F1036A3751760F56
:10119000E96E000E0320EA6EEFCF3AF139C1EAFFA3
:1011A00001C0E9FF3AC1EFFF0400200E006E002EDF
:1011B000FED7036A37516E0FE96E000E0320EA6E08
:1011C000C284C2B4FED7C4CFEFFF036A37516E0F9B
:1011D000E96E000E0320EA6EEFCF38F1036A375153
:1011E0008E0FE96E000E0320EA6EEF50385D18E2B4
:1011F000036A37518E0F016E000E032203C039F1CE
:10120000036A37516E0FE96E000E0320EA6EEFCFCE
:101210003AF139C1EAFF01C0E9FF3AC1EFFF2BD033
:10122000036A37516E0FE96E000E0320EA6EEFCFAE
:1012300038F1036A3751960FE96E000E0320EA6E0B
:10124000EF50385D18E017E3036A3751960F016ECF
:10125000000E032203C039F1036A37516E0FE96EA5
:10126000000E0320EA6EEFCF3AF139C1EAFF01C068
:10127000E9FF3AC1EFFF036A3751860F016E000E96
:10128000032201C038F103C039F1036A37517E0FE0
:10129000E96E000E0320EA6EEF503B6B3A6F036A73
:1012A0003751760FE96E000E0320EA6EEF503A25B3
:1012B0003C6F000E3B213D6F036A37516E0FE96EA4
:1012C000000E0320EA6EEF503C253E6F000E3D21DC
:1012D0003F6F3FC142F13EC141F1446B030E436F8A
:1012E0000001EAEC04F0010139C1EAFF38C1E9FF6D
:1012F00001C0EFFF37C138F100010EEF05F0010129
:101300003751F80F3DE2080F000156EF0AF09F51E8
:101310000F0B000A01E02882010132D09F51F00B2F
:10132000000A01E0288601012BD0A0510F0B000A12
:1013300001E0288A010124D0A051F00B000A01E04D
:10134000288C01011DD0A1510F0B000A01E0298456
:10135000010116D0A151F00B000A01E0298601011C
:101360000FD0A2510F0B000A01E02988010108D01B
:10137000A251F00B000A01E02880010101D0010117
:10138000372B36D66D34006E00360036F80E001658
:10139000C250C70B0010C26ECE50CFCF03F0000179
:1013A000C36F03C0C4F09E9328507E0B006E29507B
:1013B000000B036E0050031009E027822A82020E00
:1013C0000101386F0001DFEC05F002D027922A926C
:1013D00025D401520AE1278028802A80010E0101CC
:1013E000386F0001DFEC05F002D027902A905DEC09
:1013F00004F001520AE1278A29822A86200E01017F
:10140000386F0001DFEC05F002D0279A2A9681B2EE
:101410000AD0278429802A84040E0101386F000134
:10142000DFEC05F002D027942A944ED40150100826
:1014300002E0278601D0279671D5015202E0278865
:1014400001D0279827B602D027A809D0288E2A8451
:10145000080E0101386F0001DFEC05F001D02A947D
:1014600028C038F101012950000B396F030E3A6F83
:1014700028C03BF100018ADD29C038F10101396B38
:10148000040E3A6F29C03BF1000180DD050E010119
:101490003A6F2AC03BF1000179DD060E01013A6F77
:1014A00027C03BF1000172DD0400000CF2CF0EF00A
:1014B000F29EE824D10FF66E140EF76ED8B0F72A1C
:1014C0000A00F550FA6E0800F5500EBEF28EF96E65
:1014D0000E131C132A13381346135413621370137C
:1014E0000101376B396B600E386F000178EC04F046
:1014F000040E0101376F396B200E386F000178EC54
:1015000004F0050E0101376F070E396FF00E386FCA
:10151000000178EC04F0060E0101376F080E396FF8
:10152000660E386F000178EC04F00B0E0101376F86
:10153000396B386B000178EC04F0040001013E6B5C
:10154000406B780E3F6F000127DC010E01013E6FFA
:10155000406B800E3F6F00011FDC020E01013E6FE9
:10156000406B3F6B000118DC030E01013E6F406BC6
:101570003F6B000111DC040E01013E6F406B3F6BBD
:1015800000010ADC050E01013E6F406B3F6B00015C
:1015900003DC060E01013E6F406B3F6B0001CCEC9B
:1015A00006F0070E01013E6F406B3F6B0001CCEC73
:1015B00006F00400000C01013991F2BE3981F29C61
:1015C000F29EF2BEFDD7F2CF3AF1F29E37C1A9FFEB
:1015D000A69CA69EA680A8503ABFF28E386F39A16D
:1015E00002D0C00EF21238C101F00001000C9E9F23
:1015F0008380A090010103970001000CFC6BFB6B42
:101600009E9D000CF4DF010101870189BE6A660E10
:101610000001FE6FDD0EFD6F01010193026B000101
:10162000EDDF0EEF0DF0006A016A026A036A010144
:10163000396B3A6B3B6B3C6B3851371136113511B6
:101640002CE0200E3D6FD8903137323733373437A6
:1016500039373A373B373C3738513C5D08E1375131
:101660003B5D05E136513A5D02E13551395D0FE3ED
:101670003551395F3651D8A0363D3A5F3751D8A041
:10168000373D3B5F3851D8A0383D3C5FD8800036AD
:101690000136023603363D2FD6D70000010EEA6E22
:1016A000390EE96E0001000C0101346B090E336F35
:1016B000270E326FC00E316F386B376B30C136F189
:1016C0002FC135F10001AFDF010E0024EF6F000ED6
:1016D0000120F06F0101346B030E336F0D0E326F7A
:1016E000400E316F386B376B30C136F12FC135F199
:1016F000000199DF010E0024F16F000E0120F26F4E
:101700000101346B060E336F1A0E326F800E316F8B
:10171000386B376B30C136F12FC135F1000183DFF3
:10172000010E0024F36F000E0120F46F0101346BF1
:101730002D0E336FC60E326FC00E316F386B376BA4
:1017400030C136F12FC135F100016DDF010E0024EB
:10175000ED6F000E0120EE6FEC6B040019EF0DF041
:10176000D0A202D0D0B005D0380E956E030E836E95
:1017700004D0300E956ECB0E836E2F0E926E100E2F
:10178000806EF18EEB0E936E816A3A0E946E810E2E
:10179000826E968096829684846A8088C190C19277
:1017A000C194C1966D6AC19CC28CC28EC19EC2801A
:1017B0006D34006E00360036F80E0016C250C70BAE
:1017C0000010C26ECE50CFCF03F0C36F03C0C4F081
:1017D0009E93D56AB70EB1168B940C0EBD6E000E9B
:1017E000016E0509CA6E870ECB6EB70EB116BA6AC6
:1017F000050EBA6E01010191850ECD6E2E6B2E5134
:10180000070857E32E51030801E12E2B036A2E51DE
:101810007E0FE96E000E0320EA6E036A2E5100016E
:1018200051EC02F0016E01C0EFFF036A01012E517D
:10183000760FE96E000E0320EA6E036A2E51000156
:1018400051EC02F0016E01C0EFFF036A01012E515D
:101850006E0FE96E000E0320EA6E036A2E5100013E
:1018600051EC02F0016E01C0EFFF036A01012E513D
:10187000860FE96E000E0320EA6E036A2E51000106
:1018800051EC02F0016E01C0EFFF036A01012E511D
:101890008E0FE96E000E0320EA6EFF0EEF6E036AF4
:1018A0002E51960FE96E000E0320EA6EEF6A2E2B82
:1018B000A6D7EA6AA30EE96EF2CF2FF1F29E080EC8
:1018C000016EF76A000E000162EC02F00A000900E6
:1018D000F5CFEEFF012EFBD701012FBFF28EEA6A92
:1018E000AB0EE96EF2CF2FF1F29E080E016EF76A91
:1018F000000E000173EC02F00A000900F5CFEEFFC4
:10190000012EFBD701012FBFF28EEA6AB30EE96EFA
:10191000F2CF2FF1F29E080E016EF76A000E000161
:1019200084EC02F00A000900F5CFEEFF012EFBD790
:1019300001012FBFF28EEA6ABB0EE96EF2CF2FF1E2
:10194000F29E080E016EF76A000E000195EC02F09F
:101950000A000900F5CFEEFF012EFBD701012FBFD2
:10196000F28E040E376F080E386F0001FAEC03F0A8
:101970009E81D0A202D0D0B01DD05DEC04F0838E49
:10198000838C9E95C66B100EC56F9E87C58B090E06
:101990000101376FC6C039F1C5C038F1000178ECDC
:1019A00004F09E89840EC76F276A2A6AF3EC07F059
:1019B00097DD33D09E859E99020E0101376F00019D
:1019C000FADD015205E0276A2A6AF3EC07F025D018
:1019D000040E0101376F0001EEDD0101306B01C023
:1019E0002FF101C032F1316B030E376F0001E3DDDF
:1019F000036A015001013111286E03503211296E22
:101A0000050E376F0001D7DD01C02AF0060E010177
:101A1000376F0001D0DD01C027F0F4D5B150480B7D
:101A2000B509B16ED00E0101306F550E2F6F000158
:101A30003BD6C6EF14F02EC117F02FC118F030C1FD
:101A400019F031C11AF032C11BF0EA6A1C0EE96EBE
:101A500034C1E2FF33C1E1FFE752E6CFEEFFFCE124
:101A600035C122F0D7EF14F02EC123F02FC124F09E
:101A700030C125F031C126F0E3EF14F0C86BCA6B1A
:101A8000C96BD26BD60ED16FD06BCF6BCE6BCD6BDB
:101A9000D593160E016EEA6AD60EE96EEE6A012E35
:101AA000FDD7D46B948A000C360EC66E2EC1C8FFCB
:101AB000C78CD591E3DFE9EF14F037C1CDF0CD53FA
:101AC00002E1CA9B01D0CA8B000CF29CF29EF2BECE
:101AD000FDD7D4DFFF0087EF11F0F29CF29EF2BE3B
:101AE000FDD7CCDF00EF00F087EF11F0D4C041F05C
:101AF000CDC042F0CEC043F037C144F087EF11F0C3
:101B000001013751FF0A0001D417D45301E1948A2F
:101B100025EF0FF0010138517E0809E2FF0A03E1C9
:101B20003751FE0804E27F0E386FFE0E376F3851D2
:101B30003F080DE2FF0A03E13751740808E2018112
:101B4000B70EB1169482BA6A060EBA6E07D001912A
:101B5000B70EB1169482BA6A050EBA6E38C1FEF09D
:101B600037C1FDF00001000C010137510B0804E200
:101B7000000E016E026E0ED0D8903735036A0E0F3C
:101B8000E96E010E0320EA6EEFCF01F0E92AEF5073
:101B9000E906026E0001000C95988398010E010180
:101BA000396F000144EC04F0958887EF11F0CAA169
:101BB00098EF11F00101376B00017FDF2B503F0BD5
:101BC0000101316F3151160802E2160E316F2C50AF
:101BD000070A0001D8B497D00F0AD8B495D0060AE6
:101BE000D8B499D01E0AD8B49BD0190AD8B4ABD0B7
:101BF000090AD8B4B5D0030AD8B4C2D0020AD8B4FE
:101C0000E1D00C0AD8B4E0D00F0AD8B4DFD0E80A8B
:101C1000D8B4DFD0E00AD8B4E4D0010AD8B4FCD0FC
:101C20000D0AD8B404D1170AD8B412D1980AD8B47E
:101C300035D1290AD8B435D1010AD8B437D1510ADF
:101C4000D8B439D1520AD8B440D1070AD8B440D157
:101C5000030AD8B44ED1290AD8B456D1600AD8B4F0
:101C600056D16D0AD8B463D1010AD8B481D1070A1C
:101C7000D8B48CD1010AD8B49DD1050AD8B4A9D161
:101C8000010AD8B4B9D1070AD8B4C9D1210AD8B445
:101C9000C9D1130AD8B4C7D1230AD8B4C9D10F0AFD
:101CA000D8B4CCD1010AD8B414D2030AD8B42CD2F7
:101CB000300AD8B43BD2010AD8B43AD2070AD8B411
:101CC00039D21B0AD8B43FD2070AD8B442D2010A8B
:101CD000D8B450D2030AD8B466D20A0AD8B47CD297
:101CE000010AD8B492D2170AD8B4A8D21B0AD8B421
:101CF000BFD2030AD8B4D6D2190AD8B4EDD21C0A7E
:101D0000D8B4F7D2FDD203D3F3EC07F028C041F0EA
:101D100029C042F0FCD228C041F029C042F0F7D2DD
:101D20002D5209E0020E01013A6F010E3B6F0001D6
:101D3000C6EC07F007D0020E01013A6F3B6B0001C1
:101D4000C6EC07F0E4D2EA6A410EE96EE26A570E89
:101D5000E16E160E016EE6CFEEFF012EFCD7D7D254
:101D6000EA6A410EE96EE26A2D0EE16E010131511F
:101D7000016E04E0E6CFEEFF012EFCD70001C7D2D2
:101D80002D50010A03E0030A0EE01AD0EA6A410E60
:101D9000E96EE26A170EE16E0C0E016EE6CFEEFF01
:101DA000012EFCD70ED0EA6A410EE96EE26A230EDC
:101DB000E16E040E016EE6CFEEFF012EFCD701D0DE
:101DC00000D0A5D2808881D6808887D627C037F1F9
:101DD0008DD60101346B03C133F133C141F00001F1
:101DE00096D22DC035F12EC036F135C1A9FF36C1CE
:101DF000A8FFA69CA69EA684F2CF00F0F29E0F013B
:101E0000550EA76EAA0EA76EA682A6B2FED7A694FE
:101E10000050F21200017BD22DC035F135C137F1EF
:101E2000DBEC0AF001C036F136C141F070D2F29C11
:101E3000F29EF2BEFDD72D5205E02EC038F1DFEC48
:101E400005F003D02EC037F15BD6C00EF2125FD280
:101E50002D34006E00360036F80E0016C250C70B47
:101E60000010C26E0400200E006E002EFED7C28449
:101E7000C2B4FED7C4CF41F06D34006E00360036D8
:101E8000F80E0016C250C70B0010C26ECE50CFCF56
:101E900003F0C36F03C0C4F09E9339D227C041F052
:101EA00036D2010101870183000131D2010101977E
:101EB000018300012CD22DA003D00101019702D093
:101EC000010101870183000122D2F7EC0AF01FD241
:101ED0000101386B396B036A2D503911336F035090
:101EE0002E10346F34C138F133C137F1000112DEE6
:101EF0000ED2FEC034F1FDC033F1010133C141F017
:101F000034C142F0000103D2F7EC0AF000D29E9DEA
:101F10000101326B060E396F000144EC04F09EADF6
:101F200003D001013281000132C141F0F0D1010141
:101F3000386B396B036A2E503911336F03502F10F1
:101F4000346F2D5009080AE100019EA703D001015A
:101F5000338B000134C1C6F033C1C5F02DC037F159
:101F600034C139F133C138F1000178EC04F0CFD13C
:101F70002DC037F1F9DD02C034F101C033F10101A8
:101F800033C141F034C142F00001C1D10101386BCD
:101F9000396B036A2E503911336F03502F10346F91
:101FA0002DC03EF134C140F133C13FF10001CCEC12
:101FB00006F0ADD12DC03EF11AEC07F002C034F1AD
:101FC00001C033F1010133C141F034C142F00001DD
:101FD0009ED10101376B0001C7DD02C034F101C0A1
:101FE00033F101013381376B34C139F133C138F139
:101FF000000178EC04F08BD10101376B0001B4DDF6
:1020000002C034F101C033F101013391376B34C1A7
:1020100039F133C138F1000178EC04F078D170EC7B
:102020000AF075D1B9D55DEC04F001C041F06FD173
:102030002D5202E09E8501D09E9569D19EA548D083
:102040002D50C00B000A05E0400A18E0C00A2BE042
:1020500035D02DA002D0C59501D0C5852DA202D0C6
:10206000C59701D0C5872DA402D0C68101D0C691E5
:102070002DA602D0C68301D0C69320D02DA002D0B9
:10208000C59101D0C5812DA202D0C59301D0C583D1
:102090002DA402D0C58D01D0C59D2DA602D0C58F1F
:1020A00001D0C59F0BD02DA002D0C59901D0C58904
:1020B0002DA402D0C68501D0C69500D0090E01011D
:1020C000376FC6C039F1C5C038F1000178EC04F0B3
:1020D0001ED10101386B396B036A2D503911000193
:1020E000C56F035001012E100001C66F9EA701D0DD
:1020F000C58B090E0101376FC6C039F1C5C038F173
:10210000000178EC04F003D12D5203E09E87C58BCB
:1021100002D09E97C59B090E0101376FC6C039F1E9
:10212000C5C038F1000178EC04F0F1D0839CEFD009
:10213000838CEDD0839E050E0101396F000144ECC4
:1021400004F0838EE4D02D5202E09E8101D09E9156
:10215000DED086C041F087C042F088C043F089C01D
:1021600044F08AC045F08BC046F08CC046F08DC06C
:1021700048F0CDD0EA6AAB0EE96EE26A2D0EE16E50
:10218000080E016EE6CFEEFF012EFCD7EA6AB30E11
:10219000E96EE26A350EE16E080E016EE6CFEEFFE3
:1021A000012EFCD7B4D0EA6AA30EE96EE26A2D0EC6
:1021B000E16E080E016EE6CFEEFF012EFCD7EA6A53
:1021C000BB0EE96EE26A350EE16E080E016EE6CFD7
:1021D000EEFF012EFCD79BD0EA6A410EE96EE26A5F
:1021E000AB0EE16E080E016EE6CFEEFF012EFCD7BE
:1021F000EA6A490EE96EE26AB30EE16E080E016EFC
:10220000E6CFEEFF012EFCD782D0EA6A410EE96EDE
:10221000E26AA30EE16E080E016EE6CFEEFF012E1C
:10222000FCD7EA6A490EE96EE26ABB0EE16E080E5F
:10223000016EE6CFEEFF012EFCD769D02D500708C6
:102240000DE2EA6A410EE96EE26A860EE16E080E60
:10225000016EE6CFEEFF012EFCD709D0036A2D50A8
:10226000860FE96E000E0320EA6EEFCF41F04FD0EB
:102270002D5007080DE2EA6A410EE96EE26A8E0E01
:10228000E16E080E016EE6CFEEFF012EFCD709D0FD
:10229000036A2D508E0FE96E000E0320EA6EEFCF19
:1022A00041F035D02D5007080DE2EA6A410EE96E83
:1022B000E26A960EE16E080E016EE6CFEEFF012E89
:1022C000FCD709D0036A2D50960FE96E000E03204B
:1022D000EA6EEFCF41F01BD0EA6A410EE96EE26A86
:1022E0009F0EE16E040E016EE6CFEEFF012EFCD7CD
:1022F0000ED02DC037F12EC038F1FAEC03F007D024
:10230000010E0101376F00015DEC0DF000D02C5083
:1023100009080CE0EA6A570EE96EE26A2B0EE16EDC
:10232000160E016EE6CFEEFF012EFCD7CA91040017
:10233000000C01013B513F19800B456F3BAF0BD0A7
:10234000381F391F3A1F3B1F382BD8B4392BD8B44C
:102350003A2BD8B43B2B3FAF0BD03C1F3D1F3E1F49
:102360003F1F3C2BD8B43D2BD8B43E2BD8B43F2BC9
:10237000006A016A026A036A406B416B426B436BFD
:102380003F513E113D113C112CE0200E446FD8907E
:10239000383739373A373B37403741374237433799
:1023A0003F51435D08E13E51425D05E13D51415DD4
:1023B00002E13C51405D0FE33C51405F3D51D8A0EC
:1023C0003D3D415F3E51D8A03E3D425F3F51D8A0C8
:1023D0003F3D435FD8800036013602360336442F36
:1023E000D6D7000045AF0BD0001E011E021E031EF3
:1023F000002AD8B4012AD8B4022AD8B4032A010E7C
:10240000EA6E400EE96E0001000C01013B513D19DE
:10241000800B3F6F3BAF05D03A1F3B1F3A2BD8B420
:102420003B2B3DAF05D03C1F3D1F3C2BD8B43D2B73
:10243000016A026A006A036A3D5102E13C5118E0F8
:10244000100E3E6FD8903A373B37003603363D5179
:10245000035C02E13C51005C07E33C51005ED8A004
:1024600003063D51035ED880013602363E2FEAD77F
:1024700000003FAF05D0011E021E012AD8B4022A77
:102480000001000CA090010101A12AD0F9C000F0C8
:10249000FAC001F0026A036A01AE02D00206030626
:1024A00003C037F102C036F101C035F100C034F18C
:1024B000030E3B6FCE0E3A6F610E396FDE0E386F32
:1024C00003C03FF102C03EF101C03DF100C03CF14C
:1024D00000012FDF01C033F100C032F128D001012B
:1024E000F9C000F0FAC001F0026A036A01AE02D03E
:1024F0000206030603C037F102C036F101C035F110
:1025000000C034F13B6BF30E3A6F980E396F780EC2
:10251000386F03C03FF102C03EF101C03DF100C081
:102520003CF1000106DF01C033F100C032F10101CE
:1025300032510001FD5D01012E6F33510001FE5942
:1025400001012F6F2E510001FB2701012F510001C6
:10255000FC23FCBF0CD0FC51640809E2FF0A03E134
:10256000FB51900804E2650EFC6F900EFB6FFCAF10
:102570000BD0FC519A0808E303E1FB516F0804E318
:102580009A0EFC6F700EFB6F010101A137D02FC1B5
:102590003BF12EC13AF13D6B040E3C6F000135DF7B
:1025A00002C035F101C034F1FCC03BF1FBC03AF18F
:1025B00001013D6B200E3C6F000127DF02C003F0DC
:1025C000015001013425366F02503521376F0C510F
:1025D0002E5D386F0D512F59396F39C13BF138C11C
:1025E0003AF13D6B040E3C6F00010FDF0150010119
:1025F0003625306F02503721316F36D02FC13BF175
:102600002EC13AF13D6B050E3C6F0001FEDE02C0AB
:1026100035F101C034F1FCC03BF1FBC03AF10101DE
:102620003D6B200E3C6F0001F0DE02C003F0015054
:1026300001013425366F02503521376F0C512E5D64
:10264000386F0D512F59396F39C13BF138C13AF10B
:102650003D6B030E3C6F0001D8DE015001013625B1
:10266000306F02503721316F2FC10DF12EC10CF1A7
:1026700031BF07D03151030804E2030E316FFF0E62
:10268000306F31BF05D0315306E13051310803E3DB
:10269000316B320E306F31C102F030C101F00232C5
:1026A000013202320132023201C0BEFF0232023078
:1026B000300B006EBD50CF0B0010BD6E00019E8B25
:1026C000A190A0809E9D000C9EAD06D0DBDE010196
:1026D000006B0001FF6B76D09EAF74D0FF2BD8A4A7
:1026E00002D00101002B0101005112086CE2FF0A27
:1026F00008E10001FF518708D8A002D0010163D092
:10270000010101A12AD0FDC000F0FEC001F0026A63
:10271000036A01AE02D00206030603C031F102C013
:1027200030F101C02FF100C02EF1070E3B6F9C0E5F
:102730003A6FC30E396FBC0E386F03C03FF102C051
:102740003EF101C03DF100C03CF10001F2DD01C0ED
:10275000FAF000C0F9F029D00101FDC000F0FEC080
:1027600001F0026A036A01AE02D00206030603C04A
:1027700031F102C030F101C02FF100C02EF1010E85
:102780003B6FE70E3A6F300E396FF00E386F03C0B3
:102790003FF102C03EF101C03DF100C03CF100013B
:1027A000C8DD01C0FAF000C0F9F00101006B0001C2
:1027B000FF6B68DE27802A80010E0101386F00015F
:1027C000DFEC05F001010001FDEF14F001013053D1
:1027D00018E030510A0809E20A0E396F000144EC92
:1027E00004F00A0E0101305F07D030C139F1000159
:1027F00044EC04F00101306B0001D7EC0DF0E6D79A
:1028000001010400000119EF14F00101006B000147
:10281000FF6B006A010101B9008601510018080B25
:1028200009E08380019901B70189210E306F000111
:10283000CDD7010101A702D0839201D08382FEC0CF
:1028400038F1FDC037F100018AEC0DF0FEEC0AF022
:10285000FEC03EF1FDC03DF1E8EC05F002C02FF1F5
:1028600001C02EF12FC102F02EC101F0023201325F
:1028700002320132023201C0BEFF02320230300B9E
:10288000006EBD50CF0B0010BD6E8390030E010192
:10289000396F000144EC04F0010103870185030E48
:1028A000026F00019E8F9E8BA190A08002EF15F019
:1028B00001012E510F0B000A3DE00001F551D8B483
:1028C000F607F52F1ED0F6531CE180982EC100F0BC
:1028D000EC51016E04E0D8900032012EFCD700A02C
:1028E00005D0F0C0F8F0EFC0F7F004D0F2C0F8F077
:1028F000F1C0F7F0F351F725F56FF451F821F66FB9
:1029000018D0F751D8B4F807F72F13D0F85311E1C6
:102910008088EC530DE1030EEC6FEEC0F6F0EDC0D5
:10292000F5F0010EF525F76F000EF621F86F01D0D6
:10293000EC07010100010BEF15F0F86AD09E0D8E37
:10294000EA6AE96AC180C182C184C1969E93020E7F
:10295000F56FF66B010EF76FF86B0101046B056BF9
:10296000066F076B086B096B0A6B0B6B0C6B0D6BBF
:10297000310E266F320E276F330E286F340E296FFB
:10298000350E2A6F2B6B0001B0EF0BF0100E01011A
:102990002E6F050E2F6F030E306F316B326B010EF1
:1029A000346F260E336F356B00011BEF0DF0440EB4
:1029B00001012E6F160E2F6F0F0E306F140E316F38
:1029C000000134EF0DF0440E01012E6F000154EFB1
:1029D0000DF09D86D082D080C00EF212030E010150
:1029E000396F000144EC04F02A500F0B000A01E19A
:1029F00080980400D7EC0DF067D6010101A304D044
:102A0000000103D701010193A1A25AD0A1922AC0CB
:102A10002EF100014DD79EB552D09EA923D0C751AB
:102A2000C707000A1EE19E99275205E12A5203E1D9
:102A30002850291006E0C66B1F0EC56FC595C591BD
:102A400003D0C66B150EC56F9EA701D0C58B090EAE
:102A50000101376FC6C039F1C5C038F1000178EC0B
:102A600004F02DD02A500F0B000A29E001012D6B34
:102A70001F0E2C6F2C9500019EA703D001012C8BFB
:102A8000000180B803D001012C9102D001012C81FA
:102A90000001C55101012C5D05E10001C651010194
:102AA0002D5D0EE02DC1C6F02CC1C5F0090E376FAB
:102AB000C6C039F1C5C038F1000178EC04F001015D
:062AC000000197D703009E
:020000040030CA
:0E0000000026060D000181000FC00FE00F402A
:00000001FF
;PIC18F452
