:020000040000FA
:040340004DEF20F06D
:08034800056ED8CF06F0E95064
:10035000076EEA50086EE150096EE2500A6ED950FD
:100360000B6EDA500C6EF350146EF450156EE050B4
:100370000D6E000100500F6E0150106E0250116E94
:100380000350126E0450136E9DA6CAEF01F09EB684
:10039000FDEF01F00F50006E1050016E1150026E13
:1003A0001250036E1350046E0D50E06E0D8E075008
:1003B000E96E0850EA6E0950E16E0A50E26E0B5089
:1003C000D96E0C50DA6E1450F36E1550F46E055061
:1003D00006C0D8FF1000F2CF0EF0F29EF76AF00FC1
:1003E000F66E030EF7220900F5500EBEF28E1200D3
:1003F000000818585A5E7E7FFF00C7CF03F2BB5338
:1004000002E0B18F01D0B19FC6AC0CD0C69CC9CF61
:1004100002F2C69CAF6BB06BB76BB66BBC93B1838B
:10042000C68804D1020103512D0B090A000111E015
:10043000280A1DE0080A1BE0250AD8B497D0200A34
:10044000D8B4BAD0080AD8B4B7D00C0AD8B4D8D027
:10045000DED0B96BBD0EB86FAF6BC9CF02F202C26E
:10046000B0F0C69CB66BC10EB117BC93DFD0C9CF3C
:1004700002F2AF5319E1AF2B02C2B6F002010251F2
:100480000001B027B9C003F0B851B82BD8B4B92BCC
:10049000E96E03C0EAFF02C2EFFFB6AF03D0B18737
:1004A000B69F01D0B19761D0AF2D14D0AF2B02C24F
:1004B000B7F0020102510001B027B9C003F0B851F2
:1004C000B82BD8B4B92BE96E03C0EAFF02C2EFFF24
:1004D000ADD04BD0B1A703D0AF51020804E0020E5B
:1004E000B625AF5D28E1AF2B02010251FF0A0001E2
:1004F000B05D05E0B189B185030EB56F1AD0B1B119
:1005000014D0B1A703D0B75107080EE0EA6A720E03
:10051000E96EE26ABD0EE16EAF51016E04E0E6CF16
:10052000EEFF012EFCD7B18104D0B189B183060E54
:10053000B56F7CD01AD0AF511D0807E2AF2BB1893F
:10054000B183060EB56F72D010D0020102510001C6
:10055000B027B9C003F0B851B82BD8B4B92BE96EA5
:1005600003C0EAFF02C2EFFFAF2B60D0B96BBD0E34
:10057000B86FAF6BBC83B1A712D0B1A104D0B18B5F
:10058000080EB56F0CD0EA6ABD0EE96EE26A800E05
:10059000E16E1E0E016EE6CFEEFF012EFCD7B1C05C
:1005A00002F202C2C9FF02C2B0F0B1B701D0B66B0D
:1005B000C90EB117C6883AD0B651AF5D06E1B0C0DA
:1005C00002F20201021F14D00001B651AF5D0EE22B
:1005D000B9C003F0B851B82BD8B4B92BE96E03C039
:1005E000EAFFEFCF02F2020103D000010201026B29
:1005F00002C2C9FF02510001B027AF2BC68816D036
:10060000AF6BB06BB76BB66BBC93C6880FD0C6AC84
:1006100001D0C69CC6AE01D0C69E020103A102D085
:1006200002C2C9FF0001BC93C68800D09E96CAEFE3
:1006300001F0819A0101D86BD8511F0804E3818829
:100640008198D82BF9D7848484940001AC89AC9725
:10065000AC95AC935E88406A3F6ADDEF0BF0006AB0
:10066000016A026A036A0101E26BE36BE46BE56B0A
:10067000E151E011DF11DE112CE0200EE66FD89081
:10068000DA37DB37DC37DD37E237E337E437E537B6
:10069000E151E55D08E1E051E45D05E1DF51E35D35
:1006A00002E1DE51E25D0FE3DE51E25FDF51D8A0EF
:1006B000DF3DE35FE051D8A0E03DE45FE151D8A029
:1006C000E13DE55FD8800036013602360336E62F7D
:1006D000D6D70000010EEA6EE20EE96E0001000CB2
:1006E0000101DD6B090EDC6F270EDB6FC00EDA6FC8
:1006F000E16BE06BD9C1DFF1D8C1DEF10001AFDF02
:10070000010E0024DE6F000E0120DF6F0101DD6BA2
:10071000030EDC6F0D0EDB6F400EDA6FE16BE06BEA
:10072000D9C1DFF1D8C1DEF1000199DF010E00244B
:10073000E06F000E0120E16F0101DD6B060EDC6F42
:100740001A0EDB6F800EDA6FE16BE06BD9C1DFF15F
:10075000D8C1DEF1000183DF010E0024E26F000E3C
:100760000120E36F0101DD6B2D0EDC6FC60EDB6F28
:10077000C00EDA6FE16BE06BD9C1DFF1D8C1DEF1F9
:1007800000016DDF010E0024DC6F000E0120DD6F23
:10079000DB6B0400F4EF0BF00101E891F2BEE8819D
:1007A000F29CF29EF2BEFDD7F2CFE9F1F29EE6C1D5
:1007B000A9FFA69CA69EA680A850E9BFF28EE76F6F
:1007C000E8A102D0C00EF212E7C101F00001000C56
:1007D000010EEA6EFD0EE96EEF5010E00B0E016E99
:1007E000BF0E006E0400002EFDD7012EF9D7AB0E10
:1007F000006E002EFED70400EF2EF0D7000C828C86
:10080000020E0101D96F040ED86FD85323E0829CE9
:10081000D807D9C100F0D851016E04E0D890003259
:10082000012EFCD700A00AD0020EDA6F960EFD6FE3
:100830000001CEDF0101DA2FF9D705D04B0EFD6F95
:100840000001C6DF0101828CFA0EFD6F0001C0DFDE
:100850000101DBD7020EDA6FAF0EFD6F0001B8DFCA
:100860000101DA2FF9D7060ED96F040ED86FD853CD
:1008700023E0829CD807D9C100F0D851016E04E072
:10088000D8900032012EFCD700A00AD0020EDA6FF9
:10089000960EFD6F00019CDF0101DA2FF9D705D01C
:1008A0004B0EFD6F000194DF0101828CFA0EFD6F8B
:1008B00000018EDF0101DBD7000155EF0CF00101D3
:1008C000FCBF06D0FC511F0803E21F0EFC6F06D0D0
:1008D000FC51800A600802E3E10EFC6FFDBF06D008
:1008E000FD511F0803E21F0EFD6F06D0FD51800A67
:1008F000600802E3E10EFD6FFEBF06D0FE511F0847
:1009000003E21F0EFE6F06D0FE51800A600802E36C
:10091000E10EFE6FFFBF06D0FF511F0803E21F0E5E
:10092000FF6F06D0FF51800A600802E3E10EFF6FFF
:10093000FC51AC27ACBF06D0AC511F0803E21F0E20
:10094000AC6F04D0ACBF01D001D0AC6BFD51AD2772
:10095000ADBF06D0AD511F0803E21F0EAD6F04D02E
:10096000ADBF01D001D0AD6BFE51AE27AEBF06D0FA
:10097000AE511F0803E21F0EAE6F04D0AEBF01D010
:1009800001D0AE6BFF51B027B0BF06D0B0511F08E9
:1009900003E21F0EB06F04D0B0BF01D001D0B06B26
:1009A00083920400080E006E002EFED700008380A4
:1009B000FCBF01D001D08394FDBF01D001D083964C
:1009C000FEBF01D001D08398FFBF01D001D0839A30
:1009D000FCBF07D0FDBF05D0FEBF03D0FFBF01D0D5
:1009E00027D0FCBF01D002D0FC2B01D08384FDBFF7
:1009F00001D002D0FD2B01D08386FEBF01D002D0F2
:100A0000FE2B01D08388FFBF01D002D0FF2B01D085
:100A1000838A83900400050E006E002EFED700002E
:100A200083800400050E006E002EFED70000D0D794
:100A300083820400080E006E002EFED70000FCBF6B
:100A400004D0FC51000801E28394FDBF04D0FD51A5
:100A5000000801E28396FEBF04D0FE51000801E2C7
:100A60008398FFBF04D0FF51000801E2839AFCBFC6
:100A700003D0FC5100080FE3FDBF03D0FD51000877
:100A80000AE3FEBF03D0FE51000805E3FFBF32D0EA
:100A9000FF5100082FE2FCBF05D0FC51000802E224
:100AA000FC0701D08384FDBF05D0FD51000802E2A0
:100AB000FD0701D08386FEBF05D0FE51000802E28B
:100AC000FE0701D08388FFBF05D0FF51000802E276
:100AD000FF0701D0838A83900400050E006E002E6C
:100AE000FED7000083800400050E006E002EFED7A6
:100AF0000000BDD704000E0E006E002EFED70000D1
:100B00000001000C0101FC510001BB13BB5302E0CA
:100B1000829A949A000C0101FF6BFD6BFC6B80883C
:100B2000829E839EFE6BFE510F0805E3838E0000BC
:100B3000839EFE2BF8D70000838C959CFE6BFE51A4
:100B40000F0805E3838E0000839EFE2BF8D700007C
:100B5000958CFE6BFE510F080BE3838E83BC02D095
:100B6000D89001D0D880FC37FD37839EFE2BF2D77A
:100B70000000839C959CFE6BFE51070805E3838E65
:100B80000000839EFE2BF8D70000828E958CFC51CE
:100B9000000B0201006FFDC101F20201005303E1ED
:100BA0000151540802E00101FF830101FD6BFC6B60
:100BB000828E8098839EFE6BFE510F0805E3838E24
:100BC0000000839EFE2BF8D70000838C959CFE6B63
:100BD000FE510F0805E3838E0000839EFE2BF8D79D
:100BE0000000958CFE6BFE510F080BE3838E83BCD7
:100BF00002D0D89001D0D880FC37FD37839EFE2BE1
:100C0000F2D70000839C959CFE6BFE51070805E31C
:100C1000838E0000839EFE2BF8D700008088958C81
:100C2000FC51FC0B0201006FFDC101F202010053F7
:100C300003E10151540810E00101FC51000B0201D5
:100C4000006FFDC101F20201005303E1015154089C
:100C500003E00101FF850201050E4D6E5E96010164
:100C6000FFC101F00001F1EF08F00101FE6B3E0E43
:100C7000426E700E416E3E0E446E700E436E000169
:100C8000ADA304D00101FE8386D000010101FD6BFC
:100C9000FC6B8088829E839E0000838E83AC01D093
:100CA000FD89839E0000838E83AC01D0FD87839EE7
:100CB0000000838E83AC01D0FD85839E0000838E6F
:100CC00083AC01D0FD83839E0000838E83AC01D072
:100CD000FD81839E0000838E83AC01D0FC8F839EB8
:100CE0000000838E83AC01D0FC8D839E0000838E38
:100CF00083AC01D0FC8B839E0000838E83AC01D03B
:100D0000FC89839E0000838E83AC01D0FC87839E88
:100D10000000838E83AC01D0FC85839E0000838E0F
:100D200083AC01D0FC83839E0000838E83AC01D012
:100D3000FC81839E0000838EFF9183BCFF81839E94
:100D40000000828E00000000839C959C958CFDA97C
:100D500002D0E00EFD1346BB1AD0FFA116D0FDAFA6
:100D600008D0FD51FB0811E2FF0A03E1FC51900895
:100D70000CE2FDBF07D0FD51070807E303E1FC517A
:100D8000CF0803E3468B03D001D0FE8304D0FDC11E
:100D900042F0FCC141F04550415C476E465042581C
:100DA000486EB751475C4B6EB85148584C6E48C0BE
:100DB000B8F147C0B7F171B404D00001ACA915D0A7
:100DC0000101030E4524016E000E4620036E015002
:100DD000415C496E035042584A6E468FFE0E4524D0
:100DE000B96FFF0E4620BA6F27D0010146AF20D061
:100DF000B951415C496EBA5142584A6E495217E1A5
:100E00004A5215E14CBE01D012D0B92BD8B4BA2B3E
:100E100046AE03D0BAAF0AD002D0BABF08D046500F
:100E2000BA5D05E303E14550B95D01E3469F04D097
:100E300048C04AF047C049F00001ADA504D0010107
:100E4000FE8586D000010101FD6BFC6B828E8098CF
:100E5000839E0000838E83AC01D0FD89839E0000B9
:100E6000838E83AC01D0FD87839E0000838E83AC8C
:100E700001D0FD85839E0000838E83AC01D0FD836D
:100E8000839E0000838E83AC01D0FD81839E000091
:100E9000838E83AC01D0FC8F839E0000838E83AC55
:100EA00001D0FC8D839E0000838E83AC01D0FC8B2F
:100EB000839E0000838E83AC01D0FC89839E00005A
:100EC000838E83AC01D0FC87839E0000838E83AC2D
:100ED00001D0FC85839E0000838E83AC01D0FC830F
:100EE000839E0000838E83AC01D0FC81839E000032
:100EF000838EFF9183BCFF81839E00008088000069
:100F00000000839C959C958CFDA902D0E00EFD13FA
:100F100046BD1AD0FFA116D0FDAF08D0FD51FB0889
:100F200011E2FF0A03E1FC5190080CE2FDBF07D07B
:100F3000FD51070807E303E1FC51CF0803E3468DA9
:100F400003D001D0FE8504D0FDC144F0FCC143F0C4
:100F5000FEC101F00001000CF2CF00F2F29EFDC1D3
:100F6000A9FFA69CA69EA680A850020100BFF28EF3
:100F70000101FE5D1DE0A198A098FDC1A9FFFEC181
:100F8000A8FFA69EA69CA684FF91F2BEFF81F29CBC
:100F9000F29EF2BEFDD7550EA76EAA0EA76EA682D0
:100FA000FFA102D0C00EF212A1A8FED7A198A6946C
:100FB0000001000CAD6BE10E0101FC6FFD6FFE6FD7
:100FC000FF6F00017CDC010E0101FD6F000100DC00
:100FD000000E016EC250C70B0110C26E04001D0E40
:100FE000006E002EFED70000C284C2B4FED7C4CF6C
:100FF000E7F10101080E016EC250C70B0110C26E6D
:1010000004001D0E006E002EFED70000C284C2B484
:10101000FED7C4CFE8F1100E016EC250C70B01100D
:10102000C26E04001D0E006E002EFED70000C284AA
:10103000C2B4FED7C4CFE9F1200E016EC250C70B77
:101040000110C26E04001D0E006E002EFED70000BF
:10105000C284C2B4FED7C4CFEAF11F0EFC6FFD6F8D
:10106000FE6FFF6F00012BDC010E0101FD6F00011F
:10107000E8EC03F0000E016EC250C70B0110C26E07
:1010800004001D0E006E002EFED70000C284C2B404
:10109000FED7C4CFEBF10101080E016EC250C70BA1
:1010A0000110C26E04001D0E006E002EFED700005F
:1010B000C284C2B4FED7C4CFECF1100E016EC25090
:1010C000C70B0110C26E04001D0E006E002EFED76D
:1010D0000000C284C2B4FED7C4CFEDF1200E016E71
:1010E000C250C70B0110C26E04001D0E006E002E10
:1010F000FED70000C284C2B4FED7C4CFEEF1E751E0
:10110000EB5D7E0804E2E851EC5D7E0809E3000136
:10111000AD8BAE87800E0101FC6F0001F3DC010195
:10112000E951ED5D7E0804E2EA51EE5D7E0809E3D7
:101130000001AD8DAE87800E0101FC6F0001E2DC85
:101140000101550EF76FCC0EF66FAA0EF56F330E38
:10115000F46FF7C1FBF1F6C1FAF1F5C1F9F1F4C191
:10116000F8F184948198F36BF3511F080DE3FB357C
:10117000F837F937FA37FB3702E3818A01D0819AD1
:1011800081888198F32BF0D7FB6BFA6BF96BF86BC6
:10119000819AF36BF3511F080DE381B602D0D8900A
:1011A00001D0D880F837F937FA37FB378188819832
:1011B000F32BF0D7848484940001AC890101F451AD
:1011C000F85D09E1F551F95D06E1F651FA5D03E1DB
:1011D000F751FB5D04E00001AD87AC81AE850001F5
:1011E0009AD401C0E6F10101E6A50AD00001AD855F
:1011F000AC8FAE83100E0101FC6F000183DC010196
:10120000E6A30AD00001AD83AC87AC93AE83100E89
:101210000101FC6F000176DC0001ADB392D0010149
:10122000F291190EEF6F000120DD0150020B000A50
:101230000DE0140E0101FD6F0001E8EC03F0010167
:10124000EF2F03D0000102D00101EDD70101EF53D0
:1012500001E1D8D78292718AFA0EFD6F0001E8ECA5
:1012600003F0B40EBE6E8492080E0101FC6FFA0EFC
:10127000FD6F0001E8EC03F00101FC2FF8D7848238
:10128000BE6A0001F2DC0150020B000A03E001011A
:10129000B9D7000142C0F1F141C0F0F1050E0101E2
:1012A000FC6FFA0EFD6F0001E8EC03F00101FC2F6A
:1012B000F8D70001DADC0150020B000A02E001015C
:1012C000A1D7100E0101F025016E000EF121036E71
:1012D000015003AE03D042AE0AD002D042BE11D0BC
:1012E0000350425C0EE303E10150415C0AE3F2B1BA
:1012F00002D0718805D071980001AD8FAE810101D7
:1013000021D0100EF05D006E000EF159036E00C08A
:1013100001F042AE03D003AE0AD002D003BE0ED01D
:101320004250035C0BE303E14150015C07E3F2A18F
:1013300001D004D08282F2818FD704D00001AD8128
:10134000AE8101010F0EFD6FADC0FEF1000104DEA4
:10135000100E0101FD6FAEC0FEF10001FDDD000EBB
:1013600071B8010E0101FC6F110EFD6FFCC1FEF1A1
:101370000001F2DD0400000C0101D86BD851040813
:101380000AE3036AD851170FE96E000E0320EA6ED4
:10139000EF6AD82BF3D7010E1D6E900E1C6E010E56
:1013A0001F6E900E1E6E010E216E900E206E010EAD
:1013B000236E900E226E010E256E900E246E050E89
:1013C000276E0A0E266E3D6A0F0E3C6E000188EFF6
:1013D0000CF0020E0101E66F0001CCEC03F001C03D
:1013E000E8F0E85302E0E83D64D0030E0101FD6F30
:1013F0004B0EFE6F0001B0DD040E0101FD6F4B0EC0
:10140000FE6F0001A9DD050E0101FD6F4B0EFE6FA1
:101410000001A2DD4B0EE86FE96FEA6FEC6F060E7C
:101420000101FD6FDA0EFE6F000196DD070E01016E
:10143000FD6FDA0EFE6F00018FDD080E0101FD6FFA
:10144000DA0EFE6F000188DD090E0101FD6FDA0E74
:10145000FE6F000181DDDA0EED6FEE6FEF6FF16F61
:101460000A0E0101FD6F030EFE6F000175DD0B0E0C
:101470000101FD6F030EFE6F00016EDD0C0E010118
:10148000FD6F030EFE6F000167DD0D0E0101FD6FA4
:10149000030EFE6F000160DD030E0101D86FD96FEE
:1014A000DA6FDC6F020EFD6F4B0EFE6F000154DD34
:1014B00058D0030E0101E66F0001CCEC03F001C02F
:1014C000E9F0040E0101E66F0001CCEC03F001C06D
:1014D000EAF0050E0101E66F0001CCEC03F001C05B
:1014E000ECF0060E0101E66F0001CCEC03F001C048
:1014F000EDF0070E0101E66F0001CCEC03F001C036
:10150000EEF0080E0101E66F0001CCEC03F001C023
:10151000EFF0090E0101E66F0001CCEC03F001C011
:10152000F1F00A0E0101E66F0001CCEC03F001C0FE
:10153000D8F10B0E0101E66F0001CCEC03F001C005
:10154000D9F10C0E0101E66F0001CCEC03F001C0F3
:10155000DAF10D0E0101E66F0001CCEC03F001C0E1
:10156000DCF10101A56BA66BAC6BAD6BAE6BB06B28
:10157000E10EFC6FFD6FFE6FFF6F00015FEC04F08A
:10158000D8C1FCF1D9C1FDF1DAC1FEF1DCC1FFF136
:101590005FEC04F089EF0CF00101DC6BDC51040816
:1015A0000AE3036ADC51170FE96E000E0320EA6EAE
:1015B000EF6ADC2BF3D77182E00E3C1671800001DC
:1015C000E3EF0AF0E9D784825E9CBE6AAC8B000C24
:1015D0000101E651E803F3CF01F0F4CF00F0E90395
:1015E000F3500026E751E803F3500020026E00019B
:1015F000000C0101E051E219800BE46FE0AF05D06F
:10160000DF1FE01FDF2BD8B4E02BE2AF05D0E11FD6
:10161000E21FE12BD8B4E22B016A026A006A036A76
:10162000E25102E1E15118E0100EE36FD890DF378C
:10163000E03700360336E251035C02E1E151005C21
:1016400007E3E151005ED8A00306E251035ED880B3
:1016500001360236E32FEAD70000E4AF05D0011EC1
:10166000021E012AD8B4022A0001000C0101D86B25
:101670000001ADB302D0ADA102D0A4DF80D035EC23
:1016800006F001520FE0140E0101FD6F0001E8ECBD
:1016900003F00101D82BD851190802E200016FD0E4
:1016A0000001EDD742AE03D046AE0AD002D046BE0E
:1016B0000ED04250465C0BE303E14150455C07E32A
:1016C00071B802D0828201D08292718A06D071B83C
:1016D00002D0829201D08282719A48C0E7F147C05D
:1016E000E6F10101E96B030EE86F000171DF02C052
:1016F000DCF101C0DBF102C0E0F101C0DFF101016A
:10170000E26B030EE16F000174DF02C0DAF101C089
:10171000D9F171AA0ED0DAC1E7F1D9C1E6F1FF0E15
:101720000101E96FE86F000153DF02C0DAF101C087
:10173000D9F10101DABF01D003D0DA6BD96B0AD03D
:10174000DABF08D0DA5303E1D951B40803E2DA6B07
:10175000B40ED96F8492DAC102F0D9C101F002321D
:10176000013202320132023201C0BEFF02320230C7
:10177000300B006EBD50CF0B0010BD6E00018AEF24
:101780000CF0C190C182C194C1862F0E926ECD0E15
:10179000936E390E946E400E956E96809692969446
:1017A000100E806EC20E816ED80E826E3F0E836E5A
:1017B000020E846EF18E19EF03F0C19CC28CC28EB2
:1017C000C19EC280000E016EC250C70B0110C26ED6
:1017D0000101496B4685C00ED56EE30ED96F8E0EA2
:1017E000D86F000170EF03F0830ECD6EB70EB11607
:1017F0008B940C0EBD6E000E016E0409CA6E590E5C
:10180000CB6EBE6AB150480BB509B16E719C010137
:10181000426B550E416F456B020E466E800E456E53
:10182000FF0E4F6EF00E4E6E516A100E506E536AE0
:10183000F00E526E030E556E240E546EFF0E576E50
:10184000E00E566E596A200E586E5B6AA00E5A6EF4
:10185000030E5D6E730E5C6E5E905E82606A5F6A00
:101860005E8C100E0001AC6F5E943E6A5E967192C3
:101870005E9E71905E8A5E88406A3F6A050E4D6E7C
:10188000AE6B719671880101E66B0001CCEC03F040
:10189000013C01D00AD00101E66B0001CCEC03F061
:1018A0000150550802E0FFEF03F00E0E0101E66F54
:1018B0000001CCEC03F001B003D00101D79102D0BC
:1018C0000101D781D7B104D0D0A202D0D0B005D0C9
:1018D0000001DAEC07F01BD001010F0EE66F0001EA
:1018E000CCEC03F001C0ADF0100E0101E66F000179
:1018F000CCEC03F001C0AEF0110E0101E66F000167
:10190000CCEC03F001B002D0719801D0718834D5CD
:1019100060D5ACD693EF20F0D7C161F0D8C162F0AA
:10192000D9C163F0DAC164F0DBC165F0EA6A660E22
:10193000E96EDDC1E2FFDCC1E1FFE752E6CFEEFF79
:10194000FCE1DEC16CF0A4EF20F0D7C16DF0D8C18E
:101950006EF0D9C16FF0DAC170F0B0EF20F0AF6B6C
:10196000B16BB06BB96BBD0EB86FB76BB66BB56BC7
:10197000B46BBC931E0E016EEA6ABD0EE96EEE6A90
:10198000012EFDD7BB6B948A000C360EC66ED7C1F4
:10199000C8FFC78CBC91E3DFB6EF20F0016A026A92
:1019A000006A036A0101EB5102E1EA5118E0100EEE
:1019B000EC6FD890E837E93700360336EB51035C1B
:1019C00002E1EA51005C07E3EA51005ED8A0030699
:1019D000EB51035ED88001360236EC2FEAD70000C7
:1019E0000001000C0101E851FF0A0001BB17BB53C5
:1019F00001E1948A000C150E0101E96FBE0EE86F3B
:101A000042C1EBF141C1EAF10001C8DF02C0AAF115
:101A100001C0A9F10101A86BA76B46974699170E63
:101A20003F6FFF0E406FE66BE65104083AE3036A2E
:101A3000E651F20FE96E000E0320EA6EEF6A036AC8
:101A4000E6511A0FE96E010E0320EA6EEF6A036A8F
:101A5000E6511F0FE96E010E0320EA6EEF6A036A7A
:101A6000E651240FE96E010E0320EA6EEF6A036A65
:101A7000E651290FE96E010E0320EA6EEF6A036A50
:101A8000E6512E0FE96E010E0320EA6EEF6A036A3B
:101A9000E651330FE96E010E0320EA6EEF6AE62B82
:101AA000C3D7E8C0F7F00001E851F30804E30C0ED7
:101AB000E825FC6F02D0FF0EFC6FE9510B0804E231
:101AC0000C0EE95DF86F01D0F86BE9C0FDF0EAC0DB
:101AD000F9F0EA51E30804E31C0EEA25FE6F02D098
:101AE000FF0EFE6FEC511B0804E21C0EEC5DFB6F59
:101AF00001D0FB6BECC000F100C10FF1FDC00CF197
:101B00000101E66BE65103081BE3036AE651010F8E
:101B1000E96E010E0320EA6EFF0EEF6E036AE651D6
:101B2000060FE96E010E0320EA6EEF6A036AE651C2
:101B3000100FE96E010E0320EA6EEF6AE62BE2D782
:101B4000A26BA36BA46B040E016E010EEA6E3A0E3B
:101B5000E96EEE6A012EFDD7386B396B446B300E9F
:101B600045173E6BCF6ACE6A9E90A06BA16BE79142
:101B7000F2BEE781F29CF29EF2BEFDD7040EE86F42
:101B8000000130DF200E0101E86F00012BDF800E25
:101B90000101E86F000126DF0101E7A102D0C00EBC
:101BA000F2120001000CE6C1B4F0B45302E1B19BA3
:101BB00001D0B18B000CF29CF29EF2BEFDD7CFDEBD
:101BC000FF00000CBBC080F0B4C081F0B5C082F053
:101BD000E6C183F058EF13F00101E6A108D00A0E28
:101BE000FD6FACC1FEF10001ACEC07F00101E6A312
:101BF00008D00B0EFD6FADC1FEF10001ACEC07F09B
:101C00000101E6A508D00C0EFD6FAEC1FEF100018A
:101C1000ACEC07F00101E6A708D00D0EFD6FB0C1D6
:101C2000FEF10001ACEC07F00101000158EF13F0E8
:101C30000101E651060804E2000E016E026E65D055
:101C40000F0EE817E617EA6BE6C1E9F1E939EA6F2A
:101C5000E96BF00EEA17E751E913E851EA13D8905F
:101C6000E635036A280FE96E000E0320EA6EE8C12C
:101C7000ECFFED52E7C1EFFF81820400020E006E1F
:101C8000002EFED7000081980400020E006E002E88
:101C9000FED7000081920400050E006E002EFED7D4
:101CA0000000EB6BEB510F0823E30400020E006E03
:101CB000002EFED70000EAAF02D0818A01D0819ABF
:101CC000D890E937EA3781A602D0E98101D0E991BD
:101CD0000400020E006E002EFED700008188040072
:101CE000020E006E002EFED700008198EB2BDAD793
:101CF0000400050E006E002EFED7000081820F0E3C
:101D0000EA17E9C101F0EAC102F00001000C01018B
:101D1000DA6B0001B1A169EF13F00101E66B00017C
:101D200042DF72503F0B0101D86FD8510E0802E21A
:101D30000E0ED86F7350070A0001D8B47FD00F0A77
:101D4000D8B47ED0060AD8B481D01E0AD8B482D0C6
:101D5000190AD8B493D0090AD8B49ED0030AD8B4CB
:101D6000ACD0020AD8B4CCD0030AD8B4D0D0080A78
:101D7000D8B4D8D0010AD8B4F1D00D0AD8B4FAD06A
:101D8000850AD8B413D1130AD8B413D1010AD8B430
:101D90007BD1030AD8B486D1010AD8B46ED2070A1F
:101DA000D8B47AD2010AD8B4B7D2030AD8B4C5D20B
:101DB000010AD8B4CDD2170AD8B4CDD2070AD8B404
:101DC000D8D20E0AD8B4E2D2080AD8B4E6D2030AAE
:101DD000D8B40CD3070AD8B417D3030AD8B42AD37B
:101DE0000C0AD8B487EF12F0020AD8B489EF12F0C7
:101DF0000C0AD8B49AEF12F00A0AD8B4A3EF12F082
:101E0000010AD8B4C0EF12F0040AD8B4DDEF12F022
:101E1000070AD8B4FAEF12F0010AD8B417EF13F09A
:101E20005F0AD8B434EF13F0020AD8B445EF13F0C8
:101E3000010AD8B44BEF13F051EF13F058EF13F041
:101E4000DAEC07F0ADC080F058EF13F0ADC080F0D1
:101E500058EF13F0745209E00E0E0101FD6F010EF0
:101E6000FE6F0001ACEC07F007D00E0E0101FD6F14
:101E7000FE6B0001ACEC07F058EF13F0EA6A800E3D
:101E8000E96EE26A9E0EE16E1E0E016EE6CFEEFF77
:101E9000012EFCD758EF13F0EA6A800EE96EE26A71
:101EA000740EE16E0101D851016E04E0E6CFEEFF41
:101EB000012EFCD7000158EF13F07450010A03E023
:101EC000030A0EE01AD0EA6A800EE96EE26A610E39
:101ED000E16E0C0E016EE6CFEEFF012EFCD70ED0A8
:101EE000EA6A800EE96EE26A6D0EE16E040E016E22
:101EF000E6CFEEFF012EFCD701D000D058EF13F053
:101F0000B1A702D05E8401D056DE58EF13F01E0E4A
:101F1000016EEA6A800EE96EEE6A012EFDD7ACC052
:101F2000E6F150D674C0DFF175C0E0F1DFC1A9FF62
:101F3000E0C1A8FFA69CA69EA684F2CF00F0F29E68
:101F40000F01550EA76EAA0EA76EA682A6B2FED7E7
:101F5000A6940050F212000158EF13F074C0DFF1A4
:101F6000DFC1E6F1CCEC03F001C0E0F1E0C180F0AC
:101F700058EF13F00101E191F2BEE181F29CF29E73
:101F8000F2BEFDD7745206E075C0FCF1000182EC90
:101F900005F004D075C0E8F1000124DD0101E1A1E4
:101FA00002D0C00EF212000158EF13F0ACC080F066
:101FB0007FD3CECF81F0CFCF80F00101A0535CE082
:101FC000E26BE56B030EE36F0001B65D0101D96FB3
:101FD000D951040829E2A051E25D26E2050EE46F22
:101FE000E451D95FE52BE451E407000A1CE0E3511A
:101FF000E32B036A800F016E000E032201C0E7F19C
:1020000003C0E8F1E251E22B036A500FE96E010EC2
:102010000320EA6EEFCFEAF1E8C1EAFF01C0E9FF71
:10202000EAC1EFFFE0D7D4D7E5C182F04551000106
:1020300083130101E251A05FD96BE2514F081BE30A
:10204000036AD951500F016E010E032203C0E7F15C
:10205000036AE251500FE96E010E0320EA6EEFCFE2
:10206000E8F1E7C1EAFF01C0E9FFE8C1EFFFD9519C
:10207000D92BE22BE2D706D0010E0001826F45C1B9
:1020800083F00001000114D30101E76BE86B036AE0
:102090007450E811416F03507510426F718C00014C
:1020A000AADC06D3719C0101A1511508D8B0E1D07A
:1020B00044510208D8A46ED0200E0001FE25010173
:1020C000A65D17E016E3A639006E0F0E001600504D
:1020D000A65DD96F0001EF510101D95D0AE2D9C1B6
:1020E000EFF0080EFD6FD9C1FEF10001ACEC07F076
:1020F0000101040EE66F0001CCEC03F001C0D9F140
:102100000C0E0101D9250001EA5D01E006E20C0E8A
:102110000101D95D0001EA5D13E2D8900101D931D6
:10212000E66FD8900001EA310101E625E26F040E66
:10213000FD6FE2C1FEF10001ACEC07F0E2C1EAF094
:10214000050E0101E66F0001CCEC03F001C0D9F1EE
:102150000C0E0101D9250001EC5D01E006E20C0E38
:102160000101D95D0001EC5D13E2D8900101D93184
:10217000E66FD8900001EC310101E625E26F050E13
:10218000FD6FE2C1FEF10001ACEC07F0E2C1ECF042
:102190006FD00101442D6DD0200E0001FC250101FE
:1021A000A55D17E016E3A539006E0F0E001600506E
:1021B000A55DD96F0001ED510101D95D0AE2D9C1D8
:1021C000EDF0060EFD6FD9C1FEF10001ACEC07F099
:1021D0000101020EE66F0001CCEC03F001C0D9F161
:1021E0000C0E0101D9250001E85D01E006E20C0EAC
:1021F0000101D95D0001E85D13E2D8900101D931F8
:10220000E66FD8900001E8310101E625E26F020E89
:10221000FD6FE2C1FEF10001ACEC07F0E2C1E8F0B5
:10222000030E0101E66F0001CCEC03F001C0D9F10F
:102230000C0E0101D9250001E95D01E006E20C0E5A
:102240000101D95D0001E95D13E2D8900101D931A6
:10225000E66FD8900001E9310101E625E26F030E37
:10226000FD6FE2C1FEF10001ACEC07F0E2C1E9F064
:1022700001010001FBEC0CF01BD2010149510408E3
:1022800001E328D24AC180F04BC181F04CC182F0F9
:102290004EC183F000010CD2020E0101FD6F74C02B
:1022A000FEF10001ACEC07F0030E0101FD6F75C0FB
:1022B000FEF10001ACEC07F0040E0101FD6F76C0E9
:1022C000FEF10001ACEC07F0050E0101FD6F77C0D7
:1022D000FEF10001ACEC07F0060E0101FD6F78C0C5
:1022E000FEF10001ACEC07F0070E0101FD6F79C0B3
:1022F000FEF10001ACEC07F0080E0101FD6F7AC0A1
:10230000FEF10001ACEC07F0090E0101FD6F7BC08E
:10231000FEF10001ACEC07F074C0E8F075C0E9F024
:1023200076C0EAF077C0ECF078C0EDF079C0EEF05E
:102330007AC0EFF07BC0F1F0BBD174C0FCF175C086
:10234000FDF176C0FEF177C0FFF15FEC04F0B0D193
:1023500074C0E6F141D474A003D00F0E3C1202D039
:10236000F00E3C1674A202D03C8801D03C987180DB
:102370009FD10101E76BE86B036A7450E8113C6E72
:10238000035075103D6E7180000192D1745202E0CD
:102390003D8201D03D9271808BD10101D96BD95121
:1023A000040821E3036AD951170F016E000E0322BE
:1023B00001C0E6F103C0E7F1020ED925036A720FEE
:1023C000E96E000E0320EA6E036AEF500001EBECA9
:1023D00001F0016EE7C1EAFFE6C1E9FF01C0EFFFCE
:1023E0000101D92BDCD77182000162D1EA6A1C0E8F
:1023F000E96EE26A740EE16E0C0E016EE6CFEEFF3E
:10240000012EFCD75E8E54D174C0DAF175C0D9F1BB
:10241000036A0101DA51170FE96E000E0320EA6E1C
:10242000036AD9510001EBEC01F0016E01C0EFFF2E
:1024300071823ED174C0DAF10101E76BE86B036A87
:102440007550E811DB6F03507610DC6FD890DA35E9
:10245000036A1C0FE96E000E0320EA6EDCC1ECFF7C
:10246000ED52DBC1EFFFDA51000A00010BE0010A77
:1024700014E0030A1DE0010A26E0070A2FE0010A22
:1024800038E042D0040E0101E66F1DC0E8F11CC027
:10249000E7F1000118EC0EF038D0050E0101E66FEF
:1024A0001FC0E8F11EC0E7F1000118EC0EF02DD0BE
:1024B000020E0101E66F21C0E8F120C0E7F1000142
:1024C00018EC0EF022D0010E0101E66F23C0E8F1F6
:1024D00022C0E7F1000118EC0EF017D0030E010145
:1024E000E66F25C0E8F124C0E7F1000118EC0EF01A
:1024F0000CD0060E0101E66F27C0E8F126C0E7F117
:10250000000118EC0EF001D000D07180D1D05E8EA9
:10251000CFD04250000B036E41C080F04250036A9E
:10252000816F4450000B036E43C082F04450036A35
:10253000836FBED04650000B036E45C080F04650FE
:10254000036A816FB5D00101E76BE86B036A7450D1
:10255000E811006E03507510036E00C0DDF103C07A
:10256000DEF1DEC146F0DDC145F084925E8C0001F3
:10257000AC9BAC97AC95AC935E88406A3F6A98D0B0
:102580000101E76BE86B036A7450E811006E0350B9
:102590007510036E00C04EF003C04FF0E76BE86BA0
:1025A000036A7650E811006E03507710036E00C086
:1025B00050F003C051F000017BD00101E76BE86BE4
:1025C000036A7450E811006E03507510036E00C06A
:1025D00052F003C053F0E76BE86B036A7650E811E2
:1025E000006E03507710036E00C054F003C055F026
:1025F00000015ED00101E76BE86B036A7450E811DB
:10260000006E03507510036E00C056F003C057F003
:10261000E76BE86B036A7650E811006E03507710A1
:10262000036E00C058F003C059F0000141D0010111
:10263000E76BE86B036A7450E811006E0350751085
:10264000036E00C05AF003C05BF0E76BE86B036AEF
:102650007650E811006E03507710036E00C05CF0F6
:1026600003C05DF0000124D0745204E084925E8CBB
:10267000AC9B04D084825E9CBE6AAC8BAC97AC955C
:10268000AC935E88406A3F6A13D0745202E05E8069
:1026900001D05E900DD0745202E05E8201D05E9255
:1026A00007D0010E0101E66F0001D3EC0DF000D060
:1026B000735009080CE0EA6A9E0EE96EE26A720E37
:1026C000E16E0E0E016EE6CFEEFF012EFCD7B1914A
:1026D000040001010001000C010146A503D046954C
:1026E000C28428D0C2B426D0036A49514A0FE96E89
:1026F000010E0320EA6EC4CFEFFF4951020803E147
:10270000020E492701D0492B495105080BE34935F1
:10271000006E00360036F80E0016C250C70B0010CF
:10272000C26E07D0000E016EC250C70B0110C26E00
:10273000496B4685A72BD8B4A82BAA51A85D0FE3F7
:1027400003E1A951A75D0BE3A86BA76B4687000EB9
:10275000016EC250C70B0110C26E496B468546A779
:1027600005D04951040802E2468946970001C8EFA6
:1027700020F04D064D5203E1050E4D6E5E867186CA
:10278000CDEF20F0036A0101E051E80FE96E000E81
:102790000320EA6EEFCFE1F139533CE1E051000A4A
:1027A000000107E0020A05E0030A0EE0050A0CE05A
:1027B0002ED0036A0101E051E80FE96E000E0320FC
:1027C000EA6EEFCFE1F125D0036A0101E051E80F95
:1027D000E96E000E0320EA6EEFCFE1F1100EE15D2D
:1027E000E26F036AE051010FE96E010E0320EA6E09
:1027F000EF50E25D0BE00AE3036AE051010FE96E7E
:10280000010E0320EA6E100EEF24E16F02D00101E9
:1028100000D024D03951040803E0395105081EE1E5
:10282000E02D08D0155303E1A3C1E1F102D0A4C10A
:10283000E1F114D0E051040808E1175303E1A3C10A
:10284000E1F102D0A4C1E1F109D0036AE051E80F3F
:10285000E96E000E0320EA6EEFCFE1F1036AE0516A
:102860004A0FE96E010E0320EA6EE151EF5C04E2CB
:10287000010E016E04D003D0000E016E00D00001E5
:10288000000C0101E051030816E13E51150807E173
:102890003AC1E1F13BC1E2F13CC1E3F10BD03E5161
:1028A0000C0808E1040EE06F3AC1E1F13BC1E2F12E
:1028B000AA0EE36F06D0CECFE2F1CFCFE1F1CC0E7E
:1028C000E36F050EA0254F0832E3A051A02B036A49
:1028D000500FE96E010E0320EA6EE0C1EFFFA05138
:1028E000A02B036A500FE96E010E0320EA6EABC104
:1028F000EFFFA051A02B036A500FE96E010E0320D9
:10290000EA6EE1C1EFFFA051A02B036A500FE96E00
:10291000010E0320EA6EE2C1EFFFA051A02B036A73
:10292000500FE96E010E0320EA6EE3C1EFFFAB6BBF
:10293000A0511E0806E3E051070803E0E051080833
:1029400006E1200EFC6F000182EC05F001010001A0
:10295000000C0101E191036AE051150FE96E010ECF
:102960000320EA6EEF2C28D0036AE0511A0FE96EBB
:10297000010E0320EA6EEFBE1BD0036AE0511A0F6E
:10298000E96E010E0320EA6EEF2A036AE0511A0F86
:10299000E96E010E0320EA6EEF507F0808E1036A3A
:1029A000E0511A0FE96E010E0320EA6EEF0603D024
:1029B000E181010EE26F33D0036AE051150FE96E39
:1029C000010E0320EA6EEF522AE1036AE0511A0F6A
:1029D000E96E010E0320EA6EEFBE03D0EF5000084F
:1029E0001BE3036AE0511A0FE96E010E0320EA6E41
:1029F000EF06036AE0511A0FE96E010E0320EA6E3A
:102A0000EF50800808E1036AE0511A0FE96E010EE9
:102A10000320EA6EEF2A03D0E181FF0EE26FE1A10D
:102A200087D0036AE051330F016E010E032203C009
:102A3000E4F1036AE0512E0FE96E010E0320EA6E05
:102A4000EFCFE5F1E4C1EAFF01C0E9FFE5C1EFFF27
:102A5000036AE0512E0F016E010E032203C0E4F160
:102A6000036AE051290FE96E010E0320EA6EEFCFF1
:102A7000E5F1E4C1EAFF01C0E9FFE5C1EFFF036A48
:102A8000E051290F016E010E032203C0E4F1036A35
:102A9000E051240FE96E010E0320EA6EEFCFE5F15D
:102AA000E4C1EAFF01C0E9FFE5C1EFFF036AE051BD
:102AB000240F016E010E032203C0E4F1036AE0510A
:102AC0001F0FE96E010E0320EA6EEFCFE5F1E4C1BE
:102AD000EAFF01C0E9FFE5C1EFFF036AE0511F0F04
:102AE000016E010E032203C0E4F1036AE0511A0FE4
:102AF000E96E010E0320EA6EEFCFE5F1E4C1EAFFD3
:102B000001C0E9FFE5C1EFFF036AE0511A0FE96E6A
:102B1000010E0320EA6EE2C1EFFF010E006EE051EC
:102B2000016E04E0D8900036012EFCD70050381317
:102B30000001000C01014007405307E1395305E053
:102B4000396BA15301E1446B3E6B0001CBEF18F0F0
:102B5000036A0101E1511F0FE96E010E0320EA6EC5
:102B6000EFCFE6F1036AE151240FE96E010E032075
:102B7000EA6EEF50E65DE36BE26FAAC1E7F1A9C12F
:102B8000E6F1E3C1E9F1E2C1E8F10001E8EC0AF0A5
:102B900002C0E7F101C0E6F102C0E9F101C0E8F1CD
:102BA0000101EB6B180EEA6F0001CEEC0CF002C0D5
:102BB000E5F101C0E4F10101AA51E55D4DE303E156
:102BC000E451A95D49E2E5C1E9F1E4C1E8F1EB6B4B
:102BD0000B0EEA6F0001CEEC0CF002C0E7F101C071
:102BE000E6F1AAC1E9F1A9C1E8F10101EB6B0A0E16
:102BF000EA6F0001CEEC0CF002C003F002500101BC
:102C0000E75D23E303E1E651015C1FE2AAC1E7F1BE
:102C1000A9C1E6F1E96B0B0EE86F0001E8EC0AF0E0
:102C200002C0E7F101C0E6F102C0E9F101C0E8F13C
:102C30000101EB6B0A0EEA6F0001CEEC0CF002C052
:102C4000AAF101C0A9F106D00101E5C1AAF1E4C1D0
:102C5000A9F1000149D00101E5C1E9F1E4C1E8F1C0
:102C6000EB6B140EEA6F0001CEEC0CF002C0E7F142
:102C700001C0E6F1AAC1E9F1A9C1E8F10101EB6BDC
:102C8000150EEA6F0001CEEC0CF002C003F001500B
:102C90000101E751025C23E303E10150E65D1FE21D
:102CA000AAC1E7F1A9C1E6F1E96B130EE86F0001D3
:102CB000E8EC0AF002C0E7F101C0E6F102C0E9F178
:102CC00001C0E8F10101EB6B140EEA6F0001CEECDC
:102CD0000CF002C0AAF101C0A9F106D00101E5C1C2
:102CE000AAF1E4C1A9F10001000C0101442D2FD08B
:102CF000010EE16F00012CDF0101A15308E101C1C8
:102D0000F7F006C1FCF002C1F8F007C1FDF011C1F7
:102D10000CF10001F85101010C5D006ED8900030FB
:102D2000E06FA15303E1E0C1A2F106D0E051A2257A
:102D3000006ED8900030A26FA2510001FD5D01012C
:102D4000A36FA2510001F8250101A46F2CD0040E3D
:102D5000E16F0001FDDE0101A15308E103C1F9F0BB
:102D600008C1FEF005C1FBF00AC100F114C10FF16A
:102D70000001FB5101010F5D006ED8900030E06F43
:102D8000A15303E1E0C1A2F106D0E051A225006EFB
:102D9000D8900030A26FA251005DA36FA251000134
:102DA000FB250101A46F3E6B386B040E016E010E12
:102DB000EA6E3A0EE96EEE6A012EFDD73FC140F190
:102DC000476B486BE06BE05103081BE3036AE0517B
:102DD000010FE96E010E0320EA6EFF0EEF6E036A2B
:102DE000E051060FE96E010E0320EA6EEF6A036AF6
:102DF000E051100FE96E010E0320EA6EEF6AE02B3E
:102E0000E2D70001000C0101E1BF01D005D0000EA6
:102E1000D880E155016E02D0E1C101F00001000C43
:102E20000101E4333A373B373C373D370001EDEFE2
:102E300017F00101E4531BE03E51070BE56F3E31F3
:102E4000006E003200321F0E00160050036A3A0F67
:102E5000E96E010E0320EA6E010E006EE551016E6F
:102E600004E0D8900036012EFCD70050EF1200018C
:102E7000EDEF17F00101ED51016AEC5D03E2ECC1E9
:102E800000F00CD0006A080EEE6FEC370036ED5102
:102E9000005CD8B0006E0136EE2FF7D70001000CB1
:102EA0000101E55362E0E65360E0036AE4511F0F5D
:102EB000E96E010E0320EA6EEFCFE9F1E9BF21D000
:102EC000E95100081EE2E9C1ECF1E5C1EDF10001B4
:102ED000D1DF01C0E7F1036A0101E451240FE96E7B
:102EE000010E0320EA6EEF50FF0A010FEB6FEBC1FA
:102EF000ECF1E6C1EDF10001BDDF01C0E8F11DD04C
:102F00000101000ED880E955EB6FEBC1ECF1E5C192
:102F1000EDF10001AFDF01C0E8F1036A0101E45106
:102F2000240FE96E010E0320EA6EEFCFECF1E6C14B
:102F3000EDF100019FDF01C0E7F10101E751E85D1C
:102F400014E0E851E75D09E2036AE451E80FE96E35
:102F5000000E0320EA6EEF2A08D0036AE451E80F5E
:102F6000E96E000E0320EA6EEF060001F9EF17F09C
:102F70000101442D08D0020EE06F010EE16FE26BFB
:102F80001BC1E3F108D0100EE06F040EE16F020EDA
:102F9000E26F1EC1E3F13851E015000A08E0E3BF1B
:102FA00005D0E351000802E2476B01D0486BE3BF54
:102FB00007D0E351000804E2010EE06F472B02D076
:102FC000E06B482B3951040804E1E0C1E4F1000151
:102FD00027D7E0C1E4F100012CD701013E2B3FC10E
:102FE00040F1386BE2C1E4F1010EE56FE66F0001DC
:102FF00057D7C4EF1BF00101395104080DE10390CC
:103000003D333C333B333A3303903D333C333B3326
:103010003A333E073E0723D0020EE16FE1531FE033
:103020003E51070BE06F3E31006E003200321F0E42
:1030300000160050036A3A0FE96E010E0320EA6E93
:10304000010E006EE051016E04E0D8900036012EB2
:10305000FCD70050FF0AEF163E07E107DFD700015B
:10306000D8EF1BF09EA009D09E9071AC06D0040E44
:103070000101FC6F000182EC05F0010146B902D0AC
:103080000BEF1DF04699E06B0001C2EC13F001C09C
:1030900015F1010E0101E06F0001C2EC13F001C057
:1030A00016F1020E0101E06F0001C2EC13F001C045
:1030B00017F1040E0101E06F0001C2EC13F001C032
:1030C00019F14AC1D8F14BC1D9F14CC1DAF14EC165
:1030D000DCF10101D851A55D02E2D8C1A5F1DA51B8
:1030E000A65D02E2DAC1A6F1D8510001ED5D0EE263
:1030F000010146B109D04681AB81459B080EE06FC6
:10310000000141EC14F001010DD00001010146A1C4
:1031100009D04691AB81458B070EE06F000141EC71
:1031200014F00101DA510001EF5D0EE2010146B336
:1031300009D04683AB834599080EE06F000141EC4E
:1031400014F001010DD00001010146A309D04693FE
:10315000AB834589070EE06F000141EC14F00101DB
:1031600071BC02D00BEF1DF0E06B0001A9EC14F074
:10317000010E0101E06F0001A9EC14F0020E010143
:10318000E06F0001A9EC14F0040E0101E06F0001F2
:10319000A9EC14F0CFD40101385302E10BEF1DF07C
:1031A0003951000A00010CE0040AD8B47FD2010AA8
:1031B000D8B47CD2030AD8B4B1EF1CF008EF1DF0EC
:1031C0000101DF9144510208D8B435D11ABF03D0B0
:1031D0001A51000817E3000ED8801A55006E00BE81
:1031E00003D000500A0834E3000ED8801A55006E50
:1031F00000BE2ED0005000082BE21FBF29D01F5167
:103200001D0826E20151D85D03E2D8C101F105D0C5
:10321000D851065D02E2D8C106F10251D95D03E240
:10322000D9C102F114D0D951075D02E2D9C107F129
:103230001ABF03D01A511C080AE31ABF08D01A514A
:10324000000805E2D951115D02E2D9C111F124D083
:10325000000ED8801B55006E00BE0FD000500B082A
:103260000CE2000ED8801A55006E00BE06D0005049
:103270000B0803E2FF0E026F0FD0000ED8801A5524
:10328000006E00BE09D000500B0806E2FF0E016F71
:10329000066B026F076B116B000ED8801A55006E1B
:1032A00000BEC9D000500508D8B0C5D0000ED880E7
:1032B0002455006E00BEBFD000500508D8B0BBD06A
:1032C000000ED8801B55006E00BEB5D0005000081F
:1032D000D8B0B1D01FBFAFD01F511D08D8B0ABD0F0
:1032E0001FBF04D01F515308D8A0A5D0000ED8800E
:1032F0001B55006E00BE04D000501108D8A09BD012
:1033000020BF04D020511908D8A095D0000ED88035
:103310002555006E00BE04D000501908D8A08BD0EF
:103320002ABF04D02A511908D8A085D020BF83D045
:1033300020510008D8B07FD0000ED8802555006EEF
:1033400000BE79D000500008D8B075D02ABF73D025
:103350002A510008D8B06FD02551205D2A25DD6F95
:103360001F51DD5DE06FE051E0AF03D0000ED8806B
:10337000E055DE6FDEBF03D0DE51110815E31FBF3D
:1033800003D01F51320810E3000ED8802F55006E75
:1033900000BE0AD00050050807E2DF81010E436F2E
:1033A000050E396F719E40D02F51DD5D3425DD6FE4
:1033B0001F51DD5DE06FE051E0AF03D0000ED8801B
:1033C000E055DE6FDEBF03D0DE5111082DE31FBFD5
:1033D0002BD01F51310828E2000ED8802F55006EE7
:1033E00000BE22D0005000081FE234BF1DD034516F
:1033F00000081AE2000ED8802F55006E00BE03D0E0
:103400000050190811E334BF03D0345119080CE3FC
:10341000DF81436B040E396F718EAB81050EE06F57
:10342000000141EC14F00101DFA105D0010E446F51
:1034300000015BDC0101442D01D036D11CBF03D05B
:103440001C51000817E3000ED8801C55006E00BE0A
:1034500003D000500A0834E3000ED8801C55006EDB
:1034600000BE2ED0005000082BE221BF29D02151F0
:103470001D0826E20351DA5D03E2DAC103F105D04B
:10348000DA51085D02E2DAC108F10551DC5D03E2C0
:10349000DCC105F114D0DC510A5D02E2DCC10AF1A5
:1034A0001CBF03D01C511C080AE31CBF08D01C51D0
:1034B000000805E2DC51145D02E2DCC114F124D005
:1034C000000ED8801E55006E00BE0FD000500B08B5
:1034D0000CE2000ED8801C55006E00BE06D00050D5
:1034E0000B0803E2FF0E056F0FD0000ED8801C55AD
:1034F000006E00BE09D000500B0806E2FF0E036FFD
:10350000086B056F0A6B146B000ED8801C55006E9B
:1035100000BECAD000500508D8B0C6D0000ED88072
:103520002655006E00BEC0D000500508D8B0BCD0F3
:10353000000ED8801E55006E00BEB6D000500008A8
:10354000D8B0B2D021BFB0D021511D08D8B0ACD076
:1035500021BF04D021515308D8A0A6D0000ED88096
:103560001E55006E00BE04D000501108D8A09CD09B
:1035700023BF9AD023510008D8B096D0000ED8802F
:103580002855006E00BE90D000500008D8B08CD0F6
:103590002DBF8AD02D510008D8B086D023BF04D0CB
:1035A00023511908D8A080D0000ED8802855006E6D
:1035B00000BE04D000501908D8A076D02DBF04D08A
:1035C0002D511908D8A070D02851235D2D25DD6F0D
:1035D0002151DD5DE06FE051E0AF03D0000ED880F7
:1035E000E055DE6FDEBF03D0DE51110815E321BFC9
:1035F00003D02151320810E3000ED8803255006EFE
:1036000000BE0AD00050050807E2DF81010E436FBB
:10361000050E396F719E40D03251DD5D3725DD6F6B
:103620002151DD5DE06FE051E0AF03D0000ED880A6
:10363000E055DE6FDEBF03D0DE5111082DE321BF60
:103640002BD02151310828E2000ED8803255006E6F
:1036500000BE22D0005000081FE237BF1DD03751F6
:1036600000081AE2000ED8803255006E00BE03D06A
:103670000050190811E337BF03D0375119080CE384
:10368000DF81436B040E396F718EAB83050EE06FE3
:10369000000141EC14F00101DFA106D0020E446FDD
:1036A000000175EC16F00101B6D100010101442DB5
:1036B00017D00151D85D03E2D8C101F105D0D8512E
:1036C000065D02E2D8C106F10251D95D03E2D9C11B
:1036D00002F105D0D951075D02E2D9C107F116D038
:1036E0000351DA5D03E2DAC103F105D0DA51085D76
:1036F00002E2DAC108F10551DC5D03E2DCC105F14B
:1037000005D0DC510A5D02E2DCC10AF1442D0BD088
:1037100038A109D01AC1E1F1000103EC17F0015002
:10372000050811E30101445102080EE138A50CD04F
:103730001CC1E1F1000103EC17F001500508D8A00D
:1037400002D0010101D014D4442D09D01FC1E1F1F0
:10375000000103EC17F0015005080FE2010144518C
:10376000020811E121C1E1F1000103EC17F0015061
:103770000508D8B002D0010106D00101396BA15370
:1037800001E1446B3E6B00010101442D05D01ABFDD
:1037900003D01A5119080AE344510208D8A4DFD013
:1037A0001CBFDDD01C511908D8B0D9D0000123D4DA
:1037B000060E0101396F3F51080DF3CF40F1386B10
:1037C000442D69D03E51150803E03E510C085FE1DD
:1037D000A12B71AE08D0AB81030EE06F000141EC6C
:1037E00014F01BD00101A15101080AE245BD06D029
:1037F000800EFC6F000182EC05F00101458D458FC4
:10380000AB81030EE06F000141EC14F00101AB81CC
:10381000050EE06F000141EC14F00101E16BF8C00E
:10382000E0F10001FD510101E025E26F000EE12110
:10383000E36FD890E331036EE231026E0001E96F6D
:103840000101A12D09D001C1F7F006C1FCF002C1B0
:10385000F8F007C1FDF01AD00001F7510101015D38
:1038600002E201C1F7F006510001FC5D02E206C16F
:10387000FCF0F8510101025D02E202C1F8F00751CB
:103880000001FD5D02E207C1FDF0010103D0A1537B
:1038900001E1446B64D03E51150803E03E510C0831
:1038A0005BE1A12B71AE11D045BD06D0800EFC6F3F
:1038B000000182EC05F00101458DAB83030EE06F42
:1038C000000141EC14F012D00101A151010801E204
:1038D000458FAB83030EE06F000141EC14F0010152
:1038E000AB83050EE06F000141EC14F00101E16BC8
:1038F000FBC0E0F10051E025E26F000EE121E36F33
:10390000D890E331036EE231026E0001EC6F0101E9
:10391000A12D09D003C1F9F008C1FEF005C1FBF0EB
:103920000AC100F118D00001F9510101035D02E262
:1039300003C1F9F008510001FE5D02E208C1FEF08A
:10394000FB510101055D02E205C1FBF00A51005D7A
:1039500002E20AC100F103D0A15301E1446B5BD044
:1039600000010101442D02D038B105D044510208B4
:103970004DE138A54BD0FF0E406F396B386BD76BDC
:10398000D751040843E3036AD7511F0FE96E010EB4
:103990000320EA6EEF6A036AD751240FE96E010E25
:1039A0000320EA6EEF6A036AD751290FE96E010E10
:1039B0000320EA6EEF6A036AD7512E0FE96E010EFB
:1039C0000320EA6EEF6A036AD751330FE96E010EE6
:1039D0000320EA6EEF6A036AD751010FE96E010E08
:1039E0000320EA6EFF0EEF6E036AD751060FE96EF1
:1039F000010E0320EA6EEF6A036AD751100FE96ED9
:103A0000010E0320EA6EEF6AD72BBAD704D000016B
:103A10000101396B00D00001CFEF20F017C0D8F1C1
:103A200018C0D9F119C0DAF11BC0DBF10101D76B65
:103A3000D7511F080FE3DB35D837D937DA37DB37F3
:103A400002E3818A01D0819A000081880000819878
:103A5000D72BEED784848494D85309E1D95307E156
:103A6000DA5305E1DB5303E10001AC8902D0000128
:103A7000AC99AC97AC95AC935E88406A3F6AD3EF43
:103A800020F0060E0101E66F27C0E8F126C0E7F13D
:103A9000000118EC0EF0010E0101E66F23C0E8F101
:103AA00022C0E7F1000118EC0EF0020E0101E66FF2
:103AB00021C0E8F120C0E7F1000118EC0EF0030E80
:103AC0000101E66F25C0E8F124C0E7F1000118EC20
:103AD0000EF0040E0101E66F1DC0E8F11CC0E7F115
:103AE000000118EC0EF0050E0101E66F1FC0E8F1B1
:103AF0001EC0E7F1000118EC0EF00101E66B3DC0BD
:103B0000E8F13CC0E7F1000118EC0EF0D7EF20F02F
:103B100049505F264A50602260AE07D06050F008DE
:103B200004E3F10E606E5F6A0DD060BE0BD0605092
:103B30000E0808E2FF0A03E15F50000803E20F0EDF
:103B4000606E5F6A5EAA32D04AC0E7F149C0E6F112
:103B50000101E96B030EE86F0001E8EC0AF002C016
:103B6000DDF101C0DCF102C0E0F101C0DFF10101D3
:103B7000E26B020EE16F0001F9EC0AF002C0DEF127
:103B800001C0DDF160C0E0F15FC0DFF10101E26B77
:103B9000200EE16F0001F9EC0AF001500101DD2572
:103BA000D76F0250DE21D86F22D000014AC0E7F162
:103BB00049C0E6F10101E96B030EE86F0001E8EC92
:103BC0000AF002C0DDF101C0DCF160C0E0F15FC0CD
:103BD000DFF10101E26B200EE16F0001F9EC0AF068
:103BE00001500101DC25D76F0250DD21D86F71AA89
:103BF0000FD0D8C1E7F1D7C1E6F1FF0EE96FE86F4A
:103C00000001E8EC0AF002C0D8F101C0D7F10101CF
:103C1000D8BF01D003D0D86BD76B0AD0D8BF08D09B
:103C2000D85303E1D751B40803E2D86BB40ED76F71
:103C3000D8C102F0D7C101F00232013202320132A2
:103C4000023201C0BEFF02320230300B006EBD50A6
:103C5000CF0B0010BD6ED75324E1D85322E1BB2B0C
:103C6000BB5106081DE24ABE05D04A520CE149503C
:103C7000010809E34AAE14D04A50FF0811E303E1FA
:103C80004950FE080DE38272717A71AA05D0FF0EC9
:103C9000606E600E5F6E03D0606AA00E5F6EBB6BDD
:103CA00001D0BB6B5EBA02D05EA85FD03F5204E188
:103CB000405202E1BC6BBD6B4AAE08D04A50FE08D0
:103CC0000EE2FF0A03E14950FB0809E24ABE05D0B3
:103CD0004A5205E14950040802E3BC2B01D0BC6BF9
:103CE0004CAE08D04C50FE080EE2FF0A03E14B50E8
:103CF000FE0809E24CBE05D04C5205E14B500108CC
:103D000002E3BD2B01D0BD6BBC510B0813E2BD51CA
:103D10000B0810E20001AC83020E0101FC6F0001F0
:103D200082EC05F05E9A5E98406A3F6A0101BC6BC6
:103D3000BD6BB0D03F2AD8B4402A4050020814E2EC
:103D4000FF0A03E13F5038080FE20001E2EC0AF0FD
:103D5000AC8D010E0101FC6F000182EC05F05E9854
:103D60005E9A406A3F6A010195D071B404D00001A7
:103D7000ACA98DD0010171BA2FD0CF6B46BE07D050
:103D80004650030828E303E145506F0824E3BE2BA7
:103D9000BE510D0820E2BE6BD8C1E0F1D7C1DFF102
:103DA000E26B0A0EE16F0001F9EC0AF001C0DCF1F0
:103DB000010E01010124016E000E0220036E01506C
:103DC0004526035046220001AC97AC95AC935E8823
:103DD000406A3F6A010159D0BE6B46BE56D046507C
:103DE000010853E2FF0A03E1455080084EE2CF513B
:103DF000CF2B006ED89000360050036ABF0FE96EDB
:103E0000010E0320EA6ED8C1ECFFED52D7C1EFFFDF
:103E1000CF5107083AE2CF6BDA6BD96BDB6BDB5122
:103E2000070811E3D890DB35036ABF0FE96E010E76
:103E30000320EA6EECCF03F0ED52EF50D927035088
:103E4000DA23DB2BECD7DAC1E0F1D9C1DFF1E26B89
:103E5000080EE16F0001F9EC0AF002C0DAF101C0CE
:103E6000D9F10101DABF11D0DA5303E1D9510A08BF
:103E70000CE24550D8B4460645060001AC97AC9517
:103E8000AC935E88406A3F6A010104D000010101E1
:103E9000BE6BCF6B000117EF21F05EB84DD048AE7E
:103EA00003D057AE18D002D057BE07D04850575C49
:103EB00004E311E14750565C0EE259AE03D048AE20
:103EC0000AD002D048BE14D05950485C11E303E137
:103ED0005850475C0DE35EA202D0E2EC0AF0AC87DA
:103EE000AC93100E0101FC6F000182EC05F024D0B0
:103EF00048AE03D04FAE18D002D04FBE07D04850C6
:103F00004F5C04E311E147504E5C0EE251AE03D02A
:103F100048AE0AD002D048BE0FD05150485C0CE3E6
:103F200003E15050475C08E3AC85AC83080E010107
:103F3000FC6F000182EC05F044AE03D05BAE18D0FC
:103F400002D05BBE07D044505B5C04E311E14350F8
:103F50005A5C0EE25DAE03D044AE0AD002D044BE3D
:103F600013D05D50445C10E303E15C50435C0CE310
:103F70005EA202D0E2EC0AF0AC8F100E0101FC6FE1
:103F8000000182EC05F023D044AE03D053AE18D02C
:103F900002D053BE07D04450535C04E311E14350B8
:103FA000525C0EE255AE03D044AE0AD002D044BEFD
:103FB0000ED05550445C0BE303E15450435C07E3DF
:103FC000AC8F080E0101FC6F000182EC05F018EFC8
:103FD00021F00101D7510F0B000A3DE00001E4512F
:103FE000D8B4E507E42F1ED0E5531CE1829CD7C16D
:103FF00000F0DB51016E04E0D8900032012EFCD7B6
:1040000000A005D0DFC0E7F0DEC0E6F004D0E1C0DC
:10401000E7F0E0C0E6F0E251E625E46FE351E72186
:10402000E56F18D0E651D8B4E707E62F13D0E75371
:1040300011E1828CDB530DE1030EDB6FDDC0E5F097
:10404000DCC0E4F0010EE425E66F000EE521E76F29
:1040500001D0DB070101000126EF21F00101D75358
:1040600018E0D7510A0809E20A0EFD6F0001E8ECDA
:1040700003F00A0E0101D75F07D0D7C1FDF100019F
:10408000E8EC03F00101D76B000187EC0EF0E6D7F6
:104090000101040000012EEF21F0F86AD09E0D8E80
:1040A000EA6AE96AC180C182C184C196020EE46FE6
:1040B000E56B010EE66FE76B0101B16BB26BB36F9D
:1040C000B46BB56BB66B469B469DB76BB86B468FB2
:1040D000800EB96F020EBA6FBB6BBC6BBD6BBE6B53
:1040E000BF6BC06BC16BC26BC36BC46BC56BC66B64
:1040F000C76BC86BC96BCA6BCB6BCC6BCD6BCE6B14
:10410000CF6B310ED06F320ED16F330ED26F340EB3
:10411000D36F350ED46FD56BF29CF29EF2BEFDD7F5
:104120000001C1EF0BF0080E0101D76F060ED86F2A
:10413000020ED96FDA6BDB6B010EDD6FD00EDC6F18
:10414000DE6B00018CEF0CF0200E0101D76F1E0E0C
:10415000D86F0F0ED96F140EDA6F0001A5EF0CF0B7
:10416000200E0101D76F0001C5EF0CF09D86FBEC1E
:104170000CF0D082D080C00EF212AE5301E1829CCE
:10418000040087EC0EF0F2A403D0F2946CEF13F06D
:10419000A1A203D0A192B9EF13F032EF18F071A2EF
:1041A00002D071923BD45EAE17D05E9E6AD43C5072
:1041B0001F0B0101D76F3D50000BD86FD75304E19F
:1041C000D85302E1718401D071940001AC97AC9591
:1041D000AC935E88406A3F6A71A01FD07190010164
:1041E000E66B3DC0E8F13CC0E7F1000118EC0EF0D1
:1041F0003C501F0B0101D76F3D50000BD86FD753B8
:1042000004E1D85302E1718401D071940001AC97AC
:10421000AC95AC935E88406A3F6A5EA611D05E960C
:1042200035EC06F001C0D6F15EAC01D071D435D6C4
:104230005EA006D0400E0101FC6F000182EC05F08B
:1042400071A604D07196AEC0D7F1C3D65EA408D0D3
:104250005E940A0E0101D76F000100D7DBEC0DF070
:044260008FD70300F1
:020000040030CA
:0E0000000026060B000181000FC00FE00F402C
:00000001FF
;PIC18F452
