:020000040000FA
:04034000CAEF2AF0E6
:08034800056ED8CF06F0E95064
:10035000076EEA50086EE150096EE2500A6ED950FD
:100360000B6EDA500C6EF350146EF450156EE050B4
:100370000D6E000100500F6E0150106E0250116E94
:100380000350126E0450136E9DA6CAEF01F09EB684
:1003900048EF02F00F50006E1050016E1150026EC7
:1003A0001250036E1350046E0D50E06E0D8E075008
:1003B000E96E0850EA6E0950E16E0A50E26E0B5089
:1003C000D96E0C50DA6E1450F36E1550F46E055061
:1003D00006C0D8FF1000F2CF0EF0F29EF76AF00FC1
:1003E000F66E030EF7220900F5500EBEF28E1200D3
:1003F00038010100F2CF0EF0F29EF76A0E0FF66E92
:10040000040EF7220900F5500EBEF28E1200506A5B
:100410006A00F2CF0EF0F29EF76A2C0FF66E040E11
:10042000F7220900F5500EBEF28E12007A1F1F004F
:10043000F2CF0EF0F29EF76A4A0FF66E040EF72224
:100440000900F5500EBEF28E1200F2383800F2CFDD
:100450000EF0F29EF76A680FF66E040EF72209009E
:10046000F5500EBEF28E120000252500F2CF0EF0E0
:10047000F29EF76A860FF66E040EF7220900F55019
:100480000EBEF28E1200000818585A5E7E7FFF00E2
:10049000C7CF6FF201011A5302E0108F01D0109FF5
:1004A000C6AC0CD0C69CC9CF6EF2C69C0E6B0F6B4F
:1004B000166B156B1B931083C6880ED102016F510A
:1004C0002D0B090A000111E0280A1FE0080A1DE0AF
:1004D000250AD8B49BD0200AD8B4C1D0080AD8B411
:1004E000BED00C0AD8B4E0D0E8D0010E0101186FDC
:1004F0001C0E176F0E6BC9CF6EF26EC20FF1C69C49
:10050000156BC10E10171B93E7D0C9CF6EF2010116
:100510000E5319E10E2B6EC215F102016E5101014D
:100520000F2718C103F01751172BD8B4182BE96EF9
:1005300003C0EAFF6EC2EFFF15AF03D01087159F0F
:1005400001D0109762D00E2D14D00E2B6EC216F172
:1005500002016E5101010F2718C103F01751172B2B
:10056000D8B4182BE96E03C0EAFF6EC2EFFFB4D017
:100570004CD010A703D00E51020804E0020E15253E
:100580000E5D29E10E2B02016E51FF0A01010F5D84
:1005900005E010891085030E146F1BD010B115D023
:1005A00010A703D0165107080FE0EA6ACC0EE96ED7
:1005B000010EE26E1C0EE16E0E51016E04E0E6CFFC
:1005C000EEFF012EFCD7108104D010891083060E97
:1005D000146F82D01AD00E511D0807E20E2B10891D
:1005E0001083060E146F78D010D002016E510101F5
:1005F0000F2718C103F01751172BD8B4182BE96E29
:1006000003C0EAFF6EC2EFFF0E2B66D0010E0101A0
:10061000186F1C0E176F0E6B1B8310A713D010A141
:1006200004D0108B080E146F0DD0010EEA6E1C0E54
:10063000E96EE26ADA0EE16E1E0E016EE6CFEEFFA3
:10064000012EFCD710C16EF26EC2C9FF6EC20FF14F
:1006500010B701D0156BC90E1017C6883DD0010127
:1006600015510E5D06E10FC16EF202016E1F14D02E
:10067000010115510E5D0EE218C103F01751172B41
:10068000D8B4182BE96E03C0EAFFEFCF6EF2020177
:1006900003D0010102016E6B6EC2C9FF6E510101F0
:1006A0000F270E2BC68818D001010E6B0F6B166B2F
:1006B000156B1B93C68810D00001C6AC01D0C69C38
:1006C000C6AE01D0C69E02016FA102D06EC2C9FFA4
:1006D00001011B93C68800D09E960001CAEF01F06D
:1006E000819001010AAF819A0ABF818A818081903D
:1006F0000AAD819A0ABD818A818081900AAB819A74
:100700000ABB818A818081900AA9819A0AB9818A6B
:10071000818081900AA7819A0AB7818A818081901D
:100720000AA5819A0AB5818A818081900AA3819A5B
:100730000AB3818A818081900AA1819A0AB1818A53
:10074000818081908192818281920001000C81845C
:100750003F0E01010A6F0001C3DF819439EF13F0EE
:10076000006A016A026A036A02013B6B3C6B3D6BE3
:100770003E6B3A513911381137112CE0200E3F6F82
:10078000D89033373437353736373B373C373D37FA
:100790003E373A513E5D08E139513D5D05E1385142
:1007A0003C5D02E137513B5D0FE337513B5F385110
:1007B000D8A0383D3C5F3951D8A0393D3D5F3A5112
:1007C000D8A03A3D3E5FD880003601360236033667
:1007D0003F2FD6D70000020EEA6E3B0EE96E0001F5
:1007E000000C0201366B090E356F270E346FC00EF8
:1007F000336F3A6B396B32C238F231C237F20001D3
:10080000AFDF010E002401013D6F000E01203E6F9D
:100810000201366B030E356F0D0E346F400E336FD1
:100820003A6B396B32C238F231C237F2000198DFCD
:10083000010E002401013F6F000E0120406F0201F4
:10084000366B060E356F1A0E346F800E336F3A6BAF
:10085000396B32C238F231C237F2000181DF010E4A
:1008600000240101416F000E0120426F0201366B2E
:100870002D0E356FC60E346FC00E336F3A6B396B69
:1008800032C238F231C237F200016ADF010E0024B1
:1008900001013B6F000E01203C6F3A6B0400000128
:1008A00063EF13F00201316B315103080AE3036A6D
:1008B0003151680FE96E000E0320EA6EEF6A312BAA
:1008C000F3D7010E6D6E900E6C6E010E6F6E900E72
:1008D0006E6E010E716E900E706E736A726A010E0A
:1008E000756E900E746E050E776E0A0E766E0001B0
:1008F0008D6B8C6BAEEF13F0020169516B19800B9D
:100900006D6F69AF05D0681F691F682BD8B4692B5C
:100910006BAF05D06A1F6B1F6A2BD8B46B2B016AB3
:10092000026A006A036A6B5102E16A5118E0100E14
:100930006C6FD89068376937003603366B51035CAB
:1009400002E16A51005C07E36A51005ED8A0030629
:100950006B51035ED880013602366C2FEAD7000057
:100960006DAF05D0011E021E012AD8B4022A000173
:10097000000C020168516A03F3CF01F0F4CF00F0DC
:100980006B03F350002669516A03F3500020026E96
:100990000001000CB3A901D00FD202015E6B00016F
:1009A0008CA50ED06950100807E2100E695C69240E
:1009B00002015E2704D00001695002015E27000198
:1009C0008CA70ED06A50100807E2100E6A5C6A24E9
:1009D00002015E2704D000016A5002015E27000177
:1009E0008CB903D0D89002015E3702010C515E5DD4
:1009F00003E10001E1D102015EC20CF25E53D8A412
:100A0000B2D0BAC0B5F0B9C0B4F00001CBBB44D08D
:100A10008272CB8BB41D0201656F0001B51D02010E
:100A2000666F652BD8B4662B66C269F265C268F240
:100A30006B6B180E6A6F00015FDF02C067F201C0C6
:100A400066F202C069F201C068F202016B6B090E26
:100A50006A6F00018EDF02C064F201C063F2B5C0AC
:100A600069F2B4C068F202016B6B030E6A6F000199
:100A700080DF02C066F201C065F202C069F201C007
:100A800068F202016B6B040E6A6F000135DF02C071
:100A9000B5F001C0B4F025D0B41D0201656F0001AE
:100AA000B51D0201666F652BD8B4662B66C269F26C
:100AB00065C268F26B6B180E6A6F00011DDF02C021
:100AC00067F201C066F202C069F201C068F2020179
:100AD0006B6B020E6A6F00014CDF02C064F201C052
:100AE00063F2B5AF08D0B551FE080AE2FF0A03E190
:100AF000B451880805E2FF0EB56F880EB46F0DD0B3
:100B0000B5AF0BD0B551E30808E303E1B451DF08FA
:100B100004E3E30EB56FE00EB46F020164BF07D0CB
:100B20006451010818E303E163518F0814E364C2C0
:100B300002F063C201F002320132023201320232AB
:100B400001C0BEFF02320230300B006EBD50CF0B31
:100B50000010BD6E05D0640EBE6EBD50CF0BBD6ED5
:100B600000012AD102010001B65102015E5D036A53
:100B7000006E00BE0306656F03C066F2696B300E3F
:100B8000686F03C06BF265C26AF20001F2DE02C058
:100B900060F201C05FF2010106A305D0B5C062F2A8
:100BA000B4C061F204D0B8C062F2B7C061F2020111
:100BB00062BF05D0625309E16151000806E30001FC
:100BC000CBBB01D0F9D005D002010001CBAB01D0E5
:100BD000F3D002015F5161250001B46F0201605141
:100BE00062210001B56FB5BF01D06CD0CBBB28D05E
:100BF0008272CB8BB41D0201656F0001B51D02012D
:100C0000666F652BD8B4662B66C269F265C268F25E
:100C10006B6B180E6A6F00016FDE02C067F201C0D5
:100C200066F202C069F201C068F202016B6B0A0E43
:100C30006A6F00019EDE02C064F201C063F225D03B
:100C4000B41D0201656F0001B51D0201666F652BC1
:100C5000D8B4662B66C269F265C268F26B6B180E77
:100C60006A6F000149DE02C067F201C066F202C08D
:100C700069F201C068F202016B6B040E6A6F000139
:100C80003BDE02C064F201C063F2B5AF08D0B551DB
:100C9000FE080AE2FF0A03E1B451880805E2FF0EEC
:100CA000B56F880EB46F0DD0B5AF0BD0B551E3085A
:100CB00008E303E1B451DF0804E3E30EB56FE00E8F
:100CC000B46F56D0CBAB1FD08272CB9BB5C069F24C
:100CD000B4C068F202016B6B180E6A6F00010CDE83
:100CE00002C066F201C065F202C069F201C068F29A
:100CF00002016B6B0A0E6A6F00013BDE02C064F2F8
:100D000001C063F21CD0B5C069F2B4C068F2020140
:100D10006B6B180E6A6F0001EFDD02C066F201C056
:100D200065F202C069F201C068F202016B6B040E49
:100D30006A6F0001E1DD02C064F201C063F2B5BF79
:100D400005D0B55307E1B451770804E3B56B780ECD
:100D5000B46F0ED0B5BF0CD0B5511B0809E2FF0A25
:100D600003E1B451200804E21C0EB56F200EB46FED
:100D7000020164BF07D06451010818E303E1635125
:100D80008F0814E364C202F063C201F00232013240
:100D900002320132023201C0BEFF02320230300B99
:100DA000006EBD50CF0B0010BD6E05D0640EBE6E40
:100DB000BD50CF0BBD6E0001000C02015E5303E07D
:100DC00001010A8D02D001010A9D000189DC000C9D
:100DD00002015E5303E001010A8102D001010A9180
:100DE00000017EDC000C02015E5303E001010A8376
:100DF00002D001010A93000173DC000CCBDD036A11
:100E0000685036EC02F0016E01C05BF269C05CF222
:100E100002015C51100804E25D81080E5C5F01D0A4
:100E20005D91D8905C31556F036A5551000136ECE5
:100E300002F0016E01C058F2020155515C5D036A77
:100E4000000136EC02F0016E01C059F26AC05CF29A
:100E500002015C51100804E25D83080E5C5F01D062
:100E60005D93D8905C31556F036A5551000136ECA3
:100E700002F0016E01C056F2020155515C5D036A39
:100E8000000136EC02F0016E01C057F2036A6B50AC
:100E900036EC02F0016E01C05AF20201556B555159
:100EA0002F080FE35B3556375737583759375A37BE
:100EB0005B3702E3818A01D0819A81888198552B22
:100EC000EED7010E5E6F000178DF02015E6B00015C
:100ED00074DF02015DA105D05E6B000179DF05D0F2
:100EE0000201010E5E6F000173DF02015DA305D0F8
:100EF0005E6B000178DF05D00201010E5E6F00011C
:100F000072DF010106890201556B555103080FE399
:100F1000036A5551680FE96E000E0320EA6EEF5226
:100F200004E001010699020102D0552BEED7010120
:100F30000697069506930001B3878F6B8E6B000CA6
:100F40000201605303E001010A8702D001010A9700
:100F5000000170EC03F0000C02015A51060804E293
:100F6000000E016E026E73D00F0E5C175A175E6B87
:100F70005AC25DF25D395E6F5D6BF00E5E175B51BC
:100F80005D135C515E13D8905A35036A780FE96E91
:100F9000000E0320EA6E5CC2ECFFED525BC2EFFF75
:100FA000010E606F0001CCDF0400020E006E002E07
:100FB000FED70000000081980400020E006E002E93
:100FC000FED7000000000201606B0001B9DF0400E1
:100FD000060E006E002EFED702015F6B5F510F08F8
:100FE00026E30400020E006E002EFED70000000073
:100FF0005EAF02D0818A01D0819AD8905D375E378A
:1010000081A602D05D8101D05D910400020E006EC8
:10101000002EFED70000000081880400020E006E42
:10102000002EFED70000000081985F2BD7D7040068
:10103000060E006E002EFED7010E606F000180DFED
:101040000F0E02015E175DC201F05EC202F00001E8
:10105000000CA0DC060E02015A6F77C05CF276C06D
:101060005BF2000179DF010E02015A6F73C05CF27E
:1010700072C05BF2000170DF020E02015A6F71C094
:101080005CF270C05BF2000167DF030E02015A6F71
:1010900075C05CF274C05BF200015EDF040E0201F9
:1010A0005A6F6DC05CF26CC05BF2000155DF050E3B
:1010B00002015A6F6FC05CF26EC05BF200014CDF40
:1010C00002015A6B8DC05CF28CC05BF2000144DF00
:1010D0008C511F0B0201556F00018D51000B020155
:1010E000566F555305E1565303E10001CB8302D0FF
:1010F0000001CB93000C02014091F2BE4081F29CB2
:10110000F29EF2BEFDD7F2CF41F2F29E3EC2A9FF9F
:10111000A69CA69EA680A85041BFF28E3F6F40A11C
:1011200002D0C00EF2123FC201F00001000C020119
:1011300050BF06D050511F0803E21F0E506F06D05B
:101140005051800A600802E3E10E506F51BF06D093
:1011500051511F0803E21F0E516F06D05151800AF2
:10116000600802E3E10E516F52BF06D052511F08D2
:1011700003E21F0E526F06D05251800A600802E34C
:10118000E10E526F53BF06D053511F0803E21F0EEA
:10119000536F06D05351800A600802E3E10E536F8B
:1011A0005051022702BF06D002511F0803E21F0E52
:1011B000026F04D002BF01D001D0026B515103274E
:1011C00003BF06D003511F0803E21F0E036F04D0B4
:1011D00003BF01D001D0036B5251042704BF06D0D6
:1011E00004511F0803E21F0E046F04D004BF01D096
:1011F00001D0046B5351052705BF06D005511F08C8
:1012000003E21F0E056F04D005BF01D001D0056BAE
:1012100083920400090E006E002EFED7000083802A
:1012200050BF01D001D0839451BF01D001D083962B
:1012300052BF01D001D0839853BF01D001D0839A0F
:1012400050BF07D051BF05D052BF03D053BF01D00C
:1012500025D050BF01D002D0502B01D0838451BF84
:1012600001D002D0512B01D0838652BF01D002D0D1
:10127000522B01D0838853BF01D002D0532B01D011
:10128000838A83900400060E006E002EFED78380B2
:101290000400060E006E002EFED7D2D78382040013
:1012A000090E006E002EFED7000050BF04D0505132
:1012B000000801E2839451BF04D05151000801E2BB
:1012C000839652BF04D05251000801E2839853BF65
:1012D00004D05351000801E2839A50BF03D050510B
:1012E00000080FE351BF03D0515100080AE352BF79
:1012F00003D05251000805E353BF30D053510008CA
:101300002DE250BF05D05051000802E2500701D035
:10131000838451BF05D05151000802E2510701D02A
:10132000838652BF05D05251000802E2520701D015
:10133000838853BF05D05351000802E2530701D000
:10134000838A83900400060E006E002EFED78380F1
:101350000400060E006E002EFED7BFD70400100E4C
:10136000006E002EFED70001000C020EEA6E550E34
:10137000E96EEF5011E00C0E016EBF0E006E04001E
:10138000002EFDD7012EF9D7F70E006E002EFED7E6
:1013900000000400EF2EEFD7000C020155510101AF
:1013A0001A131A5302E0829A949A0001000CF2CFA9
:1013B0005DF2F29E5AC2A9FFA69CA69EA680A850E6
:1013C00002015DBFF28E5B5D1DE0A198A0985AC23C
:1013D000A9FF5BC2A8FFA69EA69CA6845C91F2BE54
:1013E0005C81F29CF29EF2BEFDD7550EA76EAA0E4E
:1013F000A76EA6825CA102D0C00EF212A1A8FED7F1
:10140000A198A6940001000C0201555304E008C104
:1014100058F209C159F2010E5A6F030E5C6F560E55
:101420005B6F000199DD736A726A010E02015A6FE7
:1014300073C05CF272C05BF200018EDD02C057F235
:1014400001C056F202015651560803E157510308F4
:1014500005E001010889098507D002010101089909
:1014600008B702D0069109950201555317E0010112
:1014700008510201585D06E00F0E5A6F08C15BF279
:10148000000195DF010109510201595D07E0100ECD
:101490005A6F09C15BF200018ADF02010001000CF2
:1014A0000201536B516B506B8088829E8198526B06
:1014B00052510F0805E3818800008198522BF8D71C
:1014C0000000838C959C526B52510F0805E3818874
:1014D00000008198522BF8D70000958C526B525126
:1014E0000F080BE3818883BC02D0D89001D0D8804C
:1014F000503751378198522BF2D70000839C959C2E
:10150000526B5251070805E3818800008198522BE5
:10151000F8D70000828E958C5051000B546F51C249
:1015200055F2545303E15551540801E05383516B74
:10153000506B828E80988198526B52510F0805E350
:10154000818800008198522BF8D70000838C959CED
:10155000526B52510F0805E3818800008198522B8D
:10156000F8D70000958C526B52510F080BE381881D
:1015700083BC02D0D89001D0D880503751378198A1
:10158000522BF2D70000839C959C526B5251070856
:1015900005E3818800008198522BF8D700008088ED
:1015A000958C5051FC0B546F51C255F2545303E1CA
:1015B000555154080BE05051000B546F51C255F275
:1015C000545303E15551540801E05385080E0001BE
:1015D000A26FB395020153C201F0000127EF0CF096
:1015E0000101086BE10E0201506F516F526F536F92
:1015F00000019DDD010E0201556F0001B6DE000EF7
:10160000016EC250C70B0110C26E0400200E006EA6
:10161000002EFED700000000C284C2B4FED7C4CFA3
:101620003FF20201080E016EC250C70B0110C26EDC
:101630000400200E006E002EFED700000000C284C1
:10164000C2B4FED7C4CF40F2100E016EC250C70B19
:101650000110C26E0400200E006E002EFED70000A6
:101660000000C284C2B4FED7C4CF41F2180E016E8E
:10167000C250C70B0110C26E0400200E006E002E77
:10168000FED700000000C284C2B4FED7C4CF42F22D
:101690001F0E506F516F526F536F000148DD010EE6
:1016A0000201556F000161DE000E016EC250C70BD2
:1016B0000110C26E0400200E006E002EFED7000046
:1016C0000000C284C2B4FED7C4CF43F20201080EA8
:1016D000016EC250C70B0110C26E0400200E006ED6
:1016E000002EFED700000000C284C2B4FED7C4CFD3
:1016F00044F2100E016EC250C70B0110C26E0400FE
:10170000200E006E002EFED700000000C284C2B47E
:10171000FED7C4CF45F2180E016EC250C70B0110A0
:10172000C26E0400200E006E002EFED700000000E6
:10173000C284C2B4FED7C4CF46F23F51435D6508B0
:1017400004E24051445D650809E30101088B098703
:10175000800E0201556F000120DE02014151455DFE
:10176000650804E24251465D650809E30101088D00
:101770000987800E0201556F00010FDE0201550E30
:101780004B6FCC0E4A6FAA0E496F330E486F4BC297
:101790004FF24AC24EF249C24DF248C24CF25E6B61
:1017A0000001DDEC06F081980201476B47511F08EC
:1017B0000DE34F354C374D374E374F3702E3818AB3
:1017C00001D0819A81888198472BF0D7819A476B05
:1017D00047510F0804E381888198472BF9D74F6B55
:1017E0004E6B4D6B4C6B819A476B47511F080DE355
:1017F00081B602D0D89001D0D8804C374D374E37C3
:101800004F3781888198472BF0D7010E5E6F00011A
:10181000DDEC06F002015E6B0001DDEC06F001017B
:101820000689020148514C5D09E149514D5D06E1CF
:101830004A514E5D03E14B514F5D05E001010887C0
:10184000068109850201556B0001DEDD29D601C044
:101850003EF202013EA50AD001010885068F0983E8
:10186000100E0201556F000198DD02013EA30AD05F
:1018700001010883068706930983100E0201556F44
:1018800000018BDD010108B306D00001CB8DCB8FA9
:1018900001010C6B0B6B0F0E02015A6F08C15BF25A
:1018A000000185DD100E02015A6F09C15BF20001D3
:1018B0007EDD0400000C01010A85000170EC03F0DC
:1018C000000C0201356B355103080AE3036A3551F8
:1018D000680FE96E000E0320EA6EEF6A352BF3D72E
:1018E0000001CB81E00E8C17B38FE5DFB39BBE6A9E
:1018F0000101068B0001000C0201366B3E0E000157
:10190000916F700E906F010108A304D0020136831D
:1019100086D001010201356B346B8088829E8198EC
:101920000000818883AC01D03589819800008188CE
:1019300083AC01D0358781980000818883AC01D0C9
:10194000358581980000818883AC01D035838198EA
:101950000000818883AC01D03581819800008188A6
:1019600083AC01D0348F81980000818883AC01D092
:10197000348D81980000818883AC01D0348B8198AC
:101980000000818883AC01D034898198000081886F
:1019900083AC01D0348781980000818883AC01D06A
:1019A000348581980000818883AC01D0348381988C
:1019B0000000818883AC01D0348181980000818847
:1019C000379183BC378181980000828E000000002F
:1019D000839C959C958C35A902D0E00E351310B1EF
:1019E0001AD037A116D035AF08D03551FB0811E217
:1019F000FF0A03E1345190080CE235BF07D035519E
:101A0000070807E303E13451CF0803E3108103D053
:101A100001D0368304D035C291F034C290F0000179
:101A20009451905D986F95519159996F02011151A0
:101A30000001985D9C6F02011251000199599D6F40
:101A400099C012F298C011F2CBB304D0010106A9DB
:101A500017D00001020E9425016E000E9521036E31
:101A60000150905D9A6F035091599B6F0201108550
:101A7000FE0E00019425966FFF0E9521976F2BD0D7
:101A8000020110A524D000019651905D9A6F9751E4
:101A900091599B6F9A5319E19B5317E19DBF01D058
:101AA00014D0962BD8B4972B95AF03D097AF0AD00C
:101AB00002D097BF0AD09551975D07E303E1945197
:101AC000965D03E302011095000105D0020199C063
:101AD0009BF098C09AF00201107710B701D091D016
:101AE0003E0E0001936F700E926F010108A504D0A5
:101AF0000201368586D001010201356B346B828E7E
:101B0000809881980000818883AC01D035898198C4
:101B10000000818883AC01D03587819800008188DE
:101B200083AC01D0358581980000818883AC01D0D9
:101B3000358381980000818883AC01D035818198FC
:101B40000000818883AC01D0348F819800008188A7
:101B500083AC01D0348D81980000818883AC01D0A2
:101B6000348B81980000818883AC01D034898198BE
:101B70000000818883AC01D034878198000081887F
:101B800083AC01D0348581980000818883AC01D07A
:101B9000348381980000818883AC01D0348181989E
:101BA00000008188379183BC37818198000080884C
:101BB00000000000839C959C958C35A902D0E00E16
:101BC000351310B31AD037A116D035AF08D0355120
:101BD000FB0811E2FF0A03E1345190080CE235BF23
:101BE00007D03551070807E303E13451CF0803E379
:101BF000108303D001D0368504D035C293F034C2AF
:101C000092F036C201F00001000C01010A950001BA
:101C100070EC03F0000C0201316B010108B302D03B
:101C200008A104D000014DDEB8D00101000164DE3E
:101C3000015210E0140E0201556F0001B5EC09F0DD
:101C40000201312B3151190802E20001A6D0010135
:101C5000EDD70001B3B906D0CBB304D0010106A97A
:101C600011D00001CBB902D0828201D08292CB8BFD
:101C7000FF0EB56F880EB46F0201336B050E326F25
:101C800063D00101000191AF03D095AF0AD002D01B
:101C900095BF12D09151955D0FE303E19051945D92
:101CA0000BE3CBB902D0828201D08292CB8BFF0EA4
:101CB000B56F880EB46F09D0CBB902D0829201D033
:101CC0008282CB9BB56B780EB46F99C069F298C0D5
:101CD00068F202016B6B050E6A6F0001B9EC04F04B
:101CE00002C035F201C034F202C069F201C068F2EC
:101CF00002016B6B040E6A6F00017CEC04F002C001
:101D000036F201C035F202C069F201C068F2020188
:101D10006B6B030E6A6F00017CEC04F002C033F2BF
:101D200001C032F2CBAB0FD033C269F232C268F2DB
:101D3000FF0E02016B6F6A6F0001B9EC04F002C084
:101D400033F201C032F2020133BF01D003D0336B52
:101D5000326B0ED033BF0CD03351000809E2FF0ABA
:101D600003E132512C0804E2010E336F2C0E326F66
:101D700000014BDF33C202F032C201F00232013205
:101D800002320132023201C0BEFF02320230300B99
:101D9000006EBD50CF0B0010BD6E000C02015853F9
:101DA00003E001010A8B02D001010A9B000170ECE3
:101DB00003F0000C0201585303E001010A8902D02C
:101DC00001010A99000170EC03F0000C0201565366
:101DD00001E1CCD0036A56511A0FE96E000E0320C0
:101DE000EA6EEF520BE0036A5651170FE96E000ED0
:101DF0000320EA6E5751EF5CD8B4B8D0036A56514D
:101E0000170FE96E000E0320EA6E57C2EFFF8198AC
:101E1000565305E1586B0001C1DF04D00201586B35
:101E20000001C8DF0201562D02D0819A01D0818ABB
:101E300081888198036A5651170FE96E000E0320BE
:101E4000EA6EEFCF58F258BF02D0819A01D0818A52
:101E500081888198036A5651170FE96E000E03209E
:101E6000EA6EEFCF58F258BD02D0819A01D0818A34
:101E700081888198036A5651170FE96E000E03207E
:101E8000EA6EEFCF58F258BB02D0819A01D0818A16
:101E900081888198036A5651170FE96E000E03205E
:101EA000EA6EEFCF58F258B902D0819A01D0818AF8
:101EB00081888198036A5651170FE96E000E03203E
:101EC000EA6EEFCF58F258B702D0819A01D0818ADA
:101ED00081888198036A5651170FE96E000E03201E
:101EE000EA6EEFCF58F258B502D0819A01D0818ABC
:101EF00081888198036A5651170FE96E000E0320FE
:101F0000EA6EEFCF58F258B302D0819A01D0818A9D
:101F100081888198036A5651170FE96E000E0320DD
:101F2000EA6EEFCF58F258B102D0819A01D0818A7F
:101F300081888198565306E1010E586F00012EDF0B
:101F400005D00201010E586F000134DF0400090EB4
:101F5000006E002EFED70000036A020156511A0FD0
:101F6000E96E000E0320EA6E010EEF6E0001000C18
:101F7000010107910793079509990201546B545188
:101F8000030821E3036A5451400F016E020E03223D
:101F900003C056F2036A5451680FE96E000E032025
:101FA000EA6EEFCF57F256C2EAFF01C0E9FF57C20F
:101FB000EFFF036A5451680FE96E000E0320EA6ECA
:101FC000EF6A542BDCD70001FEEC06F00201546BE3
:101FD000545104082CE3D8905435036A440F016E21
:101FE000020E032203C056F2D8905435036A6C0FD8
:101FF000E96E000E0320EA6EECCF03F0ED52EFCF56
:1020000057F256C2EAFF01C0E9FF03C0ECFFED52F0
:1020100057C2EFFFD8905435036A6C0FE96E000E7B
:102020000320EA6EEC6AED52EF6A542BD1D777C0E9
:102030004FF276C04EF2050E776E0A0E766E8DC0A8
:102040003FF28CC03EF200018D6B8C6B8C8D29ECC5
:1020500008F0CB830201506B380E016EC250C70BE3
:102060000110C26E0400200E006E002EFED700008C
:102070000000010E516F5151080869E3036A505185
:10208000680FE96E000E0320EA6E51C2EFFF0001F7
:10209000FEEC06F00201512D06D0460E556F0001F0
:1020A000B5EC09F00201010E556F0001B5EC09F025
:1020B000C284C2B4FED7C4CF53F20201010108A901
:1020C00019D0010E0201556F000104EC0AF0010164
:1020D00008B910D0000129EC08F0010E0201556F7B
:1020E0000001B5EC09F0C284C2B4FED7C4CF53F2EC
:1020F00002010101036A02015051000109EC02F0E2
:10210000016E0201535D05E20101078109890CD0CE
:102110000201036A5051000118EC02F0016E020145
:102120005351015C01E2F0D70201515102080DE167
:102130005351A5080AE301010787098B100E02011C
:10214000556F0001CDEC09F00201512B94D7010E1F
:10215000506F50510208D8A0E9D0502D08D0280E59
:10216000016EC250C70B0110C26E686A07D0300EF4
:10217000016EC250C70B0110C26E696A0400200EC6
:10218000006E002EFED700000000010E516F51516D
:102190001808D8A0C9D0502D03D051C269F002D080
:1021A00051C26AF00001FEEC06F00201512D0AD086
:1021B000036A50510001FAEC01F0016E01C052F2C5
:1021C00016D002015051190DF350566B556F010E88
:1021D000515D036A5525016E5651032201501D0FB2
:1021E000E96E000E0320EA6EEFCF52F20001036A9F
:1021F000020150510001EBEC01F0016E020152515D
:10220000015C4EE250C256F252C257F20001DEDDCE
:10221000036A020150510001FAEC01F0016E020163
:10222000525D08E1512D06D0460E556F0001B5EC08
:1022300009F00201010E556F0001B5EC09F0C284EE
:10224000C2B4FED7C4CF53F20201010108A919D0CC
:10225000010E0201556F000104EC0AF0010108B9FA
:1022600010D0000129EC08F0010E0201556F0001A9
:10227000B5EC09F0C284C2B4FED7C4CF53F2020158
:102280000101036A02015051000127EC02F0016EC6
:102290000201535D01E304D052070001A8D70201F7
:1022A000036A50510001EBEC01F0016E0201525D36
:1022B0001EE1036A5051000109EC02F0016E0201B7
:1022C000535D0AE2502D03D00101078302D00101C2
:1022D000078509890DD00201036A5051000118ECED
:1022E00002F0016E02015351015C01E2EBD70101E2
:1022F00002015051190DF350566B556F036A51513D
:102300005525016E5651032201501D0FE96E000E36
:102310000320EA6E52C2EFFF5151080803E1505307
:1023200001E102D0512B33D7502B13D7566B4E50AF
:102330003724576F000E5621586FD8905831036ECE
:102340005731026E366E566B67505024576F000E31
:102350005621586FD8905831036E5731026E4F6E28
:10236000546B5451030819E3036A5451680F016E0A
:10237000000E032203C056F2036A5451400FE96E67
:10238000020E0320EA6EEFCF57F256C2EAFF01C0F9
:10239000E9FF57C2EFFF542BE4D7036A6950190FC6
:1023A000016E000E032201501D0FE96E000E032086
:1023B000EA6EEFCF55F2010E566F55C257F200018B
:1023C00005DD036A6A50320F016E000E03220150D0
:1023D0001D0FE96E000E0320EA6EEFCF55F2020EDC
:1023E0000201566F55C257F20001F0DCFEEC06F018
:1023F0000201546B5451040821E3D8905435036A08
:102400006C0F016E000E032203C056F2D8905435B3
:10241000036A440FE96E020E0320EA6EECCF03F06C
:10242000ED52EFCF57F256C2EAFF01C0E9FF03C0F9
:10243000ECFFED5257C2EFFF542BDCD74FC277F0C1
:102440004EC276F03FC28DF03EC28CF0000129EC06
:1024500008F0000C020E02013E6F00017BEC08F058
:1024600001C04DF101014D5302E04D3D73D0030E0B
:1024700002015A6F500E5B6F0001D7EC09F0040E99
:1024800002015A6F500E5B6F0001D7EC09F0050E88
:1024900002015A6F500E5B6F0001D7EC09F0500E2D
:1024A00001014D6F4E6F4F6F506F060E02015A6F54
:1024B000D20E5B6F0001D7EC09F0070E02015A6FD4
:1024C000D20E5B6F0001D7EC09F0080E02015A6FC3
:1024D000D20E5B6F0001D7EC09F0090E02015A6FB2
:1024E000D20E5B6F0001D7EC09F0D20E0101516FE3
:1024F000526F536F546F0A0E02015A6F030E5B6FD7
:102500000001D7EC09F00B0E02015A6F030E5B6F4E
:102510000001D7EC09F00C0E02015A6F030E5B6F3D
:102520000001D7EC09F00D0E02015A6F030E5B6F2C
:102530000001D7EC09F0030E0201316F326F336FE7
:10254000346F020E5A6F500E5B6F0001D7EC09F02A
:1025500059D00101030E02013E6F00017BEC08F02F
:1025600001C04EF1040E02013E6F00017BEC08F049
:1025700001C04FF1050E02013E6F00017BEC08F037
:1025800001C050F1060E02013E6F00017BEC08F025
:1025900001C051F1070E02013E6F00017BEC08F013
:1025A00001C052F1080E02013E6F00017BEC08F001
:1025B00001C053F1090E02013E6F00017BEC08F0EF
:1025C00001C054F10A0E02013E6F00017BEC08F0DD
:1025D00001C031F20B0E02013E6F00017BEC08F0EE
:1025E00001C032F20C0E02013E6F00017BEC08F0DC
:1025F00001C033F20D0E02013E6F00017BEC08F0CA
:1026000001C034F20101FB6BFC6B0201026B036B36
:10261000046B056BE10E506F516F526F536F0001E9
:1026200097EC08F031C250F232C251F233C252F28A
:1026300034C253F297EC08F0FFEF13F0C190C1924F
:10264000C194C1962F0E926EC80E936E390E946E81
:10265000C00E956E968096829684100E806E040E43
:10266000816ED80E826E3F0E836E846AF18EA7EF64
:1026700003F0C19CC28CC28EC19EC280000E016E4E
:10268000C250C70B0110C26E01019D6B0D89C00EB7
:10269000D56E830ECD6EB70EB1168B940C0EBD6E3B
:1026A000000E016E0409CA6E630ECB6EBE6AB15095
:1026B000480BB509B16ECC0E0201326FCD0E316FF1
:1026C0000001F1EF03F00101976B550E966F0D912C
:1026D0009A6B020E0001956F800E946FFF0EA46F2F
:1026E000E80EA36FA66B180EA56FA86BA00EA76FC0
:1026F000030EAA6F240EA96FFF0EAC6FE00EAB6F36
:10270000AE6B200EAD6FB06B500EAF6F030EB26F9D
:10271000730EB16F9F6B200E9E6FFF0EA16FE00EC8
:10272000A06FB391B383B56BB46BB38BB395CB91FF
:10273000B39DB39F0101076B066B06970695069341
:102740000001B3878F6B8E6BB389B387080EA26FBE
:102750000101096B0001CB9752EF04F0FEEC06F08B
:1027600029EC08F0CB850E0E02013E6F00017BECD8
:1027700008F001B003D00201309102D00201308193
:10278000110E3E6F00017BEC08F001B002D0CB9936
:1027900001D0CB89020130B104D0D0A202D0D0B098
:1027A00005D00001F0EC0AF013D002010F0E3E6FCD
:1027B00000017BEC08F001C008F1100E02013E6F31
:1027C00000017BEC08F001C009F1CB9D0BEC0EF091
:1027D000D0A202D0D0B00DD0800E176E010E1A6EAE
:1027E000800E186E010E1B6E800E196E010E1C6E8F
:1027F00003D01A6A1B6A1C6AB8EC0FF02BD629EFBB
:102800002BF030C2BBF031C2BCF032C2BDF033C2DB
:10281000BEF034C2BFF0EA6AC00EE96E36C2E2FF13
:1028200035C2E1FFE752E6CFEEFFFCE137C2C6F06A
:1028300039EF2BF030C2C7F031C2C8F032C2C9F054
:1028400033C2CAF045EF2BF001010E6B106B0F6B1A
:10285000010E186F1C0E176F166B156B146B136B34
:102860001B931E0E016E010EEA6E1C0EE96EEE6ADF
:10287000012EFDD71A6B948A0001000C360EC66E2D
:1028800030C2C8FFC78C01011B910001DDDF4BEF97
:102890002BF0016A026A006A036A0201435102E1F5
:1028A000425118E0100E446FD8904037413700363F
:1028B00003364351035C02E14251005C07E342519D
:1028C000005ED8A003064351035ED880013602366D
:1028D000442FEAD700000001000C02014051FF0A1A
:1028E00001011A171A5301E1948A0001000C180E15
:1028F0000201416F290E406F97C143F296C142F227
:102900000001C7DF02C000F201C0FFF10101FE6B50
:10291000FD6B0D9B0D9D170E946FFF0E956F0201C1
:102920003E6B3E5103083AE3036A3E51550FE96E90
:10293000010E0320EA6EEF6A036A3E51750FE96EDD
:10294000010E0320EA6EEF6A036A3E51790FE96EC9
:10295000010E0320EA6EEF6A036A3E517D0FE96EB5
:10296000010E0320EA6EEF6A036A3E51810FE96EA1
:10297000010E0320EA6EEF6A036A3E51850FE96E8D
:10298000010E0320EA6EEF6A036A3E51890FE96E79
:10299000010E0320EA6EEF6A3E2BC3D74DC159F1F9
:1029A00001014D51F30804E30C0E4D255D6F02D07B
:1029B000FF0E5D6F4E510B0804E20C0E4E5D5A6F18
:1029C00001D05A6B4EC15EF14FC15BF14F51E3082C
:1029D00004E31C0E4F255F6F02D0FF0E5F6F505156
:1029E0001B0804E21C0E505D5C6F01D05C6B50C193
:1029F00060F160C16CF15EC16AF102013E6B3E5153
:102A000003081BE3036A3E51610FE96E010E0320C8
:102A1000EA6EFF0EEF6E036A3E51650FE96E010E1E
:102A20000320EA6EEF6A036A3E516D0FE96E010EF4
:102A30000320EA6EEF6A3E2BE2D70101F86BF96BD7
:102A4000FA6B040E016E010EEA6E8F0EE96EEE6AED
:102A5000012EFDD78D6B8E6B996B300E9A17936B91
:102A6000CF6ACE6A9E90F66BF76B02013F91F2BE81
:102A70003F81F29CF29EF2BEFDD7040E406F000132
:102A80002CDF200E0201406F000127DF800E0201C3
:102A9000406F000122DF02013FA102D0C00EF212FE
:102AA0000001000C3EC213F10101135302E1109B1F
:102AB00001D0108B0001000CF29CF29EF2BEFDD7FB
:102AC000C3DEFF0032EF1BF01AC1DAF013C1DBF0F6
:102AD00014C1DCF03EC2DDF032EF1BF002013EA17A
:102AE00008D00A0E5A6F02C25BF20001D7EC09F05F
:102AF00002013EA308D00B0E5A6F03C25BF2000125
:102B0000D7EC09F002013EA508D00C0E5A6F04C2A2
:102B10005BF20001D7EC09F002013EA708D00D0ED0
:102B20005A6F05C25BF20001D7EC09F00201000107
:102B300032EF1BF00201326B010110A144EF1BF0D8
:102B400002013E6B0001AEDFCC513F0B0201306F42
:102B500030510E0802E20E0E306F0001CD51070A0F
:102B6000D8B499D00F0AD8B498D0060AD8B49BD05C
:102B70001E0AD8B49CD0190AD8B4ADD0090AD8B46A
:102B8000B8D0030AD8B4C6D0020AD8B4E6D0030A33
:102B9000D8B4E4D0080AD8B4ECD0010AD8B405D12E
:102BA0000D0AD8B40ED1170AD8B426D1920AD8B4D7
:102BB00048D1500AD8B44CD1070AD8B44DD1010A33
:102BC000D8B450D1030AD8B451D1460AD8B458D198
:102BD000010AD8B4C8D1030AD8B4E1D1010AD8B4E3
:102BE000CDD2070AD8B4D9D2010AD8B416D3030A71
:102BF000D8B424D3010AD8B42CD3170AD8B42CD310
:102C0000070AD8B437D30E0AD8B447D3080AD8B4C1
:102C10004BD3F00AD8B453D3F30AD8B45AD3070A23
:102C2000D8B465D3F00AD8B47CD3F30AD8B4AAEFE9
:102C300019F00C0AD8B41BEF1AF0020AD8B41DEF31
:102C40001AF00C0AD8B42EEF1AF00A0AD8B437EFEB
:102C50001AF0010AD8B45BEF1AF0040AD8B482EF74
:102C60001AF0070AD8B4A9EF1AF0010AD8B4D0EFC5
:102C70001AF05A0AD8B4F7EF1AF0050AD8B408EFD8
:102C80001BF0020AD8B41FEF1BF0010AD8B425EFDD
:102C90001BF02BEF1BF032EF1BF0F0EC0AF008C139
:102CA000DAF032EF1BF008C1DAF032EF1BF0CE534E
:102CB00009E00E0E02015A6F010E5B6F0001D7ECA6
:102CC00009F007D00E0E02015A6F5B6B0001D7ECC2
:102CD00009F032EF1BF0EA6ADA0EE96EE26AF80EEA
:102CE000E16E1E0E016EE6CFEEFF012EFCD732EF35
:102CF0001BF0EA6ADA0EE96EE26ACE0EE16E0201BC
:102D00003051016E04E0E6CFEEFF012EFCD700014A
:102D100032EF1BF0CE51010A03E0030A0EE01AD095
:102D2000EA6ADA0EE96EE26ABB0EE16E0C0E016E23
:102D3000E6CFEEFF012EFCD70ED0EA6ADA0EE96E7E
:102D4000E26AC70EE16E040E016EE6CFEEFF012EC1
:102D5000FCD701D000D032EF1BF0AED61E0E016EB4
:102D6000EA6ADA0EE96EEE6A012EFDD706C13EF27E
:102D7000ABD6CEC037F2CFC038F237C2A9FF38C2C7
:102D8000A8FFA69CA69EA684F2CF00F0F29E0F019B
:102D9000550EA76EAA0EA76EA682A6B2FED7A6945F
:102DA0000050F212000132EF1BF0CEC037F237C2F2
:102DB0003EF27BEC08F001C038F238C2DAF032EFB4
:102DC0001BF002013991F2BE3981F29CF29EF2BEF3
:102DD000FDD70001CE5305E0CFC055F2CDEC09F090
:102DE00003D0CFC040F279DD020139A102D0C00E7C
:102DF000F212000132EF1BF0CE35006E00360036C5
:102E0000F80E0016C250C70B0010C26E0400200E50
:102E1000006E002EFED700000000C284C2B4FED7B0
:102E2000C4CFDAF001019D35006E00360036F80E91
:102E30000016C250C70B0010C26E0D89000132EFA0
:102E40001BF006C1DAF0000107C1DBF032EF1BF026
:102E50000AC1DAF032EF1BF0CEC00AF170EC03F0D9
:102E600032EF1BF0B8EC0FF032EF1BF0CE5306E060
:102E7000CEC056F2CFC057F2E6EC0EF032EF1BF0A8
:102E8000CECFDBF0CFCFDAF00101F65363E00201E1
:102E90003A6B3D6B030E3B6F0101155D0201316F13
:102EA000315104082BE20101F65102013A5D26E29C
:102EB000050E3C6F3C51315F3D2B3C513C07000AF5
:102EC0001CE03B513B2B036ADA0F016E000E03221C
:102ED00001C03FF203C040F23A513A2B036AA60FF9
:102EE000E96E010E0320EA6EEFCF42F240C2EAFF24
:102EF00001C0E9FF42C2EFFFE0D7D2D73DC2DCF00C
:102F000001019A510001DD1302013A510101F65FFE
:102F10000201316B3A514F081BE3036A3151A60F8E
:102F2000016E010E032203C03FF2036A3A51A60F5D
:102F3000E96E010E0320EA6EEFCF40F23FC2EAFFD6
:102F400001C0E9FF40C2EFFF3151312B3A2BE2D7EC
:102F500007D00101010E0001DC6F9AC1DDF0000114
:102F6000000132EF1BF002013F6BCFC041F2406B1A
:102F7000036A0001CE51020140110101966F035016
:102F8000020141110101976F965305E1975303E147
:102F9000976B010E966F0D810001A9DC63D30101CF
:102FA0000D91F7511508D8B0E5D099510208D8A471
:102FB00070D0200E5F25FC5D1AE019E3FC39006E2D
:102FC0000F0E00160050FC5D0201316F01015351DC
:102FD0000201315DD8A002D0010109D031C253F104
:102FE000080E5A6F31C25BF20001D7EC09F0040EF3
:102FF00002013E6F00017BEC08F001C031F20C0EC3
:103000000201312501014F5D01E006E20C0E0201D3
:10301000315D01014F5D13E2D890020131313E6F05
:10302000D89001014F3102013E253A6F040E5A6FCC
:103030003AC25BF20001D7EC09F03AC24FF1050E3B
:1030400002013E6F00017BEC08F001C031F20C0E72
:10305000020131250101505D01E006E20C0E020182
:10306000315D0101505D14E2D890020131313E6FB3
:10307000D8900101503102013E253A6F050E5A6F7A
:103080003AC25BF20001D7EC09F03AC250F10101FB
:1030900071D0992D6FD0200E5D25FB5D1AE019E3EC
:1030A000FB39006E0F0E00160050FB5D0201316F00
:1030B000010151510201315DD8A002D0010109D0B6
:1030C00031C251F1060E5A6F31C25BF20001D7ECEA
:1030D00009F0020E02013E6F00017BEC08F001C016
:1030E00031F20C0E0201312501014D5D01E006E2D5
:1030F0000C0E0201315D01014D5D13E2D890020119
:1031000031313E6FD89001014D3102013E253A6FB9
:10311000020E5A6F3AC25BF20001D7EC09F03AC2D4
:103120004DF1030E02013E6F00017BEC08F001C07F
:1031300031F20C0E0201312501014E5D01E006E283
:103140000C0E0201315D01014E5D14E2D8900201C6
:1031500031313E6FD89001014E3102013E253A6F68
:10316000030E5A6F3AC25BF20001D7EC09F03AC283
:103170004EF10101000177EC14F074D201019D5170
:10318000030801E381D29EC1DAF09FC1DBF0A0C148
:10319000DCF0A1C1DDF0000165D2020E02015A6F20
:1031A000CEC05BF20001D7EC09F0030E02015A6FAA
:1031B000CFC05BF20001D7EC09F0040E02015A6F98
:1031C000D0C05BF20001D7EC09F0050E02015A6F86
:1031D000D1C05BF20001D7EC09F0060E02015A6F74
:1031E000D2C05BF20001D7EC09F0070E02015A6F62
:1031F000D3C05BF20001D7EC09F0080E02015A6F50
:10320000D4C05BF20001D7EC09F0090E02015A6F3D
:10321000D5C05BF20001D7EC09F0CEC04DF1CFC0B4
:103220004EF1D0C04FF1D1C050F1D2C051F1D3C056
:1032300052F1D4C053F1D5C054F114D2CEC050F2E3
:10324000CFC051F2D0C052F2D1C053F297EC08F087
:1032500009D2CEC03EF242D4CEA103D00F0E8C13C1
:1032600002D0F00E8C17CEA302D08C8901D08C999D
:10327000B38FF8D102013F6BCFC041F2406B036ABC
:103280000001CE510201401100018C6F0350020178
:10329000411100018D6FB38FE5D1CE5302E08D83D4
:1032A00001D08D93B38FDED1D0C068F0D890D235E5
:1032B000696ECEC06AF0CFC06BF0CB81D3D1D0C0E5
:1032C00068F0D2C069F0CEC06AF0CFC06BF0CB819D
:1032D000C9D1EA6A6C0EE96EE26ACE0EE16E0C0E9E
:1032E000016EE6CFEEFF012EFCD7B38DBBD1CE51E0
:1032F000000A07E0010A08E0030A09E0010A0AE0FF
:103300000DD0CFC06AF00BD0CFC06BF008D0CFC0CB
:1033100068F005D0D890CF35696E01D000D0CB8150
:10332000A1D1CE51000A07E0010A08E0030A09E032
:10333000010A0AE00CD0CFC06AF00AD0CFC06BF00F
:1033400007D0CFC068F004D0CFC069F001D000D062
:10335000CB8188D1CEC032F202013F6BD0C041F2A6
:10336000406B036A0001CF5102014011336F0350DB
:103370004111346FD8903235036A6C0FE96E000E3C
:103380000320EA6E34C2ECFFED5233C2EFFF32513C
:10339000000A00010BE0010A14E0030A1DE0010A23
:1033A00026E0070A2FE0010A38E042D0040E0201AD
:1033B0005A6F6DC05CF26CC05BF20001ACEC07F0C0
:1033C00038D0050E02015A6F6FC05CF26EC05BF21E
:1033D0000001ACEC07F02DD0020E02015A6F71C053
:1033E0005CF270C05BF20001ACEC07F022D0010E81
:1033F00002015A6F73C05CF272C05BF20001ACEC68
:1034000007F017D0030E02015A6F75C05CF274C04A
:103410005BF20001ACEC07F00CD0060E02015A6F13
:1034200077C05CF276C05BF20001ACEC07F001D033
:1034300000D0B38F17D1B38D15D19151000B036E0E
:1034400090C0DAF09151036ADB6F9351000B036E69
:1034500092C0DCF09351036ADD6F04D19551000BEB
:10346000036E94C0DAF09551036ADB6FFBD0020162
:103470003F6BCFC041F2406B036A0001CE510201A5
:103480004011006E03504111036E00C035F203C0BD
:1034900036F236C295F035C294F0000105EC0EF01C
:1034A000B38B0101069B0697069506930001B3872F
:1034B0008F6B8E6BD7D002013F6BCFC041F2406B58
:1034C000036A0001CE5102014011006E0350411108
:1034D000036E00C0A3F0000103C0A4F002013F6B23
:1034E000D1C041F2406B036A0001D051020140118A
:1034F000006E03504111036E00C0A5F0000103C02F
:10350000A6F0B0D002013F6BCFC041F2406B036A1E
:103510000001CE5102014011006E03504111036EB3
:1035200000C0A7F0000103C0A8F002013F6BD1C0AA
:1035300041F2406B036A0001D05102014011006E5C
:1035400003504111036E00C0A9F0000103C0AAF0AE
:1035500089D002013F6BCFC041F2406B036A00018A
:10356000CE5102014011006E03504111036E00C0A4
:10357000ABF0000103C0ACF002013F6BD1C041F2DF
:10358000406B036A0001D05102014011006E0350EC
:103590004111036E00C0ADF0000103C0AEF062D077
:1035A00002013F6BCFC041F2406B036A0001CE5174
:1035B00002014011006E03504111036E00C0AFF0D4
:1035C000000103C0B0F002013F6BD1C041F2406B7B
:1035D000036A0001D05102014011006E03504111F5
:1035E000036E00C0B1F0000103C0B2F03BD09F51A8
:1035F000000B036E9EC0DAF09F51036ADB6FA1518E
:10360000000B036EA0C0DCF0A151036ADD6F2AD06D
:10361000CE5307E005EC0EF0B38B0101069B07D0FB
:1036200000015BEC0CF0B39BBE6A0101068B0697B0
:10363000069506930001B3878F6B8E6B13D0CE5324
:1036400002E0B38101D0B3910DD0CE5302E0B38339
:1036500001D0B39307D0010E02013E6F000152EC7E
:1036600015F000D0CD5109080CE0EA6AF80EE96EB9
:10367000E26ACC0EE16E0E0E016EE6CFEEFF012E79
:10368000FCD701011091040000015AEF2BF0010159
:103690000DA905D0C2B402D00D99C2842BD0C2B4FA
:1036A00029D0036A9D519E0FE96E010E0320EA6E38
:1036B000C4CFEFFF9D2B9D51070813E39D35006E8E
:1036C00000360036F80E0016C250C70B0010C26E4E
:1036D0000DBF06D00DA104D09D51040801E20D8F4D
:1036E00008D0000E016EC250C70B0110C26E9D6B58
:1036F0000D8F0D89FD2BD8B4FE2B02010051010165
:10370000FE5D12E303E1FF51FD5D0EE30DAF0CD052
:10371000FE6BFD6B0D8B000E016EC250C70B0110CE
:10372000C26E9D6B0D890D9F0DAB05D09D51030899
:1037300002E20D8D0D9B00015FEF2BF0A207A2535B
:1037400003E1080EA26FB385CB8764EF2BF0036A09
:10375000020138514D0FE96E010E0320EA6EEFCFE2
:1037600039F201018E533EE102013851000A000195
:1037700007E0020A05E0030A0EE0020A0CE02ED080
:10378000036A020138514D0FE96E010E0320EA6E03
:10379000EFCF39F225D0036A020138514D0FE96E9F
:1037A000010E0320EA6EEFCF39F2100E395D3A6F49
:1037B000036A3851610FE96E010E0320EA6EEF5083
:1037C0003A5D0BE00AE3036A3851610FE96E010EBE
:1037D0000320EA6E100EEF24396F02D0020100D0F0
:1037E0002AD001018E51040803E08E51050824E11E
:1037F0000201382D0AD00101715303E1F9C139F2F8
:1038000002D0FAC139F218D00201385103080AE196
:103810000101735303E1F9C139F202D0FAC139F25F
:103820000BD00201036A38514D0FE96E010E0320DF
:10383000EA6EEFCF39F20101036A020138519E0F9F
:10384000E96E010E0320EA6E3951EF5C04E2010ECD
:10385000016E04D003D0000E016E00D00001000CF8
:103860000201385103081AE101019351150807E1DB
:103870008FC139F290C13AF291C13BF20DD0935110
:103880000C080AE1040E0201386F8FC139F290C1B1
:103890003AF2AA0E3B6F010108D00201CECF3AF2F4
:1038A000CFCF39F2CC0E3B6F0101050EF6254F0844
:1038B00032E3F651F62B036AA60FE96E010E0320E0
:1038C000EA6E38C2EFFFF651F62B036AA60FE96ED7
:1038D000010E0320EA6E01C2EFFFF651F62B036AD8
:1038E000A60FE96E010E0320EA6E39C2EFFFF65112
:1038F000F62B036AA60FE96E010E0320EA6E3AC2A8
:10390000EFFFF651F62B036AA60FE96E010E0320B6
:10391000EA6E3BC2EFFF0201016B0101F6511E0886
:103920000BE3020138510708D8A402D0010104D0EA
:103930003851080808E10101200E0201556F00010D
:10394000CDEC09F002010001000C02013991036A7B
:103950003851710FE96E010E0320EA6EEF2C28D06A
:10396000036A3851750FE96E010E0320EA6EEFBE4F
:103970001BD0036A3851750FE96E010E0320EA6E01
:10398000EF2A036A3851750FE96E010E0320EA6EC3
:10399000EF507F0808E1036A3851750FE96E010E98
:1039A0000320EA6EEF0603D03981010E3A6F33D05F
:1039B000036A3851710FE96E010E0320EA6EEF526F
:1039C0002AE1036A3851750FE96E010E0320EA6E91
:1039D000EFBE03D0EF5000081BE3036A3851750FA8
:1039E000E96E010E0320EA6EEF06036A3851750F87
:1039F000E96E010E0320EA6EEF50800808E1036AC9
:103A00003851750FE96E010E0320EA6EEF2A03D0DC
:103A10003981FF0E3A6F39A189D0036A3851890F75
:103A2000016E010E032203C03CF2036A3851850F78
:103A3000E96E010E0320EA6EEFCF3DF23CC2EAFFD1
:103A400001C0E9FF3DC2EFFF036A3851850F016EE7
:103A5000010E032203C03CF2036A3851810FE96E64
:103A6000010E0320EA6EEFCF3DF23CC2EAFF01C037
:103A7000E9FF3DC2EFFF036A3851810F016E010E6D
:103A8000032203C03CF2036A38517D0FE96E010E38
:103A90000320EA6EEFCF3DF23CC2EAFF01C0E9FF2E
:103AA0003DC2EFFF036A38517D0F016E010E032204
:103AB00003C03CF2036A3851790FE96E010E03200E
:103AC000EA6EEFCF3DF23CC2EAFF01C0E9FF3DC222
:103AD000EFFF036A3851790F016E010E032203C014
:103AE0003CF2036A3851750FE96E010E0320EA6E4D
:103AF000EFCF3DF23CC2EAFF01C0E9FF3DC2EFFF5C
:103B0000036A3851750FE96E010E0320EA6E3AC25E
:103B1000EFFF010E006E3851016E04E0D8900036C0
:103B2000012EFCD7005001018D1302010001000C91
:103B300001019507955307E18E5305E08E6BF7530E
:103B400001E1996B936B0001F7EF20F0036A02012A
:103B50003951790FE96E010E0320EA6EEFCF3EF284
:103B6000036A39517D0FE96E010E0320EA6EEF50B2
:103B70003E5D3B6B3A6F00C269F2FFC168F23BC227
:103B80006BF23AC26AF20001B9EC04F002C03FF2F3
:103B900001C03EF202C041F201C040F20201436B9B
:103BA000180E426F000149EC14F002C03DF201C052
:103BB0003CF2020100513D5D52E308E13C5101013C
:103BC000FF5DD8A002D002014AD002013DC241F2FD
:103BD0003CC240F2436B0B0E426F000149EC14F003
:103BE00002C03FF201C03EF200C241F2FFC140F20A
:103BF0000201436B0A0E426F000149EC14F002C04F
:103C000003F0025002013F5D23E303E13E51015CFA
:103C10001FE200C269F2FFC168F26B6B0B0E6A6FA4
:103C20000001B9EC04F002C03FF201C03EF202C054
:103C300041F201C040F20201436B0A0E426F0001E3
:103C400049EC14F002C000F201C0FFF106D00201FD
:103C50003DC200F23CC2FFF1000149D002013DC269
:103C600041F23CC240F2436B140E426F000149EC3A
:103C700014F002C03FF201C03EF200C241F2FFC1A7
:103C800040F20201436B150E426F000149EC14F043
:103C900002C003F0015002013F51025C23E303E143
:103CA00001503E5D1FE200C269F2FFC168F26B6B1A
:103CB000130E6A6F0001B9EC04F002C03FF201C0BC
:103CC0003EF202C041F201C040F20201436B140E09
:103CD000426F000149EC14F002C000F201C0FFF194
:103CE00006D002013DC200F23CC2FFF10001000C0F
:103CF0000101992D2ED0010E0201396F000126DF3E
:103D00000101F75308E161C159F165C15DF162C17B
:103D10005AF166C15EF16EC16AF15A516A5D006E78
:103D2000D89000300201386F0101F75303E138C227
:103D3000F8F108D0020138510101F825006ED89041
:103D40000030F86FF8515E5DF96FF8515A25FA6F3F
:103D50002DD0030E0201396F0001F8DE0101F75387
:103D600008E163C15BF167C15FF164C15CF168C1E7
:103D700060F170C16CF15C516C5D006ED8900030E8
:103D80000201386F0101F75303E138C2F8F108D09E
:103D9000020138510101F825006ED8900030F86F0B
:103DA000F851605DF96FF8515C25FA6F936B8D6B7C
:103DB000040E016E010EEA6E8F0EE96EEE6A012EA0
:103DC000FDD794C195F19B6B9C6B0201386B385108
:103DD00003081BE3036A3851610FE96E010E0320EB
:103DE000EA6EFF0EEF6E036A3851650FE96E010E41
:103DF0000320EA6EEF6A036A38516D0FE96E010E17
:103E00000320EA6EEF6A382BE2D70001000C0201B2
:103E100039BF01D005D0000ED8803955016E02D0CF
:103E200039C201F00001000C02013C3301018F375F
:103E3000903791379237000102EF20F002013C5396
:103E40001FE001019351070B02013D6F0101933106
:103E5000006E003200321F0E00160050036A8F0FF2
:103E6000E96E010E0320EA6E010E006E02013D5163
:103E7000016E04E0D8900036012EFCD70050EF12FE
:103E8000000102EF20F002014551016A445D03E2A6
:103E900044C200F00CD0006A080E466F443700366A
:103EA0004551005CD8B0006E0136462FF7D70001AF
:103EB000000C02013D5362E03E5360E0036A3C5156
:103EC000790FE96E010E0320EA6EEFCF41F241BF98
:103ED00021D0415100081EE241C244F23DC245F2E8
:103EE0000001D1DF01C03FF2036A02013C517D0FA6
:103EF000E96E010E0320EA6EEF50FF0A010F436FD7
:103F000043C244F23EC245F20001BDDF01C040F2AF
:103F10001DD00201000ED8804155436F43C244F2C8
:103F20003DC245F20001AFDF01C040F2036A020169
:103F30003C517D0FE96E010E0320EA6EEFCF44F293
:103F40003EC245F200019FDF01C03FF202013F5136
:103F5000405D14E040513F5D09E2036A3C514D0F62
:103F6000E96E010E0320EA6EEF2A08D0036A3C5185
:103F70004D0FE96E010E0320EA6EEF0600010FEF10
:103F800020F00101992D0AD0020E0201386F010EB6
:103F9000396F3A6B76C13BF20AD00101100E020173
:103FA000386F030E396F020E3A6F78C13BF2010190
:103FB0008D5102013815000A0CE03BBF07D03B5180
:103FC000000804E201019B6B03D0020101019C6B1C
:103FD00002013BBF09D03B51000806E2010E386FD9
:103FE00001019B2B04D00201386B01019C2B8E51E7
:103FF000040804E138C23CF2000116D738C23CF292
:1040000000011CD70101932B94C195F18D6B3AC22D
:104010003CF2010E02013D6F3E6F00014AD779EF7D
:1040200024F001018E5104080DE103909233913385
:1040300090338F3303909233913390338F339307C0
:1040400093072BD0020E0201396F395325E001018D
:104050009351070B0201386F01019331006E00325A
:1040600000321F0E00160050036A8F0FE96E010E1A
:104070000320EA6E010E006E02013851016E04E069
:10408000D8900036012EFCD70050FF0AEF16010130
:10409000930702013907D9D7010100018EEF24F0FF
:1040A0009EA00AD09E9001010DA107D0040E02012E
:1040B000556F0001CDEC09F001010DBD02D0BFEF3D
:1040C00025F00D9D0201386B0001A7EC1BF001C02B
:1040D00071F1010E0201386F0001A7EC1BF001C065
:1040E00072F1020E0201386F0001A7EC1BF001C053
:1040F00073F1030E0201386F0001A7EC1BF001C041
:1041000074F19EC131F29FC132F2A0C133F2A1C15C
:1041100034F2020131510101FB5D02E231C2FBF1D7
:10412000020133510101FC5D02E233C2FCF10201E4
:1041300031510101515D0FE20DB50CD00D85020129
:10414000018101019A9B080E0201386F000130ECD9
:104150001CF001010ED00DA50CD00D9502010181BE
:1041600001019A8B070E0201386F000130EC1CF040
:104170000101020133510101535D0FE20DB70CD073
:104180000D870201018301019A99080E0201386F1F
:10419000000130EC1CF001010ED00DA70CD00D97E2
:1041A0000201018301019A89070E0201386F0001A3
:1041B00030EC1CF001010DB102D0BFEF25F002017F
:1041C000386B0001A5EC1CF0010E0201386F0001F4
:1041D000A5EC1CF0020E0201386F0001A5EC1CF0EA
:1041E000030E0201386F0001A5EC1CF0A1D40101FF
:1041F0008D5302E1BFEF25F08E51000A00010CE063
:10420000040AD8B4F9D2010AD8B4F6D2030AD8B451
:1042100063EF25F0BCEF25F00201379101019951C0
:104220000208D8B472D175BF03D07551000817E3E6
:10423000000ED8807555006E00BE03D000500A08ED
:104240003DE3000ED8807555006E00BE37D000509B
:10425000000834E279BF32D079511D082FE2615154
:104260000201315D03E231C261F106D03151010139
:10427000655D02E231C265F1010162510201325D08
:1042800003E232C262F118D032510101665D02E2EE
:1042900032C266F175BF03D075511C080CE375BFBF
:1042A0000AD07551000807E20201325101016E5D2A
:1042B00002E232C26EF1020126D00101000ED88066
:1042C0007655006E00BE0FD000500B080CE2000EB9
:1042D000D8807555006E00BE06D000500B0803E272
:1042E000FF0E626F0FD0000ED8807555006E00BEB5
:1042F00009D000500B0806E2FF0E616F656B626F1C
:10430000666B6E6B0201000ED88001017555006E60
:1043100000BEFBD000500508D8B0F7D0000ED88002
:104320007D55006E00BEF1D000500508D8B0EDD02C
:10433000000ED8807655006E00BEE7D00050000811
:10434000D8B0E3D079BFE1D079511D08D8B0DDD025
:1043500079BF04D079515308D8A0D7D0000ED880A7
:104360007655006E00BE04D000501108D8A0CDD004
:104370007ABF04D07A511908D8A0C7D0000ED880CF
:104380007E55006E00BE04D000501908D8A0BDD0E4
:1043900082BF04D082511908D8A0B7D07ABFB5D057
:1043A0007A510008D8B0B1D0000ED8807E55006E8A
:1043B00000BEABD000500008D8B0A7D082BFA5D0B7
:1043C00082510008D8B0A1D07E517A5D82250201C9
:1043D000356F010179510201355D386F385138AFC1
:1043E00003D0000ED8803855366F36BF03D0365113
:1043F000110821E3010179BF06D079513208D8B004
:1044000002D0020118D0000ED8808655006E00AE92
:1044100002D0020110D000500508D8A002D002013D
:104420000AD002013781010E0101986F050E8E6FCF
:104430000D9360D00201010186510201355D010139
:104440008A250201356F010179510201355D386F0E
:10445000385138AF03D0000ED8803855366F36BF8C
:1044600003D03651110846E3010179AF02D00201B1
:1044700041D079513108D8A002D002013BD0000EC2
:10448000D8808655006E00AE02D0020133D00050B5
:104490000008D8A002D002012DD08AAF02D00201BC
:1044A00029D08A510008D8A002D0020123D0000EE2
:1044B000D8808655006E00BE06D000501908D8B0CE
:1044C00002D0020117D08ABF06D08A511908D8B08D
:1044D00002D002010FD0020137810101986B040E56
:1044E0008E6F0D8302010181050E386F000130ECE3
:1044F0001CF00201020137A107D0010E0101996FE2
:10450000000178EC1EF002010101992D01D072D159
:1045100077BF03D07751000817E3000ED880775596
:10452000006E00BE03D000500A083DE3000ED880A4
:104530007755006E00BE37D00050000834E27BBFD4
:1045400032D07B511D082FE263510201335D03E23B
:1045500033C263F106D033510101675D02E233C219
:1045600067F1010164510201345D03E234C264F178
:1045700018D034510101685D02E234C268F177BF9E
:1045800003D077511C080CE377BF0AD0775100089D
:1045900007E2020134510101705D02E234C270F1A0
:1045A000020126D00101000ED8807855006E00BEB1
:1045B0000FD000500B080CE2000ED8807755006E2B
:1045C00000BE06D000500B0803E2FF0E646F0FD050
:1045D000000ED8807755006E00BE09D000500B0841
:1045E00006E2FF0E636F676B646F686B706B0201AE
:1045F000000ED88001017755006E00BEFBD0005040
:104600000508D8B0F7D0000ED8807F55006E00BEE8
:10461000F1D000500508D8B0EDD0000ED880785504
:10462000006E00BEE7D000500008D8B0E3D07BBFDA
:10463000E1D07B511D08D8B0DDD07BBF04D07B51C9
:104640005308D8A0D7D0000ED8807855006E00BE91
:1046500004D000501108D8A0CDD07CBFCBD07C5165
:104660000008D8B0C7D0000ED8808055006E00BEBC
:10467000C1D000500008D8B0BDD084BFBBD0845199
:104680000008D8B0B7D07CBF04D07C511908D8A09E
:10469000B1D0000ED8808055006E00BE04D000500E
:1046A0001908D8A0A7D084BF04D084511908D8A075
:1046B000A1D080517C5D84250201356F01017B51C1
:1046C0000201355D386F385138AF03D0000ED88005
:1046D0003855366F36BF03D03651110821E301013A
:1046E0007BBF06D07B513208D8B002D0020118D06F
:1046F000000ED8808855006E00AE02D0020110D0A6
:1047000000500508D8A002D002010AD0020137816A
:10471000010E0101986F050E8E6F0D9360D002019E
:10472000010188510201355D01018C250201356FBF
:1047300001017B510201355D386F385138AF03D02C
:10474000000ED8803855366F36BF03D03651110869
:1047500046E301017BAF02D0020141D07B51310819
:10476000D8A002D002013BD0000ED8808855006E40
:1047700000AE02D0020133D000500008D8A002D011
:1047800002012DD08CAF02D0020129D08C5100083B
:10479000D8A002D0020123D0000ED8808855006E28
:1047A00000BE06D000501908D8B002D0020117D0C0
:1047B0008CBF06D08C511908D8B002D002010FD09E
:1047C000020137810101986B040E8E6F0D83020187
:1047D0000183050E386F000130EC1CF0020102016C
:1047E00037A107D0020E0101996F000178EC1EF08D
:1047F00002010101C4D100010101992D1ED06151B6
:104800000201315D03E231C261F106D03151010193
:10481000655D02E231C265F1010162510201325D62
:1048200003E232C262F107D032510101665D02E259
:1048300032C266F102011DD0010163510201335DF4
:1048400003E233C263F106D033510101675D02E236
:1048500033C267F1010164510201345D03E234C2E5
:1048600064F107D034510101685D02E234C268F19D
:1048700002010101992D0BD08DA109D075C139F22A
:10488000000107EC1FF00150050811E301019951E7
:1048900002080FE18DA50DD077C139F2000107ECB8
:1048A0001FF001500508D8A002D0010102D0C1EFCD
:1048B0001FF0992D09D079C139F2000107EC1FF0E2
:1048C000015005080FE201019951020811E17BC175
:1048D00039F2000107EC1FF001500508D8B002D0F2
:1048E000010106D001018E6BF75301E1996B936BC7
:1048F00000010101992D05D075BF03D0755119082C
:104900000AE399510208D8A4DCD077BFDAD07751F6
:104910001908D8B0D6D0000111EF20F0060E010121
:104920008E6F9451080DF3CF95F18D6B992D65D055
:104930009351150803E093510C085BE1F72B0DA38D
:1049400009D002010181030E386F000130EC1CF028
:104950001DD00101F75101080BE29ABD07D0800E6E
:104960000201556F0001CDEC09F001019A8D9A8F7B
:1049700002010181030E386F000130EC1CF00201CE
:104980000181050E386F000130EC1CF00201396B1B
:104990005AC138F201015E51020138253A6F000E0A
:1049A00039213B6FD8903B31036E3A31026E0101E1
:1049B0004E6FF72D09D061C159F165C15DF162C13A
:1049C0005AF166C15EF114D05951615D02E261C1D4
:1049D00059F165515D5D02E265C15DF15A51625D5B
:1049E00002E262C15AF166515E5D02E266C15EF1A9
:1049F00003D0F75301E1996B64D09351150803E09C
:104A000093510C085BE1F72B0DA313D09ABD07D08F
:104A1000800E0201556F0001CDEC09F001019A8D65
:104A200002010183030E386F000130EC1CF013D03B
:104A30000101F751010801E29A8F02010183030E7F
:104A4000386F000130EC1CF002010183050E386F55
:104A5000000130EC1CF00201396B5CC138F201013D
:104A60006051020138253A6F000E39213B6FD89012
:104A70003B31036E3A31026E0101506FF72D09D0C0
:104A800063C15BF167C15FF164C15CF168C160F152
:104A900014D05B51635D02E263C15BF167515F5DFE
:104AA00002E267C15FF15C51645D02E264C15CF1E6
:104AB0006851605D02E268C160F103D0F75301E123
:104AC000996B5DD000010101992D02D08DB105D007
:104AD000995102084FE18DA54DD0FF0E956F8E6B59
:104AE0008D6B0201306B3051030843E3036A305190
:104AF000790FE96E010E0320EA6EEF6A036A305106
:104B00007D0FE96E010E0320EA6EEF6A036A3051F1
:104B1000810FE96E010E0320EA6EEF6A036A3051DD
:104B2000850FE96E010E0320EA6EEF6A036A3051C9
:104B3000890FE96E010E0320EA6EEF6A036A3051B5
:104B4000610FE96E010E0320EA6EFF0EEF6E036A3D
:104B50003051650FE96E010E0320EA6EEF6A036AB9
:104B600030516D0FE96E010E0320EA6EEF6A302BB3
:104B7000BAD7010104D0000101018E6B00D0000101
:104B800071EF2BF001010B2BD8B40C2B0001CBAF34
:104B900058D09DAF08D09D51FE080FE2FF0A03E1F7
:104BA0009C51FD080AE29DBF05D09D5306E19C5132
:104BB000020803E302010F2B02D002010F6B010177
:104BC0000C5303E10B5113081CE202010F510408BE
:104BD000D8A002D0010115D001010C6B0B6B0001B4
:104BE000CB9F91C00EF290C00DF2CBB902D0828261
:104BF00001D08292CB8B320EBE6E05EC0EF01ED031
:104C000001010C5303E10B518F0819E200015BEC29
:104C10000CF0BE6ACB9D0101088109810F0E0201D3
:104C20005A6F08C15BF20001D7EC09F0100E0201C7
:104C30005A6F09C15BF20001D7EC09F00101ACD059
:104C40000001320E01010B250201306F000E01013F
:104C50000C210201316F01081DE303E1305104080A
:104C600019E3320E01010B250201306F000E010124
:104C70000C210201316F3133303331333033313372
:104C800030C2BEFF31333131300B006EBD50CF0B1F
:104C90000010BD6E01010C531BE10B51070818E316
:104CA00000019DAF7AD09D51FF08D8A076D004E1D5
:104CB0009C51F808D8A071D09DBF6FD09D53D8B437
:104CC00002D0010105D09C510708D8B066D001017F
:104CD000100E02010D25016E000E0E21036E015013
:104CE00003AE04D0000191AF0BD003D0000191BFFF
:104CF0000ED00350915D0BE303E10150905D07E39B
:104D0000CB9DCBB901D02BD00BEC0EF046D0100EC2
:104D100002010D5D006E000E0E59036E00C001F021
:104D2000000191AF03D003AE0AD002D003BE2DD054
:104D30009151035C2AE303E19051015C26E3CB9D92
:104D4000CB79000ECBB9010E0201306F110E5A6FF4
:104D500030C25BF20001D7EC09F0CBB913D00101EE
:104D6000088F09810F0E02015A6F08C15BF2000122
:104D7000D7EC09F0100E02015A6F09C15BF2000175
:104D8000D7EC09F00BEC0EF008D001010C5303E155
:104D90000B518F0801E23AD70001E8EF2BF09A514E
:104DA000B4279B51B523B5AF0FD0B551E3080CE341
:104DB00003E1B451DF0808E3E30EB56FE00EB46F12
:104DC0000201286B15D00001B5BF10D0B5511B08EA
:104DD0000DE2FF0A03E1B451200808E21C0EB56F92
:104DE000200EB46F0201282B03D000010201286BB2
:104DF0009BC069F29AC068F26B6B050E6A6F000186
:104E0000B9EC04F002C036F201C035F202C069F21A
:104E100001C068F202016B6B040E6A6F00017CEC4A
:104E200004F002C037F201C036F2B5C069F2B4C076
:104E300068F202016B6B180E6A6F00017CEC04F0E3
:104E4000015002013625386F02503721396F0001B9
:104E50009C5102013825306F00019D51020139211A
:104E6000316F0001CBAB0FD031C269F230C268F2B2
:104E7000FF0E02016B6F6A6F0001B9EC04F002C013
:104E800031F201C030F2020131BF01D003D0316BE9
:104E9000306B0ED031BF0CD03151000809E2FF0A4F
:104EA00003E130512C0804E2010E316F2C0E306FFB
:104EB00031C202F030C201F002320132023201325C
:104EC000023201C0BEFF02320230300B006EBD5014
:104ED000CF0B0010BD6E305331E131532FE1132B56
:104EE000135104082AE200019BBF05D09B5314E133
:104EF0009A51010811E39BBF02D002011ED09B51C1
:104F0000FF08D8B002D0020118D006E19A51FE087D
:104F1000D8B002D0020111D08272CB7BCBAB05D0CE
:104F2000FF0EB56F880EB46F03D0B56B780EB46FFB
:104F30000201136B000137D7020101D0136B00018E
:104F4000B3B902D0B3A7BFD08E5306E18F5304E1AB
:104F50000201146B156B00019BAF08D09B51FE083A
:104F60000FE2FF0A03E19A51FB080AE29BBF05D05A
:104F70009B5306E19A51040803E30201142B02D06B
:104F80000201146B00019DAF08D09D51FE080FE295
:104F9000FF0A03E19C51FE080AE29DBF05D09D5324
:104FA00006E19C51010803E30201152B02D0020126
:104FB000156B14510A0803E215510F0806E314514A
:104FC000140840E2155105083DE201010683020E76
:104FD0000201556F0001CDEC09F0B66B8CA50AD02B
:104FE0006950100805E2100E695C6924B62702D0EA
:104FF0006950B6278CA70AD06A50100805E2100E37
:105000006A5C6A24B62702D06A50B6278CB902D0EF
:10501000D890B637B5C0B8F0B4C0B7F0B6530AE10F
:10502000B8BF01D005D0B8C0BAF0B7C0B9F002D04F
:10503000BA6BB96BB399B3978F6B8E6B0201146B1C
:10504000156B32D100018E2BD8B48F2B8E5306E115
:105050008F5304E18E51D8B48F078E078F5101080A
:1050600031E2FF0A03E18E513C082CE2B3B91CD0B7
:1050700099AF03D0A4AF18D002D0A4BF07D09951E4
:10508000A45D04E311E19851A35D0EE2A6AF03D045
:1050900099AF0AD002D099BF15D0A651995D12E3FD
:1050A00003E1A551985D0EE361EC0CF00101068D62
:1050B000010E0201556F0001CDEC09F0B397B399D1
:1050C0008F6B8E6BEFD0010106A32ED000019BBF2A
:1050D0000BD09B53D8B402D0010126D09A510308BB
:1050E000D8B002D0010120D09BAF0ED09B51FE085A
:1050F000D8A002D0010118D0FF0A06E19A51FC089D
:10510000D8A002D0010110D0B5C0B8F0B4C0B7F03B
:10511000B6530AE1B8BF01D005D0B8C0BAF0B7C0E5
:10512000B9F002D0BA6BB96B0001CBB304D0010166
:1051300006A998D00001CBBB35D00201276B000136
:1051400095BF07D0955103082AE303E194516F08F6
:1051500026E30201162B1651090822E2166B31C212
:1051600069F230C268F26B6B0A0E6A6F00017CEC68
:1051700004F001C035F2010E02010124016E000E9F
:105180000220036E01500001942703509523010172
:105190000697069506930001B3878F6B8E6B02010D
:1051A0005FD000010201166B000195BF58D09551E8
:1051B000010855E2FF0A03E19451800850E2020120
:1051C0002751272B006ED89000360050036A170F26
:1051D000E96E020E0320EA6E31C2ECFFED5230C2DE
:1051E000EFFF275107083CE2276B336B326B346BC0
:1051F0003451070811E3D8903435036A170FE96E6C
:10520000020E0320EA6EECCF03F0ED52EF5032278E
:1052100003503323342BECD733C269F232C268F225
:105220006B6B080E6A6F00017CEC04F002C033F275
:1052300001C032F2020133BF13D0335303E13251C4
:105240000A080EE200019451D8B4950794070101B1
:105250000697069506930001B3878F6B8E6B02014C
:1052600023D001010201166B276B010106A31BD09D
:10527000020128511708D8A002D0010114D0000162
:1052800095BF07D0955103080DE303E194516F08D2
:1052900009E30201286B0001942BD8B4952B962BBF
:1052A000D8B4972B010102010001F3EF2BF0B3B743
:1052B00081D099AF03D0ACAF18D002D0ACBF07D02B
:1052C0009951AC5D04E311E19851AB5D0EE2AEAFD4
:1052D00003D099AF0AD002D099BF15D0AE51995DD5
:1052E00012E303E1AD51985D0EE3B3A302D061EC8C
:1052F0000CF0010106870693100E0201556F0001A4
:10530000CDEC09F02BD099AF03D0A4AF18D002D0C8
:10531000A4BF07D09951A45D04E311E19851A35DA6
:105320000EE2A6AF03D099AF0AD002D099BF16D033
:10533000A651995D13E303E1A551985D0FE3CBB34B
:105340000DD0010106A902D0000108D00685068310
:10535000080E0201556F0001CDEC09F0CBB32AD045
:10536000010106A902D0000125D00001A1AF03D0A0
:1053700099AF0AD002D099BF0BD0A151995D08E333
:1053800003E19851A05D04E299C0A1F098C0A0F09B
:1053900099AF03D09FAF0AD002D09FBF0BD09951D5
:1053A0009F5D08E303E19E51985D04E299C09FF080
:1053B00098C09EF093AF03D0B0AF18D002D0B0BF6A
:1053C00007D09351B05D04E311E19251AF5D0EE25D
:1053D000B2AF03D093AF0AD002D093BF14D0B25172
:1053E000935D11E303E1B151925D0DE3B3A302D0EC
:1053F00061EC0CF00101068F100E0201556F0001E7
:10540000CDEC09F024D093AF03D0A8AF18D002D0D0
:10541000A8BF07D09351A85D04E311E19251A75DA5
:105420000EE2AAAF03D093AF0AD002D093BF0FD041
:10543000AA51935D0CE303E1A951925D08E30101D8
:10544000068F080E0201556F0001CDEC09F0F4EF54
:105450002BF0020130513F0B000A3EE001014351A5
:10546000D8B44407432F1ED044531CE1829C30C261
:1054700000F03A51016E04E0D8900032012EFCD7C2
:1054800000A005D03EC146F13DC145F104D040C168
:1054900046F13FC145F141514525436F42514621F7
:1054A000446F18D04551D8B44607452F13D0465302
:1054B00011E1828C3A530DE1050E3A6F3CC144F183
:1054C0003BC143F1010E4325456F000E4421466F59
:1054D00001D03A0703D00201829C010100010AEFCA
:1054E0002CF001014B510F0B000A44E04751D8B496
:1054F0004807472F1ED048531CE1829C4BC100F047
:105500004C51016E04E0D8900032012EFCD700A06F
:1055100005D03EC14AF13DC149F104D040C14AF134
:105520003FC149F141514925476F42514A21486FD6
:1055300020D04951D8B44A07492F1BD04A5319E10A
:10554000828C4C5315E14B51040803E1080E4B6F5C
:1055500001D04B6B030E4C6FD8903C31486F3B3100
:10556000476F010E4725496F000E48214A6F01D051
:105570004C070BD04751D8B44807472F06D04853A3
:1055800004E1829C000E016E02D0010E016E00014A
:1055900005EF2CF0F86AD09E0D8EEA6AE96AC180A8
:1055A000C182C184C196800E966F020E976FB66B52
:1055B000B76BB86BB96BBA6B0101436F446B010EEB
:1055C000456F466B476F486B020E496F4A6B040E7E
:1055D0004B6F030E4C6F0201066B076B010E086FD9
:1055E000096B0A6B0B6BFF0E0C6F0D6B0E6B0F6B69
:1055F00001010D9F020110911093116B126B108528
:105600001097136B146B156B166B176B186B196B6C
:105610001A6B1B6B1C6B1D6B1E6B1F6B206B216B46
:10562000226B236B246B256B266B276B286B310E4B
:10563000296F320E2A6F330E2B6F340E2C6F350EFE
:105640002D6F2E6BF29CF29EF2BEFDD700011EEF75
:1056500013F0080E0201306F316F040E326F336B9E
:10566000346B020E366F290E356F376B000101EF78
:1056700014F0200E0201306F1E0E316F0F0E326FCC
:10568000140E336F00011AEF14F0200E0201306F78
:1056900000013EEF14F09D8677EC14F0D082D080AC
:1056A000C00EF2120101095301E1829C04000001C5
:1056B0009AEF15F0F2A403D0F29447EF1BF0A1A2E9
:1056C0000CD0A1929EEF1BF0010108A907D0010E9A
:1056D0000201556F000104EC0AF00101000150EFD6
:1056E00020F0CBA12FD0CB91036A6950190F016E26
:1056F000000E032201501D0FE96E000E0320EA6E1A
:10570000EFCF30F2010E0201566F30C257F20001A6
:10571000E6EC0EF0036A6A50320F016E000E0322AF
:1057200001501D0FE96E000E0320EA6EEFCF30F23C
:10573000020E0201566F30C257F20001E6EC0EF085
:10574000FEEC06F0B3AD0BD0B39D29EC08F00101DF
:105750000697069506930001B3878F6B8E6BB3AFE8
:1057600026D0CAEC04F0B39F02015A6B8DC05CF2E4
:105770008CC05BF20001ACEC07F08C511F0B0201F6
:10578000306F00018D51000B0201316F305305E184
:10579000315303E10001CB8302D00001CB9301011F
:1057A0000697069506930001B3878F6B8E6BB3A5A2
:1057B00023D0B3957CEC0CF001C02FF2CBAD0FD011
:1057C000CBB304D0010106A905D00001C2EF25F03A
:1057D00005D001010001CB9D0BEC0EF004D0B3AB62
:1057E00002D0CFEF26F063D5B3A106D0400E020160
:1057F000556F0001CDEC09F0CBA70CD0CB97CBB502
:1058000003D009C130F225D66CD601B002D0CB95B9
:0A58100001D0CB8501014AD7030047
:020000040030CA
:0E0000000026060B000181000FC00FE00F402C
:00000001FF
;PIC18F452
