:104639004632333520426F6F74006570202564203F
:104649007374616C6C000001020203030404050524
:1036BD00D20012475C90E6C2E090B0D7F0D20E1265
:1036CD00475C90E6F574FFF090B0D87401F01247A6
:1036DD005C90B0D8E090E6C2F012461412475C90B0
:1036ED00E6F3E090B0D8F012475C90B0D8E090E6E9
:1036FD00F3F090B0D87420F012475C90B0D8E09001
:10370D00E6C2F012461490B0D8E04402F012475CC5
:10371D0090B0D8E090E6C2F012461490B0D8E044D4
:10372D0001F012475C90B0D8E090E6C2F012475C11
:10373D0090E6047480F012475C90E6047402F01277
:10374D00475C90E6047404F012475C90E60474063E
:10375D00F012475C90E6047408F012475CE490E6C2
:10376D0004F090B0D8E04414F012475C90B0D8E06B
:10377D0090E6C2F012475C90E6CE74FFF090B00177
:10378D00E054BDF090E6D0E0FE90E6D1E07C002460
:10379D0000FFEC3ECF24FFCF34FFFE90B094E02F1E
:1037AD00FF90B093E03E90B095F0A3EFF012475C20
:0837BD0075BB06C20EA200223A
:103CAD0012473D90E6007410F043B61053B1EF1279
:103CBD003F5690E60174FAF012475C90E60B7402E1
:103CCD00F012445E12468E90B19F7403F0123E5A6C
:103CDD001241E312453A12468E12456C123E5A12AB
:103CED0036BD50FB53B2FE53B2F743B2F45380AB23
:103CFD004380A043B68043B180E490B001F0787268
:103D0D007CB07D017BFF7A46793912294790E678A0
:103D1D00E05410C4540F44A090B19EF090E605E01D
:103D2D004406F074B190E606F090E60774A2F0D266
:023D3D00092259
:1038F000E490B1A2F0E58090B00130E006E0547FA2
:10390000F08004E04480F0E58030E30E90B19FE069
:10391000B4020790B001E04442F0E490B1A2F0128A
:103920003EDA90B0C97406F0547EFF7E007406D370
:1039300094807C0040047D0180027D00EC4EFEED11
:103940004F244FF58274463EF583E493FF3395E0B0
:10395000FEEF24A1FFEE34E68F82F583E030E072C3
:103960007BFF7A46794390B0CD12284C90B0C9E0E5
:1039700090B0D0F07B017AB0797212206590B0C916
:10398000E0FF547EFD7C00EFD394807E0040047FF6
:103990000180027F00EE4CFEEF4D244FF58274460D
:1039A0003EF583E493FF3395E0FEEF24A1FFEE3470
:1039B000E68F82F583E054FEF090B0C9E0FF5480BA
:1039C000131313541FFEEF540F2E90E683F0E044C0
:0339D00020F022C2
:022FFE00D322DC
:0237FE00D322D4
:02476A00D32258
:0A2FF40090E6BAE090B1A0F0D322FD
:1047030090B1A0E090E740F0E490E68AF090E68B69
:0447130004F0D322B9
:0A474F0090E6BAE090B19DF0D3228D
:1047170090B19DE090E740F0E490E68AF090E68B58
:0447270004F0D322A5
:02476C00D32256
:02476E00D32254
:02477000D32252
:1029A700E490B1A2F090B19EE013E43390B1A1F0AE
:1029B70090E6B9E0245EB40B00400281829029CEF4
:1029C70025E05002058373418B418B410C21E421A3
:1029D700EA21F34130417E4116411E415590B1A194
:1029E700E0800490E60AE090E740800590E74074B5
:1029F7000FF0E490E68AF090E68B04F090E6A0E012
:102A07004480F0818290E6BAE090B19EF081829096
:102A1700E67AE054FE800690E67AE04401F0E4901E
:102A2700E68AF090E68BF0818290E7407407F0E445
:102A370090E68AF090E68B04F090E6A0E04480F000
:102A47007FE87E031242C0D20012459C818290E645
:102A5700B5E054FEF090E6BFE090E68AF090E6BE5F
:102A6700E090E68BF090E6BBE090E6B3F090E6BA34
:102A7700E090E6B4F0818290B1A17401F090B19E2C
:102A8700E04401F090E6BAE0FF90B0C9E4F0A3EFAC
:102A9700F090E6BBE0FE90B0C9E04EF0A3E0F09006
:102AA700E6BEE0FF90B0CBE4F0A3EFF090E6BFE026
:102AB700FE90B0CBE04EF0A3E0F090E6B8E064C043
:102AC700600261CA90B0CBE07002A3E0700281821D
:102AD70090E6A0E020E1F990B0CBE0FEA3E0FFC3D1
:102AE7009440EE94005008A3EEF0A3EFF080099015
:102AF700B0CDE4F0A37440F090E6B9E064A3704A67
:102B070090B0CFF0A3F090B0CDE0FEA3E0FFA3E03C
:102B1700FCA3E0FDC39FEC9E507C90B0C9E0FEA3F0
:102B2700E0F5828E832DF582E5833CF583E0FF9007
:102B3700B0D0E02440F582E434E7F583EFF090B0BD
:102B4700CFE475F00112281780BCE490B0CFF0A352
:102B5700F090B0CDE0FEA3E0FFC390B0D0E09F902F
:102B6700B0CFE09E501AA3E02440F582E434E7F5A5
:102B77008374CDF090B0CFE475F00112281780D19F
:102B870090B0C9E0FEA3E0FF90B0CEE0FD7AE77910
:102B9700407B40123B66E490E68AF090B0CEE0902E
:102BA700E68BF090B0CDE0FEA3E0FF90B0C9EE8FCA
:102BB700F0122817C390B0CCE09FF090B0CBE09E06
:102BC700F041CB90E6B8E064406002818290B0CBE0
:102BD700E07002A3E070028182E490E68AF090E65A
:102BE7008BF090E6A0E020E1F990E68BE0FF90B053
:102BF700CDE4F0A3EFF090E6B9E064A3704790B09E
:102C0700CFF0A3F090B0CDE0FEA3E0FFA3E0FCA3DC
:102C1700E0FDC39FEC9E5043E02440F582E434E797
:102C2700F583E0FF90B0C9E0FAA3E0F5828A832D2F
:102C3700F582E5833CF583EFF090B0CFE475F001C2
:102C470012281780BF90B0C9E0FEA3E0FF90B0CE76
:102C5700E0FD7AE779407B4012419890B0CDE0FEE5
:102C6700A3E0FF90B0C9EE8FF0122817C390B0CC45
:0D2C7700E09FF090B0CBE09EF061D4C3224E
:1046A700C0E0C083C082D20A5391EF90E65D7401E7
:0846B700F0D082D083D0E03284
:1046D700C0E0C083C0825391EF90E65D7404F0D0D0
:0646E70082D083D0E03216
:1046ED00C0E0C083C0825391EF90E65D7402F0D0BC
:0646FD0082D083D0E03200
:10414700C0E0C083C082C0D075D000C001C002C02B
:104157000390B19412284390B18E12284C89828A19
:1041670083A37402F090B18812284390B19112286A
:104177004C89828A83A37407F05391EF90E65D74AC
:1041870010F0D003D002D001D0D0D082D083D0E0BD
:0141970032F5
:1046BF00C0E0C083C082D20C5391EF90E65D7408C6
:0846CF00F0D082D083D0E0326C
:1040EF00C0E0C083C082C0D075D000C001C002C084
:1040FF000390E680E030E72890B18812284390B112
:10410F008E12284C89828A83A37402F090B1941284
:10411F00284390B19112284C89828A83A37407F0A7
:10412F005391EF90E65D7420F0D003D002D001D010
:08413F00D0D082D083D0E03221
:0139FF003295
:014772003214
:014773003213
:014774003212
:10422E00C0E0C0F0C083C082C0D075D000C000C056
:10423E0001C002C003C004C005C006C00790B1A2F1
:10424E00E4F0122F015391EF90E65F7404F0D00763
:10425E00D006D005D004D003D002D001D000D0D0EB
:09426E00D082D083D0F0D0E03200
:10427700C0E0C0F0C083C082C0D075D000C000C00D
:1042870001C002C003C004C005C006C00790B1A2A8
:10429700E4F012359F5391EF90E65F7408F0D00772
:1042A700D006D005D004D003D002D001D000D0D0A2
:0942B700D082D083D0F0D0E032B7
:014775003211
:014776003210
:01477700320F
:01477800320E
:01477900320D
:01477A00320C
:01477B00320B
:01477C00320A
:01477D003209
:01477E003208
:01477F003207
:10465900C0E0C083C08290E66574FFF05391EF908B
:0C466900E6637401F0D082D083D0E03210
:014780003206
:014781003205
:014782003204
:014783003203
:014784003202
:014785003201
:014786003200
:0147870032FF
:0147880032FE
:0147890032FD
:01478A0032FC
:01478B0032FB
:01478C0032FA
:01478D0032F9
:01478E0032F8
:01478F0032F7
:1037C500C0E0C083C082200E2990E6F574FFF000AA
:1037D500000090E6CEF000000075BB0600000090EA
:1037E500B1A2E4F05391BF00000090E66104F0003F
:0937F5000000D082D083D0E03244
:10467500C0E0C083C0825391BF00000090E6617422
:0946850002F0D082D083D0E032B3
:10403A00AB07AA06E4FC90B1A1E06011EAFF7E009A
:10404A000CEE24D7F582E434B0F583EFF0AE040C1D
:10405A0074D72EF582E434B0F583EBF0AE040C7419
:10406A00D72EF582E434B0F583EDF090B19EE0C32B
:10407A0013FFAE04AD067AB07BD7124398BF080A85
:0B408A0090B19EE0C313FF1244972288
:1041980090B0D1EEF0A3EFF0A3EDF0A3EAF0A3EB1B
:1041A800F0E4A3F090B0D3E0FF90B0D6E0FDC39F59
:1041B800502890B0D1E475F00112282DAFF0FE9090
:1041C800B0D4E0FAA3E02DF582E43AF583E0FD12DD
:0B41D800403A90B0D6E004F080CA220C
:103B660090B0D1EEF0A3EFF0A3EDF0A3EAF0A3EB53
:103B7600F0E4A3F0A3F090B1A1E0601890B0D1E01A
:103B8600FF90B0D6E0FE04F074D82EF582E434B08F
:103B9600F583EFF090B0D2E0FF90B0D6E0FE04F0EF
:103BA60074D82EF582E434B0F583EFF090B19EE040
:103BB600C313FF90B0D6E0FD7AB07BD8124398BF0E
:103BC600081590B19EE0C313FF90B0D3E0FDA3E0CB
:103BD600FAA3E0FB024505E490B0D6F090B0D3E03E
:103BE600FF90B0D6E0C39F501AE0FF90B0D4E0FC3F
:103BF600A3E02FF582E43CF583EFF090B0D6E00425
:043C0600F080D9224F
:10409500C20D90B19EE090B0FCF090B1A1E090B05F
:1040A500FDF090E678E05410C4540F44A290B19E00
:1040B500F090B1A17401F07AB07BFEFD7F087E001F
:1040C500123B6690B0FEE090B19FB402057402F019
:1040D50080037401F090B0FDE090B1A1F090B0FCC8
:0A40E500E090B19EF0D20DA20D2272
:10456C0090B09974E7F0A37480F090B0C774E7F042
:10457C00A374C0F090B0C5E4F0A37440F0E490B024
:10458C009BF090E68DF090E65F7404F07408F022D6
:10468E0012473DE490B09FF0A3F0A3F0A3F0A3F087
:09469E0090B0C4F090B09EF0222F
:103EDA0090B09BE0B4043490B09FE0602E24FA5076
:103EEA0008601724FE6013801C90B0A3E0B410058C
:103EFA001238008016123000801112468E90B09E41
:103F0A007408F0800690B09E7402F090B09EE06053
:103F1A003024FC24FD502A800090B0A17407F09050
:103F2A00B09EE090B0A4F090B0A27402F090B09C61
:103F3A0014F0E490B09EF0A3F0A3F090B09B740547
:0C3F4A00F090B09BE0B40503122F0122A0
:10359F0090B09BE014602C147002C193240260025F
:1035AF00C1A37E007F237DFF90B0C7E0FAA3E0F9AF
:1035BF007B01122964E490B09CF0A3F0A3F090B0CB
:1035CF009B04F090E6A1E030E102C1A990E68DE006
:1035DF00FF90B09DE02FF090B09CE0FFD39423407C
:1035EF0002C18290E68DE0FD7C00C004C00590B062
:1035FF0099E0FCA3E0AA04F97B01C002C001EF75BA
:10360F00F023A424A1F974B035F0A801FC7D01D0FA
:10361F0001D002D007D00612277790E68DE0FF90F9
:10362F00B09CE02FF0A3E0FFC39402405090B0A2F3
:10363F00E0FE2402FDE433FCEFFB7A00C3ED9B7444
:10364F0080F86C984007EE14D394204002802490A9
:10365F00B0A2E02402FFE433FEEFB5031EEEB50285
:10366F001A90B09CE0FFA3E0B5070890B09B7402DE
:10367F00F0801190B09E7405F0801F8000E490E6FA
:10368F008DF08016E490B0A0F0A3E090B09FF09082
:10369F00B09B800390B09E7404F090B09EE0600DDC
:0E36AF0090B09B7408F07D017F811245EE22E1
:102F010090B09BE07002E1E024FA6022147002E1CB
:102F1100CF24026002E1DA90E6A2E030E102E1E0D2
:102F210090B09B7406F0A3E02403F0E4A3F090E6D4
:102F3100A2E030E102E1E090B09DE0FF90B09CE0C2
:102F4100C39FFFE49400FEC390B0C6E09F90B0C55C
:102F5100E09E5028E0FEA3E0FFA3E0FCA3E0F87DA3
:102F6100017B017AB079A112277790B0C6E0FF907A
:102F7100B09DE02FF090E68FEFF0806390B09B74EE
:102F810007F090B09DE0FF90B09CE0C39FFFE494F8
:102F910000FE90B0C7E0FCA3E0F87D017B017AB0B0
:102FA10079A112277790B09DE0FF90B09CE0C39F7C
:102FB100FFA3E02FF090B09CE0FFA3E0FEB5070671
:102FC10090E68FF0800890B09E7405F08011E49037
:102FD100B09BF090E68DF0800690B09E7404F09066
:102FE100B09EE0600D90B09B7408F07D017F0112EE
:032FF10045EE2288
:10236500D20090B18B122843EA54E07002C1A47BDD
:10237500017A00798090B0C912284C90B0C9122812
:1023850043A801AC02AD0390B18B1228437E007FB8
:102395001212277790B0C912284390B18B12284C9E
:1023A50090B0CAE475F01212281790B0C9122843EC
:1023B500A801AC02AD0390B1971228437E007F0AB5
:1023C50012277790B0C912284390B19712284C90E4
:1023D500B0CAE475F00A12281790B1881228439004
:1023E500B0CF12284C90B0C9122843A801AC02AD59
:1023F5000390B0CF1228437E007F0912277790B053
:10240500C912284390B18812284C90B0CAE475F0DF
:102415000912281790B0CF122843E92409F9E43AA4
:10242500FA90B0CC12284CE490B0DBF090B0CF120B
:1024350028439000041227B6FF90B0DBE0C39F400D
:102445000281E490B0CC12284390B0D212284C906F
:10245500B0C9122843A801AC02AD0390B0D212282E
:10246500437E007F0912277790B0CAE475F0091200
:10247500281790B0CDE475F009122817E490B0DC68
:10248500F090B0D21228439000041227B6FF90B006
:10249500DCE0C39F504190B0CC12284390B0D512D8
:1024A500284C90B0C9122843A801AC02AD0390B0E6
:1024B500D51228437E007F0712277790B0CAE475AE
:1024C500F00712281790B0CDE475F0071228179081
:1024D500B0DCE004F080AA90B0DBE004F08131903C
:1024E500B19412284390B0CF12284C90B0C912284D
:1024F50043A801AC02AD0390B0CF1228437E007F04
:102505000912277790B0C912284390B19412284C2C
:1025150090B0CAE475F00912281790B0CF1228437D
:10252500E92409F9E43AFA90B0CC12284CE490B0C9
:10253500DBF090B0CF1228439000041227B6FF902D
:10254500B0DBE0C39F4002A1EA90B0CC12284390D3
:10255500B0D212284C90B0C9122843A801AC02ADE4
:102565000390B0D21228437E007F0912277790B0DE
:10257500CAE475F00912281790B0CDE475F0091278
:102585002817E490B0DCF090B0D2122843900004F4
:102595001227B6FF90B0DCE0C39F504190B0CC123B
:1025A500284390B0D512284C90B0C9122843A801F1
:1025B500AC02AD0390B0D51228437E007F071227E9
:1025C5007790B0CAE475F00712281790B0CDE4757E
:1025D500F00712281790B0DCE004F080AA90B0DB79
:1025E500E004F0A13790B19A12284390B0CC12289C
:1025F5004C90B0C912284390B19A12284C80419052
:10260500B0D812284312279DFF60437E0090B0C9C1
:10261500122843A801AC02AD0390B0CC1228431296
:10262500277790B0D812284312279DFF7E0090B0DF
:10263500CAEE8FF012281790B0CDEE8FF012281742
:1026450090B0CC12284390B0D812284C80B17B01B1
:102655007A00798090B0C912284C7BFF7A107900F6
:1026650090B0CC12284C90B0CC122843C39010BC2B
:10267500E99582EA9583502790B0C912284312271D
:102685009D65E06004C200801690B0CAE475F00153
:1026950012281790B0CDE475F00112281780C7A253
:0226A500002211
:103AB800C20CC209C20BC20AD20E7BFF7A1079006F
:103AC80090B18B12284C7A10791490B19712284C27
:103AD8007A10792090B18812284C7A10794890B1E0
:103AE8009412284C7A10796A90B19A12284C123C98
:103AF800AD122365400280FED2E843D82090E668E4
:103B0800E04409F090E65CE0443DF0D2AF90E680F6
:103B1800E020E105D20012459C90E680E054F7F0E1
:103B2800538EF8C20C300A05123228C20A300C290A
:103B3800122FFE5024C20C12462520091690E68248
:103B4800E030E704E020E1EF90E682E030E604E0D0
:0E3B580020E0E41239D31237FE1238F080C795
:1032280090E6B9E012285532BB0033350133B403B8
:10323800324B0632B60832B10932A70A32AC0B005B
:1032480000341312476A4002811F90E6BBE024FE57
:10325800601814602924FD600C1460132406703D66
:1032680090B18B800D90B197800890B18E800390BB
:10327800B191122843EA90E6B3F0AF01801890E6C6
:10328800BAE0FF1244CFAA06A9077B01EA494B60BE
:103298000CEE90E6B3F0EF90E6B4F0811F811812BF
:1032A8004717811F12474F811F122FF4811F1247A2
:1032B80003811F12476C4002811F90E6B8E0247F0B
:1032C800601514601924027062A209E43325E0FF36
:1032D800A20BE4334F8041E490E740F0803F90E652
:1032E800BCE0547EFF7E00E0D394807C0040047DE7
:1032F8000180027D00EC4EFEED4F244FF5827446AE
:103308003EF583E493FF3395E0FEEF24A1FFEE340E
:10331800E68F82F583E0540190E740F0E4A3F09053
:10332800E68AF090E68B7402F0811F811812476ECE
:103338004002811F90E6B8E024FE60132402600278
:10334800811F90E6BAE0B40104C209811F81189078
:10335800E6BAE0705590E6BCE0547EFF7E00E0D30C
:1033680094807C0040047D0180027D00EC4EFEEDDF
:103378004F244FF58274463EF583E493FF3395E07E
:10338800FEEF24A1FFEE34E68F82F583E054FEF0D1
:1033980090E6BCE05480131313541FFFE0540F2F22
:1033A80090E683F0E04420F0806D8064124770500E
:1033B8006690E6B8E024FE60192402705A90E6BAD6
:1033C800E0B40104D209804F90E6BAE06402604795
:1033D800803E90E6BCE0547EFF7E00E0D394807C83
:1033E8000040047D0180027D00EC4EFEED4F244F2D
:1033F800F58274463EF583E493FF3395E0FEEF24AF
:10340800A1FFEE34E68F82F58380081229A75007C2
:0F34180090E6A0E04401F090E6A0E04480F022AE
:030033000247661B
:0447660053D8EF3203
:10472B000000000206000105000306000405000658
:02473B0000007C
:0643DF007EB07FA1C200C8
:1043E500300004E4FD80088F828E83A3A3E0FDE402
:1043F500FC8F828E83A3E014FBECC39B50178F8246
:104405008E83A3A3A3E5822CF582E43583F583E0AF
:0C4415002DFD0C80DC90B092E06DFF22C9
:1030000078CA7CB07D017BFF7A47792B7E007F12E6
:103010001227777A0890B09FE0FFD394055007A35A
:10302000E0FE9402400890B09E7402F0FF2290B03F
:10303000A2E090B0DCF090B0A4E0FD543F90B0DD91
:10304000F0ED54C0A3F0EF75F003A424CAF582E4B8
:1030500034B0F583E5822EF582E43583F583E0B460
:103060000700400221FA90306C25E0734100017A9C
:103070002114219901CD21D321C290B0DCE0FFD3EE
:1030800094034041A3E0FED394004039EF24FD6E49
:103090007033A3E0702F1243DF90B0C4EFF090B014
:1030A000DCE0FD24A3F582E434B0F583EFF090B0CA
:1030B000A3E0C313FF7AB07BA4124398AA07E4905D
:1030C000B09CF021F290B09E7402F021F290B0DC3E
:1030D000E064037037A3E07033A3E0702F1243DF86
:1030E00090B0C4EFF090B0DCE0FD24A3F582E434AE
:1030F000B0F583EFF090B0A3E0C313FF7AB07BA4E8
:10310000124398AA07E490B09CF0800690B09E7499
:1031100002F021F290B0DCE06403707590B0A4E09E
:10312000543F4480F01243DF90B0C4EFF090B0A25F
:10313000E024A3F582E434B0F583EFF090B0A4E08E
:10314000543F0490B09CF0FE90B0A3E0C313FF90F6
:10315000B0A2E0FDEE04FB90B0E274B0F0A374A462
:10316000F0124350AA0790B09CE00490B0A2F07E09
:10317000B07FA1D2001243E590B0A2E024A3F58273
:10318000E434B0F583E06F600E90B09E7403F0807D
:103190000690B09E7402F0805990B0DCE0B4011A41
:1031A00090B09C7401F090B0A3E0C313FF7AB07BA1
:1031B000A47D01124505AA07800690B09E7402F016
:1031C000803090B09CE00490B0A2F090B09B740569
:1031D000F0801F90B0A17407F090B09EE090B0A472
:1031E000F090B09C7401F090B0A204F090B09B7489
:1031F00005F090B0A0E004F0800690B09E7407F057
:10320000EA24F9600F14601A2402701090B09E74C2
:1032100009F0800E90B09E7401F0800690B09E740C
:0832200007F090B09EE0FF22D0
:0647600030303030300063
:103E5A00E490B001F0FE7F97FD7B017AB0790212FF
:103E6A002964E490B062F0A3740FF090B19FE090DF
:103E7A00B064F0E4A3F0A3F078677CB07D017BFF27
:103E8A007A477960122947E490B06DF0A37410F074
:103E9A00A37420F0E4A3F0A37430F090B09274FFFE
:103EAA00F0E4A3F0A3F090E6D0E0FE90E6D1E07C47
:103EBA00002400FFEC3ECF24FFCF34FFCF2400CFF5
:103ECA00340090B095F0A3EFF0E4A3F0A3F0FF2242
:1038000090B09FE0FF24FD6008240224FC50098052
:103810005AE490B0A4F08053EF90B001B40106E0F8
:103820004408F08004E054F7F078227CB07D017BFE
:10383000017AB079A47E007F2012277790B001E052
:103840004401F07B017AB0792290B0CE12284C90DE
:10385000B0D17420F07AB07942A312284C90B0D540
:103860007420F07AB07902FD122C847E007F207DD6
:10387000AA7B017AB079A412296490B09FE024FE5B
:10388000603914601D14603314605124047055783D
:10389000A57CB07D017B017AB079027E007F201289
:1038A000277790B001E090B0A4F090B022E0543FB0
:1038B0000490B09CF00490B0A2801890B0A174075E
:1038C000F090B09EE090B0A4F090B09C7401F090A5
:1038D000B0A204F090B09B7405F0800E90B09E747E
:1038E00002F0800690B09E7407F090B09EE0FF2238
:102C840090B0CA12284C90B0CDEDF0D394204003FC
:102C94007420F090B001E020E002E10090B0CE1288
:102CA400284312279D543FFF90B0D6F090B0D1E056
:102CB400FEEFD39E400590B0D6EEF09000011227AF
:102CC400B66407601290B0CDE0FF7E007D0090B046
:102CD400CA12284312296490B0CE122843900001EE
:102CE4001227B61228552D4E002DFC012E14022D4C
:102CF4007C032EC0042EC0052EC0062EC0072D2A2C
:102D0400082D33092E48812E51822E5A832E388461
:102D14002E63852E6A8C2E6F8D2E748E2EA28F2E8E
:102D24008C9000002EBA90B0CA122843E4C10F90D0
:102D3400B0CDE0FF7E0090B0CA122843A801AC02D7
:102D4400AD0390B0D2122843A1F790B0D6E0FF7E35
:102D54000090B0CE122843E92402F9E43AFAC00301
:102D6400C002C00190B0CA122843A801AC02AD034E
:102D7400D001D002D003807B90B0D6E024FE60184E
:102D840024FE702C90B0CA122843900003E412274A
:102D9400F5900002E41227F590B064E0FF90B0CA09
:102DA400122843900001EF1227F590B063E0805B96
:102DB40090B0CE1228439000021227B624FE601D64
:102DC400046002C1C090B0CA122843A801AC02AD8D
:102DD400037B017AB079627E007F0C801690B0CAC2
:102DE400122843A801AC02AD037B017AB0796E7E50
:102DF400007F04122777C1C090B001E030E302C124
:102E0400C0123E5A90B0CA122843EF1227E3C1C041
:102E14007B017AB0797290B0DA12284C90B0CDE090
:102E2400FF90B0DDE4F0A3EFF090B0CA1228431293
:102E34003FD2C1C01236BD5002C1C090B001E044BF
:102E440040F0807890B001E054FDF0806F90B001C4
:102E5400E054BFF0806690B001E054F7F0805DE488
:102E640090B001F0805643B110805153B1EF804CC3
:102E740090B0CE1228439000021227B6600543B1E9
:102E840080803953B17F803453800F90B0CE1228A4
:102E9400439000021227B6F454F04280801E90B092
:102EA400CE1228439000021227B6600543800480A6
:102EB4000B5380FB800690B0017420F090B0CE12CA
:102EC40028439000011227B66409602990B0D5E028
:102ED400FF90B0D1E0FEC39F5004AF0680007E0097
:102EE40090B0D2122843A801AC02AD0390B0CE1228
:0D2EF400284312277790B001E054FEF02231
:034759007402F0F7
:04475C000000002237
:1041E30012475C90E6047480F012475C12475974DE
:1041F30004F012475C7406F012475C7408F012472F
:104203005CE4F012475C90E61A744DF012475C9040
:10421300E6F37460F012475C90E624124759E49089
:0B422300E625F012475C90E6E3F02275
:10445E0012475C90E61074A0F012475C90E611F0E3
:10446E0012475C90E6127420F012475C90E613F04F
:10447E0012475C90E6157460F012475C90E6147477
:09448E00E0F090E6627401F022F6
:10453A0012475C90E668E04403F012475C5391BF6F
:10454A0012475C90E6617402F012475C90E66004E0
:10455A00F012475C43E80412475C90E65EE0440CC4
:02456A00F0223D
:103D3F006080B1010A0700000000000701030000C6
:103D4F0000000000F7F6F7F7F7F7F7F712363236FD
:103D5F000236123F0803013F01010107010204016E
:103D6F0000000000FFFDFFFFFFFFFFF70909121220
:103D7F00002D363F0E03013F0101360701000201FE
:103D8F0000001100FFFEFEFEFFFFFFF700091212F9
:103D9F00002D123F0803013F01010107010200013D
:103DAF0000000000FFFDFFFFFFFFFFF709091212E0
:0E3DBF00002D363F47B181C00000F706E41129
:103F560090E60174CEF090E6F574FFF090B181E042
:103F660090E6F3F090B182E090E6C3F090B183E082
:103F760090E6C1F090B184E090E6C2F090B186E0A0
:103F860090E6C0F090B187E090E6F4F075AF077464
:103F9600B1F59A7401F59B759DE4E4F59EFF90E6F4
:103FA6007BE090E67CF00FEFB480F3E490E671F0EE
:103FB600F5B490E672E0547FF053B67F000000E45B
:0C3FC60090E6C4F000000090E6C5F02278
:101000001201000200000040050F35F1020001024C
:021010000301DA
:0A1014000A0600020000004001007F
:1010200009022700010100A0320904000003FF00AB
:10103000000007050102000200070581020002000E
:071040000705860200020013
:1010480009022000010100A0320904000002FF008B
:10105800000007050102400000070581024000006A
:10106A00040309040C03500061006B006F006E005A
:10107A002C0346003100330035002D005500530083
:10108A0042002000460069006C006D0020005300F9
:10109A00630061006E006E00650072001603300086
:1010AA00310030002D003200300033002D003000B6
:0410BA0034000000FE
:1039D30090E682E030E004E020E60B90E682E030FF
:1039E300E119E030E71590E680E04401F07F147EB2
:0C39F300001242C090E680E054FEF0227A
:10459C0090E680E0300005440AF080034408F07F88
:1045AC00B87E0B1242C090E65D74FFF090E65FF0AF
:0B45BC005391EF90E680E054F7F022EE
:1042C00090B0D1EEF0A3EFF090E600E05418700D3E
:1042D00090B0D1E0C313F0A3E013F0801790E60094
:1042E000E05418FFBF100D90B0D2E025E0F090B080
:1042F000D1E033F090B0D174FFF5F012282D45F0E5
:08430000600512461480ED2255
:10473D00E490B0F7F0A3F090B0FB7404F0D2E9D29E
:02474D00AF2299
:10449700AD0790E678E020E6F9C2E990E678E044D7
:1044A70080F0ED25E090E679F090E678E030E0F9ED
:1044B70090E678E04440F090E678E020E6F990E670
:0844C70078E030E1D6D2E922D1
:10430800AC0790E678E020E6F990B0F7E0703790D7
:10431800E678E04480F0EC25E090E679F090B0F2A1
:10432800EDF0AF03A9077B01A312284CE490B0F687
:10433800F0A304F090B0FAECF0E490B0F8F090B08C
:08434800FB7404F0D322C32230
:10442100AC0790E678E020E6F990B0F7E0702C90C8
:10443100E678E04480F0AF04EF25E0440190E679AE
:10444100F090B0F2EDF0AF03A9077B01A312284C65
:0D445100E490B0F6F0A37403F0D322C32270
:103C0A0090B0F8E0700281ACC2E990B0F8E024FE0E
:103C1A0060281460512402600281AA90B0F9E0146D
:103C2A00F0707D90E678E04440F090B0F87402F0CD
:103C3A0090B0FBE090B0F9F0806690E678E020E67C
:103C4A005F90B0F9E014F0705790E678E04480F0A5
:103C5A0090B0FAE025E090E679F090B0F87403F0BD
:103C6A00A374FFF0803A90B0F9E014F0703290B08B
:103C7A00F312284390B0F6E0FF04F08F82758300B8
:103C8A001227B690E679F090B0F974FFF090B0F28E
:103C9A00E0FF90B0F6E0B50707A37405F0E4A3F0DF
:033CAA00D2E9223A
:03004B0002342755
:10342700C0E0C0F0C083C082C0D075D000C000C06B
:1034370001C002C003C00790E678E030E20890B010
:10344700F77406F0A18790E678E020E14390B0F7A3
:10345700E06402603B90B0FBE0D3944090B0F8404A
:1034670011E4F090B0F77407F090E678E04440F08C
:10347700A1877401F090B0F6E4F090B0FBE075F02E
:1034870003A4F0E090B0F9F090B0F77401F0A187D1
:1034970090B0F7E024FE7002A12B14605824FE7050
:1034A70002A17924FC7002A18224086002A18790FE
:1034B700B0F8E0B4030A90B0FBE090B0F9F0A18750
:1034C70090B0F8E06002A18790B0F312284390B063
:1034D700F6E0FF04F08F827583001227B690E67935
:1034E700F090B0F2E0FF90B0F6E06F6002A187A322
:1034F7007405F0A18790E679E0FF90B0F3122843B6
:1035070090B0F6E0F582758300EF1227F590B0F7DB
:103517007402F090B0F2E06401706590E678E044E0
:1035270020F0805C90B0F2E024FEFF90B0F6E0B5AA
:10353700070790E678E04420F090B0F2E014FF909F
:10354700B0F6E0B5070C90E678E04440F090B0F7AD
:10355700E4F090E679E0FF90B0F312284390B0F6DC
:10356700E0F582758300EF1227F590B0F6E004F0DE
:10357700800E90E678E04440F0800090B0F7E4F0E9
:103587005391DFD007D003D002D001D000D0D0D0E4
:0835970082D083D0F0D0E032B5
:1044CF0090B0C9EFF090B19A122843AE02AF018FAE
:1044DF00828E83A3E06403701990B0C9E0FD14F0DD
:1044EF00ED7001228F828E83E07C002FFFEC3EFE69
:0644FF0080DDE4FEFF2257
:1045050012442174FFFFFE90B0F7E024FA60121404
:104515006007240770137F0822E490B0F7F07F0747
:1045250022E490B0F7F07F0622EF1F70011EEF4ED8
:0545350070D57F062295
:1043980012430874FF90B0E4F0A3F090B0F7E02463
:1043A800FA6012146007240770137F0822E490B0A3
:1043B800F7F07F0722E490B0F7F07F0622123C0A5C
:1043C80090B0E474FFF5F012281790B0E4E07002A2
:0743D800A3E070C77F06227D
:1043500090B0DFEFF090B0E1EBF0ED600BE06008C3
:10436000A3E0FEA3E04E70037F082290B0DFE0FFE1
:1043700090B0E2E0FAA3E0FB124398EF640860011A
:104380002212461490B0DFE0FF90B0E1E0FDA3E020
:08439000FAA3E0FB124505222F
:104614007400F58690FDA57C05A3E582458370F9B9
:014624002273
:1046250090E682E044C0F090E681F0438701000007
:04463500000000225F
:03004300023A007E
:03005300023A006E
:103A00000246A7000246ED000246D7000246BF006C
:103A1000024147000240EF000239FF0002477200F6
:103A2000024773000247740002422E0002427700F0
:103A30000247750002477600024777000247780088
:103A4000024779000247720002477A0002477B0072
:103A500002477C0002477D0002477E0002477F004C
:103A60000246590002477200024772000247720084
:103A7000024780000247810002478200024783001C
:103A800002478400024785000247860002478700FC
:103A9000024788000247890002478A0002478B00DC
:103AA00002478C0002478D0002478E0002478F00BC
:083AB0000237C5000246750053
:1045EE00EF7E006401600B0E64806006EF540F03D3
:1045FE0004FE90E6A1EE2582F582E0BD01044401A1
:06460E00800255FEF022BF
:03000000023DCEF0
:0C3DCE00787FE4F6D8FD758121023E15D7
:1026A700E709F608DFFA8046E709F208DFFA803E15
:1026B70088828C83E709F0A3DFFA8032E309F60802
:1026C700DFFA8078E309F208DFFA807088828C836A
:1026D700E309F0A3DFFA806489828A83E0A3F6081E
:1026E700DFFA805889828A83E0A3F208DFFA804CF8
:1026F70080D280FA80C680D4806980F280338010CF
:1027070080A680EA809A80A880DA80E280CA803337
:1027170089828A83ECFAE493A3C8C582C8CCC583AF
:10272700CCF0A3C8C582C8CCC583CCDFE9DEE7807F
:102737000D89828A83E493A3F608DFF9ECFAA9F0FE
:10274700EDFB2289828A83ECFAE0A3C8C582C8CC54
:10275700C583CCF0A3C8C582C8CCC583CCDFEADE6D
:10276700E880DB89828A83E493A3F208DFF980CCCF
:1027770088F0EF60010E4E60C388F0ED2402B404C8
:102787000050B9F582EB2402B4040050AF2323456F
:0627970082239026F77377
:10279D00BB010689828A83E0225002E722BBFE023A
:0927AD00E32289828A83E493226D
:1027B600BB010CE58229F582E5833AF583E02250D8
:1027C60006E92582F8E622BBFE06E92582F8E22222
:0D27D600E58229F582E5833AF583E493223C
:1027E300BB010689828A83F0225002F722BBFE01D5
:0227F300F322CF
:1027F500F8BB010DE58229F582E5833AF583E8F01A
:10280500225006E92582C8F622BBFE05E92582C8C5
:02281500F222AD
:10281700C5F0F8A3E028F0C5F0F8E582158270024C
:062827001583E038F022E9
:10282D00A3F8E0C5F025F0F0E5821582700215835E
:06283D00E0C838F0E822BB
:09284300E0FBA3E0FAA3E0F92296
:09284C00EBF0A3EAF0A3E9F0228D
:10285500D083D082F8E4937012740193700DA3A312
:1028650093F8740193F5828883E473740293686026
:06287500EFA3A3A380DF26
:10200000E50824CDF582E434B0F583E0050822909C
:10201000B0CA30070390B0CDE475F00112299002E8
:10202000279D2000E97F2ED2008018EF540F2490C6
:10203000D43440D4FF30040BEF24BFB41A00500353
:102040002461FFE50960021509050CE50C70020525
:102050000B30070E90B0CAE475F001122990EF0220
:1020600027E30245C77403D2078003E4C207F508DB
:1020700090B0CA12284CE4F509F50BF50CE509609F
:10208000077F2012204380F5750AFFC201C200C2FB
:1020900002C203C205C206C20812200FFF700D3033
:1020A00007057F00122054AF0CAE0B22B4255FC28F
:1020B000D5C20412200FFF24D0B40A00501A75F0C4
:1020C0000A780930D50508B6FF0106C6A426F62011
:1020D000D5047002D20380D924CFB41A00EF500483
:1020E000C2E5D204022255D20180C6D20080C0D2FD
:1020F0000280BCD2D580BAD20580B47F20122043A2
:102100002002077401B5090040F1122000FF1220DF
:102110004302207DD208D2068095122000FB1220B7
:1021200000FA122000F94A4B700679267A237BFFC9
:1021300020022EE509602A7E008E82758300122718
:10214000B660060EEE650A70F0C2D5EBC0E0EAC0DC
:10215000E0E9C0E0EE12229CD0E0F9D0E0FAD0E055
:10216000FB12279DFF60AAEBC0E0EAC0E0E9C0E0F7
:10217000122043D0E02401F9D0E03400FAD0E0FB93
:10218000E50A0460DCD50AD980877BFF7A2279983A
:10219000D202809C791080027908C206C2088008A9
:1021A000D2D5790A8004790AC2D5E50A047002F50D
:1021B0000AE4FAFDFEFF122000FC7B082001131246
:1021C0002000FD7B1030000A122000FE122000FFCC
:1021D0007B20EC3382D592D55013C3E43000069FA8
:1021E000FFE49EFEE42001039DFDE49CFCE4CBF8AB
:1021F000C201EC700CCFCECDCCE824F8F870F3809F
:1022000017C3EF33FFEE33FEED33FDEC33FCEB335E
:10221000FB994002FB0FD8E9EB300105F8D0E0C490
:1022200048B201C0E00AEC4D4E4F78207B0070C2EE
:10223000EAB50A0040BCC0E012229ED0F0D0E020F7
:102240000104C4C0E0C4B201C0F012202CD0F0D50B
:10225000F0EB02207D122855211A5321945820EBCF
:102260004C20E74221984F21A04421A0492100435E
:0822700021A655218A46218AAE
:1022780045218A4723465020EF2D20F32E21162B87
:1022880020F723211420232F2A20AF480000210EF5
:102298003F3F3F00790AA2D5200314300509B91041
:1022A800020404B9080104A2D52006025001042042
:1022B80002689202B509005034C0E07F203003194B
:1022C8007F30A20272067205500F1222F5C202C2B6
:1022D80006C205C2087F30800F300503E9C0E0124E
:1022E8002043300503D0E0F9D0E0B509CC3005171C
:1022F8007F30B9100C1220437F583004077F788054
:1023080003B908031220433002057F2D0220437FC2
:10231800202008F87F2B2006F322920280CF286E17
:10232800756C6C2900D2011220003001F8C20178C6
:102338000930D50108F60220AF2D50434958122024
:10234800002403B405004001E49023419312203493
:0D235800743A122034D20375090402219456
:10287B00E709F60870FA8046E709F20870FA803E1D
:10288B0088828C83E709F0A370FA807EE309F6084F
:10289B0070FA8076E309F20870FA806E88828C8376
:1028AB00E309F0A370FA806289828A83E0A3F608B9
:1028BB0070FA805689828A83E0A3F20870FA804A04
:1028CB0080D280FA80C680D4806580F280318010FF
:1028DB0080A680EA809A80A880DA80E280CA803164
:1028EB0089828A83ECFAE493A3C8C582C8CCC583DA
:1028FB00CCF0A3C8C582C8CCC583CC70E9800D8948
:10290B00828A83E493A3F60870F9ECFAA9F0EDFB45
:10291B002289828A83ECFAE0A3C8C582C8CCC5831E
:10292B00CCF0A3C8C582C8CCC583CC70EA80DD8946
:10293B00828A83E493A3F20870F980CE88F0ED24A9
:10294B0002B4040050C4F582EB2402B4040050BA64
:09295B0023234582239028CB734D
:103FD20090B0D7EBF0A3EAF0A3E9F0E490B0DFF001
:103FE200A3F090B0DD74FFF5F012282D45F0603C8F
:103FF20090B0DAE0FBA3E0FAA3E0F912279DFF906C
:10400200B0D7E0FBA3E0FAA3E0F990B0DFE475F0EB
:104012000112282D85F082F583EF1227F5EF60C299
:1040220090B0DBE475F00112281780B690B0D7E0AB
:08403200FBA3E0FAA3E0F92270
:10296400EF4E6012EF60010EEDBB010B89828A838A
:10297400F0A3DFFCDEFA2289F05007F709DFFCA997
:0C298400F022BBFEFCF309DFFCA9F022EE
:103DDA00023AB8E493A3F8E493A34003F68001F20D
:103DEA0008DFF48029E493A3F85407240CC8C333EA
:103DFA00C4540F4420C8834004F456800146F6DFB9
:103E0A00E4800B0102040810204080903D3FE47ECC
:103E1A00019360BCA3FF543F30E509541FFEE493AD
:103E2A00A360010ECF54C025E060A840B8E493A374
:103E3A00FAE493A3F8E493A3C8C582C8CAC583CA9F
:103E4A00F0A3C8C582C8CAC583CADFE9DEE780BE57
:013DCD0000F5
:10299000F8E0FBA3A3E0F925F0F0E58215827002D0
:0729A0001583E0FA38F02274
:1045C700EFB40A07740D1245D2740A309811A899EE
:1045D700B8130CC2983098FDA899C298B811F63054
:0745E70099FDC299F599222C
:00000001FF
